{
  "_format": "hh-sol-artifact-1",
  "contractName": "ButterRouterBsc",
  "sourceName": "contracts/ButterRouterBsc.sol",
  "abi": [
    {
      "inputs": [
        {
          "internalType": "address",
          "name": "_admin",
          "type": "address"
        }
      ],
      "stateMutability": "nonpayable",
      "type": "constructor"
    },
    {
      "inputs": [],
      "name": "admin",
      "outputs": [
        {
          "internalType": "address",
          "name": "",
          "type": "address"
        }
      ],
      "stateMutability": "view",
      "type": "function"
    },
    {
      "inputs": [],
      "name": "butterCore",
      "outputs": [
        {
          "internalType": "address",
          "name": "",
          "type": "address"
        }
      ],
      "stateMutability": "view",
      "type": "function"
    },
    {
      "inputs": [
        {
          "components": [
            {
              "internalType": "uint256[]",
              "name": "amountInArr",
              "type": "uint256[]"
            },
            {
              "internalType": "bytes[]",
              "name": "paramsArr",
              "type": "bytes[]"
            },
            {
              "internalType": "uint32[]",
              "name": "routerIndex",
              "type": "uint32[]"
            },
            {
              "internalType": "address[2]",
              "name": "inputOutAddre",
              "type": "address[2]"
            }
          ],
          "internalType": "struct ButterCore.AccessParams",
          "name": "swapData",
          "type": "tuple"
        },
        {
          "internalType": "bytes",
          "name": "mosData",
          "type": "bytes"
        },
        {
          "internalType": "uint256",
          "name": "amount",
          "type": "uint256"
        },
        {
          "internalType": "uint256",
          "name": "toChain",
          "type": "uint256"
        },
        {
          "internalType": "bytes",
          "name": "to",
          "type": "bytes"
        }
      ],
      "name": "entrance",
      "outputs": [],
      "stateMutability": "payable",
      "type": "function"
    },
    {
      "inputs": [],
      "name": "mosAddress",
      "outputs": [
        {
          "internalType": "address",
          "name": "",
          "type": "address"
        }
      ],
      "stateMutability": "view",
      "type": "function"
    },
    {
      "inputs": [
        {
          "internalType": "address",
          "name": "_butterCore",
          "type": "address"
        }
      ],
      "name": "setButterCore",
      "outputs": [
        {
          "internalType": "bool",
          "name": "",
          "type": "bool"
        }
      ],
      "stateMutability": "nonpayable",
      "type": "function"
    },
    {
      "inputs": [
        {
          "internalType": "address",
          "name": "_mosAddress",
          "type": "address"
        }
      ],
      "name": "setMosAddress",
      "outputs": [
        {
          "internalType": "bool",
          "name": "",
          "type": "bool"
        }
      ],
      "stateMutability": "nonpayable",
      "type": "function"
    },
    {
      "stateMutability": "payable",
      "type": "receive"
    }
  ],
  "bytecode": "0x60806040523480156200001157600080fd5b5060405162002416380380620024168339818101604052810190620000379190620000e8565b806000806101000a81548173ffffffffffffffffffffffffffffffffffffffff021916908373ffffffffffffffffffffffffffffffffffffffff160217905550506200011a565b600080fd5b600073ffffffffffffffffffffffffffffffffffffffff82169050919050565b6000620000b08262000083565b9050919050565b620000c281620000a3565b8114620000ce57600080fd5b50565b600081519050620000e281620000b7565b92915050565b6000602082840312156200010157620001006200007e565b5b60006200011184828501620000d1565b91505092915050565b6122ec806200012a6000396000f3fe6080604052600436106100595760003560e01c80632b8b7b4b146100655780634bcc97da146100a25780637040d037146100be5780638cbafe0a146100fb578063bdff6d1e14610126578063f851a4401461015157610060565b3661006057005b600080fd5b34801561007157600080fd5b5061008c6004803603810190610087919061113f565b61017c565b6040516100999190611187565b60405180910390f35b6100bc60048036038101906100b791906113a2565b6102c6565b005b3480156100ca57600080fd5b506100e560048036038101906100e0919061113f565b61049f565b6040516100f29190611187565b60405180910390f35b34801561010757600080fd5b506101106105e9565b60405161011d9190611483565b60405180910390f35b34801561013257600080fd5b5061013b61060f565b6040516101489190611483565b60405180910390f35b34801561015d57600080fd5b50610166610635565b6040516101739190611483565b60405180910390f35b60008060009054906101000a900473ffffffffffffffffffffffffffffffffffffffff1673ffffffffffffffffffffffffffffffffffffffff163373ffffffffffffffffffffffffffffffffffffffff161461020d576040517f08c379a0000000000000000000000000000000000000000000000000000000008152600401610204906114fb565b60405180910390fd5b600073ffffffffffffffffffffffffffffffffffffffff168273ffffffffffffffffffffffffffffffffffffffff160361027c576040517f08c379a000000000000000000000000000000000000000000000000000000000815260040161027390611567565b60405180910390fd5b81600160006101000a81548173ffffffffffffffffffffffffffffffffffffffff021916908373ffffffffffffffffffffffffffffffffffffffff16021790555060019050919050565b60008311610309576040517f08c379a0000000000000000000000000000000000000000000000000000000008152600401610300906115d3565b60405180910390fd5b600073ffffffffffffffffffffffffffffffffffffffff1686606001600060028110610338576103376115f3565b5b60200201602081019061034b919061113f565b73ffffffffffffffffffffffffffffffffffffffff1603610407578234146103a8576040517f08c379a000000000000000000000000000000000000000000000000000000000815260040161039f9061166e565b60405180910390fd5b610402866103b590611ab8565b86868080601f016020809104026020016040519081016040528093929190818152602001838380828437600081840152601f19601f82011690508083019250505050505050858585610659565b610497565b61043c86606001600060028110610421576104206115f3565b5b602002016020810190610434919061113f565b333086610e5e565b6104968661044990611ab8565b86868080601f016020809104026020016040519081016040528093929190818152602001838380828437600081840152601f19601f82011690508083019250505050505050858585610659565b5b505050505050565b60008060009054906101000a900473ffffffffffffffffffffffffffffffffffffffff1673ffffffffffffffffffffffffffffffffffffffff163373ffffffffffffffffffffffffffffffffffffffff1614610530576040517f08c379a0000000000000000000000000000000000000000000000000000000008152600401610527906114fb565b60405180910390fd5b600073ffffffffffffffffffffffffffffffffffffffff168273ffffffffffffffffffffffffffffffffffffffff160361059f576040517f08c379a000000000000000000000000000000000000000000000000000000000815260040161059690611567565b60405180910390fd5b81600260006101000a81548173ffffffffffffffffffffffffffffffffffffffff021916908373ffffffffffffffffffffffffffffffffffffffff16021790555060019050919050565b600160009054906101000a900473ffffffffffffffffffffffffffffffffffffffff1681565b600260009054906101000a900473ffffffffffffffffffffffffffffffffffffffff1681565b60008054906101000a900473ffffffffffffffffffffffffffffffffffffffff1681565b600080600073ffffffffffffffffffffffffffffffffffffffff16876060015160016002811061068c5761068b6115f3565b5b602002015173ffffffffffffffffffffffffffffffffffffffff160361082c574791506106f887606001516000600281106106ca576106c96115f3565b5b6020020151600260009054906101000a900473ffffffffffffffffffffffffffffffffffffffff1687610f97565b600260009054906101000a900473ffffffffffffffffffffffffffffffffffffffff1673ffffffffffffffffffffffffffffffffffffffff166342b28308886040518263ffffffff1660e01b81526004016107539190611ea4565b600060405180830381600087803b15801561076d57600080fd5b505af1158015610781573d6000803e3d6000fd5b5050505081476107919190611ef5565b9050600160009054906101000a900473ffffffffffffffffffffffffffffffffffffffff1673ffffffffffffffffffffffffffffffffffffffff1663d5351aaa823386888b6040518663ffffffff1660e01b81526004016107f59493929190611f82565b6000604051808303818588803b15801561080e57600080fd5b505af1158015610822573d6000803e3d6000fd5b5050505050610e55565b600073ffffffffffffffffffffffffffffffffffffffff16876060015160006002811061085c5761085b6115f3565b5b602002015173ffffffffffffffffffffffffffffffffffffffff1603610b46578660600151600160028110610894576108936115f3565b5b602002015173ffffffffffffffffffffffffffffffffffffffff166370a08231306040518263ffffffff1660e01b81526004016108d19190611483565b602060405180830381865afa1580156108ee573d6000803e3d6000fd5b505050506040513d601f19601f820116820180604052508101906109129190611fea565b9150600260009054906101000a900473ffffffffffffffffffffffffffffffffffffffff1673ffffffffffffffffffffffffffffffffffffffff166342b2830886896040518363ffffffff1660e01b81526004016109709190611ea4565b6000604051808303818588803b15801561098957600080fd5b505af115801561099d573d6000803e3d6000fd5b50505050508187606001516001600281106109bb576109ba6115f3565b5b602002015173ffffffffffffffffffffffffffffffffffffffff166370a08231306040518263ffffffff1660e01b81526004016109f89190611483565b602060405180830381865afa158015610a15573d6000803e3d6000fd5b505050506040513d601f19601f82011682018060405250810190610a399190611fea565b610a439190611ef5565b9050610a8e8760600151600160028110610a6057610a5f6115f3565b5b6020020151600160009054906101000a900473ffffffffffffffffffffffffffffffffffffffff1683610f97565b600160009054906101000a900473ffffffffffffffffffffffffffffffffffffffff1673ffffffffffffffffffffffffffffffffffffffff1663b899f904338960600151600160028110610ae557610ae46115f3565b5b60200201518685898c6040518763ffffffff1660e01b8152600401610b0f96959493929190612017565b600060405180830381600087803b158015610b2957600080fd5b505af1158015610b3d573d6000803e3d6000fd5b50505050610e54565b8660600151600160028110610b5e57610b5d6115f3565b5b602002015173ffffffffffffffffffffffffffffffffffffffff166370a08231306040518263ffffffff1660e01b8152600401610b9b9190611483565b602060405180830381865afa158015610bb8573d6000803e3d6000fd5b505050506040513d601f19601f82011682018060405250810190610bdc9190611fea565b9150610c278760600151600060028110610bf957610bf86115f3565b5b6020020151600160009054906101000a900473ffffffffffffffffffffffffffffffffffffffff1687610f97565b600260009054906101000a900473ffffffffffffffffffffffffffffffffffffffff1673ffffffffffffffffffffffffffffffffffffffff166342b28308886040518263ffffffff1660e01b8152600401610c829190611ea4565b600060405180830381600087803b158015610c9c57600080fd5b505af1158015610cb0573d6000803e3d6000fd5b50505050818760600151600160028110610ccd57610ccc6115f3565b5b602002015173ffffffffffffffffffffffffffffffffffffffff166370a08231306040518263ffffffff1660e01b8152600401610d0a9190611483565b602060405180830381865afa158015610d27573d6000803e3d6000fd5b505050506040513d601f19601f82011682018060405250810190610d4b9190611fea565b610d559190611ef5565b9050610da08760600151600160028110610d7257610d716115f3565b5b6020020151600160009054906101000a900473ffffffffffffffffffffffffffffffffffffffff1683610f97565b600160009054906101000a900473ffffffffffffffffffffffffffffffffffffffff1673ffffffffffffffffffffffffffffffffffffffff1663b899f904338960600151600160028110610df757610df66115f3565b5b60200201518685898c6040518763ffffffff1660e01b8152600401610e2196959493929190612017565b600060405180830381600087803b158015610e3b57600080fd5b505af1158015610e4f573d6000803e3d6000fd5b505050505b5b50505050505050565b6000808573ffffffffffffffffffffffffffffffffffffffff166323b872dd868686604051602401610e9293929190612086565b6040516020818303038152906040529060e01b6020820180517bffffffffffffffffffffffffffffffffffffffffffffffffffffffff8381831617835250505050604051610ee091906120f9565b6000604051808303816000865af19150503d8060008114610f1d576040519150601f19603f3d011682016040523d82523d6000602084013e610f22565b606091505b5091509150818015610f505750600081511480610f4f575080806020019051810190610f4e919061213c565b5b5b610f8f576040517f08c379a0000000000000000000000000000000000000000000000000000000008152600401610f86906121db565b60405180910390fd5b505050505050565b6000808473ffffffffffffffffffffffffffffffffffffffff1663095ea7b38585604051602401610fc99291906121fb565b6040516020818303038152906040529060e01b6020820180517bffffffffffffffffffffffffffffffffffffffffffffffffffffffff838183161783525050505060405161101791906120f9565b6000604051808303816000865af19150503d8060008114611054576040519150601f19603f3d011682016040523d82523d6000602084013e611059565b606091505b50915091508180156110875750600081511480611086575080806020019051810190611085919061213c565b5b5b6110c6576040517f08c379a00000000000000000000000000000000000000000000000000000000081526004016110bd90612296565b60405180910390fd5b5050505050565b6000604051905090565b600080fd5b600080fd5b600073ffffffffffffffffffffffffffffffffffffffff82169050919050565b600061110c826110e1565b9050919050565b61111c81611101565b811461112757600080fd5b50565b60008135905061113981611113565b92915050565b600060208284031215611155576111546110d7565b5b60006111638482850161112a565b91505092915050565b60008115159050919050565b6111818161116c565b82525050565b600060208201905061119c6000830184611178565b92915050565b600080fd5b600060a082840312156111bd576111bc6111a2565b5b81905092915050565b600080fd5b600080fd5b600080fd5b60008083601f8401126111eb576111ea6111c6565b5b8235905067ffffffffffffffff811115611208576112076111cb565b5b602083019150836001820283011115611224576112236111d0565b5b9250929050565b6000819050919050565b61123e8161122b565b811461124957600080fd5b50565b60008135905061125b81611235565b92915050565b600080fd5b6000601f19601f8301169050919050565b7f4e487b7100000000000000000000000000000000000000000000000000000000600052604160045260246000fd5b6112af82611266565b810181811067ffffffffffffffff821117156112ce576112cd611277565b5b80604052505050565b60006112e16110cd565b90506112ed82826112a6565b919050565b600067ffffffffffffffff82111561130d5761130c611277565b5b61131682611266565b9050602081019050919050565b82818337600083830152505050565b6000611345611340846112f2565b6112d7565b90508281526020810184848401111561136157611360611261565b5b61136c848285611323565b509392505050565b600082601f830112611389576113886111c6565b5b8135611399848260208601611332565b91505092915050565b60008060008060008060a087890312156113bf576113be6110d7565b5b600087013567ffffffffffffffff8111156113dd576113dc6110dc565b5b6113e989828a016111a7565b965050602087013567ffffffffffffffff81111561140a576114096110dc565b5b61141689828a016111d5565b9550955050604061142989828a0161124c565b935050606061143a89828a0161124c565b925050608087013567ffffffffffffffff81111561145b5761145a6110dc565b5b61146789828a01611374565b9150509295509295509295565b61147d81611101565b82525050565b60006020820190506114986000830184611474565b92915050565b600082825260208201905092915050565b7f43616c6c6572206973206e6f7420616e206f776e657200000000000000000000600082015250565b60006114e560168361149e565b91506114f0826114af565b602082019050919050565b60006020820190508181036000830152611514816114d8565b9050919050565b7f416464726573732063616e6e6f74206265207a65726f00000000000000000000600082015250565b600061155160168361149e565b915061155c8261151b565b602082019050919050565b6000602082019050818103600083015261158081611544565b9050919050565b7f53656e64696e672076616c7565206973207a65726f0000000000000000000000600082015250565b60006115bd60158361149e565b91506115c882611587565b602082019050919050565b600060208201905081810360008301526115ec816115b0565b9050919050565b7f4e487b7100000000000000000000000000000000000000000000000000000000600052603260045260246000fd5b7f4e6f7420656e6f756768206d6f6e657900000000000000000000000000000000600082015250565b600061165860108361149e565b915061166382611622565b602082019050919050565b600060208201905081810360008301526116878161164b565b9050919050565b600080fd5b600080fd5b600067ffffffffffffffff8211156116b3576116b2611277565b5b602082029050602081019050919050565b60006116d76116d284611698565b6112d7565b905080838252602082019050602084028301858111156116fa576116f96111d0565b5b835b81811015611723578061170f888261124c565b8452602084019350506020810190506116fc565b5050509392505050565b600082601f830112611742576117416111c6565b5b81356117528482602086016116c4565b91505092915050565b600067ffffffffffffffff82111561177657611775611277565b5b602082029050602081019050919050565b600061179a6117958461175b565b6112d7565b905080838252602082019050602084028301858111156117bd576117bc6111d0565b5b835b8181101561180457803567ffffffffffffffff8111156117e2576117e16111c6565b5b8086016117ef8982611374565b855260208501945050506020810190506117bf565b5050509392505050565b600082601f830112611823576118226111c6565b5b8135611833848260208601611787565b91505092915050565b600067ffffffffffffffff82111561185757611856611277565b5b602082029050602081019050919050565b600063ffffffff82169050919050565b61188181611868565b811461188c57600080fd5b50565b60008135905061189e81611878565b92915050565b60006118b76118b28461183c565b6112d7565b905080838252602082019050602084028301858111156118da576118d96111d0565b5b835b8181101561190357806118ef888261188f565b8452602084019350506020810190506118dc565b5050509392505050565b600082601f830112611922576119216111c6565b5b81356119328482602086016118a4565b91505092915050565b600067ffffffffffffffff82111561195657611955611277565b5b602082029050919050565b600061197461196f8461193b565b6112d7565b9050806020840283018581111561198e5761198d6111d0565b5b835b818110156119b757806119a3888261112a565b845260208401935050602081019050611990565b5050509392505050565b600082601f8301126119d6576119d56111c6565b5b60026119e3848285611961565b91505092915050565b600060a08284031215611a0257611a0161168e565b5b611a0c60806112d7565b9050600082013567ffffffffffffffff811115611a2c57611a2b611693565b5b611a388482850161172d565b600083015250602082013567ffffffffffffffff811115611a5c57611a5b611693565b5b611a688482850161180e565b602083015250604082013567ffffffffffffffff811115611a8c57611a8b611693565b5b611a988482850161190d565b6040830152506060611aac848285016119c1565b60608301525092915050565b6000611ac436836119ec565b9050919050565b600081519050919050565b600082825260208201905092915050565b6000819050602082019050919050565b611b008161122b565b82525050565b6000611b128383611af7565b60208301905092915050565b6000602082019050919050565b6000611b3682611acb565b611b408185611ad6565b9350611b4b83611ae7565b8060005b83811015611b7c578151611b638882611b06565b9750611b6e83611b1e565b925050600181019050611b4f565b5085935050505092915050565b600081519050919050565b600082825260208201905092915050565b6000819050602082019050919050565b600081519050919050565b600082825260208201905092915050565b60005b83811015611bef578082015181840152602081019050611bd4565b60008484015250505050565b6000611c0682611bb5565b611c108185611bc0565b9350611c20818560208601611bd1565b611c2981611266565b840191505092915050565b6000611c408383611bfb565b905092915050565b6000602082019050919050565b6000611c6082611b89565b611c6a8185611b94565b935083602082028501611c7c85611ba5565b8060005b85811015611cb85784840389528151611c998582611c34565b9450611ca483611c48565b925060208a01995050600181019050611c80565b50829750879550505050505092915050565b600081519050919050565b600082825260208201905092915050565b6000819050602082019050919050565b611cff81611868565b82525050565b6000611d118383611cf6565b60208301905092915050565b6000602082019050919050565b6000611d3582611cca565b611d3f8185611cd5565b9350611d4a83611ce6565b8060005b83811015611d7b578151611d628882611d05565b9750611d6d83611d1d565b925050600181019050611d4e565b5085935050505092915050565b600060029050919050565b600081905092915050565b6000819050919050565b611db181611101565b82525050565b6000611dc38383611da8565b60208301905092915050565b6000602082019050919050565b611de581611d88565b611def8184611d93565b9250611dfa82611d9e565b8060005b83811015611e2b578151611e128782611db7565b9650611e1d83611dcf565b925050600181019050611dfe565b505050505050565b600060a0830160008301518482036000860152611e508282611b2b565b91505060208301518482036020860152611e6a8282611c55565b91505060408301518482036040860152611e848282611d2a565b9150506060830151611e996060860182611ddc565b508091505092915050565b60006020820190508181036000830152611ebe8184611e33565b905092915050565b7f4e487b7100000000000000000000000000000000000000000000000000000000600052601160045260246000fd5b6000611f008261122b565b9150611f0b8361122b565b9250828203905081811115611f2357611f22611ec6565b5b92915050565b600082825260208201905092915050565b6000611f4582611bb5565b611f4f8185611f29565b9350611f5f818560208601611bd1565b611f6881611266565b840191505092915050565b611f7c8161122b565b82525050565b6000608082019050611f976000830187611474565b8181036020830152611fa98186611f3a565b9050611fb86040830185611f73565b8181036060830152611fca8184611f3a565b905095945050505050565b600081519050611fe481611235565b92915050565b60006020828403121561200057611fff6110d7565b5b600061200e84828501611fd5565b91505092915050565b600060c08201905061202c6000830189611474565b6120396020830188611474565b818103604083015261204b8187611f3a565b905061205a6060830186611f73565b6120676080830185611f73565b81810360a08301526120798184611f3a565b9050979650505050505050565b600060608201905061209b6000830186611474565b6120a86020830185611474565b6120b56040830184611f73565b949350505050565b600081905092915050565b60006120d382611bb5565b6120dd81856120bd565b93506120ed818560208601611bd1565b80840191505092915050565b600061210582846120c8565b915081905092915050565b6121198161116c565b811461212457600080fd5b50565b60008151905061213681612110565b92915050565b600060208284031215612152576121516110d7565b5b600061216084828501612127565b91505092915050565b7f5472616e7366657248656c7065723a3a7472616e7366657246726f6d3a20747260008201527f616e7366657246726f6d206661696c6564000000000000000000000000000000602082015250565b60006121c560318361149e565b91506121d082612169565b604082019050919050565b600060208201905081810360008301526121f4816121b8565b9050919050565b60006040820190506122106000830185611474565b61221d6020830184611f73565b9392505050565b7f5472616e7366657248656c7065723a3a73616665417070726f76653a2061707060008201527f726f7665206661696c6564000000000000000000000000000000000000000000602082015250565b6000612280602b8361149e565b915061228b82612224565b604082019050919050565b600060208201905081810360008301526122af81612273565b905091905056fea2646970667358221220be4dc3f9d04f2acf20418d57137f68538f8ac524fee5f9ca2fe4cc2b7c5b2f0464736f6c63430008110033",
  "linkReferences": {},
  "deployedLinkReferences": {}
}