{
  "_format": "hh-sol-artifact-1",
  "contractName": "ButterRouterV2",
  "sourceName": "contracts/ButterRouterV3.sol",
  "abi": [
    {
      "inputs": [
        {
          "components": [
            {
              "internalType": "uint256[]",
              "name": "amountInArr",
              "type": "uint256[]"
            },
            {
              "internalType": "bytes[]",
              "name": "paramsArr",
              "type": "bytes[]"
            },
            {
              "internalType": "uint32[]",
              "name": "routerIndex",
              "type": "uint32[]"
            },
            {
              "internalType": "address[2]",
              "name": "inputOutAddre",
              "type": "address[2]"
            }
          ],
          "internalType": "struct ButterCore.AccessParams",
          "name": "swapData",
          "type": "tuple"
        },
        {
          "internalType": "bytes",
          "name": "mosData",
          "type": "bytes"
        },
        {
          "internalType": "uint256",
          "name": "amount",
          "type": "uint256"
        },
        {
          "internalType": "uint256",
          "name": "toChain",
          "type": "uint256"
        },
        {
          "internalType": "bytes",
          "name": "to",
          "type": "bytes"
        }
      ],
      "name": "entrance",
      "outputs": [],
      "stateMutability": "payable",
      "type": "function"
    },
    {
      "stateMutability": "payable",
      "type": "receive"
    }
  ],
  "bytecode": "0x608060405234801561001057600080fd5b50611f25806100206000396000f3fe6080604052600436106100225760003560e01c80634bcc97da1461002e57610029565b3661002957005b600080fd5b61004860048036038101906100439190610ff3565b61004a565b005b6000831161008d576040517f08c379a000000000000000000000000000000000000000000000000000000000815260040161008490611122565b60405180910390fd5b600073ffffffffffffffffffffffffffffffffffffffff16866060016000600281106100bc576100bb611142565b5b6020020160208101906100cf91906111cf565b73ffffffffffffffffffffffffffffffffffffffff160361018b5782341461012c576040517f08c379a000000000000000000000000000000000000000000000000000000000815260040161012390611248565b60405180910390fd5b6101868661013990611692565b86868080601f016020809104026020016040519081016040528093929190818152602001838380828437600081840152601f19601f82011690508083019250505050505050858585610258565b610250565b6101c0866060016000600281106101a5576101a4611142565b5b6020020160208101906101b891906111cf565b333086610a06565b6101f5866060016000600281106101da576101d9611142565b5b6020020160208101906101ed91906111cf565b333086610aa8565b61024f8661020290611692565b86868080601f016020809104026020016040519081016040528093929190818152602001838380828437600081840152601f19601f82011690508083019250505050505050858585610258565b5b505050505050565b600080600073ffffffffffffffffffffffffffffffffffffffff16876060015160016002811061028b5761028a611142565b5b602002015173ffffffffffffffffffffffffffffffffffffffff16036103ff574791506102e987606001516000600281106102c9576102c8611142565b5b602002015173b401355440842aab5a4dea8abfc7439d9cb8ab5587610be1565b73b401355440842aab5a4dea8abfc7439d9cb8ab5573ffffffffffffffffffffffffffffffffffffffff166342b28308886040518263ffffffff1660e01b81526004016103369190611a7e565b600060405180830381600087803b15801561035057600080fd5b505af1158015610364573d6000803e3d6000fd5b5050505081476103749190611acf565b905073fe103b6fc8ee2e042a0bec78f0a072074f7734f473ffffffffffffffffffffffffffffffffffffffff16636d5ff4798285878a6040518563ffffffff1660e01b81526004016103c893929190611b5c565b6000604051808303818588803b1580156103e157600080fd5b505af11580156103f5573d6000803e3d6000fd5b50505050506109fd565b600073ffffffffffffffffffffffffffffffffffffffff16876060015160006002811061042f5761042e611142565b5b602002015173ffffffffffffffffffffffffffffffffffffffff160361072857866060015160016002811061046757610466611142565b5b602002015173ffffffffffffffffffffffffffffffffffffffff166370a08231306040518263ffffffff1660e01b81526004016104a49190611bb0565b602060405180830381865afa1580156104c1573d6000803e3d6000fd5b505050506040513d601f19601f820116820180604052508101906104e59190611be0565b915073b401355440842aab5a4dea8abfc7439d9cb8ab5573ffffffffffffffffffffffffffffffffffffffff166342b2830886896040518363ffffffff1660e01b81526004016105359190611a7e565b6000604051808303818588803b15801561054e57600080fd5b505af1158015610562573d6000803e3d6000fd5b50505050508187606001516001600281106105805761057f611142565b5b602002015173ffffffffffffffffffffffffffffffffffffffff166370a08231306040518263ffffffff1660e01b81526004016105bd9190611bb0565b602060405180830381865afa1580156105da573d6000803e3d6000fd5b505050506040513d601f19601f820116820180604052508101906105fe9190611be0565b6106089190611acf565b9050610645876060015160016002811061062557610624611142565b5b602002015173fe103b6fc8ee2e042a0bec78f0a072074f7734f483610be1565b61068087606001516001600281106106605761065f611142565b5b602002015173fe103b6fc8ee2e042a0bec78f0a072074f7734f483610d17565b73fe103b6fc8ee2e042a0bec78f0a072074f7734f473ffffffffffffffffffffffffffffffffffffffff16632f12d7ef88606001516001600281106106c8576106c7611142565b5b60200201518584888b6040518663ffffffff1660e01b81526004016106f1959493929190611c0d565b600060405180830381600087803b15801561070b57600080fd5b505af115801561071f573d6000803e3d6000fd5b505050506109fc565b86606001516001600281106107405761073f611142565b5b602002015173ffffffffffffffffffffffffffffffffffffffff166370a08231306040518263ffffffff1660e01b815260040161077d9190611bb0565b602060405180830381865afa15801561079a573d6000803e3d6000fd5b505050506040513d601f19601f820116820180604052508101906107be9190611be0565b91506107fb87606001516000600281106107db576107da611142565b5b602002015173b401355440842aab5a4dea8abfc7439d9cb8ab5587610be1565b73b401355440842aab5a4dea8abfc7439d9cb8ab5573ffffffffffffffffffffffffffffffffffffffff166342b28308886040518263ffffffff1660e01b81526004016108489190611a7e565b600060405180830381600087803b15801561086257600080fd5b505af1158015610876573d6000803e3d6000fd5b5050505081876060015160016002811061089357610892611142565b5b602002015173ffffffffffffffffffffffffffffffffffffffff166370a08231306040518263ffffffff1660e01b81526004016108d09190611bb0565b602060405180830381865afa1580156108ed573d6000803e3d6000fd5b505050506040513d601f19601f820116820180604052508101906109119190611be0565b61091b9190611acf565b9050610958876060015160016002811061093857610937611142565b5b602002015173fe103b6fc8ee2e042a0bec78f0a072074f7734f483610be1565b73fe103b6fc8ee2e042a0bec78f0a072074f7734f473ffffffffffffffffffffffffffffffffffffffff16632f12d7ef88606001516001600281106109a05761099f611142565b5b60200201518584888b6040518663ffffffff1660e01b81526004016109c9959493929190611c0d565b600060405180830381600087803b1580156109e357600080fd5b505af11580156109f7573d6000803e3d6000fd5b505050505b5b50505050505050565b610aa284848484604051602401610a209493929190611c6e565b6040516020818303038152906040527f94250d77000000000000000000000000000000000000000000000000000000007bffffffffffffffffffffffffffffffffffffffffffffffffffffffff19166020820180517bffffffffffffffffffffffffffffffffffffffffffffffffffffffff8381831617835250505050610db6565b50505050565b6000808573ffffffffffffffffffffffffffffffffffffffff166323b872dd868686604051602401610adc93929190611cb3565b6040516020818303038152906040529060e01b6020820180517bffffffffffffffffffffffffffffffffffffffffffffffffffffffff8381831617835250505050604051610b2a9190611d26565b6000604051808303816000865af19150503d8060008114610b67576040519150601f19603f3d011682016040523d82523d6000602084013e610b6c565b606091505b5091509150818015610b9a5750600081511480610b99575080806020019051810190610b989190611d75565b5b5b610bd9576040517f08c379a0000000000000000000000000000000000000000000000000000000008152600401610bd090611e14565b60405180910390fd5b505050505050565b6000808473ffffffffffffffffffffffffffffffffffffffff1663095ea7b38585604051602401610c13929190611e34565b6040516020818303038152906040529060e01b6020820180517bffffffffffffffffffffffffffffffffffffffffffffffffffffffff8381831617835250505050604051610c619190611d26565b6000604051808303816000865af19150503d8060008114610c9e576040519150601f19603f3d011682016040523d82523d6000602084013e610ca3565b606091505b5091509150818015610cd15750600081511480610cd0575080806020019051810190610ccf9190611d75565b5b5b610d10576040517f08c379a0000000000000000000000000000000000000000000000000000000008152600401610d0790611ecf565b60405180910390fd5b5050505050565b610db1838383604051602401610d2f93929190611cb3565b6040516020818303038152906040527f17fe6185000000000000000000000000000000000000000000000000000000007bffffffffffffffffffffffffffffffffffffffffffffffffffffffff19166020820180517bffffffffffffffffffffffffffffffffffffffffffffffffffffffff8381831617835250505050610db6565b505050565b60008151905060006a636f6e736f6c652e6c6f679050602083016000808483855afa5050505050565b6000604051905090565b600080fd5b600080fd5b600080fd5b600060a08284031215610e0e57610e0d610df3565b5b81905092915050565b600080fd5b600080fd5b600080fd5b60008083601f840112610e3c57610e3b610e17565b5b8235905067ffffffffffffffff811115610e5957610e58610e1c565b5b602083019150836001820283011115610e7557610e74610e21565b5b9250929050565b6000819050919050565b610e8f81610e7c565b8114610e9a57600080fd5b50565b600081359050610eac81610e86565b92915050565b600080fd5b6000601f19601f8301169050919050565b7f4e487b7100000000000000000000000000000000000000000000000000000000600052604160045260246000fd5b610f0082610eb7565b810181811067ffffffffffffffff82111715610f1f57610f1e610ec8565b5b80604052505050565b6000610f32610ddf565b9050610f3e8282610ef7565b919050565b600067ffffffffffffffff821115610f5e57610f5d610ec8565b5b610f6782610eb7565b9050602081019050919050565b82818337600083830152505050565b6000610f96610f9184610f43565b610f28565b905082815260208101848484011115610fb257610fb1610eb2565b5b610fbd848285610f74565b509392505050565b600082601f830112610fda57610fd9610e17565b5b8135610fea848260208601610f83565b91505092915050565b60008060008060008060a087890312156110105761100f610de9565b5b600087013567ffffffffffffffff81111561102e5761102d610dee565b5b61103a89828a01610df8565b965050602087013567ffffffffffffffff81111561105b5761105a610dee565b5b61106789828a01610e26565b9550955050604061107a89828a01610e9d565b935050606061108b89828a01610e9d565b925050608087013567ffffffffffffffff8111156110ac576110ab610dee565b5b6110b889828a01610fc5565b9150509295509295509295565b600082825260208201905092915050565b7f53656e64696e672076616c7565206973207a65726f0000000000000000000000600082015250565b600061110c6015836110c5565b9150611117826110d6565b602082019050919050565b6000602082019050818103600083015261113b816110ff565b9050919050565b7f4e487b7100000000000000000000000000000000000000000000000000000000600052603260045260246000fd5b600073ffffffffffffffffffffffffffffffffffffffff82169050919050565b600061119c82611171565b9050919050565b6111ac81611191565b81146111b757600080fd5b50565b6000813590506111c9816111a3565b92915050565b6000602082840312156111e5576111e4610de9565b5b60006111f3848285016111ba565b91505092915050565b7f4e6f7420656e6f756768206d6f6e657900000000000000000000000000000000600082015250565b60006112326010836110c5565b915061123d826111fc565b602082019050919050565b6000602082019050818103600083015261126181611225565b9050919050565b600080fd5b600080fd5b600067ffffffffffffffff82111561128d5761128c610ec8565b5b602082029050602081019050919050565b60006112b16112ac84611272565b610f28565b905080838252602082019050602084028301858111156112d4576112d3610e21565b5b835b818110156112fd57806112e98882610e9d565b8452602084019350506020810190506112d6565b5050509392505050565b600082601f83011261131c5761131b610e17565b5b813561132c84826020860161129e565b91505092915050565b600067ffffffffffffffff8211156113505761134f610ec8565b5b602082029050602081019050919050565b600061137461136f84611335565b610f28565b9050808382526020820190506020840283018581111561139757611396610e21565b5b835b818110156113de57803567ffffffffffffffff8111156113bc576113bb610e17565b5b8086016113c98982610fc5565b85526020850194505050602081019050611399565b5050509392505050565b600082601f8301126113fd576113fc610e17565b5b813561140d848260208601611361565b91505092915050565b600067ffffffffffffffff82111561143157611430610ec8565b5b602082029050602081019050919050565b600063ffffffff82169050919050565b61145b81611442565b811461146657600080fd5b50565b60008135905061147881611452565b92915050565b600061149161148c84611416565b610f28565b905080838252602082019050602084028301858111156114b4576114b3610e21565b5b835b818110156114dd57806114c98882611469565b8452602084019350506020810190506114b6565b5050509392505050565b600082601f8301126114fc576114fb610e17565b5b813561150c84826020860161147e565b91505092915050565b600067ffffffffffffffff8211156115305761152f610ec8565b5b602082029050919050565b600061154e61154984611515565b610f28565b9050806020840283018581111561156857611567610e21565b5b835b81811015611591578061157d88826111ba565b84526020840193505060208101905061156a565b5050509392505050565b600082601f8301126115b0576115af610e17565b5b60026115bd84828561153b565b91505092915050565b600060a082840312156115dc576115db611268565b5b6115e66080610f28565b9050600082013567ffffffffffffffff8111156116065761160561126d565b5b61161284828501611307565b600083015250602082013567ffffffffffffffff8111156116365761163561126d565b5b611642848285016113e8565b602083015250604082013567ffffffffffffffff8111156116665761166561126d565b5b611672848285016114e7565b60408301525060606116868482850161159b565b60608301525092915050565b600061169e36836115c6565b9050919050565b600081519050919050565b600082825260208201905092915050565b6000819050602082019050919050565b6116da81610e7c565b82525050565b60006116ec83836116d1565b60208301905092915050565b6000602082019050919050565b6000611710826116a5565b61171a81856116b0565b9350611725836116c1565b8060005b8381101561175657815161173d88826116e0565b9750611748836116f8565b925050600181019050611729565b5085935050505092915050565b600081519050919050565b600082825260208201905092915050565b6000819050602082019050919050565b600081519050919050565b600082825260208201905092915050565b60005b838110156117c95780820151818401526020810190506117ae565b60008484015250505050565b60006117e08261178f565b6117ea818561179a565b93506117fa8185602086016117ab565b61180381610eb7565b840191505092915050565b600061181a83836117d5565b905092915050565b6000602082019050919050565b600061183a82611763565b611844818561176e565b9350836020820285016118568561177f565b8060005b858110156118925784840389528151611873858261180e565b945061187e83611822565b925060208a0199505060018101905061185a565b50829750879550505050505092915050565b600081519050919050565b600082825260208201905092915050565b6000819050602082019050919050565b6118d981611442565b82525050565b60006118eb83836118d0565b60208301905092915050565b6000602082019050919050565b600061190f826118a4565b61191981856118af565b9350611924836118c0565b8060005b8381101561195557815161193c88826118df565b9750611947836118f7565b925050600181019050611928565b5085935050505092915050565b600060029050919050565b600081905092915050565b6000819050919050565b61198b81611191565b82525050565b600061199d8383611982565b60208301905092915050565b6000602082019050919050565b6119bf81611962565b6119c9818461196d565b92506119d482611978565b8060005b83811015611a055781516119ec8782611991565b96506119f7836119a9565b9250506001810190506119d8565b505050505050565b600060a0830160008301518482036000860152611a2a8282611705565b91505060208301518482036020860152611a44828261182f565b91505060408301518482036040860152611a5e8282611904565b9150506060830151611a7360608601826119b6565b508091505092915050565b60006020820190508181036000830152611a988184611a0d565b905092915050565b7f4e487b7100000000000000000000000000000000000000000000000000000000600052601160045260246000fd5b6000611ada82610e7c565b9150611ae583610e7c565b9250828203905081811115611afd57611afc611aa0565b5b92915050565b600082825260208201905092915050565b6000611b1f8261178f565b611b298185611b03565b9350611b398185602086016117ab565b611b4281610eb7565b840191505092915050565b611b5681610e7c565b82525050565b60006060820190508181036000830152611b768186611b14565b9050611b856020830185611b4d565b8181036040830152611b978184611b14565b9050949350505050565b611baa81611191565b82525050565b6000602082019050611bc56000830184611ba1565b92915050565b600081519050611bda81610e86565b92915050565b600060208284031215611bf657611bf5610de9565b5b6000611c0484828501611bcb565b91505092915050565b600060a082019050611c226000830188611ba1565b8181036020830152611c348187611b14565b9050611c436040830186611b4d565b611c506060830185611b4d565b8181036080830152611c628184611b14565b90509695505050505050565b6000608082019050611c836000830187611ba1565b611c906020830186611ba1565b611c9d6040830185611ba1565b611caa6060830184611b4d565b95945050505050565b6000606082019050611cc86000830186611ba1565b611cd56020830185611ba1565b611ce26040830184611b4d565b949350505050565b600081905092915050565b6000611d008261178f565b611d0a8185611cea565b9350611d1a8185602086016117ab565b80840191505092915050565b6000611d328284611cf5565b915081905092915050565b60008115159050919050565b611d5281611d3d565b8114611d5d57600080fd5b50565b600081519050611d6f81611d49565b92915050565b600060208284031215611d8b57611d8a610de9565b5b6000611d9984828501611d60565b91505092915050565b7f5472616e7366657248656c7065723a3a7472616e7366657246726f6d3a20747260008201527f616e7366657246726f6d206661696c6564000000000000000000000000000000602082015250565b6000611dfe6031836110c5565b9150611e0982611da2565b604082019050919050565b60006020820190508181036000830152611e2d81611df1565b9050919050565b6000604082019050611e496000830185611ba1565b611e566020830184611b4d565b9392505050565b7f5472616e7366657248656c7065723a3a73616665417070726f76653a2061707060008201527f726f7665206661696c6564000000000000000000000000000000000000000000602082015250565b6000611eb9602b836110c5565b9150611ec482611e5d565b604082019050919050565b60006020820190508181036000830152611ee881611eac565b905091905056fea26469706673582212207c0cbec5afd7e7fb1ba7f40b286ffb9744a1c425574f2ccbf4a5094eaf9f738c64736f6c63430008110033",
  "linkReferences": {},
  "deployedLinkReferences": {}
}