{
  "_format": "hh-sol-artifact-1",
  "contractName": "FeeCenter",
  "sourceName": "contracts/FeeCenter.sol",
  "abi": [
    {
      "anonymous": false,
      "inputs": [
        {
          "indexed": false,
          "internalType": "uint8",
          "name": "version",
          "type": "uint8"
        }
      ],
      "name": "Initialized",
      "type": "event"
    },
    {
      "anonymous": false,
      "inputs": [
        {
          "indexed": true,
          "internalType": "address",
          "name": "previousOwner",
          "type": "address"
        },
        {
          "indexed": true,
          "internalType": "address",
          "name": "newOwner",
          "type": "address"
        }
      ],
      "name": "OwnershipTransferred",
      "type": "event"
    },
    {
      "anonymous": false,
      "inputs": [
        {
          "indexed": true,
          "internalType": "bytes32",
          "name": "role",
          "type": "bytes32"
        },
        {
          "indexed": true,
          "internalType": "bytes32",
          "name": "previousAdminRole",
          "type": "bytes32"
        },
        {
          "indexed": true,
          "internalType": "bytes32",
          "name": "newAdminRole",
          "type": "bytes32"
        }
      ],
      "name": "RoleAdminChanged",
      "type": "event"
    },
    {
      "anonymous": false,
      "inputs": [
        {
          "indexed": true,
          "internalType": "bytes32",
          "name": "role",
          "type": "bytes32"
        },
        {
          "indexed": true,
          "internalType": "address",
          "name": "account",
          "type": "address"
        },
        {
          "indexed": true,
          "internalType": "address",
          "name": "sender",
          "type": "address"
        }
      ],
      "name": "RoleGranted",
      "type": "event"
    },
    {
      "anonymous": false,
      "inputs": [
        {
          "indexed": true,
          "internalType": "bytes32",
          "name": "role",
          "type": "bytes32"
        },
        {
          "indexed": true,
          "internalType": "address",
          "name": "account",
          "type": "address"
        },
        {
          "indexed": true,
          "internalType": "address",
          "name": "sender",
          "type": "address"
        }
      ],
      "name": "RoleRevoked",
      "type": "event"
    },
    {
      "inputs": [],
      "name": "DEFAULT_ADMIN_ROLE",
      "outputs": [
        {
          "internalType": "bytes32",
          "name": "",
          "type": "bytes32"
        }
      ],
      "stateMutability": "view",
      "type": "function"
    },
    {
      "inputs": [
        {
          "internalType": "address",
          "name": "token",
          "type": "address"
        },
        {
          "internalType": "uint256",
          "name": "amount",
          "type": "uint256"
        }
      ],
      "name": "doDistribute",
      "outputs": [],
      "stateMutability": "nonpayable",
      "type": "function"
    },
    {
      "inputs": [
        {
          "internalType": "uint256",
          "name": "id",
          "type": "uint256"
        },
        {
          "internalType": "address",
          "name": "token",
          "type": "address"
        }
      ],
      "name": "getDistribute",
      "outputs": [
        {
          "internalType": "address",
          "name": "feeAddress",
          "type": "address"
        },
        {
          "internalType": "uint256",
          "name": "rates",
          "type": "uint256"
        }
      ],
      "stateMutability": "view",
      "type": "function"
    },
    {
      "inputs": [
        {
          "internalType": "bytes32",
          "name": "role",
          "type": "bytes32"
        }
      ],
      "name": "getRoleAdmin",
      "outputs": [
        {
          "internalType": "bytes32",
          "name": "",
          "type": "bytes32"
        }
      ],
      "stateMutability": "view",
      "type": "function"
    },
    {
      "inputs": [
        {
          "internalType": "uint256",
          "name": "to",
          "type": "uint256"
        },
        {
          "internalType": "address",
          "name": "token",
          "type": "address"
        },
        {
          "internalType": "uint256",
          "name": "amount",
          "type": "uint256"
        }
      ],
      "name": "getTokenFee",
      "outputs": [
        {
          "internalType": "uint256",
          "name": "",
          "type": "uint256"
        }
      ],
      "stateMutability": "view",
      "type": "function"
    },
    {
      "inputs": [
        {
          "internalType": "address",
          "name": "token",
          "type": "address"
        }
      ],
      "name": "getVaultToken",
      "outputs": [
        {
          "internalType": "address",
          "name": "vault",
          "type": "address"
        }
      ],
      "stateMutability": "view",
      "type": "function"
    },
    {
      "inputs": [
        {
          "internalType": "bytes32",
          "name": "role",
          "type": "bytes32"
        },
        {
          "internalType": "address",
          "name": "account",
          "type": "address"
        }
      ],
      "name": "grantRole",
      "outputs": [],
      "stateMutability": "nonpayable",
      "type": "function"
    },
    {
      "inputs": [
        {
          "internalType": "bytes32",
          "name": "role",
          "type": "bytes32"
        },
        {
          "internalType": "address",
          "name": "account",
          "type": "address"
        }
      ],
      "name": "hasRole",
      "outputs": [
        {
          "internalType": "bool",
          "name": "",
          "type": "bool"
        }
      ],
      "stateMutability": "view",
      "type": "function"
    },
    {
      "inputs": [],
      "name": "owner",
      "outputs": [
        {
          "internalType": "address",
          "name": "",
          "type": "address"
        }
      ],
      "stateMutability": "view",
      "type": "function"
    },
    {
      "inputs": [],
      "name": "renounceOwnership",
      "outputs": [],
      "stateMutability": "nonpayable",
      "type": "function"
    },
    {
      "inputs": [
        {
          "internalType": "bytes32",
          "name": "role",
          "type": "bytes32"
        },
        {
          "internalType": "address",
          "name": "account",
          "type": "address"
        }
      ],
      "name": "renounceRole",
      "outputs": [],
      "stateMutability": "nonpayable",
      "type": "function"
    },
    {
      "inputs": [
        {
          "internalType": "bytes32",
          "name": "role",
          "type": "bytes32"
        },
        {
          "internalType": "address",
          "name": "account",
          "type": "address"
        }
      ],
      "name": "revokeRole",
      "outputs": [],
      "stateMutability": "nonpayable",
      "type": "function"
    },
    {
      "inputs": [
        {
          "internalType": "uint256",
          "name": "to",
          "type": "uint256"
        },
        {
          "internalType": "address",
          "name": "token",
          "type": "address"
        },
        {
          "internalType": "uint256",
          "name": "lowest",
          "type": "uint256"
        },
        {
          "internalType": "uint256",
          "name": "highest",
          "type": "uint256"
        },
        {
          "internalType": "uint256",
          "name": "proportion",
          "type": "uint256"
        }
      ],
      "name": "setChainTokenGasFee",
      "outputs": [],
      "stateMutability": "nonpayable",
      "type": "function"
    },
    {
      "inputs": [
        {
          "internalType": "uint256",
          "name": "id",
          "type": "uint256"
        },
        {
          "internalType": "address",
          "name": "to",
          "type": "address"
        },
        {
          "internalType": "uint256",
          "name": "rate",
          "type": "uint256"
        }
      ],
      "name": "setDistributeRate",
      "outputs": [],
      "stateMutability": "nonpayable",
      "type": "function"
    },
    {
      "inputs": [
        {
          "internalType": "address",
          "name": "token",
          "type": "address"
        },
        {
          "internalType": "address",
          "name": "tVault",
          "type": "address"
        }
      ],
      "name": "setTokenVault",
      "outputs": [],
      "stateMutability": "nonpayable",
      "type": "function"
    },
    {
      "inputs": [
        {
          "internalType": "bytes4",
          "name": "interfaceId",
          "type": "bytes4"
        }
      ],
      "name": "supportsInterface",
      "outputs": [
        {
          "internalType": "bool",
          "name": "",
          "type": "bool"
        }
      ],
      "stateMutability": "view",
      "type": "function"
    },
    {
      "inputs": [
        {
          "internalType": "address",
          "name": "newOwner",
          "type": "address"
        }
      ],
      "name": "transferOwnership",
      "outputs": [],
      "stateMutability": "nonpayable",
      "type": "function"
    }
  ],
  "bytecode": "0x60a06040524660805234801561001457600080fd5b5061001e33610023565b61007f565b600180546001600160a01b038381166201000081810262010000600160b01b031985161790945560405193909204169182907f8be0079c531659141344cd1fd0a4f28419497f9722a3daafe3b4186f6b6457e090600090a35050565b60805161111b6100976000396000505061111b6000f3fe608060405234801561001057600080fd5b506004361061010b5760003560e01c80638da5cb5b116100a2578063a217fddf11610071578063a217fddf1461026e578063ca0da31f14610276578063d547741f14610289578063f2fde38b1461029c578063f6c64664146102af57600080fd5b80638da5cb5b146101f15780638ee6bebb1461021c57806391d148541461022f5780639dc6108f1461024257600080fd5b80632f2ff15d116100de5780632f2ff15d146101b057806336568abe146101c357806360a62f35146101d6578063715018a6146101e957600080fd5b806301ffc9a7146101105780631a4ceff61461013857806322db25921461014d578063248a9ca31461017f575b600080fd5b61012361011e366004610e9a565b6102c2565b60405190151581526020015b60405180910390f35b61014b610146366004610ef9565b6102f9565b005b61016061015b366004610e77565b6103f4565b604080516001600160a01b03909316835260208301919091520161012f565b6101a261018d366004610e5e565b60009081526020819052604090206001015490565b60405190815260200161012f565b61014b6101be366004610e77565b61045d565b61014b6101d1366004610e77565b610487565b61014b6101e4366004610ddf565b610505565b61014b61053b565b6001546201000090046001600160a01b03165b6040516001600160a01b03909116815260200161012f565b6101a261022a366004610ec4565b61054f565b61012361023d366004610e77565b6105e6565b610204610250366004610dc4565b6001600160a01b039081166000908152600360205260409020541690565b6101a2600081565b61014b610284366004610ec4565b61060f565b61014b610297366004610e77565b6106a6565b61014b6102aa366004610dc4565b6106cb565b61014b6102bd366004610e12565b610744565b60006001600160e01b03198216637965db0b60e01b14806102f357506301ffc9a760e01b6001600160e01b03198316145b92915050565b6103016108c5565b828210156103565760405162461bcd60e51b815260206004820152601a60248201527f496e76616c6964206869676865737420616e64206c6f7765737400000000000060448201526064015b60405180910390fd5b6127108111156103a85760405162461bcd60e51b815260206004820152601860248201527f496e76616c69642070726f706f7274696f6e2076616c75650000000000000000604482015260640161034d565b604080516060810182529384526020808501938452848201928352600096875260028082528288206001600160a01b039097168852959052909420915182555160018201559151910155565b6000828152600460209081526040808320815180830190925280546001600160a01b03168252600101549181019190915281908461044a576001600160a01b038085166000908152600360205260409020541681525b8051602090910151909590945092505050565b60008281526020819052604090206001015461047881610926565b6104828383610930565b505050565b6001600160a01b03811633146104f75760405162461bcd60e51b815260206004820152602f60248201527f416363657373436f6e74726f6c3a2063616e206f6e6c792072656e6f756e636560448201526e103937b632b9903337b91039b2b63360891b606482015260840161034d565b61050182826109b4565b5050565b61050d6108c5565b6001600160a01b03918216600090815260036020526040902080546001600160a01b03191691909216179055565b6105436108c5565b61054d6000610a19565b565b60008381526002602081815260408084206001600160a01b03871685528252808420815160608101835281548152600182015493810193909352909201549181018290529082906105af90612710906105a9908790610a75565b90610a81565b905081602001518111156105c957506020015190506105df565b81518110156105db57505190506105df565b9150505b9392505050565b6000918252602082815260408084206001600160a01b0393909316845291905290205460ff1690565b6106176108c5565b61271081111561065e5760405162461bcd60e51b8152602060048201526012602482015271496e76616c696420726174652076616c756560701b604482015260640161034d565b6040805180820182526001600160a01b03938416815260208082019384526000958652600490529320925183546001600160a01b031916921691909117825551600190910155565b6000828152602081905260409020600101546106c181610926565b61048283836109b4565b6106d36108c5565b6001600160a01b0381166107385760405162461bcd60e51b815260206004820152602660248201527f4f776e61626c653a206e6577206f776e657220697320746865207a65726f206160448201526564647265737360d01b606482015260840161034d565b61074181610a19565b50565b6001600160a01b03808316600090815260036020526040902054168061079c5760405162461bcd60e51b815260206004820152600d60248201526c1d985d5b1d081b9bdd081cd95d609a1b604482015260640161034d565b600080805260046020908152604080518082019091527f17ef568e3e12ab5b9c7254a8d58478811de00f9e6eb34345acd53bf8fd09d3ec546001600160a01b031681527f17ef568e3e12ab5b9c7254a8d58478811de00f9e6eb34345acd53bf8fd09d3ed54918101829052919061081c90612710906105a9908790610a75565b9050610829858483610a8d565b6001600090815260046020908152604080518082019091527fabd6e7cb50984ff9c2f3e18a2660c3353dadf4e3291deeb275dae2cd1e44fe05546001600160a01b031681527fabd6e7cb50984ff9c2f3e18a2660c3353dadf4e3291deeb275dae2cd1e44fe065491810182905291906108ab90612710906105a9908990610a75565b90506108bc87836000015183610a8d565b50505050505050565b6001546001600160a01b036201000090910416331461054d5760405162461bcd60e51b815260206004820181905260248201527f4f776e61626c653a2063616c6c6572206973206e6f7420746865206f776e6572604482015260640161034d565b6107418133610ba8565b61093a82826105e6565b610501576000828152602081815260408083206001600160a01b03851684529091529020805460ff191660011790556109703390565b6001600160a01b0316816001600160a01b0316837f2f8788117e7eff1d82e926ec794901d17c78024a50270940304540a733656f0d60405160405180910390a45050565b6109be82826105e6565b15610501576000828152602081815260408083206001600160a01b0385168085529252808320805460ff1916905551339285917ff6391f5c32d9c69d2a47ea670b442974b53935d1edc7fd64eb21e047a839171b9190a45050565b600180546001600160a01b038381166201000081810262010000600160b01b031985161790945560405193909204169182907f8be0079c531659141344cd1fd0a4f28419497f9722a3daafe3b4186f6b6457e090600090a35050565b60006105df828461103d565b60006105df828461101b565b604080516001600160a01b038481166024830152604480830185905283518084039091018152606490920183526020820180516001600160e01b031663a9059cbb60e01b1790529151600092839290871691610ae99190610f3f565b6000604051808303816000865af19150503d8060008114610b26576040519150601f19603f3d011682016040523d82523d6000602084013e610b2b565b606091505b5091509150818015610b55575080511580610b55575080806020019051810190610b559190610e3c565b610ba15760405162461bcd60e51b815260206004820152601f60248201527f5472616e7366657248656c7065723a205452414e534645525f4641494c454400604482015260640161034d565b5050505050565b610bb282826105e6565b61050157610bca816001600160a01b03166014610c0c565b610bd5836020610c0c565b604051602001610be6929190610f5b565b60408051601f198184030181529082905262461bcd60e51b825261034d91600401610fd0565b60606000610c1b83600261103d565b610c26906002611003565b67ffffffffffffffff811115610c3e57610c3e6110cf565b6040519080825280601f01601f191660200182016040528015610c68576020820181803683370190505b509050600360fc1b81600081518110610c8357610c836110b9565b60200101906001600160f81b031916908160001a905350600f60fb1b81600181518110610cb257610cb26110b9565b60200101906001600160f81b031916908160001a9053506000610cd684600261103d565b610ce1906001611003565b90505b6001811115610d59576f181899199a1a9b1b9c1cb0b131b232b360811b85600f1660108110610d1557610d156110b9565b1a60f81b828281518110610d2b57610d2b6110b9565b60200101906001600160f81b031916908160001a90535060049490941c93610d528161108c565b9050610ce4565b5083156105df5760405162461bcd60e51b815260206004820181905260248201527f537472696e67733a20686578206c656e67746820696e73756666696369656e74604482015260640161034d565b80356001600160a01b0381168114610dbf57600080fd5b919050565b600060208284031215610dd657600080fd5b6105df82610da8565b60008060408385031215610df257600080fd5b610dfb83610da8565b9150610e0960208401610da8565b90509250929050565b60008060408385031215610e2557600080fd5b610e2e83610da8565b946020939093013593505050565b600060208284031215610e4e57600080fd5b815180151581146105df57600080fd5b600060208284031215610e7057600080fd5b5035919050565b60008060408385031215610e8a57600080fd5b82359150610e0960208401610da8565b600060208284031215610eac57600080fd5b81356001600160e01b0319811681146105df57600080fd5b600080600060608486031215610ed957600080fd5b83359250610ee960208501610da8565b9150604084013590509250925092565b600080600080600060a08688031215610f1157600080fd5b85359450610f2160208701610da8565b94979496505050506040830135926060810135926080909101359150565b60008251610f5181846020870161105c565b9190910192915050565b7f416363657373436f6e74726f6c3a206163636f756e7420000000000000000000815260008351610f9381601785016020880161105c565b7001034b99036b4b9b9b4b733903937b6329607d1b6017918401918201528351610fc481602884016020880161105c565b01602801949350505050565b6020815260008251806020840152610fef81604085016020870161105c565b601f01601f19169190910160400192915050565b60008219821115611016576110166110a3565b500190565b60008261103857634e487b7160e01b600052601260045260246000fd5b500490565b6000816000190483118215151615611057576110576110a3565b500290565b60005b8381101561107757818101518382015260200161105f565b83811115611086576000848401525b50505050565b60008161109b5761109b6110a3565b506000190190565b634e487b7160e01b600052601160045260246000fd5b634e487b7160e01b600052603260045260246000fd5b634e487b7160e01b600052604160045260246000fdfea26469706673582212204d3dec51d0a11d3c68b22468d77a0e74f4ec67f8c4a69f3629afce0745d6e36564736f6c63430008070033",
  "linkReferences": {},
  "deployedLinkReferences": {}
}