{
	"_format": "hh-sol-artifact-1",
	"contractName": "MapCrossChainService",
	"sourceName": "contracts/MapCrossChainService.sol",
	"abi": [
		{
			"anonymous": false,
			"inputs": [
				{
					"indexed": false,
					"internalType": "address",
					"name": "previousAdmin",
					"type": "address"
				},
				{
					"indexed": false,
					"internalType": "address",
					"name": "newAdmin",
					"type": "address"
				}
			],
			"name": "AdminChanged",
			"type": "event"
		},
		{
			"anonymous": false,
			"inputs": [
				{
					"indexed": true,
					"internalType": "address",
					"name": "beacon",
					"type": "address"
				}
			],
			"name": "BeaconUpgraded",
			"type": "event"
		},
		{
			"anonymous": false,
			"inputs": [
				{
					"indexed": false,
					"internalType": "uint8",
					"name": "version",
					"type": "uint8"
				}
			],
			"name": "Initialized",
			"type": "event"
		},
		{
			"anonymous": false,
			"inputs": [
				{
					"indexed": false,
					"internalType": "address",
					"name": "account",
					"type": "address"
				}
			],
			"name": "Paused",
			"type": "event"
		},
		{
			"anonymous": false,
			"inputs": [
				{
					"indexed": false,
					"internalType": "address",
					"name": "account",
					"type": "address"
				}
			],
			"name": "Unpaused",
			"type": "event"
		},
		{
			"anonymous": false,
			"inputs": [
				{
					"indexed": true,
					"internalType": "address",
					"name": "implementation",
					"type": "address"
				}
			],
			"name": "Upgraded",
			"type": "event"
		},
		{
			"anonymous": false,
			"inputs": [
				{
					"indexed": false,
					"internalType": "address",
					"name": "token",
					"type": "address"
				},
				{
					"indexed": false,
					"internalType": "bytes",
					"name": "from",
					"type": "bytes"
				},
				{
					"indexed": false,
					"internalType": "bytes32",
					"name": "orderId",
					"type": "bytes32"
				},
				{
					"indexed": false,
					"internalType": "address",
					"name": "to",
					"type": "address"
				},
				{
					"indexed": false,
					"internalType": "uint256",
					"name": "amount",
					"type": "uint256"
				}
			],
			"name": "mapDepositOut",
			"type": "event"
		},
		{
			"anonymous": false,
			"inputs": [
				{
					"indexed": false,
					"internalType": "bytes32",
					"name": "tokenID",
					"type": "bytes32"
				},
				{
					"indexed": false,
					"internalType": "address",
					"name": "token",
					"type": "address"
				}
			],
			"name": "mapTokenRegister",
			"type": "event"
		},
		{
			"anonymous": false,
			"inputs": [
				{
					"indexed": true,
					"internalType": "address",
					"name": "token",
					"type": "address"
				},
				{
					"indexed": true,
					"internalType": "bytes",
					"name": "from",
					"type": "bytes"
				},
				{
					"indexed": true,
					"internalType": "bytes32",
					"name": "orderId",
					"type": "bytes32"
				},
				{
					"indexed": false,
					"internalType": "uint256",
					"name": "fromChain",
					"type": "uint256"
				},
				{
					"indexed": false,
					"internalType": "uint256",
					"name": "toChain",
					"type": "uint256"
				},
				{
					"indexed": false,
					"internalType": "address",
					"name": "to",
					"type": "address"
				},
				{
					"indexed": false,
					"internalType": "uint256",
					"name": "amount",
					"type": "uint256"
				}
			],
			"name": "mapTransferIn",
			"type": "event"
		},
		{
			"anonymous": false,
			"inputs": [
				{
					"indexed": true,
					"internalType": "bytes",
					"name": "toContract",
					"type": "bytes"
				},
				{
					"indexed": true,
					"internalType": "address",
					"name": "from",
					"type": "address"
				},
				{
					"indexed": true,
					"internalType": "bytes32",
					"name": "orderId",
					"type": "bytes32"
				},
				{
					"indexed": false,
					"internalType": "uint256",
					"name": "fromChain",
					"type": "uint256"
				},
				{
					"indexed": false,
					"internalType": "uint256",
					"name": "toChain",
					"type": "uint256"
				},
				{
					"indexed": false,
					"internalType": "bytes",
					"name": "data",
					"type": "bytes"
				}
			],
			"name": "mapTransferInData",
			"type": "event"
		},
		{
			"anonymous": false,
			"inputs": [
				{
					"indexed": false,
					"internalType": "bytes",
					"name": "token",
					"type": "bytes"
				},
				{
					"indexed": false,
					"internalType": "bytes",
					"name": "from",
					"type": "bytes"
				},
				{
					"indexed": false,
					"internalType": "bytes32",
					"name": "orderId",
					"type": "bytes32"
				},
				{
					"indexed": false,
					"internalType": "uint256",
					"name": "fromChain",
					"type": "uint256"
				},
				{
					"indexed": false,
					"internalType": "uint256",
					"name": "toChain",
					"type": "uint256"
				},
				{
					"indexed": false,
					"internalType": "bytes",
					"name": "to",
					"type": "bytes"
				},
				{
					"indexed": false,
					"internalType": "uint256",
					"name": "amount",
					"type": "uint256"
				},
				{
					"indexed": false,
					"internalType": "bytes",
					"name": "toChainToken",
					"type": "bytes"
				}
			],
			"name": "mapTransferOut",
			"type": "event"
		},
		{
			"anonymous": false,
			"inputs": [
				{
					"indexed": true,
					"internalType": "bytes",
					"name": "toContract",
					"type": "bytes"
				},
				{
					"indexed": true,
					"internalType": "address",
					"name": "from",
					"type": "address"
				},
				{
					"indexed": true,
					"internalType": "bytes32",
					"name": "orderId",
					"type": "bytes32"
				},
				{
					"indexed": false,
					"internalType": "uint256",
					"name": "fromChain",
					"type": "uint256"
				},
				{
					"indexed": false,
					"internalType": "uint256",
					"name": "toChain",
					"type": "uint256"
				},
				{
					"indexed": false,
					"internalType": "bytes",
					"name": "data",
					"type": "bytes"
				}
			],
			"name": "mapTransferOutData",
			"type": "event"
		},
		{
			"inputs": [
				{
					"internalType": "address[]",
					"name": "token",
					"type": "address[]"
				}
			],
			"name": "addAuthToken",
			"outputs": [],
			"stateMutability": "nonpayable",
			"type": "function"
		},
		{
			"inputs": [
				{
					"internalType": "address",
					"name": "",
					"type": "address"
				}
			],
			"name": "authToken",
			"outputs": [
				{
					"internalType": "bool",
					"name": "",
					"type": "bool"
				}
			],
			"stateMutability": "view",
			"type": "function"
		},
		{
			"inputs": [
				{
					"internalType": "address",
					"name": "",
					"type": "address"
				}
			],
			"name": "bridgeAddress",
			"outputs": [
				{
					"internalType": "uint256",
					"name": "",
					"type": "uint256"
				}
			],
			"stateMutability": "view",
			"type": "function"
		},
		{
			"inputs": [
				{
					"internalType": "uint256",
					"name": "",
					"type": "uint256"
				}
			],
			"name": "chainGasFee",
			"outputs": [
				{
					"internalType": "uint256",
					"name": "",
					"type": "uint256"
				}
			],
			"stateMutability": "view",
			"type": "function"
		},
		{
			"inputs": [],
			"name": "chainGasFees",
			"outputs": [
				{
					"internalType": "uint256",
					"name": "",
					"type": "uint256"
				}
			],
			"stateMutability": "view",
			"type": "function"
		},
		{
			"inputs": [
				{
					"internalType": "address",
					"name": "_admin",
					"type": "address"
				}
			],
			"name": "changeAdmin",
			"outputs": [],
			"stateMutability": "nonpayable",
			"type": "function"
		},
		{
			"inputs": [
				{
					"internalType": "address",
					"name": "token",
					"type": "address"
				}
			],
			"name": "checkAuthToken",
			"outputs": [
				{
					"internalType": "bool",
					"name": "",
					"type": "bool"
				}
			],
			"stateMutability": "view",
			"type": "function"
		},
		{
			"inputs": [
				{
					"internalType": "address",
					"name": "from",
					"type": "address"
				},
				{
					"internalType": "address",
					"name": "to",
					"type": "address"
				}
			],
			"name": "depositOutNative",
			"outputs": [],
			"stateMutability": "payable",
			"type": "function"
		},
		{
			"inputs": [
				{
					"internalType": "address",
					"name": "token",
					"type": "address"
				},
				{
					"internalType": "address",
					"name": "from",
					"type": "address"
				},
				{
					"internalType": "address",
					"name": "to",
					"type": "address"
				},
				{
					"internalType": "uint256",
					"name": "amount",
					"type": "uint256"
				}
			],
			"name": "depositOutToken",
			"outputs": [],
			"stateMutability": "payable",
			"type": "function"
		},
		{
			"inputs": [],
			"name": "getAdmin",
			"outputs": [
				{
					"internalType": "address",
					"name": "",
					"type": "address"
				}
			],
			"stateMutability": "view",
			"type": "function"
		},
		{
			"inputs": [],
			"name": "getImplementation",
			"outputs": [
				{
					"internalType": "address",
					"name": "",
					"type": "address"
				}
			],
			"stateMutability": "view",
			"type": "function"
		},
		{
			"inputs": [
				{
					"internalType": "bytes",
					"name": "hash",
					"type": "bytes"
				}
			],
			"name": "getInfo",
			"outputs": [
				{
					"internalType": "address",
					"name": "to",
					"type": "address"
				},
				{
					"internalType": "uint256",
					"name": "value",
					"type": "uint256"
				},
				{
					"internalType": "bytes",
					"name": "data",
					"type": "bytes"
				},
				{
					"internalType": "address",
					"name": "gasToken",
					"type": "address"
				},
				{
					"internalType": "address",
					"name": "refundReceiver",
					"type": "address"
				},
				{
					"internalType": "bytes",
					"name": "signatures",
					"type": "bytes"
				}
			],
			"stateMutability": "view",
			"type": "function"
		},
		{
			"inputs": [
				{
					"internalType": "address",
					"name": "_wToken",
					"type": "address"
				},
				{
					"internalType": "address",
					"name": "_mapToken",
					"type": "address"
				},
				{
					"internalType": "address",
					"name": "_lightNode",
					"type": "address"
				}
			],
			"name": "initialize",
			"outputs": [],
			"stateMutability": "nonpayable",
			"type": "function"
		},
		{
			"inputs": [],
			"name": "lightNode",
			"outputs": [
				{
					"internalType": "contract ILightNode",
					"name": "",
					"type": "address"
				}
			],
			"stateMutability": "view",
			"type": "function"
		},
		{
			"inputs": [],
			"name": "mapToken",
			"outputs": [
				{
					"internalType": "contract IERC20",
					"name": "",
					"type": "address"
				}
			],
			"stateMutability": "view",
			"type": "function"
		},
		{
			"inputs": [],
			"name": "mapTransferOutTopic",
			"outputs": [
				{
					"internalType": "bytes32",
					"name": "",
					"type": "bytes32"
				}
			],
			"stateMutability": "view",
			"type": "function"
		},
		{
			"inputs": [],
			"name": "nearChainId",
			"outputs": [
				{
					"internalType": "uint256",
					"name": "",
					"type": "uint256"
				}
			],
			"stateMutability": "view",
			"type": "function"
		},
		{
			"inputs": [],
			"name": "nonce",
			"outputs": [
				{
					"internalType": "uint256",
					"name": "",
					"type": "uint256"
				}
			],
			"stateMutability": "view",
			"type": "function"
		},
		{
			"inputs": [
				{
					"internalType": "bytes32",
					"name": "",
					"type": "bytes32"
				}
			],
			"name": "orderList",
			"outputs": [
				{
					"internalType": "bool",
					"name": "",
					"type": "bool"
				}
			],
			"stateMutability": "view",
			"type": "function"
		},
		{
			"inputs": [],
			"name": "paused",
			"outputs": [
				{
					"internalType": "bool",
					"name": "",
					"type": "bool"
				}
			],
			"stateMutability": "view",
			"type": "function"
		},
		{
			"inputs": [],
			"name": "proxiableUUID",
			"outputs": [
				{
					"internalType": "bytes32",
					"name": "",
					"type": "bytes32"
				}
			],
			"stateMutability": "view",
			"type": "function"
		},
		{
			"inputs": [
				{
					"internalType": "address[]",
					"name": "token",
					"type": "address[]"
				}
			],
			"name": "removeAuthToken",
			"outputs": [],
			"stateMutability": "nonpayable",
			"type": "function"
		},
		{
			"inputs": [],
			"name": "selfChainId",
			"outputs": [
				{
					"internalType": "uint256",
					"name": "",
					"type": "uint256"
				}
			],
			"stateMutability": "view",
			"type": "function"
		},
		{
			"inputs": [
				{
					"internalType": "address",
					"name": "_bridge",
					"type": "address"
				},
				{
					"internalType": "uint256",
					"name": "_num",
					"type": "uint256"
				}
			],
			"name": "setBridge",
			"outputs": [],
			"stateMutability": "nonpayable",
			"type": "function"
		},
		{
			"inputs": [
				{
					"internalType": "address",
					"name": "token",
					"type": "address"
				},
				{
					"internalType": "uint256",
					"name": "chainId",
					"type": "uint256"
				},
				{
					"internalType": "bool",
					"name": "canBridge",
					"type": "bool"
				}
			],
			"name": "setCanBridgeToken",
			"outputs": [],
			"stateMutability": "nonpayable",
			"type": "function"
		},
		{
			"inputs": [
				{
					"internalType": "uint256",
					"name": "_id",
					"type": "uint256"
				}
			],
			"name": "setChainId",
			"outputs": [],
			"stateMutability": "nonpayable",
			"type": "function"
		},
		{
			"inputs": [],
			"name": "setPause",
			"outputs": [],
			"stateMutability": "nonpayable",
			"type": "function"
		},
		{
			"inputs": [],
			"name": "setUnpause",
			"outputs": [],
			"stateMutability": "nonpayable",
			"type": "function"
		},
		{
			"inputs": [
				{
					"internalType": "bytes32",
					"name": "",
					"type": "bytes32"
				}
			],
			"name": "tokenRegister",
			"outputs": [
				{
					"internalType": "address",
					"name": "",
					"type": "address"
				}
			],
			"stateMutability": "view",
			"type": "function"
		},
		{
			"inputs": [
				{
					"internalType": "uint256",
					"name": "",
					"type": "uint256"
				},
				{
					"internalType": "bytes",
					"name": "receiptProof",
					"type": "bytes"
				}
			],
			"name": "transferIn",
			"outputs": [],
			"stateMutability": "nonpayable",
			"type": "function"
		},
		{
			"inputs": [
				{
					"internalType": "address",
					"name": "toContract",
					"type": "address"
				},
				{
					"internalType": "uint256",
					"name": "toChain",
					"type": "uint256"
				},
				{
					"internalType": "bytes",
					"name": "data",
					"type": "bytes"
				}
			],
			"name": "transferOut",
			"outputs": [],
			"stateMutability": "nonpayable",
			"type": "function"
		},
		{
			"inputs": [
				{
					"internalType": "bytes",
					"name": "toAddress",
					"type": "bytes"
				},
				{
					"internalType": "uint256",
					"name": "toChain",
					"type": "uint256"
				}
			],
			"name": "transferOutNative",
			"outputs": [],
			"stateMutability": "payable",
			"type": "function"
		},
		{
			"inputs": [
				{
					"internalType": "address",
					"name": "token",
					"type": "address"
				},
				{
					"internalType": "bytes",
					"name": "toAddress",
					"type": "bytes"
				},
				{
					"internalType": "uint256",
					"name": "amount",
					"type": "uint256"
				},
				{
					"internalType": "uint256",
					"name": "toChain",
					"type": "uint256"
				}
			],
			"name": "transferOutToken",
			"outputs": [],
			"stateMutability": "nonpayable",
			"type": "function"
		},
		{
			"inputs": [
				{
					"internalType": "address",
					"name": "newImplementation",
					"type": "address"
				}
			],
			"name": "upgradeTo",
			"outputs": [],
			"stateMutability": "nonpayable",
			"type": "function"
		},
		{
			"inputs": [
				{
					"internalType": "address",
					"name": "newImplementation",
					"type": "address"
				},
				{
					"internalType": "bytes",
					"name": "data",
					"type": "bytes"
				}
			],
			"name": "upgradeToAndCall",
			"outputs": [],
			"stateMutability": "payable",
			"type": "function"
		},
		{
			"inputs": [],
			"name": "wToken",
			"outputs": [
				{
					"internalType": "address",
					"name": "",
					"type": "address"
				}
			],
			"stateMutability": "view",
			"type": "function"
		},
		{
			"inputs": [
				{
					"internalType": "address",
					"name": "token",
					"type": "address"
				},
				{
					"internalType": "address payable",
					"name": "receiver",
					"type": "address"
				},
				{
					"internalType": "uint256",
					"name": "amount",
					"type": "uint256"
				}
			],
			"name": "withdraw",
			"outputs": [],
			"stateMutability": "nonpayable",
			"type": "function"
		},
		{
			"stateMutability": "payable",
			"type": "receive"
		}
	],
	"bytecode": "0x60c06040523060601b6080524660a05234801561001b57600080fd5b5060016000819055805462ff00001916905560805160601c60a051613b0b6100866000396000818161068b01528181610a28015281816111e70152611c6f0152600081816107560152818161079601528181610a8301528181610ac30152610bac0152613b0b6000f3fe60806040526004361061021e5760003560e01c80638d2e681511610123578063bf5765ff116100ab578063d431b1ac1161006f578063d431b1ac146106cd578063d9caed12146106e2578063dc3aff9014610702578063e6984f8d14610715578063ef0e2ff41461072b57600080fd5b8063bf5765ff14610624578063c0c53b8b14610644578063c3543b5c14610664578063cc9e3e8914610679578063d24c6944146106ad57600080fd5b8063aaf10f42116100f2578063aaf10f421461057c578063af65363614610591578063affed0e0146105c1578063b2f177b3146105d7578063bbe359481461060457600080fd5b80638d2e6815146104fc5780638f2839701461051c5780639485d2931461053c578063981aff4e1461055c57600080fd5b806352ef4b14116101a65780636af6400d116101755780636af6400d146104555780636e9960c3146104855780637d42fd2d1461049a578063848cb5c6146104c75780638bc67517146104dc57600080fd5b806352ef4b14146103d25780635b6edeea146104045780635c975abb146104175780635f670bd31461043557600080fd5b80633659cfe6116101ed5780633659cfe6146103575780633d4a2f6e146103775780634f1ef2861461038a5780635062cac51461039d57806352d1902d146103bd57600080fd5b80630babd864146102775780630bf1b36a146102b45780630f770549146102fd57806315e652c71461032157600080fd5b36610272576005546001600160a01b031633146102705760405162461bcd60e51b815260206004820152600b60248201526a37b7363c903baa37b5b2b760a91b60448201526064015b60405180910390fd5b005b600080fd5b34801561028357600080fd5b50600554610297906001600160a01b031681565b6040516001600160a01b0390911681526020015b60405180910390f35b3480156102c057600080fd5b506102ed6102cf366004612eec565b6001600160a01b03166000908152600b602052604090205460ff1690565b60405190151581526020016102ab565b34801561030957600080fd5b5061031360065481565b6040519081526020016102ab565b34801561032d57600080fd5b5061029761033c3660046133a7565b6007602052600090815260409020546001600160a01b031681565b34801561036357600080fd5b50610270610372366004612eec565b61074b565b6102706103853660046134e0565b610814565b6102706103983660046130e6565b610a78565b3480156103a957600080fd5b506102706103b83660046131c0565b610b32565b3480156103c957600080fd5b50610313610b9f565b3480156103de57600080fd5b506103f26103ed3660046133d9565b610c52565b6040516102ab9695949392919061369d565b610270610412366004613095565b610ca7565b34801561042357600080fd5b5060015462010000900460ff166102ed565b34801561044157600080fd5b50600454610297906001600160a01b031681565b34801561046157600080fd5b506102ed6104703660046133a7565b60096020526000908152604090205460ff1681565b34801561049157600080fd5b50610297610d6f565b3480156104a657600080fd5b506103136104b5366004612eec565b600c6020526000908152604090205481565b3480156104d357600080fd5b50610270610d7e565b3480156104e857600080fd5b506102706104f736600461324f565b610dc0565b34801561050857600080fd5b50610270610517366004613194565b610e60565b34801561052857600080fd5b50610270610537366004612eec565b610eb4565b34801561054857600080fd5b50600354610297906001600160a01b031681565b34801561056857600080fd5b50610270610577366004613135565b610f3a565b34801561058857600080fd5b50610297611238565b34801561059d57600080fd5b506102ed6105ac366004612eec565b600b6020526000908152604090205460ff1681565b3480156105cd57600080fd5b5061031360025481565b3480156105e357600080fd5b506103136105f23660046133a7565b60086020526000908152604090205481565b34801561061057600080fd5b5061027061061f36600461324f565b611242565b34801561063057600080fd5b5061027061063f3660046131f7565b6112e2565b34801561065057600080fd5b5061027061065f36600461304a565b6112ef565b34801561067057600080fd5b50610313611444565b34801561068557600080fd5b506103137f000000000000000000000000000000000000000000000000000000000000000081565b3480156106b957600080fd5b506102706106c8366004613524565b61146c565b3480156106d957600080fd5b5061027061170a565b3480156106ee57600080fd5b506102706106fd366004613009565b61174a565b610270610710366004612fd0565b611832565b34801561072157600080fd5b50610313600a5481565b34801561073757600080fd5b506102706107463660046133a7565b611983565b306001600160a01b037f00000000000000000000000000000000000000000000000000000000000000001614156107945760405162461bcd60e51b81526004016102679061377f565b7f00000000000000000000000000000000000000000000000000000000000000006001600160a01b03166107c66119fb565b6001600160a01b0316146107ec5760405162461bcd60e51b8152600401610267906137cb565b6107f581611a1c565b6040805160008082526020820190925261081191839190611a8e565b50565b61081c611c08565b60008181527f81955a0a11e65eac625c29e8882660bae4e165a75d72780094acae8ece9a29ee6020526040812054829060ff166108925760405162461bcd60e51b8152602060048201526014602482015273746f6b656e206e6f742063616e2062726964676560601b6044820152606401610267565b6006548314156108f557600284511015806108af57506040845111155b6108f05760405162461bcd60e51b81526020600482015260126024820152713732b0b91030b2323932b9b99032b93937b960711b6044820152606401610267565b610936565b83516014146109365760405162461bcd60e51b815260206004820152600d60248201526c30b2323932b9b99032b93937b960991b6044820152606401610267565b34806109765760405162461bcd60e51b815260206004820152600f60248201526e62616c616e6365206973207a65726f60881b6044820152606401610267565b6000610986600033888589611c54565b9050600560009054906101000a90046001600160a01b03166001600160a01b031663d0e30db0836040518263ffffffff1660e01b81526004016000604051808303818588803b1580156109d857600080fd5b505af11580156109ec573d6000803e3d6000fd5b50505050507faca0a1067548270e80c1209ec69b5381d80bdaf345ad70cf7f00af9c6ed3f9b4610a1c6000611cc6565b610a2533611cc6565b837f0000000000000000000000000000000000000000000000000000000000000000898b88610a546000611cc6565b604051610a68989796959493929190613708565b60405180910390a1505050505050565b306001600160a01b037f0000000000000000000000000000000000000000000000000000000000000000161415610ac15760405162461bcd60e51b81526004016102679061377f565b7f00000000000000000000000000000000000000000000000000000000000000006001600160a01b0316610af36119fb565b6001600160a01b031614610b195760405162461bcd60e51b8152600401610267906137cb565b610b2282611a1c565b610b2e82826001611a8e565b5050565b610b3a611cfc565b6001600160a01b0316336001600160a01b031614610b6a5760405162461bcd60e51b815260040161026790613817565b6001600160a01b03929092166000908152600d6020908152604080832093835292905220805460ff1916911515919091179055565b6000306001600160a01b037f00000000000000000000000000000000000000000000000000000000000000001614610c3f5760405162461bcd60e51b815260206004820152603860248201527f555550535570677261646561626c653a206d757374206e6f742062652063616c60448201527f6c6564207468726f7567682064656c656761746563616c6c00000000000000006064820152608401610267565b50600080516020613a8f83398151915290565b6000806060600080606086806020019051810190610c709190612f09565b90919293949550909192939450909192935090919250809650819750829850839950849a50859b5050505050505091939550919395565b610caf611c08565b336001600160a01b03841614610cfa5760405162461bcd60e51b815260206004820152601060248201526f333937b69037b7363c9039b2b73232b960811b6044820152606401610267565b6000610d138585610d0a86611cc6565b856158f8611c54565b9050610d2185853085611d24565b7f6761cff29e43e6df48b8174b446322ba0fcac7d4bb1e4efee9cf84fe95c400ed85610d4c86611cc6565b838686604051610d6095949392919061365f565b60405180910390a15050505050565b6000610d79611cfc565b905090565b610d86611cfc565b6001600160a01b0316336001600160a01b031614610db65760405162461bcd60e51b815260040161026790613817565b610dbe611e54565b565b610dc8611cfc565b6001600160a01b0316336001600160a01b031614610df85760405162461bcd60e51b815260040161026790613817565b60005b8151811015610b2e576000600b6000848481518110610e1c57610e1c613a3f565b6020908102919091018101516001600160a01b03168252810191909152604001600020805460ff191691151591909117905580610e5881613a0e565b915050610dfb565b610e68611cfc565b6001600160a01b0316336001600160a01b031614610e985760405162461bcd60e51b815260040161026790613817565b6001600160a01b039091166000908152600c6020526040902055565b610ebc611cfc565b6001600160a01b0316336001600160a01b031614610eec5760405162461bcd60e51b815260040161026790613817565b6001600160a01b038116610f315760405162461bcd60e51b815260206004820152600c60248201526b7a65726f206164647265737360a01b6044820152606401610267565b61081181611ea8565b610f42611c08565b6001600160a01b0384166000908152600d602090815260408083208484529091529020548490829060ff16610fb05760405162461bcd60e51b8152602060048201526014602482015273746f6b656e206e6f742063616e2062726964676560601b6044820152606401610267565b6006548314156110135760028551101580610fcd57506040855111155b61100e5760405162461bcd60e51b81526020600482015260126024820152713732b0b91030b2323932b9b99032b93937b960711b6044820152606401610267565b611054565b84516014146110545760405162461bcd60e51b815260206004820152600d60248201526c30b2323932b9b99032b93937b960991b6044820152606401610267565b60006110638733888888611c54565b6040516370a0823160e01b815233600482015290915085906001600160a01b038916906370a082319060240160206040518083038186803b1580156110a757600080fd5b505afa1580156110bb573d6000803e3d6000fd5b505050506040513d601f19601f820116820180604052508101906110df91906133c0565b101561111f5760405162461bcd60e51b815260206004820152600f60248201526e62616c616e636520746f6f206c6f7760881b6044820152606401610267565b6001600160a01b0387166000908152600b602052604090205460ff16156111a55760405163079cc67960e41b8152336004820152602481018690526001600160a01b038816906379cc679090604401600060405180830381600087803b15801561118857600080fd5b505af115801561119c573d6000803e3d6000fd5b505050506111b1565b6111b187333088611d24565b7faca0a1067548270e80c1209ec69b5381d80bdaf345ad70cf7f00af9c6ed3f9b46111db88611cc6565b6111e433611cc6565b837f0000000000000000000000000000000000000000000000000000000000000000888b8b6112136000611cc6565b604051611227989796959493929190613708565b60405180910390a150505050505050565b6000610d796119fb565b61124a611cfc565b6001600160a01b0316336001600160a01b03161461127a5760405162461bcd60e51b815260040161026790613817565b60005b8151811015610b2e576001600b600084848151811061129e5761129e613a3f565b6020908102919091018101516001600160a01b03168252810191909152604001600020805460ff1916911515919091179055806112da81613a0e565b91505061127d565b6112ea611c08565b505050565b600154610100900460ff161580801561130c57506001805460ff16105b806113255750303b15801561132557506001805460ff16145b6113885760405162461bcd60e51b815260206004820152602e60248201527f496e697469616c697a61626c653a20636f6e747261637420697320616c72656160448201526d191e481a5b9a5d1a585b1a5e995960921b6064820152608401610267565b6001805460ff19168117905580156113aa576001805461ff0019166101001790555b600580546001600160a01b038087166001600160a01b031992831617909255634e4541536006556003805486841690831617905560048054928516929091169190911790556113f833611ea8565b801561143e576001805461ff00191681556040519081527f7f26b83ff96e1f2b6a682f133852f6798a09c465da95921460cefb3847402498906020015b60405180910390a15b50505050565b6040516020016114539061359c565b6040516020818303038152906040528051906020012081565b600260005414156114bf5760405162461bcd60e51b815260206004820152601f60248201527f5265656e7472616e637947756172643a207265656e7472616e742063616c6c006044820152606401610267565b60026000556114cc611c08565b6004805460405163016dc52760e41b8152600092839283926001600160a01b03909116916316dc527091611502918891016136f5565b600060405180830381600087803b15801561151c57600080fd5b505af1158015611530573d6000803e3d6000fd5b505050506040513d6000823e601f3d908101601f191682016040526115589190810190613324565b92509250925082829061157e5760405162461bcd60e51b815260040161026791906136f5565b50600061158a82611efc565b905060005b81518110156116fc5760008282815181106115ac576115ac613a3f565b60200260200101519050600081602001516000815181106115cf576115cf613a3f565b60200260200101518060200190518101906115ea91906133c0565b90506040516020016115fb9061359c565b604051602081830303815290604052805190602001208114156116e75781516001600160a01b03166000908152600c602052604090205461167e5760405162461bcd60e51b815260206004820152601860248201527f496c6c6567616c206163726f73732074686520636861696e00000000000000006044820152606401610267565b600080600080600080600088604001518060200190518101906116a1919061340d565b97509750975097509750975097505060006116bd826014015190565b905060006116cc856014015190565b90506116dd828a83878c8c8c612190565b5050505050505050505b505080806116f490613a0e565b91505061158f565b505060016000555050505050565b611712611cfc565b6001600160a01b0316336001600160a01b0316146117425760405162461bcd60e51b815260040161026790613817565b610dbe612334565b611752611cfc565b6001600160a01b0316336001600160a01b0316146117825760405162461bcd60e51b815260040161026790613817565b6001600160a01b0383166117b0576005546117a6906001600160a01b031682612375565b6112ea828261248b565b60405163a9059cbb60e01b81526001600160a01b0383811660048301526024820183905284169063a9059cbb90604401602060405180830381600087803b1580156117fa57600080fd5b505af115801561180e573d6000803e3d6000fd5b505050506040513d601f19601f8201168201806040525081019061143e9190613307565b61183a611c08565b336001600160a01b038316146118855760405162461bcd60e51b815260206004820152601060248201526f333937b69037b7363c9039b2b73232b960811b6044820152606401610267565b3460006118968185610d0a86611cc6565b9050813410156118da5760405162461bcd60e51b815260206004820152600f60248201526e62616c616e636520746f6f206c6f7760881b6044820152606401610267565b600560009054906101000a90046001600160a01b03166001600160a01b031663d0e30db0836040518263ffffffff1660e01b81526004016000604051808303818588803b15801561192a57600080fd5b505af115801561193e573d6000803e3d6000fd5b50505050507f6761cff29e43e6df48b8174b446322ba0fcac7d4bb1e4efee9cf84fe95c400ed600061196f86611cc6565b83868660405161143595949392919061365f565b61198b611cfc565b6001600160a01b0316336001600160a01b0316146119bb5760405162461bcd60e51b815260040161026790613817565b600081116119f65760405162461bcd60e51b815260206004820152600860248201526734b21032b93937b960c11b6044820152606401610267565b600655565b6000600080516020613a8f8339815191525b546001600160a01b0316919050565b611a24611cfc565b6001600160a01b0316336001600160a01b0316146108115760405162461bcd60e51b815260206004820152602160248201527f4c696768744e6f64653a206f6e6c792041646d696e2063616e207570677261646044820152606560f81b6064820152608401610267565b7f4910fdfa16fed3260ed0e7147f7cc6da11a60208b5b9406d12a635614ffd91435460ff1615611ac1576112ea83612554565b826001600160a01b03166352d1902d6040518163ffffffff1660e01b815260040160206040518083038186803b158015611afa57600080fd5b505afa925050508015611b2a575060408051601f3d908101601f19168201909252611b27918101906133c0565b60015b611b8d5760405162461bcd60e51b815260206004820152602e60248201527f45524331393637557067726164653a206e657720696d706c656d656e7461746960448201526d6f6e206973206e6f74205555505360901b6064820152608401610267565b600080516020613a8f8339815191528114611bfc5760405162461bcd60e51b815260206004820152602960248201527f45524331393637557067726164653a20756e737570706f727465642070726f786044820152681a58589b195555525160ba1b6064820152608401610267565b506112ea8383836125f3565b60015462010000900460ff1615610dbe5760405162461bcd60e51b815260206004820152601060248201526f14185d5cd8589b194e881c185d5cd95960821b6044820152606401610267565b6002805460009182611c6583613a0e565b91905055858588867f000000000000000000000000000000000000000000000000000000000000000087604051602001611ca597969594939291906135fb565b60405160208183030381529060405280519060200120905095945050505050565b604051606082811b6bffffffffffffffffffffffff19166020830152906034016040516020818303038152906040529050919050565b60007fb53127684a568b3173ae13b9f8a6016e243e63b6e8ee1178d6a717850b5d6103611a0d565b604080516001600160a01b0385811660248301528481166044830152606480830185905283518084039091018152608490920183526020820180516001600160e01b03166323b872dd60e01b1790529151600092839290881691611d889190613580565b6000604051808303816000865af19150503d8060008114611dc5576040519150601f19603f3d011682016040523d82523d6000602084013e611dca565b606091505b5091509150818015611df4575080511580611df4575080806020019051810190611df49190613307565b611e4c5760405162461bcd60e51b8152602060048201526024808201527f5472616e7366657248656c7065723a205452414e534645525f46524f4d5f46416044820152631253115160e21b6064820152608401610267565b505050505050565b611e5c612618565b6001805462ff0000191690557f5db9ee0a495bf2e6ff9c91a7834c1ba4fdd244a5e8aa4e537bd38aeae4b073aa335b6040516001600160a01b03909116815260200160405180910390a1565b7f7e644d79422f17c01e4894b5f4f588d331ebfa28653d42ae832dc59e38c9798f611ed1611cfc565b604080516001600160a01b03928316815291841660208301520160405180910390a161081181612667565b60606000611f39611f348460408051808201825260008082526020918201528151808301909252825182529182019181019190915290565b6126f3565b905080516001600160401b03811115611f5457611f54613a55565b604051908082528060200260200182016040528015611fb257816020015b611f9f604051806060016040528060006001600160a01b0316815260200160608152602001606081525090565b815260200190600190039081611f725790505b50915060005b8151811015612189576000611ffa611fe8848481518110611fdb57611fdb613a3f565b60200260200101516126f3565b600181518110611fdb57611fdb613a3f565b516001600160401b0381111561201257612012613a55565b60405190808252806020026020018201604052801561204557816020015b60608152602001906001900390816120305790505b50905060005b612063611fe8858581518110611fdb57611fdb613a3f565b518110156120d4576120a4612086611fe8868681518110611fdb57611fdb613a3f565b828151811061209757612097613a3f565b6020026020010151612808565b8282815181106120b6576120b6613a3f565b602002602001018190525080806120cc90613a0e565b91505061204b565b5060405180606001604052806121176120f8868681518110611fdb57611fdb613a3f565b60008151811061210a5761210a613a3f565b6020026020010151612885565b6001600160a01b03168152602001828152602001612155612143868681518110611fdb57611fdb613a3f565b60028151811061209757612097613a3f565b81525084838151811061216a5761216a613a3f565b602002602001018190525050808061218190613a0e565b915050611fb8565b5050919050565b600083815260096020526040902054839060ff16156121df5760405162461bcd60e51b815260206004820152600b60248201526a1bdc99195c88195e1a5cdd60aa1b6044820152606401610267565b6000818152600960205260409020805460ff191660011790556001600160a01b03881661222b5760055461221c906001600160a01b031686612375565b612226868661248b565b6122be565b6001600160a01b0388166000908152600b602052604090205460ff16156122b3576040516340c10f1960e01b81526001600160a01b038781166004830152602482018790528916906340c10f1990604401600060405180830381600087803b15801561229657600080fd5b505af11580156122aa573d6000803e3d6000fd5b505050506122be565b6122be8887876128a5565b83876040516122cd9190613580565b60408051918290038220868352602083018690526001600160a01b038a811684840152606084018a905291519092918c16917fd9fedc891b9a6aebd6a4e09cedbcbb83091a18befe79e2f5a26ec3409469cc8d919081900360800190a45050505050505050565b61233c611c08565b6001805462ff00001916620100001790557f62e78cea01bee320cd4e420270b5ea74000d11b0c9f74754ebdbfc544b05a258611e8b3390565b600080836001600160a01b0316632e1a7d4d8460405160240161239a91815260200190565b6040516020818303038152906040529060e01b6020820180516001600160e01b0383818316178352505050506040516123d39190613580565b6000604051808303816000865af19150503d8060008114612410576040519150601f19603f3d011682016040523d82523d6000602084013e612415565b606091505b509150915081801561243f57508051158061243f57508080602001905181019061243f9190613307565b61143e5760405162461bcd60e51b815260206004820152601f60248201527f5472616e7366657248656c7065723a2057695448445241575f4641494c4544006044820152606401610267565b604080516000808252602082019092526001600160a01b0384169083906040516124b59190613580565b60006040518083038185875af1925050503d80600081146124f2576040519150601f19603f3d011682016040523d82523d6000602084013e6124f7565b606091505b50509050806112ea5760405162461bcd60e51b815260206004820152602360248201527f5472616e7366657248656c7065723a204554485f5452414e534645525f46414960448201526213115160ea1b6064820152608401610267565b6001600160a01b0381163b6125c15760405162461bcd60e51b815260206004820152602d60248201527f455243313936373a206e657720696d706c656d656e746174696f6e206973206e60448201526c1bdd08184818dbdb9d1c9858dd609a1b6064820152608401610267565b80600080516020613a8f8339815191525b80546001600160a01b0319166001600160a01b039290921691909117905550565b6125fc836129c0565b6000825111806126095750805b156112ea5761143e8383612a00565b60015462010000900460ff16610dbe5760405162461bcd60e51b815260206004820152601460248201527314185d5cd8589b194e881b9bdd081c185d5cd95960621b6044820152606401610267565b6001600160a01b0381166126cc5760405162461bcd60e51b815260206004820152602660248201527f455243313936373a206e65772061646d696e20697320746865207a65726f206160448201526564647265737360d01b6064820152608401610267565b807fb53127684a568b3173ae13b9f8a6016e243e63b6e8ee1178d6a717850b5d61036125d2565b60606126fe82612a2c565b61270757600080fd5b600061271283612a65565b90506000816001600160401b0381111561272e5761272e613a55565b60405190808252806020026020018201604052801561277357816020015b604080518082019091526000808252602082015281526020019060019003908161274c5790505b50905060006127858560200151612ae8565b856020015161279491906138a5565b90506000805b848110156127fd576127ab83612b63565b91506040518060400160405280838152602001848152508482815181106127d4576127d4613a3f565b60209081029190910101526127e982846138a5565b9250806127f581613a0e565b91505061279a565b509195945050505050565b805160609061281657600080fd5b60008061282284612c0c565b915091506000816001600160401b0381111561284057612840613a55565b6040519080825280601f01601f19166020018201604052801561286a576020820181803683370190505b5090506020810161287c848285612c53565b50949350505050565b805160009060151461289657600080fd5b61289f82612cd2565b92915050565b604080516001600160a01b038481166024830152604480830185905283518084039091018152606490920183526020820180516001600160e01b031663a9059cbb60e01b17905291516000928392908716916129019190613580565b6000604051808303816000865af19150503d806000811461293e576040519150601f19603f3d011682016040523d82523d6000602084013e612943565b606091505b509150915081801561296d57508051158061296d57508080602001905181019061296d9190613307565b6129b95760405162461bcd60e51b815260206004820152601f60248201527f5472616e7366657248656c7065723a205452414e534645525f4641494c4544006044820152606401610267565b5050505050565b6129c981612554565b6040516001600160a01b038216907fbc7cd75a20ee27fd9adebab32041f755214dbc6bffa90cc0225b39da2e5c2d3b90600090a250565b6060612a258383604051806060016040528060278152602001613aaf60279139612d20565b9392505050565b8051600090612a3d57506000919050565b6020820151805160001a9060c0821015612a5b575060009392505050565b5060019392505050565b8051600090612a7657506000919050565b600080612a868460200151612ae8565b8460200151612a9591906138a5565b9050600084600001518560200151612aad91906138a5565b90505b80821015612adf57612ac182612b63565b612acb90836138a5565b915082612ad781613a0e565b935050612ab0565b50909392505050565b8051600090811a6080811015612b015750600092915050565b60b8811080612b1c575060c08110801590612b1c575060f881105b15612b2a5750600192915050565b60c0811015612b5757612b3f600160b86139bf565b612b4c9060ff16826139a8565b612a259060016138a5565b612b3f600160f86139bf565b80516000908190811a6080811015612b7e5760019150612c05565b60b8811015612ba457612b926080826139a8565b612b9d9060016138a5565b9150612c05565b60c0811015612bd15760b78103600185019450806020036101000a85510460018201810193505050612c05565b60f8811015612be557612b9260c0826139a8565b60f78103600185019450806020036101000a855104600182018101935050505b5092915050565b6000806000612c1e8460200151612ae8565b90506000818560200151612c3291906138a5565b90506000828660000151612c4691906139a8565b9196919550909350505050565b80612c5d57505050565b60208110612c955782518252612c746020846138a5565b9250612c816020836138a5565b9150612c8e6020826139a8565b9050612c5d565b80156112ea5760006001612caa8360206139a8565b612cb690610100613900565b612cc091906139a8565b84518451821691191617835250505050565b805160009015801590612ce757508151602110155b612cf057600080fd5b600080612cfc84612c0c565b815191935091506020821015612d185760208290036101000a90045b949350505050565b60606001600160a01b0384163b612d885760405162461bcd60e51b815260206004820152602660248201527f416464726573733a2064656c65676174652063616c6c20746f206e6f6e2d636f6044820152651b9d1c9858dd60d21b6064820152608401610267565b600080856001600160a01b031685604051612da39190613580565b600060405180830381855af49150503d8060008114612dde576040519150601f19603f3d011682016040523d82523d6000602084013e612de3565b606091505b5091509150612df3828286612dfd565b9695505050505050565b60608315612e0c575081612a25565b825115612e1c5782518084602001fd5b8160405162461bcd60e51b815260040161026791906136f5565b6000612e49612e448461387e565b61384e565b9050828152838383011115612e5d57600080fd5b612a258360208301846139e2565b8051612e7681613a6b565b919050565b600082601f830112612e8c57600080fd5b8135612e9a612e448261387e565b818152846020838601011115612eaf57600080fd5b816020850160208301376000918101602001919091529392505050565b600082601f830112612edd57600080fd5b612a2583835160208501612e36565b600060208284031215612efe57600080fd5b8135612a2581613a6b565b6000806000806000806000806000806101408b8d031215612f2957600080fd5b612f328b612e6b565b995060208b0151985060408b01516001600160401b0380821115612f5557600080fd5b612f618e838f01612ecc565b995060608d0151985060808d0151975060a08d0151965060c08d01519550612f8b60e08e01612e6b565b9450612f9a6101008e01612e6b565b93506101208d0151915080821115612fb157600080fd5b50612fbe8d828e01612ecc565b9150509295989b9194979a5092959850565b60008060408385031215612fe357600080fd5b8235612fee81613a6b565b91506020830135612ffe81613a6b565b809150509250929050565b60008060006060848603121561301e57600080fd5b833561302981613a6b565b9250602084013561303981613a6b565b929592945050506040919091013590565b60008060006060848603121561305f57600080fd5b833561306a81613a6b565b9250602084013561307a81613a6b565b9150604084013561308a81613a6b565b809150509250925092565b600080600080608085870312156130ab57600080fd5b84356130b681613a6b565b935060208501356130c681613a6b565b925060408501356130d681613a6b565b9396929550929360600135925050565b600080604083850312156130f957600080fd5b823561310481613a6b565b915060208301356001600160401b0381111561311f57600080fd5b61312b85828601612e7b565b9150509250929050565b6000806000806080858703121561314b57600080fd5b843561315681613a6b565b935060208501356001600160401b0381111561317157600080fd5b61317d87828801612e7b565b949794965050505060408301359260600135919050565b600080604083850312156131a757600080fd5b82356131b281613a6b565b946020939093013593505050565b6000806000606084860312156131d557600080fd5b83356131e081613a6b565b925060208401359150604084013561308a81613a80565b60008060006060848603121561320c57600080fd5b833561321781613a6b565b92506020840135915060408401356001600160401b0381111561323957600080fd5b61324586828701612e7b565b9150509250925092565b6000602080838503121561326257600080fd5b82356001600160401b038082111561327957600080fd5b818501915085601f83011261328d57600080fd5b81358181111561329f5761329f613a55565b8060051b91506132b084830161384e565b8181528481019084860184860187018a10156132cb57600080fd5b600095505b838610156132fa57803594506132e585613a6b565b848352600195909501949186019186016132d0565b5098975050505050505050565b60006020828403121561331957600080fd5b8151612a2581613a80565b60008060006060848603121561333957600080fd5b835161334481613a80565b60208501519093506001600160401b038082111561336157600080fd5b818601915086601f83011261337557600080fd5b61338487835160208501612e36565b9350604086015191508082111561339a57600080fd5b5061324586828701612ecc565b6000602082840312156133b957600080fd5b5035919050565b6000602082840312156133d257600080fd5b5051919050565b6000602082840312156133eb57600080fd5b81356001600160401b0381111561340157600080fd5b612d1884828501612e7b565b600080600080600080600080610100898b03121561342a57600080fd5b88516001600160401b038082111561344157600080fd5b61344d8c838d01612ecc565b995060208b015191508082111561346357600080fd5b61346f8c838d01612ecc565b985060408b0151975060608b0151965060808b0151955060a08b015191508082111561349a57600080fd5b6134a68c838d01612ecc565b945060c08b0151935060e08b01519150808211156134c357600080fd5b506134d08b828c01612ecc565b9150509295985092959890939650565b600080604083850312156134f357600080fd5b82356001600160401b0381111561350957600080fd5b61351585828601612e7b565b95602094909401359450505050565b6000806040838503121561353757600080fd5b8235915060208301356001600160401b0381111561311f57600080fd5b6000815180845261356c8160208601602086016139e2565b601f01601f19169290920160200192915050565b600082516135928184602087016139e2565b9190910192915050565b7f6d61705472616e736665724f75742862797465732c62797465732c627974657381527f33322c75696e743235362c75696e743235362c62797465732c75696e743235366020820152662c62797465732960c81b604082015260470190565b87815260006bffffffffffffffffffffffff19808960601b166020840152875161362c816034860160208c016139e2565b60609790971b1691909501603481019190915260488101939093526068830191909152608882015260a801949350505050565b600060018060a01b03808816835260a0602084015261368160a0840188613554565b6040840196909652939093166060820152608001525092915050565b600060018060a01b03808916835287602084015260c060408401526136c560c0840188613554565b8187166060850152818616608085015283810360a08501526136e78186613554565b9a9950505050505050505050565b602081526000612a256020830184613554565b600061010080835261371c8184018c613554565b90508281036020840152613730818b613554565b905088604084015287606084015286608084015282810360a08401526137568187613554565b90508460c084015282810360e08401526137708185613554565b9b9a5050505050505050505050565b6020808252602c908201527f46756e6374696f6e206d7573742062652063616c6c6564207468726f7567682060408201526b19195b1959d85d1958d85b1b60a21b606082015260800190565b6020808252602c908201527f46756e6374696f6e206d7573742062652063616c6c6564207468726f7567682060408201526b6163746976652070726f787960a01b606082015260800190565b60208082526017908201527f6c696768746e6f6465203a3a206f6e6c792061646d696e000000000000000000604082015260600190565b604051601f8201601f191681016001600160401b038111828210171561387657613876613a55565b604052919050565b60006001600160401b0382111561389757613897613a55565b50601f01601f191660200190565b600082198211156138b8576138b8613a29565b500190565b600181815b808511156138f85781600019048211156138de576138de613a29565b808516156138eb57918102915b93841c93908002906138c2565b509250929050565b6000612a2583836000826139165750600161289f565b816139235750600061289f565b816001811461393957600281146139435761395f565b600191505061289f565b60ff84111561395457613954613a29565b50506001821b61289f565b5060208310610133831016604e8410600b8410161715613982575081810a61289f565b61398c83836138bd565b80600019048211156139a0576139a0613a29565b029392505050565b6000828210156139ba576139ba613a29565b500390565b600060ff821660ff8416808210156139d9576139d9613a29565b90039392505050565b60005b838110156139fd5781810151838201526020016139e5565b8381111561143e5750506000910152565b6000600019821415613a2257613a22613a29565b5060010190565b634e487b7160e01b600052601160045260246000fd5b634e487b7160e01b600052603260045260246000fd5b634e487b7160e01b600052604160045260246000fd5b6001600160a01b038116811461081157600080fd5b801515811461081157600080fdfe360894a13ba1a3210667c828492db98dca3e2076cc3735a920a3ca505d382bbc416464726573733a206c6f772d6c6576656c2064656c65676174652063616c6c206661696c6564a26469706673582212207e6fd4beb1f044020e67b2f4e3e40d4e56f4e351f366f7bd8637215c381f4bb264736f6c63430008070033",
	"linkReferences": {},
	"deployedLinkReferences": {}
}