{
	"_format": "hh-sol-artifact-1",
	"contractName": "MAPOmnichainServiceRelayV2",
	"sourceName": "contracts/MAPOmnichainServiceRelayV2.sol",
	"abi": [
		{
			"anonymous": false,
			"inputs": [
				{
					"indexed": false,
					"internalType": "address",
					"name": "previousAdmin",
					"type": "address"
				},
				{
					"indexed": false,
					"internalType": "address",
					"name": "newAdmin",
					"type": "address"
				}
			],
			"name": "AdminChanged",
			"type": "event"
		},
		{
			"anonymous": false,
			"inputs": [
				{
					"indexed": true,
					"internalType": "address",
					"name": "beacon",
					"type": "address"
				}
			],
			"name": "BeaconUpgraded",
			"type": "event"
		},
		{
			"anonymous": false,
			"inputs": [
				{
					"indexed": false,
					"internalType": "uint8",
					"name": "version",
					"type": "uint8"
				}
			],
			"name": "Initialized",
			"type": "event"
		},
		{
			"anonymous": false,
			"inputs": [
				{
					"indexed": false,
					"internalType": "address",
					"name": "account",
					"type": "address"
				}
			],
			"name": "Paused",
			"type": "event"
		},
		{
			"anonymous": false,
			"inputs": [
				{
					"indexed": false,
					"internalType": "address",
					"name": "account",
					"type": "address"
				}
			],
			"name": "Unpaused",
			"type": "event"
		},
		{
			"anonymous": false,
			"inputs": [
				{
					"indexed": true,
					"internalType": "address",
					"name": "implementation",
					"type": "address"
				}
			],
			"name": "Upgraded",
			"type": "event"
		},
		{
			"anonymous": false,
			"inputs": [
				{
					"indexed": true,
					"internalType": "address",
					"name": "token",
					"type": "address"
				},
				{
					"indexed": false,
					"internalType": "bytes",
					"name": "from",
					"type": "bytes"
				},
				{
					"indexed": true,
					"internalType": "address",
					"name": "to",
					"type": "address"
				},
				{
					"indexed": false,
					"internalType": "bytes32",
					"name": "orderId",
					"type": "bytes32"
				},
				{
					"indexed": false,
					"internalType": "uint256",
					"name": "amount",
					"type": "uint256"
				},
				{
					"indexed": false,
					"internalType": "uint256",
					"name": "fromChain",
					"type": "uint256"
				}
			],
			"name": "mapDepositIn",
			"type": "event"
		},
		{
			"anonymous": false,
			"inputs": [
				{
					"indexed": true,
					"internalType": "address",
					"name": "token",
					"type": "address"
				},
				{
					"indexed": false,
					"internalType": "bytes",
					"name": "from",
					"type": "bytes"
				},
				{
					"indexed": false,
					"internalType": "bytes32",
					"name": "orderId",
					"type": "bytes32"
				},
				{
					"indexed": false,
					"internalType": "uint256",
					"name": "fromChain",
					"type": "uint256"
				},
				{
					"indexed": false,
					"internalType": "uint256",
					"name": "toChain",
					"type": "uint256"
				},
				{
					"indexed": false,
					"internalType": "address",
					"name": "to",
					"type": "address"
				},
				{
					"indexed": false,
					"internalType": "uint256",
					"name": "amount",
					"type": "uint256"
				}
			],
			"name": "mapDepositOut",
			"type": "event"
		},
		{
			"anonymous": false,
			"inputs": [
				{
					"indexed": true,
					"internalType": "address",
					"name": "from",
					"type": "address"
				},
				{
					"indexed": true,
					"internalType": "uint256",
					"name": "fromChain",
					"type": "uint256"
				},
				{
					"indexed": true,
					"internalType": "uint256",
					"name": "toChain",
					"type": "uint256"
				}
			],
			"name": "mapTransferExecute",
			"type": "event"
		},
		{
			"anonymous": false,
			"inputs": [
				{
					"indexed": true,
					"internalType": "address",
					"name": "token",
					"type": "address"
				},
				{
					"indexed": true,
					"internalType": "bytes",
					"name": "from",
					"type": "bytes"
				},
				{
					"indexed": true,
					"internalType": "bytes32",
					"name": "orderId",
					"type": "bytes32"
				},
				{
					"indexed": false,
					"internalType": "uint256",
					"name": "fromChain",
					"type": "uint256"
				},
				{
					"indexed": false,
					"internalType": "uint256",
					"name": "toChain",
					"type": "uint256"
				},
				{
					"indexed": false,
					"internalType": "address",
					"name": "to",
					"type": "address"
				},
				{
					"indexed": false,
					"internalType": "uint256",
					"name": "amount",
					"type": "uint256"
				}
			],
			"name": "mapTransferIn",
			"type": "event"
		},
		{
			"anonymous": false,
			"inputs": [
				{
					"indexed": false,
					"internalType": "bytes",
					"name": "token",
					"type": "bytes"
				},
				{
					"indexed": false,
					"internalType": "bytes",
					"name": "from",
					"type": "bytes"
				},
				{
					"indexed": false,
					"internalType": "bytes32",
					"name": "orderId",
					"type": "bytes32"
				},
				{
					"indexed": false,
					"internalType": "uint256",
					"name": "fromChain",
					"type": "uint256"
				},
				{
					"indexed": false,
					"internalType": "uint256",
					"name": "toChain",
					"type": "uint256"
				},
				{
					"indexed": false,
					"internalType": "bytes",
					"name": "to",
					"type": "bytes"
				},
				{
					"indexed": false,
					"internalType": "uint256",
					"name": "amount",
					"type": "uint256"
				},
				{
					"indexed": false,
					"internalType": "bytes",
					"name": "toChainToken",
					"type": "bytes"
				}
			],
			"name": "mapTransferOut",
			"type": "event"
		},
		{
			"inputs": [
				{
					"internalType": "uint256",
					"name": "",
					"type": "uint256"
				}
			],
			"name": "chainTypes",
			"outputs": [
				{
					"internalType": "enum MAPOmnichainServiceRelayV2.chainType",
					"name": "",
					"type": "uint8"
				}
			],
			"stateMutability": "view",
			"type": "function"
		},
		{
			"inputs": [
				{
					"internalType": "address",
					"name": "_admin",
					"type": "address"
				}
			],
			"name": "changeAdmin",
			"outputs": [],
			"stateMutability": "nonpayable",
			"type": "function"
		},
		{
			"inputs": [
				{
					"internalType": "uint256",
					"name": "_chainId",
					"type": "uint256"
				},
				{
					"internalType": "bytes",
					"name": "_receiptProof",
					"type": "bytes"
				}
			],
			"name": "depositIn",
			"outputs": [],
			"stateMutability": "payable",
			"type": "function"
		},
		{
			"inputs": [
				{
					"internalType": "address",
					"name": "_to",
					"type": "address"
				}
			],
			"name": "depositNative",
			"outputs": [],
			"stateMutability": "payable",
			"type": "function"
		},
		{
			"inputs": [
				{
					"internalType": "address",
					"name": "_token",
					"type": "address"
				},
				{
					"internalType": "address",
					"name": "_to",
					"type": "address"
				},
				{
					"internalType": "uint256",
					"name": "_amount",
					"type": "uint256"
				}
			],
			"name": "depositToken",
			"outputs": [],
			"stateMutability": "nonpayable",
			"type": "function"
		},
		{
			"inputs": [
				{
					"internalType": "uint256",
					"name": "",
					"type": "uint256"
				}
			],
			"name": "distributeRate",
			"outputs": [
				{
					"internalType": "address",
					"name": "receiver",
					"type": "address"
				},
				{
					"internalType": "uint256",
					"name": "rate",
					"type": "uint256"
				}
			],
			"stateMutability": "view",
			"type": "function"
		},
		{
			"inputs": [
				{
					"internalType": "address",
					"name": "_token",
					"type": "address"
				},
				{
					"internalType": "address payable",
					"name": "_receiver",
					"type": "address"
				},
				{
					"internalType": "uint256",
					"name": "_amount",
					"type": "uint256"
				}
			],
			"name": "emergencyWithdraw",
			"outputs": [],
			"stateMutability": "nonpayable",
			"type": "function"
		},
		{
			"inputs": [],
			"name": "getAdmin",
			"outputs": [
				{
					"internalType": "address",
					"name": "",
					"type": "address"
				}
			],
			"stateMutability": "view",
			"type": "function"
		},
		{
			"inputs": [
				{
					"internalType": "uint256",
					"name": "_id",
					"type": "uint256"
				},
				{
					"internalType": "uint256",
					"name": "_amount",
					"type": "uint256"
				}
			],
			"name": "getFee",
			"outputs": [
				{
					"internalType": "uint256",
					"name": "",
					"type": "uint256"
				},
				{
					"internalType": "address",
					"name": "",
					"type": "address"
				}
			],
			"stateMutability": "view",
			"type": "function"
		},
		{
			"inputs": [],
			"name": "getImplementation",
			"outputs": [
				{
					"internalType": "address",
					"name": "",
					"type": "address"
				}
			],
			"stateMutability": "view",
			"type": "function"
		},
		{
			"inputs": [
				{
					"internalType": "address",
					"name": "_wToken",
					"type": "address"
				},
				{
					"internalType": "address",
					"name": "_managerAddress",
					"type": "address"
				}
			],
			"name": "initialize",
			"outputs": [],
			"stateMutability": "nonpayable",
			"type": "function"
		},
		{
			"inputs": [],
			"name": "lightClientManager",
			"outputs": [
				{
					"internalType": "contract ILightClientManager",
					"name": "",
					"type": "address"
				}
			],
			"stateMutability": "view",
			"type": "function"
		},
		{
			"inputs": [
				{
					"internalType": "uint256",
					"name": "",
					"type": "uint256"
				}
			],
			"name": "mosContracts",
			"outputs": [
				{
					"internalType": "bytes",
					"name": "",
					"type": "bytes"
				}
			],
			"stateMutability": "view",
			"type": "function"
		},
		{
			"inputs": [],
			"name": "nonce",
			"outputs": [
				{
					"internalType": "uint256",
					"name": "",
					"type": "uint256"
				}
			],
			"stateMutability": "view",
			"type": "function"
		},
		{
			"inputs": [
				{
					"internalType": "bytes32",
					"name": "",
					"type": "bytes32"
				}
			],
			"name": "orderList",
			"outputs": [
				{
					"internalType": "bool",
					"name": "",
					"type": "bool"
				}
			],
			"stateMutability": "view",
			"type": "function"
		},
		{
			"inputs": [],
			"name": "paused",
			"outputs": [
				{
					"internalType": "bool",
					"name": "",
					"type": "bool"
				}
			],
			"stateMutability": "view",
			"type": "function"
		},
		{
			"inputs": [],
			"name": "proxiableUUID",
			"outputs": [
				{
					"internalType": "bytes32",
					"name": "",
					"type": "bytes32"
				}
			],
			"stateMutability": "view",
			"type": "function"
		},
		{
			"inputs": [
				{
					"internalType": "uint256",
					"name": "_chainId",
					"type": "uint256"
				},
				{
					"internalType": "bytes",
					"name": "_address",
					"type": "bytes"
				},
				{
					"internalType": "enum MAPOmnichainServiceRelayV2.chainType",
					"name": "_type",
					"type": "uint8"
				}
			],
			"name": "registerChain",
			"outputs": [],
			"stateMutability": "nonpayable",
			"type": "function"
		},
		{
			"inputs": [],
			"name": "selfChainId",
			"outputs": [
				{
					"internalType": "uint256",
					"name": "",
					"type": "uint256"
				}
			],
			"stateMutability": "view",
			"type": "function"
		},
		{
			"inputs": [
				{
					"internalType": "uint256",
					"name": "_id",
					"type": "uint256"
				},
				{
					"internalType": "address",
					"name": "_to",
					"type": "address"
				},
				{
					"internalType": "uint256",
					"name": "_rate",
					"type": "uint256"
				}
			],
			"name": "setDistributeRate",
			"outputs": [],
			"stateMutability": "nonpayable",
			"type": "function"
		},
		{
			"inputs": [
				{
					"internalType": "address",
					"name": "_managerAddress",
					"type": "address"
				}
			],
			"name": "setLightClientManager",
			"outputs": [],
			"stateMutability": "nonpayable",
			"type": "function"
		},
		{
			"inputs": [],
			"name": "setPause",
			"outputs": [],
			"stateMutability": "nonpayable",
			"type": "function"
		},
		{
			"inputs": [
				{
					"internalType": "address",
					"name": "_register",
					"type": "address"
				}
			],
			"name": "setTokenManager",
			"outputs": [],
			"stateMutability": "nonpayable",
			"type": "function"
		},
		{
			"inputs": [],
			"name": "setUnpause",
			"outputs": [],
			"stateMutability": "nonpayable",
			"type": "function"
		},
		{
			"inputs": [],
			"name": "tokenRegister",
			"outputs": [
				{
					"internalType": "contract ITokenRegisterV2",
					"name": "",
					"type": "address"
				}
			],
			"stateMutability": "view",
			"type": "function"
		},
		{
			"inputs": [
				{
					"internalType": "uint256",
					"name": "_chainId",
					"type": "uint256"
				},
				{
					"internalType": "bytes",
					"name": "_receiptProof",
					"type": "bytes"
				}
			],
			"name": "transferIn",
			"outputs": [],
			"stateMutability": "nonpayable",
			"type": "function"
		},
		{
			"inputs": [
				{
					"internalType": "bytes",
					"name": "_to",
					"type": "bytes"
				},
				{
					"internalType": "uint256",
					"name": "_toChain",
					"type": "uint256"
				}
			],
			"name": "transferOutNative",
			"outputs": [],
			"stateMutability": "payable",
			"type": "function"
		},
		{
			"inputs": [
				{
					"internalType": "address",
					"name": "_token",
					"type": "address"
				},
				{
					"internalType": "bytes",
					"name": "_to",
					"type": "bytes"
				},
				{
					"internalType": "uint256",
					"name": "_amount",
					"type": "uint256"
				},
				{
					"internalType": "uint256",
					"name": "_toChain",
					"type": "uint256"
				}
			],
			"name": "transferOutToken",
			"outputs": [],
			"stateMutability": "nonpayable",
			"type": "function"
		},
		{
			"inputs": [
				{
					"internalType": "address",
					"name": "newImplementation",
					"type": "address"
				}
			],
			"name": "upgradeTo",
			"outputs": [],
			"stateMutability": "nonpayable",
			"type": "function"
		},
		{
			"inputs": [
				{
					"internalType": "address",
					"name": "newImplementation",
					"type": "address"
				},
				{
					"internalType": "bytes",
					"name": "data",
					"type": "bytes"
				}
			],
			"name": "upgradeToAndCall",
			"outputs": [],
			"stateMutability": "payable",
			"type": "function"
		},
		{
			"inputs": [],
			"name": "wToken",
			"outputs": [
				{
					"internalType": "address",
					"name": "",
					"type": "address"
				}
			],
			"stateMutability": "view",
			"type": "function"
		},
		{
			"inputs": [
				{
					"internalType": "address",
					"name": "_vaultToken",
					"type": "address"
				},
				{
					"internalType": "uint256",
					"name": "_vaultAmount",
					"type": "uint256"
				}
			],
			"name": "withdraw",
			"outputs": [],
			"stateMutability": "nonpayable",
			"type": "function"
		},
		{
			"stateMutability": "payable",
			"type": "receive"
		}
	],
	"bytecode": "0x60c06040523060601b6080524660a05234801561001b57600080fd5b5060016000819055805462ff00001916905560805160601c60a051615a6f620000b860003960008181610596015281816109c901528181610b7e01528181610c800152818161127d01528181611b0f01528181612b1c01528181612c6c015281816135440152818161439b0152614439015260008181610bbb01528181610bfb01528181610fda0152818161101a01526110920152615a6f6000f3fe6080604052600436106101e75760003560e01c80637cb2b79c11610102578063cc9e3e8911610095578063d687c35d11610064578063d687c35d1461062a578063e63ea4081461064a578063f3fef3a31461066a578063fb0f97a81461068a57600080fd5b8063cc9e3e8914610584578063d24c6944146105b8578063d250185c146105d8578063d431b1ac1461061557600080fd5b8063981aff4e116100d1578063981aff4e14610519578063aaf10f4214610539578063affed0e01461054e578063ca0da31f1461056457600080fd5b80637cb2b79c14610487578063848cb5c6146104a75780638d6ffd6a146104bc5780638f283970146104f957600080fd5b80633ea549a21161017a5780635c975abb116101495780635c975abb146103f85780636af6400d146104225780636e9960c314610452578063789728251461046757600080fd5b80633ea549a214610382578063485cc955146103a25780634f1ef286146103c257806352d1902d146103d557600080fd5b806333bb7f91116101b657806333bb7f911461030f5780633659cfe6146103225780633d4a2f6e146103425780633e2f1d0f1461035557600080fd5b80630babd86414610240578063145a65791461027d5780632e7ec23f146102dc5780632f5c5d5e146102ef57600080fd5b3661023b576003546001600160a01b031633146102395760405162461bcd60e51b815260206004820152600b60248201526a37b7363c903baa37b5b2b760a91b60448201526064015b60405180910390fd5b005b600080fd5b34801561024c57600080fd5b50600354610260906001600160a01b031681565b6040516001600160a01b0390911681526020015b60405180910390f35b34801561028957600080fd5b506102bd610298366004615041565b600660205260009081526040902080546001909101546001600160a01b039091169082565b604080516001600160a01b039093168352602083019190915201610274565b6102396102ea36600461525b565b6106aa565b3480156102fb57600080fd5b5061023961030a366004614e0e565b610a24565b61023961031d366004614e0e565b610aa6565b34801561032e57600080fd5b5061023961033d366004614e0e565b610bb0565b6102396103503660046151f0565b610c76565b34801561036157600080fd5b50610375610370366004615041565b610da8565b60405161027491906153d8565b34801561038e57600080fd5b50600454610260906001600160a01b031681565b3480156103ae57600080fd5b506102396103bd366004614e48565b610e42565b6102396103d0366004614ec2565b610fcf565b3480156103e157600080fd5b506103ea611085565b604051908152602001610274565b34801561040457600080fd5b5060015462010000900460ff165b6040519015158152602001610274565b34801561042e57600080fd5b5061041261043d366004615041565b60076020526000908152604090205460ff1681565b34801561045e57600080fd5b50610260611138565b34801561047357600080fd5b50600554610260906001600160a01b031681565b34801561049357600080fd5b506102396104a2366004614e0e565b611147565b3480156104b357600080fd5b506102396111c9565b3480156104c857600080fd5b506104ec6104d7366004615041565b60096020526000908152604090205460ff1681565b6040516102749190615491565b34801561050557600080fd5b50610239610514366004614e0e565b61120b565b34801561052557600080fd5b50610239610534366004614f11565b611273565b34801561054557600080fd5b50610260611394565b34801561055a57600080fd5b506103ea60025481565b34801561057057600080fd5b5061023961057f366004615234565b61139e565b34801561059057600080fd5b506103ea7f000000000000000000000000000000000000000000000000000000000000000081565b3480156105c457600080fd5b506102396105d336600461525b565b611521565b3480156105e457600080fd5b506105f86105f33660046152e9565b6117a5565b604080519283526001600160a01b03909116602083015201610274565b34801561062157600080fd5b506102396117fe565b34801561063657600080fd5b5061023961064536600461528b565b61183e565b34801561065657600080fd5b50610239610665366004614e81565b6118cb565b34801561067657600080fd5b50610239610685366004614f70565b61190e565b34801561069657600080fd5b506102396106a5366004614e81565b611b9b565b6106b2611c65565b6106ba611cbf565b600554604051637c55b7bd60e11b8152600091829182916001600160a01b03169063f8ab6f7a906106f1908890889060040161560a565b60006040518083038186803b15801561070957600080fd5b505afa15801561071d573d6000803e3d6000fd5b505050506040513d6000823e601f3d908101601f191682016040526107459190810190614fb7565b92509250925082829061076b5760405162461bcd60e51b815260040161023091906153d8565b50600260008681526009602052604090205460ff16600281111561079157610791615910565b14156108a0576000806107a383611d0b565b9150915061084c82600860008a815260200190815260200160002080546107c990615880565b80601f01602080910402602001604051908101604052809291908181526020018280546107f590615880565b80156108425780601f1061081757610100808354040283529160200191610842565b820191906000526020600020905b81548152906001019060200180831161082557829003601f168201915b505050505061200c565b61088f5760405162461bcd60e51b81526020600482015260146024820152731a5b9d985b1a59081b5bdcc818dbdb9d1c9858dd60621b6044820152606401610230565b6108998782612028565b50506109c4565b600160008681526009602052604090205460ff1660028111156108c5576108c5615910565b14156109c45760006108d682612357565b905060005b815181101561089957604051806080016040528060448152602001615968604491398051906020012082828151811061091657610916615926565b60200260200101516020015160008151811061093457610934615926565b602002602001015180602001905181019061094f919061505a565b14156109b25760008061097a84848151811061096d5761096d615926565b602002602001015161255a565b915091506109a082600860008c815260200190815260200160002080546107c990615880565b156109af576109af8982612028565b50505b806109bc816158b5565b9150506108db565b6040517f000000000000000000000000000000000000000000000000000000000000000090869033907f0c7ca64b50e8c246962331a7595739e091f1573ce2a86c420ed9e56fdba358e190600090a4505050610a206001600055565b5050565b610a2c612648565b6001600160a01b0316336001600160a01b031614610a5c5760405162461bcd60e51b8152600401610230906155da565b806001600160a01b038116610a835760405162461bcd60e51b81526004016102309061557a565b50600580546001600160a01b0319166001600160a01b0392909216919091179055565b610aae611c65565b610ab6611cbf565b3480610af45760405162461bcd60e51b815260206004820152600d60248201526c76616c756520746f6f206c6f7760981b6044820152606401610230565b600360009054906101000a90046001600160a01b03166001600160a01b031663d0e30db0826040518263ffffffff1660e01b81526004016000604051808303818588803b158015610b4457600080fd5b505af1158015610b58573d6000803e3d6000fd5b5050600354610ba293506001600160a01b03169150610b7890503361267b565b848460007f00000000000000000000000000000000000000000000000000000000000000006126b1565b50610bad6001600055565b50565b306001600160a01b037f0000000000000000000000000000000000000000000000000000000000000000161415610bf95760405162461bcd60e51b8152600401610230906154b9565b7f00000000000000000000000000000000000000000000000000000000000000006001600160a01b0316610c2b61281f565b6001600160a01b031614610c515760405162461bcd60e51b81526004016102309061552e565b610c5a81612835565b60408051600080825260208201909252610bad918391906128a7565b610c7e611cbf565b7f0000000000000000000000000000000000000000000000000000000000000000811415610ce15760405162461bcd60e51b815260206004820152601060248201526f37b7363c9037ba3432b91031b430b4b760811b6044820152606401610230565b3480610d1f5760405162461bcd60e51b815260206004820152600d60248201526c76616c756520746f6f206c6f7760981b6044820152606401610230565b600360009054906101000a90046001600160a01b03166001600160a01b031663d0e30db0826040518263ffffffff1660e01b81526004016000604051808303818588803b158015610d6f57600080fd5b505af1158015610d83573d6000803e3d6000fd5b5050600354610da393506001600160a01b03169150339050858486612a21565b505050565b60086020526000908152604090208054610dc190615880565b80601f0160208091040260200160405190810160405280929190818152602001828054610ded90615880565b8015610e3a5780601f10610e0f57610100808354040283529160200191610e3a565b820191906000526020600020905b815481529060010190602001808311610e1d57829003601f168201915b505050505081565b600154610100900460ff1615808015610e5f57506001805460ff16105b80610e785750303b158015610e7857506001805460ff16145b610edb5760405162461bcd60e51b815260206004820152602e60248201527f496e697469616c697a61626c653a20636f6e747261637420697320616c72656160448201526d191e481a5b9a5d1a585b1a5e995960921b6064820152608401610230565b6001805460ff1916811790558015610efd576001805461ff0019166101001790555b826001600160a01b038116610f245760405162461bcd60e51b81526004016102309061557a565b826001600160a01b038116610f4b5760405162461bcd60e51b81526004016102309061557a565b600380546001600160a01b038088166001600160a01b0319928316179092556005805492871692909116919091179055610f8433612cb6565b50508015610da3576001805461ff00191681556040519081527f7f26b83ff96e1f2b6a682f133852f6798a09c465da95921460cefb38474024989060200160405180910390a1505050565b306001600160a01b037f00000000000000000000000000000000000000000000000000000000000000001614156110185760405162461bcd60e51b8152600401610230906154b9565b7f00000000000000000000000000000000000000000000000000000000000000006001600160a01b031661104a61281f565b6001600160a01b0316146110705760405162461bcd60e51b81526004016102309061552e565b61107982612835565b610a20828260016128a7565b6000306001600160a01b037f000000000000000000000000000000000000000000000000000000000000000016146111255760405162461bcd60e51b815260206004820152603860248201527f555550535570677261646561626c653a206d757374206e6f742062652063616c60448201527f6c6564207468726f7567682064656c656761746563616c6c00000000000000006064820152608401610230565b506000805160206159ac83398151915290565b6000611142612648565b905090565b61114f612648565b6001600160a01b0316336001600160a01b03161461117f5760405162461bcd60e51b8152600401610230906155da565b806001600160a01b0381166111a65760405162461bcd60e51b81526004016102309061557a565b50600480546001600160a01b0319166001600160a01b0392909216919091179055565b6111d1612648565b6001600160a01b0316336001600160a01b0316146112015760405162461bcd60e51b8152600401610230906155da565b611209612d0a565b565b611213612648565b6001600160a01b0316336001600160a01b0316146112435760405162461bcd60e51b8152600401610230906155da565b806001600160a01b03811661126a5760405162461bcd60e51b81526004016102309061557a565b610a2082612cb6565b61127b611cbf565b7f00000000000000000000000000000000000000000000000000000000000000008114156112de5760405162461bcd60e51b815260206004820152601060248201526f37b7363c9037ba3432b91031b430b4b760811b6044820152606401610230565b6040516370a0823160e01b815233600482015282906001600160a01b038616906370a082319060240160206040518083038186803b15801561131f57600080fd5b505afa158015611333573d6000803e3d6000fd5b505050506040513d601f19601f82011682018060405250810190611357919061505a565b10156113755760405162461bcd60e51b815260040161023090615505565b61138184333085612d5e565b61138e8433858585612a21565b50505050565b600061114261281f565b6113a6612648565b6001600160a01b0316336001600160a01b0316146113d65760405162461bcd60e51b8152600401610230906155da565b816001600160a01b0381166113fd5760405162461bcd60e51b81526004016102309061557a565b6002841061143f5760405162461bcd60e51b815260206004820152600f60248201526e125b9d985b1a59081c985d19481a59608a1b6044820152606401610230565b6040805180820182526001600160a01b038581168252602080830186815260008981526006909252938120925183546001600160a01b031916921691909117825591516001909101557f3e5fec24aa4dc4e5aee2e025e51e1392c72a2500577559fae9665c6d52bd6a32549080527f54cdd369e4e8a8515e52ca72ec816c2101831ad1f18bf44102ed171459c9b4f954620f4240916114de9190612e8e565b111561138e5760405162461bcd60e51b8152602060048201526012602482015271696e76616c696420726174652076616c756560701b6044820152606401610230565b611529611c65565b611531611cbf565b600554604051637c55b7bd60e11b8152600091829182916001600160a01b03169063f8ab6f7a90611568908890889060040161560a565b60006040518083038186803b15801561158057600080fd5b505afa158015611594573d6000803e3d6000fd5b505050506040513d6000823e601f3d908101601f191682016040526115bc9190810190614fb7565b9250925092508282906115e25760405162461bcd60e51b815260040161023091906153d8565b50600260008681526009602052604090205460ff16600281111561160857611608615910565b141561168d5760008061161a83612ea1565b9150915061164082600860008a815260200190815260200160002080546107c990615880565b6116835760405162461bcd60e51b81526020600482015260146024820152731a5b9d985b1a59081b5bdcc818dbdb9d1c9858dd60621b6044820152606401610230565b610899878261311e565b600160008681526009602052604090205460ff1660028111156116b2576116b2615910565b14156109c45760006116c382612357565b905060005b81518110156108995760008282815181106116e5576116e5615926565b602002602001015190506000816020015160008151811061170857611708615926565b6020026020010151806020019051810190611723919061505a565b90506040518060800160405280604781526020016159f3604791398051906020012081141561179057600080611758846137ab565b9150915061177e82600860008e815260200190815260200160002080546107c990615880565b1561178d5761178d8b8261311e565b50505b5050808061179d906158b5565b9150506116c8565b6000828152600660209081526040808320815180830190925280546001600160a01b031682526001015491810182905282916117f190620f4240906117eb908790613806565b90613812565b9051909590945092505050565b611806612648565b6001600160a01b0316336001600160a01b0316146118365760405162461bcd60e51b8152600401610230906155da565b61120961381e565b611846612648565b6001600160a01b0316336001600160a01b0316146118765760405162461bcd60e51b8152600401610230906155da565b6000838152600860209081526040909120835161189592850190614c72565b506000838152600960205260409020805482919060ff191660018360028111156118c1576118c1615910565b0217905550505050565b6118d3612648565b6001600160a01b0316336001600160a01b0316146119035760405162461bcd60e51b8152600401610230906155da565b610da383838361385f565b6001600160a01b0382166119345760405162461bcd60e51b8152600401610230906155a3565b6000826001600160a01b03166310fe9ae86040518163ffffffff1660e01b815260040160206040518083038186803b15801561196f57600080fd5b505afa158015611983573d6000803e3d6000fd5b505050506040513d601f19601f820116820180604052508101906119a79190614e2b565b60048054604051639dc6108f60e01b81526001600160a01b0380851693820193909352929350600092911690639dc6108f9060240160206040518083038186803b1580156119f457600080fd5b505afa158015611a08573d6000803e3d6000fd5b505050506040513d601f19601f82011682018060405250810190611a2c9190614e2b565b9050806001600160a01b0316846001600160a01b031614611a855760405162461bcd60e51b815260206004820152601360248201527224b73b30b634b2103b30bab63a103a37b5b2b760691b6044820152606401610230565b60405163c2507ac160e01b8152600481018490526000906001600160a01b0383169063c2507ac19060240160206040518083038186803b158015611ac857600080fd5b505afa158015611adc573d6000803e3d6000fd5b505050506040513d601f19601f82011682018060405250810190611b00919061505a565b604051630ad58d2f60e01b81527f00000000000000000000000000000000000000000000000000000000000000006004820152602481018690523360448201529091506001600160a01b03831690630ad58d2f90606401600060405180830381600087803b158015611b7157600080fd5b505af1158015611b85573d6000803e3d6000fd5b50505050611b9483338361385f565b5050505050565b611ba3611c65565b611bab611cbf565b6040516370a0823160e01b815233600482015281906001600160a01b038516906370a082319060240160206040518083038186803b158015611bec57600080fd5b505afa158015611c00573d6000803e3d6000fd5b505050506040513d601f19601f82011682018060405250810190611c24919061505a565b1015611c425760405162461bcd60e51b815260040161023090615505565b611c4e83333084612d5e565b611c5b83610b783361267b565b610da36001600055565b60026000541415611cb85760405162461bcd60e51b815260206004820152601f60248201527f5265656e7472616e637947756172643a207265656e7472616e742063616c6c006044820152606401610230565b6002600055565b60015462010000900460ff16156112095760405162461bcd60e51b815260206004820152601060248201526f14185d5cd8589b194e881c185d5cd95960821b6044820152606401610230565b6060611d506040518060e00160405280606081526020016060815260200160008019168152602001600081526020016000815260200160608152602001600081525090565b6000611d63611d5e856138a0565b6138cd565b9050611d8881600081518110611d7b57611d7b615926565b60200260200101516139e2565b92506000611daf82600181518110611da257611da2615926565b60200260200101516138cd565b516001600160401b03811115611dc757611dc761593c565b604051908082528060200260200182016040528015611dfa57816020015b6060815260200190600190039081611de55790505b50905060005b611e1683600181518110611da257611da2615926565b51811015611e7857611e48611e3784600181518110611da257611da2615926565b8281518110611d7b57611d7b615926565b828281518110611e5a57611e5a615926565b60200260200101819052508080611e70906158b5565b915050611e00565b50606060005b8251811015611f14576000611eab848381518110611e9e57611e9e615926565b6020026020010151613a5f565b805160208201209091507f3ad224e3e42a516df08d1fca74990eac30205afb5287a46132a6975ce0b2cede1415611f0157611efe848381518110611ef157611ef1615926565b6020026020010151613b3a565b92505b5080611f0c816158b5565b915050611e7e565b506000611f23611d5e836138a0565b90506040518060e00160405280611f4683600081518110611d7b57611d7b615926565b8152602001611f6183600181518110611d7b57611d7b615926565b8152602001611f7c83600281518110611d7b57611d7b615926565b611f8590615830565b8152602001611fad83600381518110611fa057611fa0615926565b6020026020010151614022565b8152602001611fc883600481518110611fa057611fa0615926565b8152602001611fe383600581518110611d7b57611d7b615926565b8152602001611ffe83600681518110611fa057611fa0615926565b815250945050505050915091565b6000818051906020012083805190602001201490505b92915050565b60408082015160008181526007602052919091205460ff161561207b5760405162461bcd60e51b815260206004820152600b60248201526a1bdc99195c88195e1a5cdd60aa1b6044820152606401610230565b6000818152600760205260409020805460ff19166001179055606082015183146120da5760405162461bcd60e51b815260206004820152601060248201526f1a5b9d985b1a590818da185a5b881a5960821b6044820152606401610230565b600480546060840151845160405163fb9e6c1360e01b81526000946001600160a01b039094169363fb9e6c139361211593909290910161560a565b60206040518083038186803b15801561212d57600080fd5b505afa158015612141573d6000803e3d6000fd5b505050506040513d601f19601f820116820180604052508101906121659190614e2b565b90506001600160a01b0381166121b85760405162461bcd60e51b81526020600482015260186024820152771b585c081d1bdad95b881b9bdd081c9959da5cdd195c995960421b6044820152606401610230565b60048054606085015160c0860151604051633bab639f60e21b81526000946001600160a01b039094169363eead8e7c936121f893889391929091016153b7565b60206040518083038186803b15801561221057600080fd5b505afa158015612224573d6000803e3d6000fd5b505050506040513d601f19601f82011682018060405250810190612248919061505a565b6004805460405163ceec8cb960e01b81526001600160a01b0386811693820193909352929350169063ceec8cb99060240160206040518083038186803b15801561229157600080fd5b505afa1580156122a5573d6000803e3d6000fd5b505050506040513d601f19601f820116820180604052508101906122c99190614f9c565b1561232f576040516340c10f1960e01b8152306004820152602481018290526001600160a01b038316906340c10f1990604401600060405180830381600087803b15801561231657600080fd5b505af115801561232a573d6000803e3d6000fd5b505050505b611b948285602001516123478760a001516014015190565b84886040015189606001516126b1565b60606000612367611d5e846138a0565b905080516001600160401b038111156123825761238261593c565b6040519080825280602002602001820160405280156123e057816020015b6123cd604051806060016040528060006001600160a01b0316815260200160608152602001606081525090565b8152602001906001900390816123a05790505b50915060005b8151811015612553576000612406838381518110611da257611da2615926565b9050600061242082600181518110611da257611da2615926565b9050600081516001600160401b0381111561243d5761243d61593c565b60405190808252806020026020018201604052801561247057816020015b606081526020019060019003908161245b5790505b50905060005b82518110156124c457612494838281518110611d7b57611d7b615926565b8282815181106124a6576124a6615926565b602002602001018190525080806124bc906158b5565b915050612476565b5060405180606001604052806124f3856000815181106124e6576124e6615926565b6020026020010151614070565b6001600160a01b0316815260200182815260200161251d85600281518110611d7b57611d7b615926565b81525086858151811061253257612532615926565b6020026020010181905250505050808061254b906158b5565b9150506123e6565b5050919050565b606061259f6040518060e00160405280606081526020016060815260200160008019168152602001600081526020016000815260200160608152602001600081525090565b82516125aa9061267b565b9150600083602001516001815181106125c5576125c5615926565b60200260200101518060200190518101906125e09190614e2b565b90506125eb8161267b565b825260408401518051600091612609918101602090810191016150a7565b60c0890152608088019190915260608701919091526040860191909152602085019190915290506126398161267b565b8360a001819052505050915091565b60007fb53127684a568b3173ae13b9f8a6016e243e63b6e8ee1178d6a717850b5d61035b546001600160a01b0316919050565b604051606082811b6bffffffffffffffffffffffff19166020830152906034016040516020818303038152906040529050919050565b60048054604051639dc6108f60e01b81526001600160a01b038981169382019390935260009290911690639dc6108f9060240160206040518083038186803b1580156126fc57600080fd5b505afa158015612710573d6000803e3d6000fd5b505050506040513d601f19601f820116820180604052508101906127349190614e2b565b90506001600160a01b03811661275c5760405162461bcd60e51b8152600401610230906155a3565b604051638dbdbe6d60e01b815260048101839052602481018590526001600160a01b038681166044830152821690638dbdbe6d90606401600060405180830381600087803b1580156127ad57600080fd5b505af11580156127c1573d6000803e3d6000fd5b50505050846001600160a01b0316876001600160a01b03167f8970038805646cbb7b520ce18a27fe39b9701296f884d4022ad41b2a8dd4e8338886888760405161280e94939291906153eb565b60405180910390a350505050505050565b60006000805160206159ac83398151915261266c565b61283d612648565b6001600160a01b0316336001600160a01b031614610bad5760405162461bcd60e51b815260206004820152602160248201527f4c696768744e6f64653a206f6e6c792041646d696e2063616e207570677261646044820152606560f81b6064820152608401610230565b7f4910fdfa16fed3260ed0e7147f7cc6da11a60208b5b9406d12a635614ffd91435460ff16156128da57610da38361408a565b826001600160a01b03166352d1902d6040518163ffffffff1660e01b815260040160206040518083038186803b15801561291357600080fd5b505afa925050508015612943575060408051601f3d908101601f191682019092526129409181019061505a565b60015b6129a65760405162461bcd60e51b815260206004820152602e60248201527f45524331393637557067726164653a206e657720696d706c656d656e7461746960448201526d6f6e206973206e6f74205555505360901b6064820152608401610230565b6000805160206159ac8339815191528114612a155760405162461bcd60e51b815260206004820152602960248201527f45524331393637557067726164653a20756e737570706f727465642070726f786044820152681a58589b195555525160ba1b6064820152608401610230565b50610da3838383614129565b6004805460405163204f487760e01b81526001600160a01b0388811693820193909352602481018490526000929091169063204f48779060440160006040518083038186803b158015612a7357600080fd5b505afa158015612a87573d6000803e3d6000fd5b505050506040513d6000823e601f3d908101601f19168201604052612aaf9190810190615073565b9050612aca816040518060200160405280600081525061200c565b15612b125760405162461bcd60e51b81526020600482015260186024820152771bdd5d081d1bdad95b881b9bdd081c9959da5cdd195c995960421b6044820152606401610230565b600080612b4188867f00000000000000000000000000000000000000000000000000000000000000008761414e565b6004805460405163ceec8cb960e01b81526001600160a01b038d811693820193909352939550919350169063ceec8cb99060240160206040518083038186803b158015612b8d57600080fd5b505afa158015612ba1573d6000803e3d6000fd5b505050506040513d601f19601f82011682018060405250810190612bc59190614f9c565b15612c2557604051630852cd8d60e31b8152600481018390526001600160a01b038916906342966c6890602401600060405180830381600087803b158015612c0c57600080fd5b505af1158015612c20573d6000803e3d6000fd5b505050505b6000612c34898989868961441e565b90507faca0a1067548270e80c1209ec69b5381d80bdaf345ad70cf7f00af9c6ed3f9b4612c608a61267b565b612c698a61267b565b837f0000000000000000000000000000000000000000000000000000000000000000898c888b604051612ca398979695949392919061541a565b60405180910390a1505050505050505050565b7f7e644d79422f17c01e4894b5f4f588d331ebfa28653d42ae832dc59e38c9798f612cdf612648565b604080516001600160a01b03928316815291841660208301520160405180910390a1610bad81614490565b612d1261451c565b6001805462ff0000191690557f5db9ee0a495bf2e6ff9c91a7834c1ba4fdd244a5e8aa4e537bd38aeae4b073aa335b6040516001600160a01b03909116815260200160405180910390a1565b604080516001600160a01b0385811660248301528481166044830152606480830185905283518084039091018152608490920183526020820180516001600160e01b03166323b872dd60e01b1790529151600092839290881691612dc29190615337565b6000604051808303816000865af19150503d8060008114612dff576040519150601f19603f3d011682016040523d82523d6000602084013e612e04565b606091505b5091509150818015612e2e575080511580612e2e575080806020019051810190612e2e9190614f9c565b612e865760405162461bcd60e51b8152602060048201526024808201527f5472616e7366657248656c7065723a205452414e534645525f46524f4d5f46416044820152631253115160e21b6064820152608401610230565b505050505050565b6000612e9a828461567a565b9392505050565b6060612eab614cf6565b6000612eb9611d5e856138a0565b9050612ed181600081518110611d7b57611d7b615926565b92506000612eeb82600181518110611da257611da2615926565b516001600160401b03811115612f0357612f0361593c565b604051908082528060200260200182016040528015612f3657816020015b6060815260200190600190039081612f215790505b50905060005b612f5283600181518110611da257611da2615926565b51811015612fa357612f73611e3784600181518110611da257611da2615926565b828281518110612f8557612f85615926565b60200260200101819052508080612f9b906158b5565b915050612f3c565b50606060005b8251811015613025576000612fc9848381518110611e9e57611e9e615926565b805160208201209091507f4e87426fdd31a6df84975ed344b2c3fbd45109085f1557dff1156b300f135df814156130125761300f848381518110611ef157611ef1615926565b92505b508061301d816158b5565b915050612fa9565b506000613034611d5e836138a0565b905060405180610100016040528061305883600081518110611d7b57611d7b615926565b815260200161307383600181518110611d7b57611d7b615926565b815260200161308e83600281518110611d7b57611d7b615926565b61309790615830565b81526020016130b283600381518110611fa057611fa0615926565b81526020016130cd83600481518110611fa057611fa0615926565b81526020016130e883600581518110611d7b57611d7b615926565b815260200161310383600681518110611fa057611fa0615926565b8152602001611ffe83600781518110611d7b57611d7b615926565b60408082015160008181526007602052919091205460ff16156131715760405162461bcd60e51b815260206004820152600b60248201526a1bdc99195c88195e1a5cdd60aa1b6044820152606401610230565b6000818152600760205260409020805460ff19166001179055606082015183146131d05760405162461bcd60e51b815260206004820152601060248201526f1a5b9d985b1a590818da185a5b881a5960821b6044820152606401610230565b600480546060840151845160405163fb9e6c1360e01b81526000946001600160a01b039094169363fb9e6c139361320b93909290910161560a565b60206040518083038186803b15801561322357600080fd5b505afa158015613237573d6000803e3d6000fd5b505050506040513d601f19601f8201168201806040525081019061325b9190614e2b565b90506001600160a01b0381166132ae5760405162461bcd60e51b81526020600482015260186024820152771b585c081d1bdad95b881b9bdd081c9959da5cdd195c995960421b6044820152606401610230565b60048054608085015160405163204f487760e01b81526000936001600160a01b039093169263204f4877926132f9928792016001600160a01b03929092168252602082015260400190565b60006040518083038186803b15801561331157600080fd5b505afa158015613325573d6000803e3d6000fd5b505050506040513d6000823e601f3d908101601f1916820160405261334d9190810190615073565b9050613368816040518060200160405280600081525061200c565b156133b05760405162461bcd60e51b81526020600482015260186024820152771bdd5d081d1bdad95b881b9bdd081c9959da5cdd195c995960421b6044820152606401610230565b60048054606086015160c0870151604051633bab639f60e21b81526000946001600160a01b039094169363eead8e7c936133f093899391929091016153b7565b60206040518083038186803b15801561340857600080fd5b505afa15801561341c573d6000803e3d6000fd5b505050506040513d601f19601f82011682018060405250810190613440919061505a565b6004805460405163ceec8cb960e01b81526001600160a01b0387811693820193909352929350169063ceec8cb99060240160206040518083038186803b15801561348957600080fd5b505afa15801561349d573d6000803e3d6000fd5b505050506040513d601f19601f820116820180604052508101906134c19190614f9c565b15613527576040516340c10f1960e01b8152306004820152602481018290526001600160a01b038416906340c10f1990604401600060405180830381600087803b15801561350e57600080fd5b505af1158015613522573d6000803e3d6000fd5b505050505b60008061353e858489606001518a6080015161414e565b915091507f00000000000000000000000000000000000000000000000000000000000000008760800151141561366557600061357f8860a001516014015190565b6003549091506001600160a01b03878116911614156135bd576003546135ae906001600160a01b03168461456b565b6135b88184614681565b61365f565b6040516370a0823160e01b815230600482015283906001600160a01b038816906370a082319060240160206040518083038186803b1580156135fe57600080fd5b505afa158015613612573d6000803e3d6000fd5b505050506040513d601f19601f82011682018060405250810190613636919061505a565b10156136545760405162461bcd60e51b815260040161023090615505565b61365f86828561474a565b50613744565b6004805460405163ceec8cb960e01b81526001600160a01b038881169382019390935291169063ceec8cb99060240160206040518083038186803b1580156136ac57600080fd5b505afa1580156136c0573d6000803e3d6000fd5b505050506040513d601f19601f820116820180604052508101906136e49190614f9c565b1561374457604051630852cd8d60e31b8152600481018390526001600160a01b038616906342966c6890602401600060405180830381600087803b15801561372b57600080fd5b505af115801561373f573d6000803e3d6000fd5b505050505b7faca0a1067548270e80c1209ec69b5381d80bdaf345ad70cf7f00af9c6ed3f9b48760000151886020015189604001518a606001518b608001518c60a00151878b60405161379998979695949392919061541a565b60405180910390a15050505050505050565b60606137b5614cf6565b82516137c09061267b565b915082604001518060200190518101906137da919061511d565b60e089015260c088015260a0870152608086015260608501526040840152602083015281529092909150565b6000612e9a82846157b6565b6000612e9a82846156b7565b613826611cbf565b6001805462ff00001916620100001790557f62e78cea01bee320cd4e420270b5ea74000d11b0c9f74754ebdbfc544b05a258612d413390565b6003546001600160a01b03848116911614156138955760035461388b906001600160a01b03168261456b565b610da38282614681565b610da383838361474a565b60408051808201825260008082526020918201528151808301909252825182529182019181019190915290565b60606138d88261485e565b6138e157600080fd5b60006138ec83614897565b90506000816001600160401b038111156139085761390861593c565b60405190808252806020026020018201604052801561394d57816020015b60408051808201909152600080825260208201528152602001906001900390816139265790505b509050600061395f856020015161491a565b856020015161396e919061567a565b90506000805b848110156139d75761398583614995565b91506040518060400160405280838152602001848152508482815181106139ae576139ae615926565b60209081029190910101526139c3828461567a565b9250806139cf816158b5565b915050613974565b509195945050505050565b80516060906139f057600080fd5b6000806139fc84614a39565b915091506000816001600160401b03811115613a1a57613a1a61593c565b6040519080825280601f01601f191660200182016040528015613a44576020820181803683370190505b50905060208101613a56848285614a80565b50949350505050565b6060604082511015613ab35760405162461bcd60e51b815260206004820152601960248201527f496e76616c696420657874726120726573756c742074797065000000000000006044820152606401610230565b604080518181526060810182529060208201818036833701905050905060005b6040811015613b3457828181518110613aee57613aee615926565b602001015160f81c60f81b828281518110613b0b57613b0b615926565b60200101906001600160f81b031916908160001a90535080613b2c816158b5565b915050613ad3565b50919050565b606060028251613b4a91906158d0565b151580613b58575060048251105b15613ba55760405162461bcd60e51b815260206004820152601c60248201527f686578537472546f42797465733a20696e76616c696420696e707574000000006044820152606401610230565b6000602060028451613bb791906156b7565b613bc191906157f6565b6001600160401b03811115613bd857613bd861593c565b6040519080825280601f01601f191660200182016040528015613c02576020820181803683370190505b50905060405b835181101561401b5783516010908190603090879085908110613c2d57613c2d615926565b016020015160f81c10801590613c5d57506039868481518110613c5257613c52615926565b016020015160f81c11155b15613c8b576030868481518110613c7657613c76615926565b0160200151613c88919060f81c61580d565b91505b603086613c9985600161567a565b81518110613ca957613ca9615926565b016020015160f81c10801590613ce35750603986613cc885600161567a565b81518110613cd857613cd8615926565b016020015160f81c11155b15613d1b57603086613cf685600161567a565b81518110613d0657613d06615926565b0160200151613d18919060f81c61580d565b90505b6041868481518110613d2f57613d2f615926565b016020015160f81c10801590613d5f57506046868481518110613d5457613d54615926565b016020015160f81c11155b15613d98576041868481518110613d7857613d78615926565b0160200151613d8a919060f81c61580d565b613d9590600a615692565b91505b604186613da685600161567a565b81518110613db657613db6615926565b016020015160f81c10801590613df05750604686613dd585600161567a565b81518110613de557613de5615926565b016020015160f81c11155b15613e3357604186613e0385600161567a565b81518110613e1357613e13615926565b0160200151613e25919060f81c61580d565b613e3090600a615692565b90505b6061868481518110613e4757613e47615926565b016020015160f81c10801590613e7757506066868481518110613e6c57613e6c615926565b016020015160f81c11155b15613eb0576061868481518110613e9057613e90615926565b0160200151613ea2919060f81c61580d565b613ead90600a615692565b91505b606186613ebe85600161567a565b81518110613ece57613ece615926565b016020015160f81c10801590613f085750606686613eed85600161567a565b81518110613efd57613efd615926565b016020015160f81c11155b15613f4b57606186613f1b85600161567a565b81518110613f2b57613f2b615926565b0160200151613f3d919060f81c61580d565b613f4890600a615692565b90505b8160ff1660101480613f6057508060ff166010145b15613fad5760405162461bcd60e51b815260206004820152601c60248201527f686578537472546f42797465733a20696e76616c696420696e707574000000006044820152606401610230565b80613fb98360106157d5565b613fc39190615692565b60f81b846020613fd46002876156b7565b613fde91906157f6565b81518110613fee57613fee615926565b60200101906001600160f81b031916908160001a9053505050600281614014919061567a565b9050613c08565b5092915050565b80516000901580159061403757508151602110155b61404057600080fd5b60008061404c84614a39565b8151919350915060208210156140685760208290036101000a90045b949350505050565b805160009060151461408157600080fd5b61202282614022565b6001600160a01b0381163b6140f75760405162461bcd60e51b815260206004820152602d60248201527f455243313936373a206e657720696d706c656d656e746174696f6e206973206e60448201526c1bdd08184818dbdb9d1c9858dd609a1b6064820152608401610230565b806000805160206159ac8339815191525b80546001600160a01b0319166001600160a01b039290921691909117905550565b61413283614aff565b60008251118061413f5750805b15610da35761138e8383614b3f565b60048054604051639dc6108f60e01b81526001600160a01b038088169382019390935260009283928892849290911690639dc6108f9060240160206040518083038186803b15801561419f57600080fd5b505afa1580156141b3573d6000803e3d6000fd5b505050506040513d601f19601f820116820180604052508101906141d79190614e2b565b90506001600160a01b0381166141ff5760405162461bcd60e51b8152600401610230906155a3565b60048054604051631917961760e01b81526000926001600160a01b03909216916319179617916142359187918d918c91016153b7565b60206040518083038186803b15801561424d57600080fd5b505afa158015614261573d6000803e3d6000fd5b505050506040513d601f19601f82011682018060405250810190614285919061505a565b9050600080828a11156143275761429c838b6157f6565b600480546040516331b1ee7f60e21b81529294506001600160a01b03169163c6c7b9fc916142d091899187918e91016153b7565b60206040518083038186803b1580156142e857600080fd5b505afa1580156142fc573d6000803e3d6000fd5b505050506040513d601f19601f82011682018060405250810190614320919061505a565b905061432b565b8992505b600083156143705760006143406000866117a5565b50905061434d81866157f6565b915060008061435d6001886117a5565b9150915061436c89828461385f565b5050505b6040516328ab490d60e01b8152600481018b9052602481018c9052604481018a9052606481018490527f0000000000000000000000000000000000000000000000000000000000000000608482015260a481018290526001600160a01b038616906328ab490d9060c401600060405180830381600087803b1580156143f457600080fd5b505af1158015614408573d6000803e3d6000fd5b50949e939d50929b505050505050505050505050565b600280546000918261442f836158b5565b91905055858588867f00000000000000000000000000000000000000000000000000000000000000008760405160200161446f9796959493929190615353565b60405160208183030381529060405280519060200120905095945050505050565b6001600160a01b0381166144f55760405162461bcd60e51b815260206004820152602660248201527f455243313936373a206e65772061646d696e20697320746865207a65726f206160448201526564647265737360d01b6064820152608401610230565b807fb53127684a568b3173ae13b9f8a6016e243e63b6e8ee1178d6a717850b5d6103614108565b60015462010000900460ff166112095760405162461bcd60e51b815260206004820152601460248201527314185d5cd8589b194e881b9bdd081c185d5cd95960621b6044820152606401610230565b600080836001600160a01b0316632e1a7d4d8460405160240161459091815260200190565b6040516020818303038152906040529060e01b6020820180516001600160e01b0383818316178352505050506040516145c99190615337565b6000604051808303816000865af19150503d8060008114614606576040519150601f19603f3d011682016040523d82523d6000602084013e61460b565b606091505b50915091508180156146355750805115806146355750808060200190518101906146359190614f9c565b61138e5760405162461bcd60e51b815260206004820152601f60248201527f5472616e7366657248656c7065723a2057495448445241575f4641494c4544006044820152606401610230565b604080516000808252602082019092526001600160a01b0384169083906040516146ab9190615337565b60006040518083038185875af1925050503d80600081146146e8576040519150601f19603f3d011682016040523d82523d6000602084013e6146ed565b606091505b5050905080610da35760405162461bcd60e51b815260206004820152602360248201527f5472616e7366657248656c7065723a204554485f5452414e534645525f46414960448201526213115160ea1b6064820152608401610230565b604080516001600160a01b038481166024830152604480830185905283518084039091018152606490920183526020820180516001600160e01b031663a9059cbb60e01b17905291516000928392908716916147a69190615337565b6000604051808303816000865af19150503d80600081146147e3576040519150601f19603f3d011682016040523d82523d6000602084013e6147e8565b606091505b50915091508180156148125750805115806148125750808060200190518101906148129190614f9c565b611b945760405162461bcd60e51b815260206004820152601f60248201527f5472616e7366657248656c7065723a205452414e534645525f4641494c4544006044820152606401610230565b805160009061486f57506000919050565b6020820151805160001a9060c082101561488d575060009392505050565b5060019392505050565b80516000906148a857506000919050565b6000806148b8846020015161491a565b84602001516148c7919061567a565b90506000846000015185602001516148df919061567a565b90505b80821015614911576148f382614995565b6148fd908361567a565b915082614909816158b5565b9350506148e2565b50909392505050565b8051600090811a60808110156149335750600092915050565b60b881108061494e575060c0811080159061494e575060f881105b1561495c5750600192915050565b60c081101561498957614971600160b861580d565b61497e9060ff16826157f6565b612e9a90600161567a565b614971600160f861580d565b80516000908190811a60808110156149b0576001915061401b565b60b88110156149d6576149c46080826157f6565b6149cf90600161567a565b915061401b565b60c0811015614a035760b78103600185019450806020036101000a8551046001820181019350505061401b565b60f8811015614a17576149c460c0826157f6565b60019390930151602084900360f7016101000a900490920160f5190192915050565b6000806000614a4b846020015161491a565b90506000818560200151614a5f919061567a565b90506000828660000151614a7391906157f6565b9196919550909350505050565b80614a8a57505050565b60208110614ac25782518252614aa160208461567a565b9250614aae60208361567a565b9150614abb6020826157f6565b9050614a8a565b8015610da35760006001614ad78360206157f6565b614ae39061010061570e565b614aed91906157f6565b84518451821691191617835250505050565b614b088161408a565b6040516001600160a01b038216907fbc7cd75a20ee27fd9adebab32041f755214dbc6bffa90cc0225b39da2e5c2d3b90600090a250565b6060612e9a83836040518060600160405280602781526020016159cc602791396060600080856001600160a01b031685604051614b7c9190615337565b600060405180830381855af49150503d8060008114614bb7576040519150601f19603f3d011682016040523d82523d6000602084013e614bbc565b606091505b5091509150614bcd86838387614bd7565b9695505050505050565b60608315614c43578251614c3c576001600160a01b0385163b614c3c5760405162461bcd60e51b815260206004820152601d60248201527f416464726573733a2063616c6c20746f206e6f6e2d636f6e74726163740000006044820152606401610230565b5081614068565b6140688383815115614c585781518083602001fd5b8060405162461bcd60e51b815260040161023091906153d8565b828054614c7e90615880565b90600052602060002090601f016020900481019282614ca05760008555614ce6565b82601f10614cb957805160ff1916838001178555614ce6565b82800160010185558215614ce6579182015b82811115614ce6578251825591602001919060010190614ccb565b50614cf2929150614d3e565b5090565b60405180610100016040528060608152602001606081526020016000801916815260200160008152602001600081526020016060815260200160008152602001606081525090565b5b80821115614cf25760008155600101614d3f565b6000614d66614d6184615653565b615623565b9050828152838383011115614d7a57600080fd5b612e9a836020830184615854565b80518015158114614d9857600080fd5b919050565b600082601f830112614dae57600080fd5b8135614dbc614d6182615653565b818152846020838601011115614dd157600080fd5b816020850160208301376000918101602001919091529392505050565b600082601f830112614dff57600080fd5b612e9a83835160208501614d53565b600060208284031215614e2057600080fd5b8135612e9a81615952565b600060208284031215614e3d57600080fd5b8151612e9a81615952565b60008060408385031215614e5b57600080fd5b8235614e6681615952565b91506020830135614e7681615952565b809150509250929050565b600080600060608486031215614e9657600080fd5b8335614ea181615952565b92506020840135614eb181615952565b929592945050506040919091013590565b60008060408385031215614ed557600080fd5b8235614ee081615952565b915060208301356001600160401b03811115614efb57600080fd5b614f0785828601614d9d565b9150509250929050565b60008060008060808587031215614f2757600080fd5b8435614f3281615952565b935060208501356001600160401b03811115614f4d57600080fd5b614f5987828801614d9d565b949794965050505060408301359260600135919050565b60008060408385031215614f8357600080fd5b8235614f8e81615952565b946020939093013593505050565b600060208284031215614fae57600080fd5b612e9a82614d88565b600080600060608486031215614fcc57600080fd5b614fd584614d88565b925060208401516001600160401b0380821115614ff157600080fd5b818601915086601f83011261500557600080fd5b61501487835160208501614d53565b9350604086015191508082111561502a57600080fd5b5061503786828701614dee565b9150509250925092565b60006020828403121561505357600080fd5b5035919050565b60006020828403121561506c57600080fd5b5051919050565b60006020828403121561508557600080fd5b81516001600160401b0381111561509b57600080fd5b61406884828501614dee565b60008060008060008060c087890312156150c057600080fd5b86516001600160401b038111156150d657600080fd5b6150e289828a01614dee565b965050602087015194506040870151935060608701519250608087015161510881615952565b8092505060a087015190509295509295509295565b600080600080600080600080610100898b03121561513a57600080fd5b88516001600160401b038082111561515157600080fd5b61515d8c838d01614dee565b995060208b015191508082111561517357600080fd5b61517f8c838d01614dee565b985060408b0151975060608b0151965060808b0151955060a08b01519150808211156151aa57600080fd5b6151b68c838d01614dee565b945060c08b0151935060e08b01519150808211156151d357600080fd5b506151e08b828c01614dee565b9150509295985092959890939650565b6000806040838503121561520357600080fd5b82356001600160401b0381111561521957600080fd5b61522585828601614d9d565b95602094909401359450505050565b60008060006060848603121561524957600080fd5b833592506020840135614eb181615952565b6000806040838503121561526e57600080fd5b8235915060208301356001600160401b03811115614efb57600080fd5b6000806000606084860312156152a057600080fd5b8335925060208401356001600160401b038111156152bd57600080fd5b6152c986828701614d9d565b9250506040840135600381106152de57600080fd5b809150509250925092565b600080604083850312156152fc57600080fd5b50508035926020909101359150565b60008151808452615323816020860160208601615854565b601f01601f19169290920160200192915050565b60008251615349818460208701615854565b9190910192915050565b87815260006bffffffffffffffffffffffff19808960601b1660208401528751615384816034860160208c01615854565b60609790971b1691909501603481019190915260488101939093526068830191909152608882015260a801949350505050565b6001600160a01b039390931683526020830191909152604082015260600190565b602081526000612e9a602083018461530b565b6080815260006153fe608083018761530b565b6020830195909552506040810192909252606090910152919050565b600061010080835261542e8184018c61530b565b90508281036020840152615442818b61530b565b905088604084015287606084015286608084015282810360a0840152615468818761530b565b90508460c084015282810360e0840152615482818561530b565b9b9a5050505050505050505050565b60208101600383106154b357634e487b7160e01b600052602160045260246000fd5b91905290565b6020808252602c908201527f46756e6374696f6e206d7573742062652063616c6c6564207468726f7567682060408201526b19195b1959d85d1958d85b1b60a21b606082015260800190565b6020808252600f908201526e62616c616e636520746f6f206c6f7760881b604082015260600190565b6020808252602c908201527f46756e6374696f6e206d7573742062652063616c6c6564207468726f7567682060408201526b6163746976652070726f787960a01b606082015260800190565b6020808252600f908201526e61646472657373206973207a65726f60881b604082015260600190565b6020808252601a908201527f7661756c7420746f6b656e206e6f742072656769737465726564000000000000604082015260600190565b60208082526016908201527536b7b9a932b630bc901d1d1037b7363c9030b236b4b760511b604082015260600190565b828152604060208201526000614068604083018461530b565b604051601f8201601f191681016001600160401b038111828210171561564b5761564b61593c565b604052919050565b60006001600160401b0382111561566c5761566c61593c565b50601f01601f191660200190565b6000821982111561568d5761568d6158e4565b500190565b600060ff821660ff84168060ff038211156156af576156af6158e4565b019392505050565b6000826156c6576156c66158fa565b500490565b600181815b808511156157065781600019048211156156ec576156ec6158e4565b808516156156f957918102915b93841c93908002906156d0565b509250929050565b6000612e9a838360008261572457506001612022565b8161573157506000612022565b816001811461574757600281146157515761576d565b6001915050612022565b60ff841115615762576157626158e4565b50506001821b612022565b5060208310610133831016604e8410600b8410161715615790575081810a612022565b61579a83836156cb565b80600019048211156157ae576157ae6158e4565b029392505050565b60008160001904831182151516156157d0576157d06158e4565b500290565b600060ff821660ff84168160ff04811182151516156157ae576157ae6158e4565b600082821015615808576158086158e4565b500390565b600060ff821660ff841680821015615827576158276158e4565b90039392505050565b80516020808301519190811015613b345760001960209190910360031b1b16919050565b60005b8381101561586f578181015183820152602001615857565b8381111561138e5750506000910152565b600181811c9082168061589457607f821691505b60208210811415613b3457634e487b7160e01b600052602260045260246000fd5b60006000198214156158c9576158c96158e4565b5060010190565b6000826158df576158df6158fa565b500690565b634e487b7160e01b600052601160045260246000fd5b634e487b7160e01b600052601260045260246000fd5b634e487b7160e01b600052602160045260246000fd5b634e487b7160e01b600052603260045260246000fd5b634e487b7160e01b600052604160045260246000fd5b6001600160a01b0381168114610bad57600080fdfe6d61704465706f7369744f757428616464726573732c62797465732c627974657333322c75696e743235362c75696e743235362c616464726573732c75696e7432353629360894a13ba1a3210667c828492db98dca3e2076cc3735a920a3ca505d382bbc416464726573733a206c6f772d6c6576656c2064656c65676174652063616c6c206661696c65646d61705472616e736665724f75742862797465732c62797465732c627974657333322c75696e743235362c75696e743235362c62797465732c75696e743235362c627974657329a2646970667358221220dbf291ffde9298308807456e9f9e83dfa87c51877132a1547c8ba2b62f1ad3a964736f6c63430008070033",
	"linkReferences": {},
	"deployedLinkReferences": {}
}