{
	"_format": "hh-sol-artifact-1",
	"contractName": "MAPCrossChainServiceRelay",
	"sourceName": "contracts/MAPCrossChainServiceRelay.sol",
	"abi": [
		{
			"anonymous": false,
			"inputs": [
				{
					"indexed": false,
					"internalType": "address",
					"name": "previousAdmin",
					"type": "address"
				},
				{
					"indexed": false,
					"internalType": "address",
					"name": "newAdmin",
					"type": "address"
				}
			],
			"name": "AdminChanged",
			"type": "event"
		},
		{
			"anonymous": false,
			"inputs": [
				{
					"indexed": true,
					"internalType": "address",
					"name": "beacon",
					"type": "address"
				}
			],
			"name": "BeaconUpgraded",
			"type": "event"
		},
		{
			"anonymous": false,
			"inputs": [
				{
					"indexed": false,
					"internalType": "uint8",
					"name": "version",
					"type": "uint8"
				}
			],
			"name": "Initialized",
			"type": "event"
		},
		{
			"anonymous": false,
			"inputs": [
				{
					"indexed": false,
					"internalType": "address",
					"name": "account",
					"type": "address"
				}
			],
			"name": "Paused",
			"type": "event"
		},
		{
			"anonymous": false,
			"inputs": [
				{
					"indexed": false,
					"internalType": "address",
					"name": "account",
					"type": "address"
				}
			],
			"name": "Unpaused",
			"type": "event"
		},
		{
			"anonymous": false,
			"inputs": [
				{
					"indexed": true,
					"internalType": "address",
					"name": "implementation",
					"type": "address"
				}
			],
			"name": "Upgraded",
			"type": "event"
		},
		{
			"anonymous": false,
			"inputs": [
				{
					"indexed": false,
					"internalType": "address",
					"name": "token",
					"type": "address"
				},
				{
					"indexed": false,
					"internalType": "bytes",
					"name": "from",
					"type": "bytes"
				},
				{
					"indexed": true,
					"internalType": "address",
					"name": "to",
					"type": "address"
				},
				{
					"indexed": false,
					"internalType": "bytes32",
					"name": "orderId",
					"type": "bytes32"
				},
				{
					"indexed": false,
					"internalType": "uint256",
					"name": "amount",
					"type": "uint256"
				},
				{
					"indexed": false,
					"internalType": "uint256",
					"name": "fromChain",
					"type": "uint256"
				}
			],
			"name": "mapDepositIn",
			"type": "event"
		},
		{
			"anonymous": false,
			"inputs": [
				{
					"indexed": false,
					"internalType": "bytes32",
					"name": "tokenID",
					"type": "bytes32"
				},
				{
					"indexed": false,
					"internalType": "address",
					"name": "token",
					"type": "address"
				}
			],
			"name": "mapTokenRegister",
			"type": "event"
		},
		{
			"anonymous": false,
			"inputs": [
				{
					"indexed": true,
					"internalType": "address",
					"name": "token",
					"type": "address"
				},
				{
					"indexed": true,
					"internalType": "bytes",
					"name": "from",
					"type": "bytes"
				},
				{
					"indexed": true,
					"internalType": "bytes32",
					"name": "orderId",
					"type": "bytes32"
				},
				{
					"indexed": false,
					"internalType": "uint256",
					"name": "fromChain",
					"type": "uint256"
				},
				{
					"indexed": false,
					"internalType": "uint256",
					"name": "toChain",
					"type": "uint256"
				},
				{
					"indexed": false,
					"internalType": "address",
					"name": "to",
					"type": "address"
				},
				{
					"indexed": false,
					"internalType": "uint256",
					"name": "amount",
					"type": "uint256"
				}
			],
			"name": "mapTransferIn",
			"type": "event"
		},
		{
			"anonymous": false,
			"inputs": [
				{
					"indexed": false,
					"internalType": "bytes",
					"name": "token",
					"type": "bytes"
				},
				{
					"indexed": false,
					"internalType": "bytes",
					"name": "from",
					"type": "bytes"
				},
				{
					"indexed": false,
					"internalType": "bytes32",
					"name": "orderId",
					"type": "bytes32"
				},
				{
					"indexed": false,
					"internalType": "uint256",
					"name": "fromChain",
					"type": "uint256"
				},
				{
					"indexed": false,
					"internalType": "uint256",
					"name": "toChain",
					"type": "uint256"
				},
				{
					"indexed": false,
					"internalType": "bytes",
					"name": "to",
					"type": "bytes"
				},
				{
					"indexed": false,
					"internalType": "uint256",
					"name": "amount",
					"type": "uint256"
				},
				{
					"indexed": false,
					"internalType": "bytes",
					"name": "toChainToken",
					"type": "bytes"
				}
			],
			"name": "mapTransferOut",
			"type": "event"
		},
		{
			"inputs": [
				{
					"internalType": "address[]",
					"name": "token",
					"type": "address[]"
				}
			],
			"name": "addAuthToken",
			"outputs": [],
			"stateMutability": "nonpayable",
			"type": "function"
		},
		{
			"inputs": [
				{
					"internalType": "address",
					"name": "",
					"type": "address"
				}
			],
			"name": "authToken",
			"outputs": [
				{
					"internalType": "bool",
					"name": "",
					"type": "bool"
				}
			],
			"stateMutability": "view",
			"type": "function"
		},
		{
			"inputs": [
				{
					"internalType": "uint256",
					"name": "",
					"type": "uint256"
				}
			],
			"name": "chainGasFee",
			"outputs": [
				{
					"internalType": "uint256",
					"name": "",
					"type": "uint256"
				}
			],
			"stateMutability": "view",
			"type": "function"
		},
		{
			"inputs": [],
			"name": "chainGasFees",
			"outputs": [
				{
					"internalType": "uint256",
					"name": "",
					"type": "uint256"
				}
			],
			"stateMutability": "view",
			"type": "function"
		},
		{
			"inputs": [
				{
					"internalType": "address",
					"name": "_admin",
					"type": "address"
				}
			],
			"name": "changeAdmin",
			"outputs": [],
			"stateMutability": "nonpayable",
			"type": "function"
		},
		{
			"inputs": [
				{
					"internalType": "bytes",
					"name": "logsHash",
					"type": "bytes"
				}
			],
			"name": "decodeNearDepositLog",
			"outputs": [
				{
					"internalType": "bytes",
					"name": "executorId",
					"type": "bytes"
				},
				{
					"components": [
						{
							"internalType": "bytes",
							"name": "token",
							"type": "bytes"
						},
						{
							"internalType": "bytes",
							"name": "from",
							"type": "bytes"
						},
						{
							"internalType": "bytes",
							"name": "order_id",
							"type": "bytes"
						},
						{
							"internalType": "bytes",
							"name": "to",
							"type": "bytes"
						},
						{
							"internalType": "uint256",
							"name": "amount",
							"type": "uint256"
						}
					],
					"internalType": "struct MAPCrossChainServiceRelay.nearDepositOutEvent",
					"name": "_outEvent",
					"type": "tuple"
				}
			],
			"stateMutability": "view",
			"type": "function"
		},
		{
			"inputs": [
				{
					"internalType": "uint256",
					"name": "_fromChain",
					"type": "uint256"
				},
				{
					"internalType": "bytes",
					"name": "receiptProof",
					"type": "bytes"
				}
			],
			"name": "depositIn",
			"outputs": [],
			"stateMutability": "payable",
			"type": "function"
		},
		{
			"inputs": [],
			"name": "feeCenter",
			"outputs": [
				{
					"internalType": "contract IFeeCenter",
					"name": "",
					"type": "address"
				}
			],
			"stateMutability": "view",
			"type": "function"
		},
		{
			"inputs": [],
			"name": "getAdmin",
			"outputs": [
				{
					"internalType": "address",
					"name": "",
					"type": "address"
				}
			],
			"stateMutability": "view",
			"type": "function"
		},
		{
			"inputs": [
				{
					"internalType": "uint256",
					"name": "toChainId",
					"type": "uint256"
				},
				{
					"internalType": "address",
					"name": "token",
					"type": "address"
				},
				{
					"internalType": "uint256",
					"name": "amount",
					"type": "uint256"
				}
			],
			"name": "getChainFee",
			"outputs": [
				{
					"internalType": "uint256",
					"name": "out",
					"type": "uint256"
				}
			],
			"stateMutability": "view",
			"type": "function"
		},
		{
			"inputs": [
				{
					"internalType": "uint256",
					"name": "amount",
					"type": "uint256"
				},
				{
					"internalType": "uint256",
					"name": "rate",
					"type": "uint256"
				}
			],
			"name": "getFeeValue",
			"outputs": [
				{
					"internalType": "uint256",
					"name": "",
					"type": "uint256"
				}
			],
			"stateMutability": "pure",
			"type": "function"
		},
		{
			"inputs": [],
			"name": "getImplementation",
			"outputs": [
				{
					"internalType": "address",
					"name": "",
					"type": "address"
				}
			],
			"stateMutability": "view",
			"type": "function"
		},
		{
			"inputs": [
				{
					"internalType": "address",
					"name": "token",
					"type": "address"
				},
				{
					"internalType": "address",
					"name": "from",
					"type": "address"
				},
				{
					"internalType": "bytes",
					"name": "to",
					"type": "bytes"
				},
				{
					"internalType": "uint256",
					"name": "amount",
					"type": "uint256"
				},
				{
					"internalType": "uint256",
					"name": "toChainID",
					"type": "uint256"
				}
			],
			"name": "getOrderID",
			"outputs": [
				{
					"internalType": "bytes32",
					"name": "",
					"type": "bytes32"
				}
			],
			"stateMutability": "nonpayable",
			"type": "function"
		},
		{
			"inputs": [
				{
					"internalType": "bytes",
					"name": "token",
					"type": "bytes"
				},
				{
					"internalType": "uint256",
					"name": "fromChain",
					"type": "uint256"
				},
				{
					"internalType": "uint256",
					"name": "toChain",
					"type": "uint256"
				},
				{
					"internalType": "uint256",
					"name": "amount",
					"type": "uint256"
				}
			],
			"name": "getToChainAmount",
			"outputs": [
				{
					"internalType": "uint256",
					"name": "",
					"type": "uint256"
				}
			],
			"stateMutability": "view",
			"type": "function"
		},
		{
			"inputs": [
				{
					"internalType": "address",
					"name": "_wToken",
					"type": "address"
				},
				{
					"internalType": "address",
					"name": "_mapToken",
					"type": "address"
				},
				{
					"internalType": "address",
					"name": "_managerAddress",
					"type": "address"
				}
			],
			"name": "initialize",
			"outputs": [],
			"stateMutability": "nonpayable",
			"type": "function"
		},
		{
			"inputs": [],
			"name": "lightClientManager",
			"outputs": [
				{
					"internalType": "contract ILightClientManager",
					"name": "",
					"type": "address"
				}
			],
			"stateMutability": "view",
			"type": "function"
		},
		{
			"inputs": [],
			"name": "mapDepositOutTopic",
			"outputs": [
				{
					"internalType": "bytes32",
					"name": "",
					"type": "bytes32"
				}
			],
			"stateMutability": "view",
			"type": "function"
		},
		{
			"inputs": [],
			"name": "mapToken",
			"outputs": [
				{
					"internalType": "contract IERC20",
					"name": "",
					"type": "address"
				}
			],
			"stateMutability": "view",
			"type": "function"
		},
		{
			"inputs": [],
			"name": "mapTransferOutTopic",
			"outputs": [
				{
					"internalType": "bytes32",
					"name": "",
					"type": "bytes32"
				}
			],
			"stateMutability": "view",
			"type": "function"
		},
		{
			"inputs": [],
			"name": "nearChainId",
			"outputs": [
				{
					"internalType": "uint256",
					"name": "",
					"type": "uint256"
				}
			],
			"stateMutability": "view",
			"type": "function"
		},
		{
			"inputs": [],
			"name": "nearDepositOut",
			"outputs": [
				{
					"internalType": "bytes32",
					"name": "",
					"type": "bytes32"
				}
			],
			"stateMutability": "view",
			"type": "function"
		},
		{
			"inputs": [],
			"name": "nearTransferOut",
			"outputs": [
				{
					"internalType": "bytes32",
					"name": "",
					"type": "bytes32"
				}
			],
			"stateMutability": "view",
			"type": "function"
		},
		{
			"inputs": [],
			"name": "nonce",
			"outputs": [
				{
					"internalType": "uint256",
					"name": "",
					"type": "uint256"
				}
			],
			"stateMutability": "view",
			"type": "function"
		},
		{
			"inputs": [
				{
					"internalType": "bytes32",
					"name": "",
					"type": "bytes32"
				}
			],
			"name": "orderList",
			"outputs": [
				{
					"internalType": "bool",
					"name": "",
					"type": "bool"
				}
			],
			"stateMutability": "view",
			"type": "function"
		},
		{
			"inputs": [],
			"name": "paused",
			"outputs": [
				{
					"internalType": "bool",
					"name": "",
					"type": "bool"
				}
			],
			"stateMutability": "view",
			"type": "function"
		},
		{
			"inputs": [],
			"name": "proxiableUUID",
			"outputs": [
				{
					"internalType": "bytes32",
					"name": "",
					"type": "bytes32"
				}
			],
			"stateMutability": "view",
			"type": "function"
		},
		{
			"inputs": [
				{
					"internalType": "address[]",
					"name": "token",
					"type": "address[]"
				}
			],
			"name": "removeAuthToken",
			"outputs": [],
			"stateMutability": "nonpayable",
			"type": "function"
		},
		{
			"inputs": [],
			"name": "selfChainId",
			"outputs": [
				{
					"internalType": "uint256",
					"name": "",
					"type": "uint256"
				}
			],
			"stateMutability": "view",
			"type": "function"
		},
		{
			"inputs": [
				{
					"internalType": "uint256",
					"name": "_chainId",
					"type": "uint256"
				},
				{
					"internalType": "bytes",
					"name": "_addr",
					"type": "bytes"
				}
			],
			"name": "setBridgeAddress",
			"outputs": [],
			"stateMutability": "nonpayable",
			"type": "function"
		},
		{
			"inputs": [
				{
					"internalType": "uint256",
					"name": "_id",
					"type": "uint256"
				}
			],
			"name": "setChainId",
			"outputs": [],
			"stateMutability": "nonpayable",
			"type": "function"
		},
		{
			"inputs": [
				{
					"internalType": "address",
					"name": "fee",
					"type": "address"
				}
			],
			"name": "setFeeCenter",
			"outputs": [],
			"stateMutability": "nonpayable",
			"type": "function"
		},
		{
			"inputs": [
				{
					"internalType": "uint256",
					"name": "_chainId",
					"type": "uint256"
				},
				{
					"internalType": "uint256",
					"name": "_id",
					"type": "uint256"
				}
			],
			"name": "setIdTable",
			"outputs": [],
			"stateMutability": "nonpayable",
			"type": "function"
		},
		{
			"inputs": [
				{
					"internalType": "address",
					"name": "_managerAddress",
					"type": "address"
				}
			],
			"name": "setLightClientManager",
			"outputs": [],
			"stateMutability": "nonpayable",
			"type": "function"
		},
		{
			"inputs": [],
			"name": "setPause",
			"outputs": [],
			"stateMutability": "nonpayable",
			"type": "function"
		},
		{
			"inputs": [
				{
					"internalType": "bytes",
					"name": "selfToken",
					"type": "bytes"
				},
				{
					"internalType": "uint256",
					"name": "chainId",
					"type": "uint256"
				},
				{
					"internalType": "uint256",
					"name": "decimals",
					"type": "uint256"
				}
			],
			"name": "setTokenOtherChainDecimals",
			"outputs": [],
			"stateMutability": "nonpayable",
			"type": "function"
		},
		{
			"inputs": [
				{
					"internalType": "address",
					"name": "_register",
					"type": "address"
				}
			],
			"name": "setTokenRegister",
			"outputs": [],
			"stateMutability": "nonpayable",
			"type": "function"
		},
		{
			"inputs": [],
			"name": "setUnpause",
			"outputs": [],
			"stateMutability": "nonpayable",
			"type": "function"
		},
		{
			"inputs": [
				{
					"internalType": "uint256",
					"name": "tochain",
					"type": "uint256"
				},
				{
					"internalType": "address",
					"name": "token",
					"type": "address"
				},
				{
					"internalType": "uint256",
					"name": "amount",
					"type": "uint256"
				}
			],
			"name": "setVaultBalance",
			"outputs": [],
			"stateMutability": "nonpayable",
			"type": "function"
		},
		{
			"inputs": [],
			"name": "tokenRegister",
			"outputs": [
				{
					"internalType": "contract ITokenRegister",
					"name": "",
					"type": "address"
				}
			],
			"stateMutability": "view",
			"type": "function"
		},
		{
			"inputs": [],
			"name": "transferFee",
			"outputs": [
				{
					"internalType": "uint256",
					"name": "",
					"type": "uint256"
				}
			],
			"stateMutability": "view",
			"type": "function"
		},
		{
			"inputs": [
				{
					"internalType": "address",
					"name": "",
					"type": "address"
				}
			],
			"name": "transferFeeList",
			"outputs": [
				{
					"internalType": "uint256",
					"name": "",
					"type": "uint256"
				}
			],
			"stateMutability": "view",
			"type": "function"
		},
		{
			"inputs": [
				{
					"internalType": "uint256",
					"name": "chainId",
					"type": "uint256"
				},
				{
					"internalType": "bytes",
					"name": "receiptProof",
					"type": "bytes"
				}
			],
			"name": "transferIn",
			"outputs": [],
			"stateMutability": "nonpayable",
			"type": "function"
		},
		{
			"inputs": [
				{
					"internalType": "address",
					"name": "toContract",
					"type": "address"
				},
				{
					"internalType": "uint256",
					"name": "toChain",
					"type": "uint256"
				},
				{
					"internalType": "bytes",
					"name": "data",
					"type": "bytes"
				}
			],
			"name": "transferOut",
			"outputs": [],
			"stateMutability": "nonpayable",
			"type": "function"
		},
		{
			"inputs": [
				{
					"internalType": "bytes",
					"name": "to",
					"type": "bytes"
				},
				{
					"internalType": "uint256",
					"name": "toChainId",
					"type": "uint256"
				}
			],
			"name": "transferOutNative",
			"outputs": [],
			"stateMutability": "payable",
			"type": "function"
		},
		{
			"inputs": [
				{
					"internalType": "address",
					"name": "token",
					"type": "address"
				},
				{
					"internalType": "bytes",
					"name": "to",
					"type": "bytes"
				},
				{
					"internalType": "uint256",
					"name": "amount",
					"type": "uint256"
				},
				{
					"internalType": "uint256",
					"name": "toChainId",
					"type": "uint256"
				}
			],
			"name": "transferOutToken",
			"outputs": [],
			"stateMutability": "nonpayable",
			"type": "function"
		},
		{
			"inputs": [
				{
					"internalType": "address",
					"name": "newImplementation",
					"type": "address"
				}
			],
			"name": "upgradeTo",
			"outputs": [],
			"stateMutability": "nonpayable",
			"type": "function"
		},
		{
			"inputs": [
				{
					"internalType": "address",
					"name": "newImplementation",
					"type": "address"
				},
				{
					"internalType": "bytes",
					"name": "data",
					"type": "bytes"
				}
			],
			"name": "upgradeToAndCall",
			"outputs": [],
			"stateMutability": "payable",
			"type": "function"
		},
		{
			"inputs": [
				{
					"internalType": "uint256",
					"name": "",
					"type": "uint256"
				},
				{
					"internalType": "address",
					"name": "",
					"type": "address"
				}
			],
			"name": "vaultBalance",
			"outputs": [
				{
					"internalType": "uint256",
					"name": "",
					"type": "uint256"
				}
			],
			"stateMutability": "view",
			"type": "function"
		},
		{
			"inputs": [],
			"name": "wToken",
			"outputs": [
				{
					"internalType": "address",
					"name": "",
					"type": "address"
				}
			],
			"stateMutability": "view",
			"type": "function"
		},
		{
			"inputs": [
				{
					"internalType": "address",
					"name": "token",
					"type": "address"
				},
				{
					"internalType": "address payable",
					"name": "receiver",
					"type": "address"
				},
				{
					"internalType": "uint256",
					"name": "amount",
					"type": "uint256"
				}
			],
			"name": "withdraw",
			"outputs": [],
			"stateMutability": "nonpayable",
			"type": "function"
		},
		{
			"stateMutability": "payable",
			"type": "receive"
		}
	],
	"bytecode": "0x60c06040523060601b6080524660a05234801561001b57600080fd5b5060016000819055805462ff00001916905560805160601c60a051615ebd620000f76000396000818161089401528181610c0301528181610c8c01528181610e2a01528181610e7d015281816110c8015281816113200152818161135d015281816114090152818161146801528181611bdf01528181611c1b01528181611cc601528181611d24015281816124e50152818161272f01528181613377015281816133d60152818161415101526148f5015260008181610fef0152818161102f015281816115180152818161155801526115d40152615ebd6000f3fe6080604052600436106102cd5760003560e01c8063882940e311610175578063b5058d3b116100dc578063cc9e3e8911610095578063d9caed121161006f578063d9caed12146108eb578063e3257fc71461090b578063e6984f8d1461092b578063ef0e2ff41461094157600080fd5b8063cc9e3e8914610882578063d24c6944146108b6578063d431b1ac146108d657600080fd5b8063b5058d3b146107be578063bbe35948146107ec578063bca6760c1461080c578063bf5765ff1461082c578063c0c53b8b1461084c578063c3543b5c1461086c57600080fd5b8063aaf10f421161012e578063aaf10f42146106e8578063ab41a6ce146106fd578063acb2ad6f14610735578063af6536361461074b578063affed0e01461077b578063b2f177b31461079157600080fd5b8063882940e3146106255780638bc675171461063b5780638f2839701461065b5780639485d2931461067b578063981aff4e1461069b578063a8f8c293146106bb57600080fd5b80634dd045fe116102345780636e9960c3116101ed57806375b2e6b9116101c757806375b2e6b9146105b057806378972825146105d057806378f88fd6146105f0578063848cb5c61461061057600080fd5b80636e9960c31461055b578063721d839e1461057057806375a11ae71461059057600080fd5b80634dd045fe146104a35780634f1ef286146104c357806352d1902d146104d65780635c975abb146104eb5780636af6400d146105155780636b7ca9f31461054557600080fd5b8063306bda9f11610286578063306bda9f146103fa57806332a57900146104105780633659cfe614610430578063367cf0d4146104505780633d4a2f6e146104705780633ea549a21461048357600080fd5b80630babd864146103265780630f770549146103635780632982edbe146103875780632dd56e91146103a75780632e7ec23f146103c75780632f5c5d5e146103da57600080fd5b36610321576007546001600160a01b0316331461031f5760405162461bcd60e51b815260206004820152600b60248201526a37b7363c903baa37b5b2b760a91b60448201526064015b60405180910390fd5b005b600080fd5b34801561033257600080fd5b50600754610346906001600160a01b031681565b6040516001600160a01b0390911681526020015b60405180910390f35b34801561036f57600080fd5b5061037960085481565b60405190815260200161035a565b34801561039357600080fd5b506103796103a23660046156a4565b610961565b3480156103b357600080fd5b5061031f6103c2366004614feb565b610a15565b61031f6103d53660046156cb565b610a6f565b3480156103e657600080fd5b5061031f6103f5366004614feb565b610f41565b34801561040657600080fd5b5061037960165481565b34801561041c57600080fd5b5061031f61042b3660046156fb565b610f9b565b34801561043c57600080fd5b5061031f61044b366004614feb565b610fe4565b34801561045c57600080fd5b5061037961046b366004615129565b6110ad565b61031f61047e366004615590565b61111f565b34801561048f57600080fd5b50600454610346906001600160a01b031681565b3480156104af57600080fd5b5061031f6104be3660046156cb565b6114b0565b61031f6104d136600461519c565b61150d565b3480156104e257600080fd5b506103796115c7565b3480156104f757600080fd5b5060015462010000900460ff165b604051901515815260200161035a565b34801561052157600080fd5b50610505610530366004615423565b600a6020526000908152604090205460ff1681565b34801561055157600080fd5b5061037960155481565b34801561056757600080fd5b5061034661167a565b34801561057c57600080fd5b5061031f61058b366004614feb565b611689565b34801561059c57600080fd5b506103796105ab366004615621565b6116e3565b3480156105bc57600080fd5b50600654610346906001600160a01b031681565b3480156105dc57600080fd5b50600554610346906001600160a01b031681565b3480156105fc57600080fd5b5061037961060b3660046156fb565b611773565b34801561061c57600080fd5b5061031f6117d7565b34801561063157600080fd5b5061037960145481565b34801561064757600080fd5b5061031f6106563660046152d0565b611819565b34801561066757600080fd5b5061031f610676366004614feb565b6118b9565b34801561068757600080fd5b50600354610346906001600160a01b031681565b3480156106a757600080fd5b5061031f6106b63660046151eb565b61193f565b3480156106c757600080fd5b506103796106d6366004614feb565b600d6020526000908152604090205481565b3480156106f457600080fd5b50610346611d6d565b34801561070957600080fd5b50610379610718366004615674565b600f60209081526000928352604080842090915290825290205481565b34801561074157600080fd5b50610379600c5481565b34801561075757600080fd5b50610505610766366004614feb565b600e6020526000908152604090205460ff1681565b34801561078757600080fd5b5061037960025481565b34801561079d57600080fd5b506103796107ac366004615423565b60096020526000908152604090205481565b3480156107ca57600080fd5b506107de6107d9366004615455565b611d77565b60405161035a929190615881565b3480156107f857600080fd5b5061031f6108073660046152d0565b61200a565b34801561081857600080fd5b5061031f6108273660046155d4565b6120aa565b34801561083857600080fd5b5061031f610847366004615278565b505050565b34801561085857600080fd5b5061031f6108673660046150de565b61211b565b34801561087857600080fd5b5061037960135481565b34801561088e57600080fd5b506103797f000000000000000000000000000000000000000000000000000000000000000081565b3480156108c257600080fd5b5061031f6108d13660046156cb565b6122f8565b3480156108e257600080fd5b5061031f6127bd565b3480156108f757600080fd5b5061031f61090636600461509d565b6127fd565b34801561091757600080fd5b5061031f6109263660046156a4565b61286e565b34801561093757600080fd5b50610379600b5481565b34801561094d57600080fd5b5061031f61095c366004615423565b6128cc565b60006001600160a01b038316610980576007546001600160a01b031692505b600654604051638ee6bebb60e01b8152600481018690526001600160a01b0385811660248301526044820185905290911690638ee6bebb9060640160206040518083038186803b1580156109d357600080fd5b505afa1580156109e7573d6000803e3d6000fd5b505050506040513d601f19601f82011682018060405250810190610a0b919061543c565b90505b9392505050565b610a1d612944565b6001600160a01b0316336001600160a01b031614610a4d5760405162461bcd60e51b815260040161031690615a1c565b600480546001600160a01b0319166001600160a01b0392909216919091179055565b60026000541415610a925760405162461bcd60e51b815260040161031690615a53565b6002600055610a9f612977565b600554604051637c55b7bd60e11b8152600091829182916001600160a01b03169063f8ab6f7a90610ad69088908890600401615a8a565b60006040518083038186803b158015610aee57600080fd5b505afa158015610b02573d6000803e3d6000fd5b505050506040513d6000823e601f3d908101601f19168201604052610b2a91908101906153a3565b925092509250828290610b505760405162461bcd60e51b81526004016103169190615915565b50600160005260116020527f17bc176d2408558f6e4111feebc3cab4e16b63e967be91cde721f4c8a488b55254851415610cfe57600080610b9083611d77565b915091506000601083604051610ba69190615749565b90815260200160405180910390205411610bd25760405162461bcd60e51b815260040161031690615928565b60048054825160405163c0b5dc6760e01b81528a936000936001600160a01b03169263c0b5dc6792610c29928792917f00000000000000000000000000000000000000000000000000000000000000009101615aa3565b60006040518083038186803b158015610c4157600080fd5b505afa158015610c55573d6000803e3d6000fd5b505050506040513d6000823e601f3d908101601f19168201604052610c7d9190810190615489565b90506000610cb58460000151847f000000000000000000000000000000000000000000000000000000000000000087608001516129c3565b90506000610cc885606001516014015190565b9050610cf3610cd8846014015190565b866020015183858960400151610ced90615cd9565b89612a2d565b505050505050610f35565b6000610d0982612d3b565b905060005b8151811015610f3257601554828281518110610d2c57610d2c615d84565b602002602001015160200151600081518110610d4a57610d4a615d84565b6020026020010151806020019051810190610d65919061543c565b1415610f205760006010610d95848481518110610d8457610d84615d84565b602002602001015160000151612f77565b604051610da29190615749565b90815260200160405180910390205411610dce5760405162461bcd60e51b815260040161031690615928565b6000806000806000868681518110610de857610de8615d84565b602002602001015160400151806020019051810190610e079190615025565b9398509196509450925090508b6000610e1f87612f77565b90506000610e4f82847f0000000000000000000000000000000000000000000000000000000000000000876129c3565b6004805460405163c0b5dc6760e01b81529293506001600160a01b03169163c0b5dc6791610ea391879187917f00000000000000000000000000000000000000000000000000000000000000009101615aa3565b60006040518083038186803b158015610ebb57600080fd5b505afa158015610ecf573d6000803e3d6000fd5b505050506040513d6000823e601f3d908101601f19168201604052610ef79190810190615489565b91506000610f06836014015190565b9050610f16818988858b89612a2d565b5050505050505050505b80610f2a81615d29565b915050610d0e565b50505b50506001600055505050565b610f49612944565b6001600160a01b0316336001600160a01b031614610f795760405162461bcd60e51b815260040161031690615a1c565b600580546001600160a01b0319166001600160a01b0392909216919091179055565b610fa3612944565b6001600160a01b0316336001600160a01b031614610fd35760405162461bcd60e51b815260040161031690615a1c565b600090815260116020526040902055565b306001600160a01b037f000000000000000000000000000000000000000000000000000000000000000016141561102d5760405162461bcd60e51b81526004016103169061595f565b7f00000000000000000000000000000000000000000000000000000000000000006001600160a01b031661105f612fad565b6001600160a01b0316146110855760405162461bcd60e51b8152600401610316906159d0565b61108e81612fc3565b604080516000808252602082019092526110aa91839190613035565b50565b60028054600091826110be83615d29565b91905055858588867f0000000000000000000000000000000000000000000000000000000000000000876040516020016110fe9796959493929190615765565b60405160208183030381529060405280519060200120905095945050505050565b611127612977565b60085481141561118a576002825110158061114457506040825111155b6111855760405162461bcd60e51b81526020600482015260126024820152713732b0b91030b2323932b9b99032b93937b960711b6044820152606401610316565b6111cb565b81516014146111cb5760405162461bcd60e51b815260206004820152600d60248201526c30b2323932b9b99032b93937b960991b6044820152606401610316565b34806112095760405162461bcd60e51b815260206004820152600d60248201526c76616c756520746f6f206c6f7760981b6044820152606401610316565b600760009054906101000a90046001600160a01b03166001600160a01b031663d0e30db0826040518263ffffffff1660e01b81526004016000604051808303818588803b15801561125957600080fd5b505af115801561126d573d6000803e3d6000fd5b5050505050600061128083600084610961565b9050600061128e83836131af565b905061129b8260006131bb565b60008052600d6020527f81955a0a11e65eac625c29e8882660bae4e165a75d72780094acae8ece9a29ee546112dc9082906112d69086613369565b906131af565b6000808052600d6020527f81955a0a11e65eac625c29e8882660bae4e165a75d72780094acae8ece9a29ee9190915561131881338885896110ad565b9050611347847f0000000000000000000000000000000000000000000000000000000000000000876000613375565b6004546000906001600160a01b031663c0b5dc677f000000000000000000000000000000000000000000000000000000000000000061138584612f77565b896040518463ffffffff1660e01b81526004016113a493929190615aa3565b60006040518083038186803b1580156113bc57600080fd5b505afa1580156113d0573d6000803e3d6000fd5b505050506040513d6000823e601f3d908101601f191682016040526113f89190810190615489565b905061142f6114076000612f77565b7f000000000000000000000000000000000000000000000000000000000000000088866116e3565b92507faca0a1067548270e80c1209ec69b5381d80bdaf345ad70cf7f00af9c6ed3f9b461145c6000612f77565b61146533612f77565b847f00000000000000000000000000000000000000000000000000000000000000008a8c898860405161149f98979695949392919061580a565b60405180910390a150505050505050565b6114b8612944565b6001600160a01b0316336001600160a01b0316146114e85760405162461bcd60e51b815260040161031690615a1c565b816010826040516114f99190615749565b908152604051908190036020019020555050565b306001600160a01b037f00000000000000000000000000000000000000000000000000000000000000001614156115565760405162461bcd60e51b81526004016103169061595f565b7f00000000000000000000000000000000000000000000000000000000000000006001600160a01b0316611588612fad565b6001600160a01b0316146115ae5760405162461bcd60e51b8152600401610316906159d0565b6115b782612fc3565b6115c382826001613035565b5050565b6000306001600160a01b037f000000000000000000000000000000000000000000000000000000000000000016146116675760405162461bcd60e51b815260206004820152603860248201527f555550535570677261646561626c653a206d757374206e6f742062652063616c60448201527f6c6564207468726f7567682064656c656761746563616c6c00000000000000006064820152608401610316565b50600080516020615dfa83398151915290565b6000611684612944565b905090565b611691612944565b6001600160a01b0316336001600160a01b0316146116c15760405162461bcd60e51b815260040161031690615a1c565b600680546001600160a01b0319166001600160a01b0392909216919091179055565b6000806012866040516116f69190615749565b908152604080516020928190038301812060008981529352908220549250601290611722908990615749565b908152604080516020928190038301902060008881529252902054905061176861174d83600a615bb7565b61176261175b84600a615bb7565b8790613438565b90613444565b979650505050505050565b6000620f42408211156117bd5760405162461bcd60e51b8152602060048201526012602482015271496e76616c696420726174652076616c756560701b6044820152606401610316565b6117ce620f42406117628585613438565b90505b92915050565b6117df612944565b6001600160a01b0316336001600160a01b03161461180f5760405162461bcd60e51b815260040161031690615a1c565b611817613450565b565b611821612944565b6001600160a01b0316336001600160a01b0316146118515760405162461bcd60e51b815260040161031690615a1c565b60005b81518110156115c3576000600e600084848151811061187557611875615d84565b6020908102919091018101516001600160a01b03168252810191909152604001600020805460ff1916911515919091179055806118b181615d29565b915050611854565b6118c1612944565b6001600160a01b0316336001600160a01b0316146118f15760405162461bcd60e51b815260040161031690615a1c565b6001600160a01b0381166119365760405162461bcd60e51b815260206004820152600c60248201526b7a65726f206164647265737360a01b6044820152606401610316565b6110aa816134a4565b611947612977565b6040516370a0823160e01b815233600482015282906001600160a01b038616906370a082319060240160206040518083038186803b15801561198857600080fd5b505afa15801561199c573d6000803e3d6000fd5b505050506040513d601f19601f820116820180604052508101906119c0919061543c565b1015611a005760405162461bcd60e51b815260206004820152600f60248201526e62616c616e636520746f6f206c6f7760881b6044820152606401610316565b600854811415611a635760028351101580611a1d57506040835111155b611a5e5760405162461bcd60e51b81526020600482015260126024820152713732b0b91030b2323932b9b99032b93937b960711b6044820152606401610316565b611aa4565b8251601414611aa45760405162461bcd60e51b815260206004820152600d60248201526c30b2323932b9b99032b93937b960991b6044820152606401610316565b611ab0843330856134f8565b6000611abd828685610961565b90506000611af7826040518060400160405280600981526020016839bab11032b93937b960b91b815250866136289092919063ffffffff16565b9050611b1b866001600160a01b03166000908152600e602052604090205460ff1690565b15611b7b57604051630852cd8d60e31b8152600481018290526001600160a01b038716906342966c6890602401600060405180830381600087803b158015611b6257600080fd5b505af1158015611b76573d6000803e3d6000fd5b505050505b611b8582876131bb565b6001600160a01b0386166000908152600d6020526040902054611bae9082906112d69087613369565b6001600160a01b0387166000908152600d6020526040812091909155611bd787338885886110ad565b9050611c05857f0000000000000000000000000000000000000000000000000000000000000000868a613375565b6004546000906001600160a01b031663c0b5dc677f0000000000000000000000000000000000000000000000000000000000000000611c438b612f77565b886040518463ffffffff1660e01b8152600401611c6293929190615aa3565b60006040518083038186803b158015611c7a57600080fd5b505afa158015611c8e573d6000803e3d6000fd5b505050506040513d6000823e601f3d908101601f19168201604052611cb69190810190615489565b9050611cec611cc489612f77565b7f000000000000000000000000000000000000000000000000000000000000000087866116e3565b92507faca0a1067548270e80c1209ec69b5381d80bdaf345ad70cf7f00af9c6ed3f9b4611d1889612f77565b611d2133612f77565b847f0000000000000000000000000000000000000000000000000000000000000000898c8988604051611d5b98979695949392919061580a565b60405180910390a15050505050505050565b6000611684612fad565b6060611dab6040518060a0016040528060608152602001606081526020016060815260200160608152602001600081525090565b6000611dbe611db985613654565b613681565b9050611de381600081518110611dd657611dd6615d84565b6020026020010151613796565b92506000611e0a82600181518110611dfd57611dfd615d84565b6020026020010151613681565b516001600160401b03811115611e2257611e22615d9a565b604051908082528060200260200182016040528015611e5557816020015b6060815260200190600190039081611e405790505b50905060005b611e7183600181518110611dfd57611dfd615d84565b51811015611ed357611ea3611e9284600181518110611dfd57611dfd615d84565b8281518110611dd657611dd6615d84565b828281518110611eb557611eb5615d84565b60200260200101819052508080611ecb90615d29565b915050611e5b565b50606060005b8251811015611f51576000611f06848381518110611ef957611ef9615d84565b6020026020010151613813565b905060165481805190602001201415611f3e57611f3b848381518110611f2e57611f2e615d84565b60200260200101516138ee565b92505b5080611f4981615d29565b915050611ed9565b506000611f60611db983613654565b90506040518060a00160405280611f8383600081518110611dd657611dd6615d84565b8152602001611f9e83600181518110611dd657611dd6615d84565b8152602001611fb983600281518110611dd657611dd6615d84565b8152602001611fd483600381518110611dd657611dd6615d84565b8152602001611ffc83600481518110611fef57611fef615d84565b6020026020010151613dd6565b815250945050505050915091565b612012612944565b6001600160a01b0316336001600160a01b0316146120425760405162461bcd60e51b815260040161031690615a1c565b60005b81518110156115c3576001600e600084848151811061206657612066615d84565b6020908102919091018101516001600160a01b03168252810191909152604001600020805460ff1916911515919091179055806120a281615d29565b915050612045565b6120b2612944565b6001600160a01b0316336001600160a01b0316146120e25760405162461bcd60e51b815260040161031690615a1c565b806012846040516120f39190615749565b9081526020016040518091039020600084815260200190815260200160002081905550505050565b600154610100900460ff161580801561213857506001805460ff16105b806121515750303b15801561215157506001805460ff16145b6121b45760405162461bcd60e51b815260206004820152602e60248201527f496e697469616c697a61626c653a20636f6e747261637420697320616c72656160448201526d191e481a5b9a5d1a585b1a5e995960921b6064820152608401610316565b6001805460ff19168117905580156121d6576001805461ff0019166101001790555b600780546001600160a01b038087166001600160a01b03199283161790925560038054868416908316179055600580549285169290911691909117905560408051608081019091526047808252615e41602083013980519060200120601381905550604051806060016040528060348152602001615dc66034913980516020909101206015557f4e87426fdd31a6df84975ed344b2c3fbd45109085f1557dff1156b300f135df86014557f3ad224e3e42a516df08d1fca74990eac30205afb5287a46132a6975ce0b2cede6016556122ad336134a4565b80156122f2576001805461ff00191681556040519081527f7f26b83ff96e1f2b6a682f133852f6798a09c465da95921460cefb38474024989060200160405180910390a15b50505050565b600554604051637c55b7bd60e11b8152600091829182916001600160a01b03169063f8ab6f7a9061232f9088908890600401615a8a565b60006040518083038186803b15801561234757600080fd5b505afa15801561235b573d6000803e3d6000fd5b505050506040513d6000823e601f3d908101601f1916820160405261238391908101906153a3565b9250925092508282906123a95760405162461bcd60e51b81526004016103169190615915565b50600160005260116020527f17bc176d2408558f6e4111feebc3cab4e16b63e967be91cde721f4c8a488b55254851415612594576000806123e983613e24565b9150915060006010836040516123ff9190615749565b9081526020016040518091039020541161242b5760405162461bcd60e51b815260040161031690615928565b6004805460608301518351608085015160405163c0b5dc6760e01b81526000956001600160a01b039095169463c0b5dc679461246d9490939092909101615aa3565b60006040518083038186803b15801561248557600080fd5b505afa158015612499573d6000803e3d6000fd5b505050506040513d6000823e601f3d908101601f191682016040526124c19190810190615489565b905060006124e18360000151846060015185608001518660c001516129c3565b90507f00000000000000000000000000000000000000000000000000000000000000008360800151141561255a5760006125208460a001516014015190565b9050612554612530846014015190565b85602001518385886040015161254590615cd9565b89606001518a608001516140ba565b5061258b565b61258b836000015184602001518560a0015184876040015161257b90615cd9565b886060015189608001518961438e565b505050506127b6565b600061259f82612d3b565b905060005b81518110156127b35760008282815181106125c1576125c1615d84565b60200260200101519050600081602001516000815181106125e4576125e4615d84565b60200260200101518060200190518101906125ff919061543c565b905060006126108360000151612f77565b905060135482141561279d57600060108260405161262e9190615749565b9081526020016040518091039020541161265a5760405162461bcd60e51b815260040161031690615928565b6000806000806000806000896040015180602001905181019061267d91906154bd565b506004805460405163c0b5dc6760e01b8152989f50969d50949b50929950909750955093506000926001600160a01b039092169163c0b5dc67916126c79189918d918a9101615aa3565b60006040518083038186803b1580156126df57600080fd5b505afa1580156126f3573d6000803e3d6000fd5b505050506040513d6000823e601f3d908101601f1916820160405261271b9190810190615489565b9050600061272b898787866129c3565b90507f0000000000000000000000000000000000000000000000000000000000000000851415612783576000612762856014015190565b905061277d612772846014015190565b8a83858c8c8c6140ba565b50612793565b612793898986848b8b8b8961438e565b5050505050505050505b50505080806127ab90615d29565b9150506125a4565b50505b5050505050565b6127c5612944565b6001600160a01b0316336001600160a01b0316146127f55760405162461bcd60e51b815260040161031690615a1c565b611817614591565b612805612944565b6001600160a01b0316336001600160a01b0316146128355760405162461bcd60e51b815260040161031690615a1c565b6001600160a01b03831661286357600754612859906001600160a01b0316826145d2565b61084782826146e8565b6108478383836147b1565b612876612944565b6001600160a01b0316336001600160a01b0316146128a65760405162461bcd60e51b815260040161031690615a1c565b6000928352600f602090815260408085206001600160a01b039094168552929052912055565b6128d4612944565b6001600160a01b0316336001600160a01b0316146129045760405162461bcd60e51b815260040161031690615a1c565b6000811161293f5760405162461bcd60e51b815260206004820152600860248201526734b21032b93937b960c11b6044820152606401610316565b600855565b60007fb53127684a568b3173ae13b9f8a6016e243e63b6e8ee1178d6a717850b5d61035b546001600160a01b0316919050565b60015462010000900460ff16156118175760405162461bcd60e51b815260206004820152601060248201526f14185d5cd8589b194e881c185d5cd95960821b6044820152606401610316565b6000806129d086866148c5565b90506000815111612a175760405162461bcd60e51b81526020600482015260116024820152702a37b5b2b7103737903932b3b4b9ba32b960791b6044820152606401610316565b612a23818686866116e3565b9695505050505050565b6000828152600a6020526040902054829060ff1615612a5e5760405162461bcd60e51b8152600401610316906159ab565b6000818152600a60205260409020805460ff191660011790556001600160a01b038716612aef57600760009054906101000a90046001600160a01b03166001600160a01b031663d0e30db0856040518263ffffffff1660e01b81526004016000604051808303818588803b158015612ad557600080fd5b505af1158015612ae9573d6000803e3d6000fd5b50505050505b600654604051639dc6108f60e01b81526001600160a01b0389811660048301526000921690639dc6108f9060240160206040518083038186803b158015612b3557600080fd5b505afa158015612b49573d6000803e3d6000fd5b505050506040513d601f19601f82011682018060405250810190612b6d9190615008565b90506001600160a01b038116612bb85760405162461bcd60e51b815260206004820152601060248201526f37b7363c903b30bab63a103a37b5b2b760811b6044820152606401610316565b6001600160a01b0388166000908152600e602052604090205460ff1615612c40576040516340c10f1960e01b81526001600160a01b038281166004830152602482018790528916906340c10f1990604401600060405180830381600087803b158015612c2357600080fd5b505af1158015612c37573d6000803e3d6000fd5b50505050612c4b565b612c4b8882876147b1565b604051631020440360e31b8152600481018690526001600160a01b038781166024830152821690638102201890604401600060405180830381600087803b158015612c9557600080fd5b505af1158015612ca9573d6000803e3d6000fd5b5050506000848152600f602090815260408083206001600160a01b038d16845290915281208054889350909190612ce1908490615b23565b92505081905550856001600160a01b03167f8970038805646cbb7b520ce18a27fe39b9701296f884d4022ad41b2a8dd4e8338989878988604051612d299594939291906157c9565b60405180910390a25050505050505050565b60606000612d4b611db984613654565b905080516001600160401b03811115612d6657612d66615d9a565b604051908082528060200260200182016040528015612dc457816020015b612db1604051806060016040528060006001600160a01b0316815260200160608152602001606081525090565b815260200190600190039081612d845790505b50915060005b8151811015612f70576000612dff612ded848481518110611dfd57611dfd615d84565b600181518110611dfd57611dfd615d84565b516001600160401b03811115612e1757612e17615d9a565b604051908082528060200260200182016040528015612e4a57816020015b6060815260200190600190039081612e355790505b50905060005b612e68612ded858581518110611dfd57611dfd615d84565b51811015612ebb57612e8b611e92612ded868681518110611dfd57611dfd615d84565b828281518110612e9d57612e9d615d84565b60200260200101819052508080612eb390615d29565b915050612e50565b506040518060600160405280612efe612edf868681518110611dfd57611dfd615d84565b600081518110612ef157612ef1615d84565b602002602001015161496f565b6001600160a01b03168152602001828152602001612f3c612f2a868681518110611dfd57611dfd615d84565b600281518110611dd657611dd6615d84565b815250848381518110612f5157612f51615d84565b6020026020010181905250508080612f6890615d29565b915050612dca565b5050919050565b604051606082811b6bffffffffffffffffffffffff19166020830152906034016040516020818303038152906040529050919050565b6000600080516020615dfa833981519152612968565b612fcb612944565b6001600160a01b0316336001600160a01b0316146110aa5760405162461bcd60e51b815260206004820152602160248201527f4c696768744e6f64653a206f6e6c792041646d696e2063616e207570677261646044820152606560f81b6064820152608401610316565b7f4910fdfa16fed3260ed0e7147f7cc6da11a60208b5b9406d12a635614ffd91435460ff16156130685761084783614989565b826001600160a01b03166352d1902d6040518163ffffffff1660e01b815260040160206040518083038186803b1580156130a157600080fd5b505afa9250505080156130d1575060408051601f3d908101601f191682019092526130ce9181019061543c565b60015b6131345760405162461bcd60e51b815260206004820152602e60248201527f45524331393637557067726164653a206e657720696d706c656d656e7461746960448201526d6f6e206973206e6f74205555505360901b6064820152608401610316565b600080516020615dfa83398151915281146131a35760405162461bcd60e51b815260206004820152602960248201527f45524331393637557067726164653a20756e737570706f727465642070726f786044820152681a58589b195555525160ba1b6064820152608401610316565b50610847838383614a28565b60006117ce8284615c9f565b806001600160a01b0381166131d857506007546001600160a01b03165b8280156122f25760065460405163116d92c960e11b81526000600482018190526001600160a01b038681166024840152909283929116906322db259290604401604080518083038186803b15801561322f57600080fd5b505afa158015613243573d6000803e3d6000fd5b505050506040513d601f19601f82011682018060405250810190613267919061524a565b9150915060006132778783611773565b90506001600160a01b038316156132a0576132938584836147b1565b61329d8185615c9f565b93505b60065460405163116d92c960e11b8152600160048201526001600160a01b038881166024830152909116906322db259290604401604080518083038186803b1580156132eb57600080fd5b505afa1580156132ff573d6000803e3d6000fd5b505050506040513d601f19601f82011682018060405250810190613323919061524a565b90935091506133328783611773565b905061333f8584836147b1565b6133498185615c9f565b935083156127b3576006546127b39086906001600160a01b0316866147b1565b60006117ce8284615b23565b7f000000000000000000000000000000000000000000000000000000000000000083146133d4576000838152600f602090815260408083206001600160a01b0385168452909152812080548692906133ce908490615b23565b90915550505b7f000000000000000000000000000000000000000000000000000000000000000082146122f2576000828152600f602090815260408083206001600160a01b03851684529091528120805486929061342d908490615c9f565b909155505050505050565b60006117ce8284615c5f565b60006117ce8284615b60565b613458614a4d565b6001805462ff0000191690557f5db9ee0a495bf2e6ff9c91a7834c1ba4fdd244a5e8aa4e537bd38aeae4b073aa335b6040516001600160a01b03909116815260200160405180910390a1565b7f7e644d79422f17c01e4894b5f4f588d331ebfa28653d42ae832dc59e38c9798f6134cd612944565b604080516001600160a01b03928316815291841660208301520160405180910390a16110aa81614a9c565b604080516001600160a01b0385811660248301528481166044830152606480830185905283518084039091018152608490920183526020820180516001600160e01b03166323b872dd60e01b179052915160009283929088169161355c9190615749565b6000604051808303816000865af19150503d8060008114613599576040519150601f19603f3d011682016040523d82523d6000602084013e61359e565b606091505b50915091508180156135c85750805115806135c85750808060200190518101906135c89190615388565b6136205760405162461bcd60e51b8152602060048201526024808201527f5472616e7366657248656c7065723a205452414e534645525f46524f4d5f46416044820152631253115160e21b6064820152608401610316565b505050505050565b6000818484111561364c5760405162461bcd60e51b81526004016103169190615915565b505050900390565b60408051808201825260008082526020918201528151808301909252825182529182019181019190915290565b606061368c82614b28565b61369557600080fd5b60006136a083614b61565b90506000816001600160401b038111156136bc576136bc615d9a565b60405190808252806020026020018201604052801561370157816020015b60408051808201909152600080825260208201528152602001906001900390816136da5790505b50905060006137138560200151614be4565b85602001516137229190615b23565b90506000805b8481101561378b5761373983614c5f565b915060405180604001604052808381526020018481525084828151811061376257613762615d84565b60209081029190910101526137778284615b23565b92508061378381615d29565b915050613728565b509195945050505050565b80516060906137a457600080fd5b6000806137b084614d03565b915091506000816001600160401b038111156137ce576137ce615d9a565b6040519080825280601f01601f1916602001820160405280156137f8576020820181803683370190505b5090506020810161380a848285614d4a565b50949350505050565b60606040825110156138675760405162461bcd60e51b815260206004820152601960248201527f496e76616c696420657874726120726573756c742074797065000000000000006044820152606401610316565b604080518181526060810182529060208201818036833701905050905060005b60408110156138e8578281815181106138a2576138a2615d84565b602001015160f81c60f81b8282815181106138bf576138bf615d84565b60200101906001600160f81b031916908160001a905350806138e081615d29565b915050613887565b50919050565b6060600282516138fe9190615d44565b15158061390c575060048251105b156139595760405162461bcd60e51b815260206004820152601c60248201527f686578537472546f42797465733a20696e76616c696420696e707574000000006044820152606401610316565b600060206002845161396b9190615b60565b6139759190615c9f565b6001600160401b0381111561398c5761398c615d9a565b6040519080825280601f01601f1916602001820160405280156139b6576020820181803683370190505b50905060405b8351811015613dcf57835160109081906030908790859081106139e1576139e1615d84565b016020015160f81c10801590613a1157506039868481518110613a0657613a06615d84565b016020015160f81c11155b15613a3f576030868481518110613a2a57613a2a615d84565b0160200151613a3c919060f81c615cb6565b91505b603086613a4d856001615b23565b81518110613a5d57613a5d615d84565b016020015160f81c10801590613a975750603986613a7c856001615b23565b81518110613a8c57613a8c615d84565b016020015160f81c11155b15613acf57603086613aaa856001615b23565b81518110613aba57613aba615d84565b0160200151613acc919060f81c615cb6565b90505b6041868481518110613ae357613ae3615d84565b016020015160f81c10801590613b1357506046868481518110613b0857613b08615d84565b016020015160f81c11155b15613b4c576041868481518110613b2c57613b2c615d84565b0160200151613b3e919060f81c615cb6565b613b4990600a615b3b565b91505b604186613b5a856001615b23565b81518110613b6a57613b6a615d84565b016020015160f81c10801590613ba45750604686613b89856001615b23565b81518110613b9957613b99615d84565b016020015160f81c11155b15613be757604186613bb7856001615b23565b81518110613bc757613bc7615d84565b0160200151613bd9919060f81c615cb6565b613be490600a615b3b565b90505b6061868481518110613bfb57613bfb615d84565b016020015160f81c10801590613c2b57506066868481518110613c2057613c20615d84565b016020015160f81c11155b15613c64576061868481518110613c4457613c44615d84565b0160200151613c56919060f81c615cb6565b613c6190600a615b3b565b91505b606186613c72856001615b23565b81518110613c8257613c82615d84565b016020015160f81c10801590613cbc5750606686613ca1856001615b23565b81518110613cb157613cb1615d84565b016020015160f81c11155b15613cff57606186613ccf856001615b23565b81518110613cdf57613cdf615d84565b0160200151613cf1919060f81c615cb6565b613cfc90600a615b3b565b90505b8160ff1660101480613d1457508060ff166010145b15613d615760405162461bcd60e51b815260206004820152601c60248201527f686578537472546f42797465733a20696e76616c696420696e707574000000006044820152606401610316565b80613d6d836010615c7e565b613d779190615b3b565b60f81b846020613d88600287615b60565b613d929190615c9f565b81518110613da257613da2615d84565b60200101906001600160f81b031916908160001a9053505050600281613dc89190615b23565b90506139bc565b5092915050565b805160009015801590613deb57508151602110155b613df457600080fd5b600080613e0084614d03565b815191935091506020821015613e1c5760208290036101000a90045b949350505050565b6060613e6e60405180610100016040528060608152602001606081526020016060815260200160008152602001600081526020016060815260200160008152602001606081525090565b6000613e7c611db985613654565b9050613e9481600081518110611dd657611dd6615d84565b92506000613eae82600181518110611dfd57611dfd615d84565b516001600160401b03811115613ec657613ec6615d9a565b604051908082528060200260200182016040528015613ef957816020015b6060815260200190600190039081613ee45790505b50905060005b613f1583600181518110611dfd57611dfd615d84565b51811015613f6657613f36611e9284600181518110611dfd57611dfd615d84565b828281518110613f4857613f48615d84565b60200260200101819052508080613f5e90615d29565b915050613eff565b50606060005b8251811015613fca576000613f8c848381518110611ef957611ef9615d84565b905060145481805190602001201415613fb757613fb4848381518110611f2e57611f2e615d84565b92505b5080613fc281615d29565b915050613f6c565b506000613fd9611db983613654565b9050604051806101000160405280613ffd83600081518110611dd657611dd6615d84565b815260200161401883600181518110611dd657611dd6615d84565b815260200161403383600281518110611dd657611dd6615d84565b815260200161404e83600381518110611fef57611fef615d84565b815260200161406983600481518110611fef57611fef615d84565b815260200161408483600581518110611dd657611dd6615d84565b815260200161409f83600681518110611fef57611fef615d84565b8152602001611ffc83600781518110611dd657611dd6615d84565b6000838152600a6020526040902054839060ff16156140eb5760405162461bcd60e51b8152600401610316906159ab565b6000818152600a60205260408120805460ff1916600117905554600214156141255760405162461bcd60e51b815260040161031690615a53565b6002600055614132612977565b600061413f838a88610961565b9050600061414d87836131af565b90507f0000000000000000000000000000000000000000000000000000000000000000841415614371576001600160a01b038a166141aa5760075461419b906001600160a01b0316826145d2565b6141a588826146e8565b6142fa565b6001600160a01b038a166000908152600e602052604090205460ff1615614236576040516340c10f1960e01b8152306004820152602481018290526001600160a01b038b16906340c10f1990604401600060405180830381600087803b15801561421357600080fd5b505af1158015614227573d6000803e3d6000fd5b505050506141a58a89836147b1565b6040516370a0823160e01b815230600482015281906001600160a01b038c16906370a082319060240160206040518083038186803b15801561427757600080fd5b505afa15801561428b573d6000803e3d6000fd5b505050506040513d601f19601f820116820180604052508101906142af919061543c565b10156142ef5760405162461bcd60e51b815260206004820152600f60248201526e62616c616e636520746f6f206c6f7760881b6044820152606401610316565b6142fa8a89836147b1565b614304828b6131bb565b85896040516143139190615749565b60408051918290038220888352602083018890526001600160a01b038c8116848401526060840186905291519092918e16917fd9fedc891b9a6aebd6a4e09cedbcbb83091a18befe79e2f5a26ec3409469cc8d919081900360800190a45b61437d8786868d613375565b505060016000555050505050505050565b6000848152600a6020526040902054849060ff16156143bf5760405162461bcd60e51b8152600401610316906159ab565b6000818152600a60205260408120805460ff1916600117905554600214156143f95760405162461bcd60e51b815260040161031690615a53565b6002600055614406612977565b6000614413836014015190565b9050600061442285838a610961565b9050600061443089836131af565b9050614454836001600160a01b03166000908152600e602052604090205460ff1690565b15614514576040516340c10f1960e01b8152306004820152602481018a90526001600160a01b038416906340c10f1990604401600060405180830381600087803b1580156144a157600080fd5b505af11580156144b5573d6000803e3d6000fd5b5050604051630852cd8d60e31b8152600481018490526001600160a01b03861692506342966c689150602401600060405180830381600087803b1580156144fb57600080fd5b505af115801561450f573d6000803e3d6000fd5b505050505b7faca0a1067548270e80c1209ec69b5381d80bdaf345ad70cf7f00af9c6ed3f9b48c8c8a8a8a8f878c60405161455198979695949392919061580a565b60405180910390a1600061456f6145688e8a6148c5565b6014015190565b905061457d8a898984613375565b505060016000555050505050505050505050565b614599612977565b6001805462ff00001916620100001790557f62e78cea01bee320cd4e420270b5ea74000d11b0c9f74754ebdbfc544b05a2586134873390565b600080836001600160a01b0316632e1a7d4d846040516024016145f791815260200190565b6040516020818303038152906040529060e01b6020820180516001600160e01b0383818316178352505050506040516146309190615749565b6000604051808303816000865af19150503d806000811461466d576040519150601f19603f3d011682016040523d82523d6000602084013e614672565b606091505b509150915081801561469c57508051158061469c57508080602001905181019061469c9190615388565b6122f25760405162461bcd60e51b815260206004820152601f60248201527f5472616e7366657248656c7065723a2057695448445241575f4641494c4544006044820152606401610316565b604080516000808252602082019092526001600160a01b0384169083906040516147129190615749565b60006040518083038185875af1925050503d806000811461474f576040519150601f19603f3d011682016040523d82523d6000602084013e614754565b606091505b50509050806108475760405162461bcd60e51b815260206004820152602360248201527f5472616e7366657248656c7065723a204554485f5452414e534645525f46414960448201526213115160ea1b6064820152608401610316565b604080516001600160a01b038481166024830152604480830185905283518084039091018152606490920183526020820180516001600160e01b031663a9059cbb60e01b179052915160009283929087169161480d9190615749565b6000604051808303816000865af19150503d806000811461484a576040519150601f19603f3d011682016040523d82523d6000602084013e61484f565b606091505b50915091508180156148795750805115806148795750808060200190518101906148799190615388565b6127b65760405162461bcd60e51b815260206004820152601f60248201527f5472616e7366657248656c7065723a205452414e534645525f4641494c4544006044820152606401610316565b6004805460405163c0b5dc6760e01b81526060926001600160a01b039092169163c0b5dc679161491b91869188917f00000000000000000000000000000000000000000000000000000000000000009101615aa3565b60006040518083038186803b15801561493357600080fd5b505afa158015614947573d6000803e3d6000fd5b505050506040513d6000823e601f3d908101601f191682016040526117ce9190810190615489565b805160009060151461498057600080fd5b6117d182613dd6565b6001600160a01b0381163b6149f65760405162461bcd60e51b815260206004820152602d60248201527f455243313936373a206e657720696d706c656d656e746174696f6e206973206e60448201526c1bdd08184818dbdb9d1c9858dd609a1b6064820152608401610316565b80600080516020615dfa8339815191525b80546001600160a01b0319166001600160a01b039290921691909117905550565b614a3183614dc9565b600082511180614a3e5750805b15610847576122f28383614e09565b60015462010000900460ff166118175760405162461bcd60e51b815260206004820152601460248201527314185d5cd8589b194e881b9bdd081c185d5cd95960621b6044820152606401610316565b6001600160a01b038116614b015760405162461bcd60e51b815260206004820152602660248201527f455243313936373a206e65772061646d696e20697320746865207a65726f206160448201526564647265737360d01b6064820152608401610316565b807fb53127684a568b3173ae13b9f8a6016e243e63b6e8ee1178d6a717850b5d6103614a07565b8051600090614b3957506000919050565b6020820151805160001a9060c0821015614b57575060009392505050565b5060019392505050565b8051600090614b7257506000919050565b600080614b828460200151614be4565b8460200151614b919190615b23565b9050600084600001518560200151614ba99190615b23565b90505b80821015614bdb57614bbd82614c5f565b614bc79083615b23565b915082614bd381615d29565b935050614bac565b50909392505050565b8051600090811a6080811015614bfd5750600092915050565b60b8811080614c18575060c08110801590614c18575060f881105b15614c265750600192915050565b60c0811015614c5357614c3b600160b8615cb6565b614c489060ff1682615c9f565b610a0e906001615b23565b614c3b600160f8615cb6565b80516000908190811a6080811015614c7a5760019150613dcf565b60b8811015614ca057614c8e608082615c9f565b614c99906001615b23565b9150613dcf565b60c0811015614ccd5760b78103600185019450806020036101000a85510460018201810193505050613dcf565b60f8811015614ce157614c8e60c082615c9f565b60019390930151602084900360f7016101000a900490920160f5190192915050565b6000806000614d158460200151614be4565b90506000818560200151614d299190615b23565b90506000828660000151614d3d9190615c9f565b9196919550909350505050565b80614d5457505050565b60208110614d8c5782518252614d6b602084615b23565b9250614d78602083615b23565b9150614d85602082615c9f565b9050614d54565b80156108475760006001614da1836020615c9f565b614dad90610100615bb7565b614db79190615c9f565b84518451821691191617835250505050565b614dd281614989565b6040516001600160a01b038216907fbc7cd75a20ee27fd9adebab32041f755214dbc6bffa90cc0225b39da2e5c2d3b90600090a250565b60606117ce8383604051806060016040528060278152602001615e1a6027913960606001600160a01b0384163b614e915760405162461bcd60e51b815260206004820152602660248201527f416464726573733a2064656c65676174652063616c6c20746f206e6f6e2d636f6044820152651b9d1c9858dd60d21b6064820152608401610316565b600080856001600160a01b031685604051614eac9190615749565b600060405180830381855af49150503d8060008114614ee7576040519150601f19603f3d011682016040523d82523d6000602084013e614eec565b606091505b5091509150612a2382828660608315614f06575081610a0e565b825115614f165782518084602001fd5b8160405162461bcd60e51b81526004016103169190615915565b6000614f43614f3e84615afc565b615acc565b9050828152838383011115614f5757600080fd5b610a0e836020830184615cfd565b80518015158114614f7557600080fd5b919050565b600082601f830112614f8b57600080fd5b8135614f99614f3e82615afc565b818152846020838601011115614fae57600080fd5b816020850160208301376000918101602001919091529392505050565b600082601f830112614fdc57600080fd5b6117ce83835160208501614f30565b600060208284031215614ffd57600080fd5b8135610a0e81615db0565b60006020828403121561501a57600080fd5b8151610a0e81615db0565b600080600080600060a0868803121561503d57600080fd5b855161504881615db0565b60208701519095506001600160401b0381111561506457600080fd5b61507088828901614fcb565b94505060408601519250606086015161508881615db0565b80925050608086015190509295509295909350565b6000806000606084860312156150b257600080fd5b83356150bd81615db0565b925060208401356150cd81615db0565b929592945050506040919091013590565b6000806000606084860312156150f357600080fd5b83356150fe81615db0565b9250602084013561510e81615db0565b9150604084013561511e81615db0565b809150509250925092565b600080600080600060a0868803121561514157600080fd5b853561514c81615db0565b9450602086013561515c81615db0565b935060408601356001600160401b0381111561517757600080fd5b61518388828901614f7a565b9598949750949560608101359550608001359392505050565b600080604083850312156151af57600080fd5b82356151ba81615db0565b915060208301356001600160401b038111156151d557600080fd5b6151e185828601614f7a565b9150509250929050565b6000806000806080858703121561520157600080fd5b843561520c81615db0565b935060208501356001600160401b0381111561522757600080fd5b61523387828801614f7a565b949794965050505060408301359260600135919050565b6000806040838503121561525d57600080fd5b825161526881615db0565b6020939093015192949293505050565b60008060006060848603121561528d57600080fd5b833561529881615db0565b92506020840135915060408401356001600160401b038111156152ba57600080fd5b6152c686828701614f7a565b9150509250925092565b600060208083850312156152e357600080fd5b82356001600160401b03808211156152fa57600080fd5b818501915085601f83011261530e57600080fd5b81358181111561532057615320615d9a565b8060051b9150615331848301615acc565b8181528481019084860184860187018a101561534c57600080fd5b600095505b8386101561537b578035945061536685615db0565b84835260019590950194918601918601615351565b5098975050505050505050565b60006020828403121561539a57600080fd5b6117ce82614f65565b6000806000606084860312156153b857600080fd5b6153c184614f65565b925060208401516001600160401b03808211156153dd57600080fd5b818601915086601f8301126153f157600080fd5b61540087835160208501614f30565b9350604086015191508082111561541657600080fd5b506152c686828701614fcb565b60006020828403121561543557600080fd5b5035919050565b60006020828403121561544e57600080fd5b5051919050565b60006020828403121561546757600080fd5b81356001600160401b0381111561547d57600080fd5b613e1c84828501614f7a565b60006020828403121561549b57600080fd5b81516001600160401b038111156154b157600080fd5b613e1c84828501614fcb565b600080600080600080600080610100898b0312156154da57600080fd5b88516001600160401b03808211156154f157600080fd5b6154fd8c838d01614fcb565b995060208b015191508082111561551357600080fd5b61551f8c838d01614fcb565b985060408b0151975060608b0151965060808b0151955060a08b015191508082111561554a57600080fd5b6155568c838d01614fcb565b945060c08b0151935060e08b015191508082111561557357600080fd5b506155808b828c01614fcb565b9150509295985092959890939650565b600080604083850312156155a357600080fd5b82356001600160401b038111156155b957600080fd5b6155c585828601614f7a565b95602094909401359450505050565b6000806000606084860312156155e957600080fd5b83356001600160401b038111156155ff57600080fd5b61560b86828701614f7a565b9660208601359650604090950135949350505050565b6000806000806080858703121561563757600080fd5b84356001600160401b0381111561564d57600080fd5b61565987828801614f7a565b97602087013597506040870135966060013595509350505050565b6000806040838503121561568757600080fd5b82359150602083013561569981615db0565b809150509250929050565b6000806000606084860312156156b957600080fd5b8335925060208401356150cd81615db0565b600080604083850312156156de57600080fd5b8235915060208301356001600160401b038111156151d557600080fd5b6000806040838503121561570e57600080fd5b50508035926020909101359150565b60008151808452615735816020860160208601615cfd565b601f01601f19169290920160200192915050565b6000825161575b818460208701615cfd565b9190910192915050565b87815260006bffffffffffffffffffffffff19808960601b1660208401528751615796816034860160208c01615cfd565b60609790971b1691909501603481019190915260488101939093526068830191909152608882015260a801949350505050565b6001600160a01b038616815260a0602082018190526000906157ed9083018761571d565b604083019590955250606081019290925260809091015292915050565b600061010080835261581e8184018c61571d565b90508281036020840152615832818b61571d565b905088604084015287606084015286608084015282810360a0840152615858818761571d565b90508460c084015282810360e0840152615872818561571d565b9b9a5050505050505050505050565b604081526000615894604083018561571d565b8281036020840152835160a082526158af60a083018261571d565b9050602085015182820360208401526158c8828261571d565b915050604085015182820360408401526158e2828261571d565b915050606085015182820360608401526158fc828261571d565b9150506080850151608083015280925050509392505050565b6020815260006117ce602083018461571d565b60208082526018908201527f496c6c6567616c206163726f73732074686520636861696e0000000000000000604082015260600190565b6020808252602c908201527f46756e6374696f6e206d7573742062652063616c6c6564207468726f7567682060408201526b19195b1959d85d1958d85b1b60a21b606082015260800190565b6020808252600b908201526a1bdc99195c88195e1a5cdd60aa1b604082015260600190565b6020808252602c908201527f46756e6374696f6e206d7573742062652063616c6c6564207468726f7567682060408201526b6163746976652070726f787960a01b606082015260800190565b60208082526017908201527f6c696768746e6f6465203a3a206f6e6c792061646d696e000000000000000000604082015260600190565b6020808252601f908201527f5265656e7472616e637947756172643a207265656e7472616e742063616c6c00604082015260600190565b828152604060208201526000610a0b604083018461571d565b838152606060208201526000615abc606083018561571d565b9050826040830152949350505050565b604051601f8201601f191681016001600160401b0381118282101715615af457615af4615d9a565b604052919050565b60006001600160401b03821115615b1557615b15615d9a565b50601f01601f191660200190565b60008219821115615b3657615b36615d58565b500190565b600060ff821660ff84168060ff03821115615b5857615b58615d58565b019392505050565b600082615b6f57615b6f615d6e565b500490565b600181815b80851115615baf578160001904821115615b9557615b95615d58565b80851615615ba257918102915b93841c9390800290615b79565b509250929050565b60006117ce8383600082615bcd575060016117d1565b81615bda575060006117d1565b8160018114615bf05760028114615bfa57615c16565b60019150506117d1565b60ff841115615c0b57615c0b615d58565b50506001821b6117d1565b5060208310610133831016604e8410600b8410161715615c39575081810a6117d1565b615c438383615b74565b8060001904821115615c5757615c57615d58565b029392505050565b6000816000190483118215151615615c7957615c79615d58565b500290565b600060ff821660ff84168160ff0481118215151615615c5757615c57615d58565b600082821015615cb157615cb1615d58565b500390565b600060ff821660ff841680821015615cd057615cd0615d58565b90039392505050565b805160208083015191908110156138e85760001960209190910360031b1b16919050565b60005b83811015615d18578181015183820152602001615d00565b838111156122f25750506000910152565b6000600019821415615d3d57615d3d615d58565b5060010190565b600082615d5357615d53615d6e565b500690565b634e487b7160e01b600052601160045260246000fd5b634e487b7160e01b600052601260045260246000fd5b634e487b7160e01b600052603260045260246000fd5b634e487b7160e01b600052604160045260246000fd5b6001600160a01b03811681146110aa57600080fdfe6d61704465706f7369744f757428616464726573732c62797465732c627974657333322c616464726573732c75696e7432353629360894a13ba1a3210667c828492db98dca3e2076cc3735a920a3ca505d382bbc416464726573733a206c6f772d6c6576656c2064656c65676174652063616c6c206661696c65646d61705472616e736665724f75742862797465732c62797465732c627974657333322c75696e743235362c75696e743235362c62797465732c75696e743235362c627974657329a264697066735822122027fe49327fc0eca53f101c8b9d09a588de778b2d53c861f34670457a6dc7234664736f6c63430008070033",
	"linkReferences": {},
	"deployedLinkReferences": {}
}