{
	"_format": "hh-sol-artifact-1",
	"contractName": "MAPOmnichainServiceRelayV2",
	"sourceName": "contracts/MAPOmnichainServiceRelayV2.sol",
	"abi": [
		{
			"anonymous": false,
			"inputs": [
				{
					"indexed": false,
					"internalType": "address",
					"name": "previousAdmin",
					"type": "address"
				},
				{
					"indexed": false,
					"internalType": "address",
					"name": "newAdmin",
					"type": "address"
				}
			],
			"name": "AdminChanged",
			"type": "event"
		},
		{
			"anonymous": false,
			"inputs": [
				{
					"indexed": true,
					"internalType": "address",
					"name": "beacon",
					"type": "address"
				}
			],
			"name": "BeaconUpgraded",
			"type": "event"
		},
		{
			"anonymous": false,
			"inputs": [
				{
					"indexed": false,
					"internalType": "address",
					"name": "account",
					"type": "address"
				}
			],
			"name": "Paused",
			"type": "event"
		},
		{
			"anonymous": false,
			"inputs": [
				{
					"indexed": false,
					"internalType": "address",
					"name": "account",
					"type": "address"
				}
			],
			"name": "Unpaused",
			"type": "event"
		},
		{
			"anonymous": false,
			"inputs": [
				{
					"indexed": true,
					"internalType": "address",
					"name": "implementation",
					"type": "address"
				}
			],
			"name": "Upgraded",
			"type": "event"
		},
		{
			"anonymous": false,
			"inputs": [
				{
					"indexed": true,
					"internalType": "uint256",
					"name": "fromChain",
					"type": "uint256"
				},
				{
					"indexed": true,
					"internalType": "uint256",
					"name": "toChain",
					"type": "uint256"
				},
				{
					"indexed": true,
					"internalType": "address",
					"name": "token",
					"type": "address"
				},
				{
					"indexed": false,
					"internalType": "bytes32",
					"name": "orderId",
					"type": "bytes32"
				},
				{
					"indexed": false,
					"internalType": "bytes",
					"name": "from",
					"type": "bytes"
				},
				{
					"indexed": false,
					"internalType": "address",
					"name": "to",
					"type": "address"
				},
				{
					"indexed": false,
					"internalType": "uint256",
					"name": "amount",
					"type": "uint256"
				}
			],
			"name": "mapDepositIn",
			"type": "event"
		},
		{
			"anonymous": false,
			"inputs": [
				{
					"indexed": true,
					"internalType": "uint256",
					"name": "fromChain",
					"type": "uint256"
				},
				{
					"indexed": true,
					"internalType": "uint256",
					"name": "toChain",
					"type": "uint256"
				},
				{
					"indexed": false,
					"internalType": "bytes32",
					"name": "orderId",
					"type": "bytes32"
				},
				{
					"indexed": false,
					"internalType": "address",
					"name": "token",
					"type": "address"
				},
				{
					"indexed": false,
					"internalType": "bytes",
					"name": "from",
					"type": "bytes"
				},
				{
					"indexed": false,
					"internalType": "address",
					"name": "to",
					"type": "address"
				},
				{
					"indexed": false,
					"internalType": "uint256",
					"name": "amount",
					"type": "uint256"
				}
			],
			"name": "mapDepositOut",
			"type": "event"
		},
		{
			"anonymous": false,
			"inputs": [
				{
					"indexed": true,
					"internalType": "uint256",
					"name": "fromChain",
					"type": "uint256"
				},
				{
					"indexed": true,
					"internalType": "uint256",
					"name": "toChain",
					"type": "uint256"
				},
				{
					"indexed": true,
					"internalType": "address",
					"name": "from",
					"type": "address"
				}
			],
			"name": "mapSwapExecute",
			"type": "event"
		},
		{
			"anonymous": false,
			"inputs": [
				{
					"indexed": true,
					"internalType": "uint256",
					"name": "fromChain",
					"type": "uint256"
				},
				{
					"indexed": true,
					"internalType": "uint256",
					"name": "toChain",
					"type": "uint256"
				},
				{
					"indexed": true,
					"internalType": "bytes32",
					"name": "orderId",
					"type": "bytes32"
				},
				{
					"indexed": false,
					"internalType": "address",
					"name": "token",
					"type": "address"
				},
				{
					"indexed": false,
					"internalType": "bytes",
					"name": "from",
					"type": "bytes"
				},
				{
					"indexed": false,
					"internalType": "address",
					"name": "toAddress",
					"type": "address"
				},
				{
					"indexed": false,
					"internalType": "uint256",
					"name": "amountOut",
					"type": "uint256"
				}
			],
			"name": "mapSwapIn",
			"type": "event"
		},
		{
			"anonymous": false,
			"inputs": [
				{
					"indexed": true,
					"internalType": "uint256",
					"name": "fromChain",
					"type": "uint256"
				},
				{
					"indexed": true,
					"internalType": "uint256",
					"name": "toChain",
					"type": "uint256"
				},
				{
					"indexed": false,
					"internalType": "bytes32",
					"name": "orderId",
					"type": "bytes32"
				},
				{
					"indexed": false,
					"internalType": "bytes",
					"name": "token",
					"type": "bytes"
				},
				{
					"indexed": false,
					"internalType": "bytes",
					"name": "from",
					"type": "bytes"
				},
				{
					"indexed": false,
					"internalType": "bytes",
					"name": "to",
					"type": "bytes"
				},
				{
					"indexed": false,
					"internalType": "uint256",
					"name": "amount",
					"type": "uint256"
				},
				{
					"indexed": false,
					"internalType": "bytes",
					"name": "swapData",
					"type": "bytes"
				}
			],
			"name": "mapSwapOut",
			"type": "event"
		},
		{
			"anonymous": false,
			"inputs": [
				{
					"indexed": true,
					"internalType": "uint256",
					"name": "fromChain",
					"type": "uint256"
				},
				{
					"indexed": true,
					"internalType": "uint256",
					"name": "toChain",
					"type": "uint256"
				},
				{
					"indexed": true,
					"internalType": "address",
					"name": "from",
					"type": "address"
				}
			],
			"name": "mapTransferExecute",
			"type": "event"
		},
		{
			"anonymous": false,
			"inputs": [
				{
					"indexed": true,
					"internalType": "uint256",
					"name": "fromChain",
					"type": "uint256"
				},
				{
					"indexed": true,
					"internalType": "uint256",
					"name": "toChain",
					"type": "uint256"
				},
				{
					"indexed": false,
					"internalType": "bytes32",
					"name": "orderId",
					"type": "bytes32"
				},
				{
					"indexed": false,
					"internalType": "address",
					"name": "token",
					"type": "address"
				},
				{
					"indexed": false,
					"internalType": "bytes",
					"name": "from",
					"type": "bytes"
				},
				{
					"indexed": false,
					"internalType": "address",
					"name": "to",
					"type": "address"
				},
				{
					"indexed": false,
					"internalType": "uint256",
					"name": "amount",
					"type": "uint256"
				}
			],
			"name": "mapTransferIn",
			"type": "event"
		},
		{
			"anonymous": false,
			"inputs": [
				{
					"indexed": true,
					"internalType": "uint256",
					"name": "fromChain",
					"type": "uint256"
				},
				{
					"indexed": true,
					"internalType": "uint256",
					"name": "toChain",
					"type": "uint256"
				},
				{
					"indexed": false,
					"internalType": "bytes32",
					"name": "orderId",
					"type": "bytes32"
				},
				{
					"indexed": false,
					"internalType": "bytes",
					"name": "token",
					"type": "bytes"
				},
				{
					"indexed": false,
					"internalType": "bytes",
					"name": "from",
					"type": "bytes"
				},
				{
					"indexed": false,
					"internalType": "bytes",
					"name": "to",
					"type": "bytes"
				},
				{
					"indexed": false,
					"internalType": "uint256",
					"name": "amount",
					"type": "uint256"
				},
				{
					"indexed": false,
					"internalType": "bytes",
					"name": "toChainToken",
					"type": "bytes"
				}
			],
			"name": "mapTransferOut",
			"type": "event"
		},
		{
			"anonymous": false,
			"inputs": [
				{
					"indexed": true,
					"internalType": "uint256",
					"name": "fromChain",
					"type": "uint256"
				},
				{
					"indexed": true,
					"internalType": "uint256",
					"name": "toChain",
					"type": "uint256"
				},
				{
					"indexed": false,
					"internalType": "bytes32",
					"name": "orderId",
					"type": "bytes32"
				},
				{
					"indexed": false,
					"internalType": "address",
					"name": "token",
					"type": "address"
				},
				{
					"indexed": false,
					"internalType": "bytes",
					"name": "from",
					"type": "bytes"
				},
				{
					"indexed": false,
					"internalType": "bytes",
					"name": "to",
					"type": "bytes"
				},
				{
					"indexed": false,
					"internalType": "uint256",
					"name": "amount",
					"type": "uint256"
				}
			],
			"name": "mapTransferRelay",
			"type": "event"
		},
		{
			"inputs": [
				{
					"internalType": "uint256",
					"name": "",
					"type": "uint256"
				}
			],
			"name": "chainTypes",
			"outputs": [
				{
					"internalType": "enum MAPOmnichainServiceRelayV2.chainType",
					"name": "",
					"type": "uint8"
				}
			],
			"stateMutability": "view",
			"type": "function"
		},
		{
			"inputs": [
				{
					"internalType": "address",
					"name": "_admin",
					"type": "address"
				}
			],
			"name": "changeAdmin",
			"outputs": [],
			"stateMutability": "nonpayable",
			"type": "function"
		},
		{
			"inputs": [
				{
					"internalType": "uint256",
					"name": "_chainId",
					"type": "uint256"
				},
				{
					"internalType": "bytes",
					"name": "_receiptProof",
					"type": "bytes"
				}
			],
			"name": "depositIn",
			"outputs": [],
			"stateMutability": "payable",
			"type": "function"
		},
		{
			"inputs": [
				{
					"internalType": "address",
					"name": "_to",
					"type": "address"
				}
			],
			"name": "depositNative",
			"outputs": [],
			"stateMutability": "payable",
			"type": "function"
		},
		{
			"inputs": [
				{
					"internalType": "address",
					"name": "_token",
					"type": "address"
				},
				{
					"internalType": "address",
					"name": "_to",
					"type": "address"
				},
				{
					"internalType": "uint256",
					"name": "_amount",
					"type": "uint256"
				}
			],
			"name": "depositToken",
			"outputs": [],
			"stateMutability": "nonpayable",
			"type": "function"
		},
		{
			"inputs": [
				{
					"internalType": "uint256",
					"name": "",
					"type": "uint256"
				}
			],
			"name": "distributeRate",
			"outputs": [
				{
					"internalType": "address",
					"name": "receiver",
					"type": "address"
				},
				{
					"internalType": "uint256",
					"name": "rate",
					"type": "uint256"
				}
			],
			"stateMutability": "view",
			"type": "function"
		},
		{
			"inputs": [
				{
					"internalType": "address",
					"name": "_token",
					"type": "address"
				},
				{
					"internalType": "address payable",
					"name": "_receiver",
					"type": "address"
				},
				{
					"internalType": "uint256",
					"name": "_amount",
					"type": "uint256"
				}
			],
			"name": "emergencyWithdraw",
			"outputs": [],
			"stateMutability": "nonpayable",
			"type": "function"
		},
		{
			"inputs": [],
			"name": "getAdmin",
			"outputs": [
				{
					"internalType": "address",
					"name": "",
					"type": "address"
				}
			],
			"stateMutability": "view",
			"type": "function"
		},
		{
			"inputs": [
				{
					"internalType": "uint256",
					"name": "_id",
					"type": "uint256"
				},
				{
					"internalType": "uint256",
					"name": "_amount",
					"type": "uint256"
				}
			],
			"name": "getFee",
			"outputs": [
				{
					"internalType": "uint256",
					"name": "",
					"type": "uint256"
				},
				{
					"internalType": "address",
					"name": "",
					"type": "address"
				}
			],
			"stateMutability": "view",
			"type": "function"
		},
		{
			"inputs": [],
			"name": "getImplementation",
			"outputs": [
				{
					"internalType": "address",
					"name": "",
					"type": "address"
				}
			],
			"stateMutability": "view",
			"type": "function"
		},
		{
			"inputs": [
				{
					"internalType": "address",
					"name": "_wToken",
					"type": "address"
				},
				{
					"internalType": "address",
					"name": "_managerAddress",
					"type": "address"
				}
			],
			"name": "initialize",
			"outputs": [],
			"stateMutability": "nonpayable",
			"type": "function"
		},
		{
			"inputs": [],
			"name": "lightClientManager",
			"outputs": [
				{
					"internalType": "contract ILightClientManager",
					"name": "",
					"type": "address"
				}
			],
			"stateMutability": "view",
			"type": "function"
		},
		{
			"inputs": [
				{
					"internalType": "uint256",
					"name": "",
					"type": "uint256"
				}
			],
			"name": "mosContracts",
			"outputs": [
				{
					"internalType": "bytes",
					"name": "",
					"type": "bytes"
				}
			],
			"stateMutability": "view",
			"type": "function"
		},
		{
			"inputs": [],
			"name": "nonce",
			"outputs": [
				{
					"internalType": "uint256",
					"name": "",
					"type": "uint256"
				}
			],
			"stateMutability": "view",
			"type": "function"
		},
		{
			"inputs": [
				{
					"internalType": "bytes32",
					"name": "",
					"type": "bytes32"
				}
			],
			"name": "orderList",
			"outputs": [
				{
					"internalType": "bool",
					"name": "",
					"type": "bool"
				}
			],
			"stateMutability": "view",
			"type": "function"
		},
		{
			"inputs": [],
			"name": "paused",
			"outputs": [
				{
					"internalType": "bool",
					"name": "",
					"type": "bool"
				}
			],
			"stateMutability": "view",
			"type": "function"
		},
		{
			"inputs": [
				{
					"internalType": "uint256",
					"name": "_chainId",
					"type": "uint256"
				},
				{
					"internalType": "bytes",
					"name": "_address",
					"type": "bytes"
				},
				{
					"internalType": "enum MAPOmnichainServiceRelayV2.chainType",
					"name": "_type",
					"type": "uint8"
				}
			],
			"name": "registerChain",
			"outputs": [],
			"stateMutability": "nonpayable",
			"type": "function"
		},
		{
			"inputs": [],
			"name": "selfChainId",
			"outputs": [
				{
					"internalType": "uint256",
					"name": "",
					"type": "uint256"
				}
			],
			"stateMutability": "view",
			"type": "function"
		},
		{
			"inputs": [
				{
					"internalType": "uint256",
					"name": "_id",
					"type": "uint256"
				},
				{
					"internalType": "address",
					"name": "_to",
					"type": "address"
				},
				{
					"internalType": "uint256",
					"name": "_rate",
					"type": "uint256"
				}
			],
			"name": "setDistributeRate",
			"outputs": [],
			"stateMutability": "nonpayable",
			"type": "function"
		},
		{
			"inputs": [
				{
					"internalType": "address",
					"name": "_managerAddress",
					"type": "address"
				}
			],
			"name": "setLightClientManager",
			"outputs": [],
			"stateMutability": "nonpayable",
			"type": "function"
		},
		{
			"inputs": [],
			"name": "setPause",
			"outputs": [],
			"stateMutability": "nonpayable",
			"type": "function"
		},
		{
			"inputs": [
				{
					"internalType": "address",
					"name": "_register",
					"type": "address"
				}
			],
			"name": "setTokenManager",
			"outputs": [],
			"stateMutability": "nonpayable",
			"type": "function"
		},
		{
			"inputs": [],
			"name": "setUnpause",
			"outputs": [],
			"stateMutability": "nonpayable",
			"type": "function"
		},
		{
			"inputs": [
				{
					"internalType": "uint256",
					"name": "_chainId",
					"type": "uint256"
				},
				{
					"internalType": "bytes",
					"name": "_receiptProof",
					"type": "bytes"
				}
			],
			"name": "swapIn",
			"outputs": [],
			"stateMutability": "nonpayable",
			"type": "function"
		},
		{
			"inputs": [
				{
					"internalType": "bytes",
					"name": "_to",
					"type": "bytes"
				},
				{
					"internalType": "uint256",
					"name": "_toChain",
					"type": "uint256"
				},
				{
					"internalType": "bytes",
					"name": "swapData",
					"type": "bytes"
				}
			],
			"name": "swapOutNative",
			"outputs": [],
			"stateMutability": "payable",
			"type": "function"
		},
		{
			"inputs": [
				{
					"internalType": "address",
					"name": "_token",
					"type": "address"
				},
				{
					"internalType": "bytes",
					"name": "_to",
					"type": "bytes"
				},
				{
					"internalType": "uint256",
					"name": "_amount",
					"type": "uint256"
				},
				{
					"internalType": "uint256",
					"name": "_toChain",
					"type": "uint256"
				},
				{
					"internalType": "bytes",
					"name": "swapData",
					"type": "bytes"
				}
			],
			"name": "swapOutToken",
			"outputs": [],
			"stateMutability": "nonpayable",
			"type": "function"
		},
		{
			"inputs": [],
			"name": "tokenRegister",
			"outputs": [
				{
					"internalType": "contract ITokenRegisterV2",
					"name": "",
					"type": "address"
				}
			],
			"stateMutability": "view",
			"type": "function"
		},
		{
			"inputs": [
				{
					"internalType": "uint256",
					"name": "_chainId",
					"type": "uint256"
				},
				{
					"internalType": "bytes",
					"name": "_receiptProof",
					"type": "bytes"
				}
			],
			"name": "transferIn",
			"outputs": [],
			"stateMutability": "nonpayable",
			"type": "function"
		},
		{
			"inputs": [
				{
					"internalType": "bytes",
					"name": "_to",
					"type": "bytes"
				},
				{
					"internalType": "uint256",
					"name": "_toChain",
					"type": "uint256"
				}
			],
			"name": "transferOutNative",
			"outputs": [],
			"stateMutability": "payable",
			"type": "function"
		},
		{
			"inputs": [
				{
					"internalType": "address",
					"name": "_token",
					"type": "address"
				},
				{
					"internalType": "bytes",
					"name": "_to",
					"type": "bytes"
				},
				{
					"internalType": "uint256",
					"name": "_amount",
					"type": "uint256"
				},
				{
					"internalType": "uint256",
					"name": "_toChain",
					"type": "uint256"
				}
			],
			"name": "transferOutToken",
			"outputs": [],
			"stateMutability": "nonpayable",
			"type": "function"
		},
		{
			"inputs": [
				{
					"internalType": "address",
					"name": "newImplementation",
					"type": "address"
				}
			],
			"name": "upgradeTo",
			"outputs": [],
			"stateMutability": "nonpayable",
			"type": "function"
		},
		{
			"inputs": [
				{
					"internalType": "address",
					"name": "newImplementation",
					"type": "address"
				},
				{
					"internalType": "bytes",
					"name": "data",
					"type": "bytes"
				}
			],
			"name": "upgradeToAndCall",
			"outputs": [],
			"stateMutability": "payable",
			"type": "function"
		},
		{
			"inputs": [],
			"name": "wToken",
			"outputs": [
				{
					"internalType": "address",
					"name": "",
					"type": "address"
				}
			],
			"stateMutability": "view",
			"type": "function"
		},
		{
			"inputs": [
				{
					"internalType": "address",
					"name": "_vaultToken",
					"type": "address"
				},
				{
					"internalType": "uint256",
					"name": "_vaultAmount",
					"type": "uint256"
				}
			],
			"name": "withdraw",
			"outputs": [],
			"stateMutability": "nonpayable",
			"type": "function"
		},
		{
			"stateMutability": "payable",
			"type": "receive"
		}
	],
	"bytecode": "0x60c06040523060601b6080524660a05234801561001b57600080fd5b5060016000819055805462ff00001916905560805160601c60a05161733c620000fe600039600081816105ca01528181610a3901528181610ab801528181610da701528181610ec8015281816112b20152818161155501528181611e050152818161216a0152818161268f01528181612e6401528181612f7f0152818161317f015281816134aa0152818161351a0152818161362601528181613b4801528181613e3301528181614536015281816147c90152818161566e015261570b015260008181610ddf01528181610e1f015281816111d80152611218015261733c6000f3fe6080604052600436106101fd5760003560e01c80637cb2b79c1161010d578063cc9e3e89116100a0578063d431b1ac1161006f578063d431b1ac14610669578063d687c35d1461067e578063e63ea4081461069e578063f3fef3a3146106be578063fb0f97a8146106de57600080fd5b8063cc9e3e89146105b8578063d24c6944146105ec578063d250185c1461060c578063d33a28a21461064957600080fd5b8063981aff4e116100dc578063981aff4e1461053f578063aaf10f421461055f578063affed0e014610574578063ca0da31f1461059857600080fd5b80637cb2b79c146104ad578063848cb5c6146104cd5780638d6ffd6a146104e25780638f2839701461051f57600080fd5b80633e2f1d0f116101905780635c975abb1161015f5780635c975abb1461040b5780636af6400d146104355780636d5ff479146104655780636e9960c314610478578063789728251461048d57600080fd5b80633e2f1d0f1461038b5780633ea549a2146103b8578063485cc955146103d85780634f1ef286146103f857600080fd5b80632f5c5d5e116101cc5780632f5c5d5e1461032557806333bb7f91146103455780633659cfe6146103585780633d4a2f6e1461037857600080fd5b80630babd86414610256578063145a6579146102935780632e7ec23f146102f25780632f12d7ef1461030557600080fd5b36610251576003546001600160a01b0316331461024f5760405162461bcd60e51b815260206004820152600b60248201526a37b7363c903baa37b5b2b760a91b60448201526064015b60405180910390fd5b005b600080fd5b34801561026257600080fd5b50600354610276906001600160a01b031681565b6040516001600160a01b0390911681526020015b60405180910390f35b34801561029f57600080fd5b506102d36102ae3660046165f3565b600660205260009081526040902080546001909101546001600160a01b039091169082565b604080516001600160a01b03909316835260208301919091520161028a565b61024f610300366004616869565b6106fe565b34801561031157600080fd5b5061024f61032036600461632d565b610a8d565b34801561033157600080fd5b5061024f6103403660046161cb565b610c0c565b61024f6103533660046161cb565b610c8e565b34801561036457600080fd5b5061024f6103733660046161cb565b610dd4565b61024f61038636600461678f565b610e9d565b34801561039757600080fd5b506103ab6103a63660046165f3565b610ff0565b60405161028a9190616bb4565b3480156103c457600080fd5b50600454610276906001600160a01b031681565b3480156103e457600080fd5b5061024f6103f3366004616205565b61108a565b61024f61040636600461627f565b6111cd565b34801561041757600080fd5b5060015462010000900460ff165b604051901515815260200161028a565b34801561044157600080fd5b506104256104503660046165f3565b60076020526000908152604090205460ff1681565b61024f6104733660046167d3565b611287565b34801561048457600080fd5b506102766113ef565b34801561049957600080fd5b50600554610276906001600160a01b031681565b3480156104b957600080fd5b5061024f6104c83660046161cb565b6113fe565b3480156104d957600080fd5b5061024f611480565b3480156104ee57600080fd5b506105126104fd3660046165f3565b60096020526000908152604090205460ff1681565b60405161028a9190616bc7565b34801561052b57600080fd5b5061024f61053a3660046161cb565b6114c2565b34801561054b57600080fd5b5061024f61055a3660046162ce565b61152a565b34801561056b57600080fd5b5061027661166c565b34801561058057600080fd5b5061058a60025481565b60405190815260200161028a565b3480156105a457600080fd5b5061024f6105b3366004616842565b611676565b3480156105c457600080fd5b5061058a7f000000000000000000000000000000000000000000000000000000000000000081565b3480156105f857600080fd5b5061024f610607366004616869565b611825565b34801561061857600080fd5b5061062c6106273660046168f7565b611ac3565b604080519283526001600160a01b0390911660208301520161028a565b34801561065557600080fd5b5061024f610664366004616869565b611b1e565b34801561067557600080fd5b5061024f611e59565b34801561068a57600080fd5b5061024f610699366004616899565b611e99565b3480156106aa57600080fd5b5061024f6106b936600461623e565b611f26565b3480156106ca57600080fd5b5061024f6106d93660046163bc565b611f69565b3480156106ea57600080fd5b5061024f6106f936600461623e565b6121ef565b600260005414156107215760405162461bcd60e51b815260040161024690616e55565b600260005560015462010000900460ff161561074f5760405162461bcd60e51b815260040161024690616d63565b600554604051637c55b7bd60e11b8152600091829182916001600160a01b03169063f8ab6f7a906107869088908890600401616e8c565b60006040518083038186803b15801561079e57600080fd5b505afa1580156107b2573d6000803e3d6000fd5b505050506040513d6000823e601f3d908101601f191682016040526107da9190810190616569565b9250925092508282906108005760405162461bcd60e51b81526004016102469190616bb4565b50600260008681526009602052604090205460ff166002811115610826576108266171ba565b141561090e57600080610838836122fa565b915091506108e182600860008a8152602001908152602001600020805461085e9061712a565b80601f016020809104026020016040519081016040528092919081815260200182805461088a9061712a565b80156108d75780601f106108ac576101008083540402835291602001916108d7565b820191906000526020600020905b8154815290600101906020018083116108ba57829003601f168201915b50505050506125fb565b6108fd5760405162461bcd60e51b815260040161024690616cc0565b6109078782612617565b5050610a32565b600160008681526009602052604090205460ff166002811115610933576109336171ba565b1415610a325760006109448261291d565b905060005b8151811015610907576040518060800160405280604481526020016172806044913980519060200120828281518110610984576109846171d0565b6020026020010151602001516000815181106109a2576109a26171d0565b60200260200101518060200190518101906109bd919061660c565b1415610a20576000806109e88484815181106109db576109db6171d0565b6020026020010151612b20565b91509150610a0e82600860008c8152602001908152602001600020805461085e9061712a565b15610a1d57610a1d8982612617565b50505b80610a2a8161715f565b915050610949565b60405133907f00000000000000000000000000000000000000000000000000000000000000009087907f8c991a6f7ef9e9e8c0cc7f34d5ce0b20ff23538ec4d944e9d065b833982fc78390600090a450506001600055505050565b60015462010000900460ff1615610ab65760405162461bcd60e51b815260040161024690616d63565b7f0000000000000000000000000000000000000000000000000000000000000000831415610b225760405162461bcd60e51b815260206004820152601960248201527821b0b73737ba1039bbb0b8103a379039b2b6331031b430b4b760391b6044820152606401610246565b6040516370a0823160e01b815233600482015284906001600160a01b038816906370a082319060240160206040518083038186803b158015610b6357600080fd5b505afa158015610b77573d6000803e3d6000fd5b505050506040513d601f19601f82011682018060405250810190610b9b919061660c565b1015610be95760405162461bcd60e51b815260206004820152601a60248201527f496e73756666696369656e7420746f6b656e2062616c616e63650000000000006044820152606401610246565b610bf586333087612c3c565b610c0486863387878787612d64565b505050505050565b610c14612ff6565b6001600160a01b0316336001600160a01b031614610c445760405162461bcd60e51b815260040161024690616e25565b806001600160a01b038116610c6b5760405162461bcd60e51b815260040161024690616d3a565b50600580546001600160a01b0319166001600160a01b0392909216919091179055565b60026000541415610cb15760405162461bcd60e51b815260040161024690616e55565b600260005560015462010000900460ff1615610cdf5760405162461bcd60e51b815260040161024690616d63565b3480610d1d5760405162461bcd60e51b815260206004820152600d60248201526c76616c756520746f6f206c6f7760981b6044820152606401610246565b600360009054906101000a90046001600160a01b03166001600160a01b031663d0e30db0826040518263ffffffff1660e01b81526004016000604051808303818588803b158015610d6d57600080fd5b505af1158015610d81573d6000803e3d6000fd5b5050600354610dcb93506001600160a01b03169150610da1905033613029565b848460007f000000000000000000000000000000000000000000000000000000000000000061305f565b50506001600055565b306001600160a01b037f0000000000000000000000000000000000000000000000000000000000000000161415610e1d5760405162461bcd60e51b815260040161024690616c26565b7f00000000000000000000000000000000000000000000000000000000000000006001600160a01b0316610e4f6131e5565b6001600160a01b031614610e755760405162461bcd60e51b815260040161024690616cee565b610e7e8161320d565b60408051600080825260208201909252610e9a9183919061328e565b50565b60015462010000900460ff1615610ec65760405162461bcd60e51b815260040161024690616d63565b7f0000000000000000000000000000000000000000000000000000000000000000811415610f295760405162461bcd60e51b815260206004820152601060248201526f37b7363c9037ba3432b91031b430b4b760811b6044820152606401610246565b3480610f675760405162461bcd60e51b815260206004820152600d60248201526c76616c756520746f6f206c6f7760981b6044820152606401610246565b600360009054906101000a90046001600160a01b03166001600160a01b031663d0e30db0826040518263ffffffff1660e01b81526004016000604051808303818588803b158015610fb757600080fd5b505af1158015610fcb573d6000803e3d6000fd5b5050600354610feb93506001600160a01b031691503390508584866133d2565b505050565b600860205260009081526040902080546110099061712a565b80601f01602080910402602001604051908101604052809291908181526020018280546110359061712a565b80156110825780601f1061105757610100808354040283529160200191611082565b820191906000526020600020905b81548152906001019060200180831161106557829003601f168201915b505050505081565b600154610100900460ff166110a55760015460ff16156110a9565b303b155b61110c5760405162461bcd60e51b815260206004820152602e60248201527f496e697469616c697a61626c653a20636f6e747261637420697320616c72656160448201526d191e481a5b9a5d1a585b1a5e995960921b6064820152608401610246565b600154610100900460ff1615801561112e576001805461ffff19166101011790555b826001600160a01b0381166111555760405162461bcd60e51b815260040161024690616d3a565b826001600160a01b03811661117c5760405162461bcd60e51b815260040161024690616d3a565b600380546001600160a01b038088166001600160a01b03199283161790925560058054928716929091169190911790556111b5336136a1565b50508015610feb576001805461ff0019169055505050565b306001600160a01b037f00000000000000000000000000000000000000000000000000000000000000001614156112165760405162461bcd60e51b815260040161024690616c26565b7f00000000000000000000000000000000000000000000000000000000000000006001600160a01b03166112486131e5565b6001600160a01b03161461126e5760405162461bcd60e51b815260040161024690616cee565b6112778261320d565b6112838282600161328e565b5050565b60015462010000900460ff16156112b05760405162461bcd60e51b815260040161024690616d63565b7f000000000000000000000000000000000000000000000000000000000000000083141561131c5760405162461bcd60e51b815260206004820152601960248201527821b0b73737ba1039bbb0b8103a379039b2b6331031b430b4b760391b6044820152606401610246565b34806113625760405162461bcd60e51b815260206004820152601560248201527453656e64696e672076616c7565206973207a65726f60581b6044820152606401610246565b600360009054906101000a90046001600160a01b03166001600160a01b031663d0e30db0826040518263ffffffff1660e01b81526004016000604051808303818588803b1580156113b257600080fd5b505af11580156113c6573d6000803e3d6000fd5b50506003546113e893506001600160a01b031691508790503384888888612d64565b5050505050565b60006113f9612ff6565b905090565b611406612ff6565b6001600160a01b0316336001600160a01b0316146114365760405162461bcd60e51b815260040161024690616e25565b806001600160a01b03811661145d5760405162461bcd60e51b815260040161024690616d3a565b50600480546001600160a01b0319166001600160a01b0392909216919091179055565b611488612ff6565b6001600160a01b0316336001600160a01b0316146114b85760405162461bcd60e51b815260040161024690616e25565b6114c06136f5565b565b6114ca612ff6565b6001600160a01b0316336001600160a01b0316146114fa5760405162461bcd60e51b815260040161024690616e25565b806001600160a01b0381166115215760405162461bcd60e51b815260040161024690616d3a565b611283826136a1565b60015462010000900460ff16156115535760405162461bcd60e51b815260040161024690616d63565b7f00000000000000000000000000000000000000000000000000000000000000008114156115b65760405162461bcd60e51b815260206004820152601060248201526f37b7363c9037ba3432b91031b430b4b760811b6044820152606401610246565b6040516370a0823160e01b815233600482015282906001600160a01b038616906370a082319060240160206040518083038186803b1580156115f757600080fd5b505afa15801561160b573d6000803e3d6000fd5b505050506040513d601f19601f8201168201806040525081019061162f919061660c565b101561164d5760405162461bcd60e51b815260040161024690616c72565b61165984333085612c3c565b61166684338585856133d2565b50505050565b60006113f96131e5565b61167e612ff6565b6001600160a01b0316336001600160a01b0316146116ae5760405162461bcd60e51b815260040161024690616e25565b816001600160a01b0381166116d55760405162461bcd60e51b815260040161024690616d3a565b600384106117175760405162461bcd60e51b815260206004820152600f60248201526e125b9d985b1a59081c985d19481a59608a1b6044820152606401610246565b6040805180820182526001600160a01b038581168252602080830186815260008981526006909252938120925183546001600160a01b031916921691909117825591516001909101557f8819ef417987f8ae7a81f42cdfb18815282fe989326fbff903d13cf0e03ace2a547f3e5fec24aa4dc4e5aee2e025e51e1392c72a2500577559fae9665c6d52bd6a32549180527f54cdd369e4e8a8515e52ca72ec816c2101831ad1f18bf44102ed171459c9b4f954620f4240926117e292916117dc91613790565b90613790565b11156116665760405162461bcd60e51b8152602060048201526012602482015271696e76616c696420726174652076616c756560701b6044820152606401610246565b600260005414156118485760405162461bcd60e51b815260040161024690616e55565b600260005560015462010000900460ff16156118765760405162461bcd60e51b815260040161024690616d63565b600554604051637c55b7bd60e11b8152600091829182916001600160a01b03169063f8ab6f7a906118ad9088908890600401616e8c565b60006040518083038186803b1580156118c557600080fd5b505afa1580156118d9573d6000803e3d6000fd5b505050506040513d6000823e601f3d908101601f191682016040526119019190810190616569565b9250925092508282906119275760405162461bcd60e51b81526004016102469190616bb4565b50600260008681526009602052604090205460ff16600281111561194d5761194d6171ba565b14156119ab5760008061195f836137a3565b9150915061198582600860008a8152602001908152602001600020805461085e9061712a565b6119a15760405162461bcd60e51b815260040161024690616cc0565b6109078782613a20565b600160008681526009602052604090205460ff1660028111156119d0576119d06171ba565b1415610a325760006119e18261291d565b905060005b8151811015610907576000828281518110611a0357611a036171d0565b6020026020010151905060008160200151600081518110611a2657611a266171d0565b6020026020010151806020019051810190611a41919061660c565b90506040518060800160405280604781526020016172126047913980519060200120811415611aae57600080611a76846140e7565b91509150611a9c82600860008e8152602001908152602001600020805461085e9061712a565b15611aab57611aab8b82613a20565b50505b50508080611abb9061715f565b9150506119e6565b6000828152600660209081526040808320815180830190925280546001600160a01b03168252600101549181018290528291611b0f90620f424090611b099087906141a8565b906141b4565b905190925090505b9250929050565b60026000541415611b415760405162461bcd60e51b815260040161024690616e55565b600260005560015462010000900460ff1615611b6f5760405162461bcd60e51b815260040161024690616d63565b600554604051637c55b7bd60e11b8152600091829182916001600160a01b03169063f8ab6f7a90611ba69088908890600401616e8c565b60006040518083038186803b158015611bbe57600080fd5b505afa158015611bd2573d6000803e3d6000fd5b505050506040513d6000823e601f3d908101601f19168201604052611bfa9190810190616569565b925092509250828290611c205760405162461bcd60e51b81526004016102469190616bb4565b50600260008681526009602052604090205460ff166002811115611c4657611c466171ba565b1415611cab57600080611c58836141c0565b91509150611c7e82600860008a8152602001908152602001600020805461085e9061712a565b611c9a5760405162461bcd60e51b815260040161024690616cc0565b611ca4878261435e565b5050611dfe565b600160008681526009602052604090205460ff166002811115611cd057611cd06171ba565b1415611dfe576000611ce18261291d565b905060005b8151811015611ca4576000828281518110611d0357611d036171d0565b6020026020010151905060008160200151600081518110611d2657611d266171d0565b6020026020010151806020019051810190611d41919061660c565b90506040518060800160405280604381526020016172c46043913980519060200120811415611de957600080611d7684614a77565b91509150611d9c82600860008e8152602001908152602001600020805461085e9061712a565b611db85760405162461bcd60e51b815260040161024690616cc0565b60008b81526008602052604090208054611dd791849161085e9061712a565b15611de657611de68b8261435e565b50505b50508080611df69061715f565b915050611ce6565b60405133907f00000000000000000000000000000000000000000000000000000000000000009087907f8131e5b107f7021b0773c1108755872d7b94bb31532fdf2256e0a3ef2c890a3d90600090a450506001600055505050565b611e61612ff6565b6001600160a01b0316336001600160a01b031614611e915760405162461bcd60e51b815260040161024690616e25565b6114c0614b3b565b611ea1612ff6565b6001600160a01b0316336001600160a01b031614611ed15760405162461bcd60e51b815260040161024690616e25565b60008381526008602090815260409091208351611ef092850190615f9b565b506000838152600960205260409020805482919060ff19166001836002811115611f1c57611f1c6171ba565b0217905550505050565b611f2e612ff6565b6001600160a01b0316336001600160a01b031614611f5e5760405162461bcd60e51b815260040161024690616e25565b610feb838383614b9d565b6001600160a01b038216611f8f5760405162461bcd60e51b815260040161024690616dee565b6000826001600160a01b03166310fe9ae86040518163ffffffff1660e01b815260040160206040518083038186803b158015611fca57600080fd5b505afa158015611fde573d6000803e3d6000fd5b505050506040513d601f19601f8201168201806040525081019061200291906161e8565b60048054604051639dc6108f60e01b81526001600160a01b0380851693820193909352929350600092911690639dc6108f9060240160206040518083038186803b15801561204f57600080fd5b505afa158015612063573d6000803e3d6000fd5b505050506040513d601f19601f8201168201806040525081019061208791906161e8565b9050806001600160a01b0316846001600160a01b0316146120e05760405162461bcd60e51b815260206004820152601360248201527224b73b30b634b2103b30bab63a103a37b5b2b760691b6044820152606401610246565b60405163c2507ac160e01b8152600481018490526000906001600160a01b0383169063c2507ac19060240160206040518083038186803b15801561212357600080fd5b505afa158015612137573d6000803e3d6000fd5b505050506040513d601f19601f8201168201806040525081019061215b919061660c565b604051630ad58d2f60e01b81527f00000000000000000000000000000000000000000000000000000000000000006004820152602481018690523360448201529091506001600160a01b03831690630ad58d2f90606401600060405180830381600087803b1580156121cc57600080fd5b505af11580156121e0573d6000803e3d6000fd5b505050506113e8833383614b9d565b600260005414156122125760405162461bcd60e51b815260040161024690616e55565b600260005560015462010000900460ff16156122405760405162461bcd60e51b815260040161024690616d63565b6040516370a0823160e01b815233600482015281906001600160a01b038516906370a082319060240160206040518083038186803b15801561228157600080fd5b505afa158015612295573d6000803e3d6000fd5b505050506040513d601f19601f820116820180604052508101906122b9919061660c565b10156122d75760405162461bcd60e51b815260040161024690616c72565b6122e383333084612c3c565b6122f083610da133613029565b5050600160005550565b606061233f6040518060e00160405280606081526020016060815260200160008019168152602001600081526020016000815260200160608152602001600081525090565b600061235261234d85614bde565b614c0b565b90506123778160008151811061236a5761236a6171d0565b6020026020010151614d20565b9250600061239e82600181518110612391576123916171d0565b6020026020010151614c0b565b516001600160401b038111156123b6576123b66171e6565b6040519080825280602002602001820160405280156123e957816020015b60608152602001906001900390816123d45790505b50905060005b61240583600181518110612391576123916171d0565b518110156124675761243761242684600181518110612391576123916171d0565b828151811061236a5761236a6171d0565b828281518110612449576124496171d0565b6020026020010181905250808061245f9061715f565b9150506123ef565b50606060005b825181101561250357600061249a84838151811061248d5761248d6171d0565b6020026020010151614d9d565b805160208201209091507f3ad224e3e42a516df08d1fca74990eac30205afb5287a46132a6975ce0b2cede14156124f0576124ed8483815181106124e0576124e06171d0565b6020026020010151614e78565b92505b50806124fb8161715f565b91505061246d565b50600061251261234d83614bde565b90506040518060e001604052806125358360038151811061236a5761236a6171d0565b81526020016125508360048151811061236a5761236a6171d0565b815260200161256b8360028151811061236a5761236a6171d0565b612574906170da565b815260200161259c8360008151811061258f5761258f6171d0565b6020026020010151615360565b81526020016125b78360018151811061258f5761258f6171d0565b81526020016125d28360058151811061236a5761236a6171d0565b81526020016125ed8360068151811061258f5761258f6171d0565b815250945050505050915091565b6000818051906020012083805190602001201490505b92915050565b60408082015160008181526007602052919091205460ff161561264c5760405162461bcd60e51b815260040161024690616c9b565b6000818152600760205260409020805460ff19166001179055606082015183146126885760405162461bcd60e51b815260040161024690616d8d565b81608001517f0000000000000000000000000000000000000000000000000000000000000000146126cb5760405162461bcd60e51b815260040161024690616d8d565b600480546060840151845160405163fb9e6c1360e01b81526000946001600160a01b039094169363fb9e6c1393612706939092909101616e8c565b60206040518083038186803b15801561271e57600080fd5b505afa158015612732573d6000803e3d6000fd5b505050506040513d601f19601f8201168201806040525081019061275691906161e8565b90506001600160a01b03811661277e5760405162461bcd60e51b815260040161024690616bef565b60048054606085015160c0860151604051633bab639f60e21b81526000946001600160a01b039094169363eead8e7c936127be93889391929091016169f0565b60206040518083038186803b1580156127d657600080fd5b505afa1580156127ea573d6000803e3d6000fd5b505050506040513d601f19601f8201168201806040525081019061280e919061660c565b6004805460405163ceec8cb960e01b81526001600160a01b0386811693820193909352929350169063ceec8cb99060240160206040518083038186803b15801561285757600080fd5b505afa15801561286b573d6000803e3d6000fd5b505050506040513d601f19601f8201168201806040525081019061288f919061654e565b156128f5576040516340c10f1960e01b8152306004820152602481018290526001600160a01b038316906340c10f1990604401600060405180830381600087803b1580156128dc57600080fd5b505af11580156128f0573d6000803e3d6000fd5b505050505b6113e882856020015161290d8760a001516014015190565b848860400151896060015161305f565b6060600061292d61234d84614bde565b905080516001600160401b03811115612948576129486171e6565b6040519080825280602002602001820160405280156129a657816020015b612993604051806060016040528060006001600160a01b0316815260200160608152602001606081525090565b8152602001906001900390816129665790505b50915060005b8151811015612b195760006129cc838381518110612391576123916171d0565b905060006129e682600181518110612391576123916171d0565b9050600081516001600160401b03811115612a0357612a036171e6565b604051908082528060200260200182016040528015612a3657816020015b6060815260200190600190039081612a215790505b50905060005b8251811015612a8a57612a5a83828151811061236a5761236a6171d0565b828281518110612a6c57612a6c6171d0565b60200260200101819052508080612a829061715f565b915050612a3c565b506040518060600160405280612ab985600081518110612aac57612aac6171d0565b60200260200101516153ae565b6001600160a01b03168152602001828152602001612ae38560028151811061236a5761236a6171d0565b815250868581518110612af857612af86171d0565b60200260200101819052505050508080612b119061715f565b9150506129ac565b5050919050565b6060612b656040518060e00160405280606081526020016060815260200160008019168152602001600081526020016000815260200160608152602001600081525090565b8251612b7090613029565b91508260200151600181518110612b8957612b896171d0565b6020026020010151806020019051810190612ba4919061660c565b6060820152602083015180516002908110612bc157612bc16171d0565b6020026020010151806020019051810190612bdc919061660c565b8160800181815250506000808460400151806020019051810190612c009190616625565b60c08801526020870191909152604086019290925292509050612c2282613029565b8352612c2d81613029565b8360a001819052505050915091565b604080516001600160a01b0385811660248301528481166044830152606480830185905283518084039091018152608490920183526020820180516001600160e01b03166323b872dd60e01b1790529151600092839290881691612ca091906169a0565b6000604051808303816000865af19150503d8060008114612cdd576040519150601f19603f3d011682016040523d82523d6000602084013e612ce2565b606091505b5091509150818015612d0c575080511580612d0c575080806020019051810190612d0c919061654e565b610c045760405162461bcd60e51b8152602060048201526024808201527f5472616e7366657248656c7065723a205452414e534645525f46524f4d5f46416044820152631253115160e21b6064820152608401610246565b6004805460405163204f487760e01b81526001600160a01b038a811693820193909352602481018690526000929091169063204f48779060440160006040518083038186803b158015612db657600080fd5b505afa158015612dca573d6000803e3d6000fd5b505050506040513d6000823e601f3d908101601f19168201604052612df2919081019061675b565b9050612e0d81604051806020016040528060008152506125fb565b15612e5a5760405162461bcd60e51b815260206004820152601860248201527f4f757420746f6b656e206e6f74207265676973746572656400000000000000006044820152606401610246565b600080612e898a887f0000000000000000000000000000000000000000000000000000000000000000896153c8565b6004805460405163ceec8cb960e01b81526001600160a01b038f811693820193909352939550919350169063ceec8cb99060240160206040518083038186803b158015612ed557600080fd5b505afa158015612ee9573d6000803e3d6000fd5b505050506040513d601f19601f82011682018060405250810190612f0d919061654e565b15612f6d57604051630852cd8d60e31b8152600481018390526001600160a01b038b16906342966c6890602401600060405180830381600087803b158015612f5457600080fd5b505af1158015612f68573d6000803e3d6000fd5b505050505b6000612f7a898b896156f1565b9050867f00000000000000000000000000000000000000000000000000000000000000007fca1cf8cebf88499429cca8f87cbca15ab8dafd06702259a5344ddce89ef3f3a58387612fca8e613029565b8f888d8d604051612fe19796959493929190616ad0565b60405180910390a35050505050505050505050565b60007fb53127684a568b3173ae13b9f8a6016e243e63b6e8ee1178d6a717850b5d61035b546001600160a01b0316919050565b604051606082811b6bffffffffffffffffffffffff19166020830152906034016040516020818303038152906040529050919050565b60048054604051639dc6108f60e01b81526001600160a01b038981169382019390935260009290911690639dc6108f9060240160206040518083038186803b1580156130aa57600080fd5b505afa1580156130be573d6000803e3d6000fd5b505050506040513d601f19601f820116820180604052508101906130e291906161e8565b90506001600160a01b03811661310a5760405162461bcd60e51b815260040161024690616dee565b604051638dbdbe6d60e01b815260048101839052602481018590526001600160a01b038681166044830152821690638dbdbe6d90606401600060405180830381600087803b15801561315b57600080fd5b505af115801561316f573d6000803e3d6000fd5b50505050866001600160a01b03167f0000000000000000000000000000000000000000000000000000000000000000837f5bf7c8229e485fc1aa764dc0e95bb88be5d3589f08d0fb5fca73bd195aecde0e868a8a8a6040516131d49493929190616a9b565b60405180910390a450505050505050565b60007f360894a13ba1a3210667c828492db98dca3e2076cc3735a920a3ca505d382bbc61301a565b613215612ff6565b6001600160a01b0316336001600160a01b031614610e9a5760405162461bcd60e51b815260206004820152603060248201527f4d41504f6d6e69636861696e5365727669636552656c61793a206f6e6c79204160448201526f646d696e2063616e207570677261646560801b6064820152608401610246565b60006132986131e5565b90506132a384615761565b6000835111806132b05750815b156132c1576132bf8484615809565b505b7f4910fdfa16fed3260ed0e7147f7cc6da11a60208b5b9406d12a635614ffd9143805460ff166113e857805460ff191660011781556040516001600160a01b038316602482015261334090869060440160408051601f198184030181529190526020810180516001600160e01b0316631b2ce7f360e11b179052615809565b50805460ff191681556133516131e5565b6001600160a01b0316826001600160a01b0316146133c95760405162461bcd60e51b815260206004820152602f60248201527f45524331393637557067726164653a207570677261646520627265616b73206660448201526e75727468657220757067726164657360881b6064820152608401610246565b6113e88561582e565b6004805460405163204f487760e01b81526001600160a01b0388811693820193909352602481018490526000929091169063204f48779060440160006040518083038186803b15801561342457600080fd5b505afa158015613438573d6000803e3d6000fd5b505050506040513d6000823e601f3d908101601f19168201604052613460919081019061675b565b905061347b81604051806020016040528060008152506125fb565b156134985760405162461bcd60e51b815260040161024690616db7565b60006134a58686856156f1565b9050827f00000000000000000000000000000000000000000000000000000000000000007fe23247b10e5cf2e2a6a13352598fae25c889731f3b5eff5fb52184e121b41d54838a6134f58b613029565b8a8a604051613508959493929190616a4c565b60405180910390a360008061353f89877f0000000000000000000000000000000000000000000000000000000000000000886153c8565b6004805460405163ceec8cb960e01b81526001600160a01b038e811693820193909352939550919350169063ceec8cb99060240160206040518083038186803b15801561358b57600080fd5b505afa15801561359f573d6000803e3d6000fd5b505050506040513d601f19601f820116820180604052508101906135c3919061654e565b1561362357604051630852cd8d60e31b8152600481018390526001600160a01b038a16906342966c6890602401600060405180830381600087803b15801561360a57600080fd5b505af115801561361e573d6000803e3d6000fd5b505050505b847f00000000000000000000000000000000000000000000000000000000000000007f44ff77018688dad4b245e8ab97358ed57ed92269952ece7ffd321366ce078622856136708d613029565b6136798d613029565b8c878b60405161368e96959493929190616b4e565b60405180910390a3505050505050505050565b7f7e644d79422f17c01e4894b5f4f588d331ebfa28653d42ae832dc59e38c9798f6136ca612ff6565b604080516001600160a01b03928316815291841660208301520160405180910390a1610e9a8161586e565b60015462010000900460ff166137445760405162461bcd60e51b815260206004820152601460248201527314185d5cd8589b194e881b9bdd081c185d5cd95960621b6044820152606401610246565b6001805462ff0000191690557f5db9ee0a495bf2e6ff9c91a7834c1ba4fdd244a5e8aa4e537bd38aeae4b073aa335b6040516001600160a01b03909116815260200160405180910390a1565b600061379c8284616f24565b9392505050565b60606137ad61601f565b60006137bb61234d85614bde565b90506137d38160008151811061236a5761236a6171d0565b925060006137ed82600181518110612391576123916171d0565b516001600160401b03811115613805576138056171e6565b60405190808252806020026020018201604052801561383857816020015b60608152602001906001900390816138235790505b50905060005b61385483600181518110612391576123916171d0565b518110156138a55761387561242684600181518110612391576123916171d0565b828281518110613887576138876171d0565b6020026020010181905250808061389d9061715f565b91505061383e565b50606060005b82518110156139275760006138cb84838151811061248d5761248d6171d0565b805160208201209091507f4e87426fdd31a6df84975ed344b2c3fbd45109085f1557dff1156b300f135df81415613914576139118483815181106124e0576124e06171d0565b92505b508061391f8161715f565b9150506138ab565b50600061393661234d83614bde565b905060405180610100016040528061395a8360038151811061236a5761236a6171d0565b81526020016139758360048151811061236a5761236a6171d0565b81526020016139908360028151811061236a5761236a6171d0565b613999906170da565b81526020016139b48360008151811061258f5761258f6171d0565b81526020016139cf8360018151811061258f5761258f6171d0565b81526020016139ea8360058151811061236a5761236a6171d0565b8152602001613a058360068151811061258f5761258f6171d0565b81526020016125ed8360078151811061236a5761236a6171d0565b60408082015160008181526007602052919091205460ff1615613a555760405162461bcd60e51b815260040161024690616c9b565b6000818152600760205260409020805460ff1916600117905560608201518314613a915760405162461bcd60e51b815260040161024690616d8d565b600480546060840151845160405163fb9e6c1360e01b81526000946001600160a01b039094169363fb9e6c1393613acc939092909101616e8c565b60206040518083038186803b158015613ae457600080fd5b505afa158015613af8573d6000803e3d6000fd5b505050506040513d601f19601f82011682018060405250810190613b1c91906161e8565b90506001600160a01b038116613b445760405162461bcd60e51b815260040161024690616bef565b60607f000000000000000000000000000000000000000000000000000000000000000084608001511415613b8257613b7b82613029565b9050613c4a565b60048054608086015160405163204f487760e01b81526001600160a01b0386811694820194909452602481019190915291169063204f48779060440160006040518083038186803b158015613bd657600080fd5b505afa158015613bea573d6000803e3d6000fd5b505050506040513d6000823e601f3d908101601f19168201604052613c12919081019061675b565b9050613c2d81604051806020016040528060008152506125fb565b15613c4a5760405162461bcd60e51b815260040161024690616db7565b60048054606086015160c0870151604051633bab639f60e21b81526000946001600160a01b039094169363eead8e7c93613c8a93899391929091016169f0565b60206040518083038186803b158015613ca257600080fd5b505afa158015613cb6573d6000803e3d6000fd5b505050506040513d601f19601f82011682018060405250810190613cda919061660c565b6004805460405163ceec8cb960e01b81526001600160a01b0387811693820193909352929350169063ceec8cb99060240160206040518083038186803b158015613d2357600080fd5b505afa158015613d37573d6000803e3d6000fd5b505050506040513d601f19601f82011682018060405250810190613d5b919061654e565b15613dc1576040516340c10f1960e01b8152306004820152602481018290526001600160a01b038416906340c10f1990604401600060405180830381600087803b158015613da857600080fd5b505af1158015613dbc573d6000803e3d6000fd5b505050505b846080015185606001517fe23247b10e5cf2e2a6a13352598fae25c889731f3b5eff5fb52184e121b41d5487604001518689602001518a60a0015187604051613e0e959493929190616a4c565b60405180910390a3600080613e2d858489606001518a608001516153c8565b915091507f000000000000000000000000000000000000000000000000000000000000000087608001511415613fa5576000613e6e8860a001516014015190565b6003549091506001600160a01b0387811691161415613eac57600354613e9d906001600160a01b0316846158fa565b613ea78184615a10565b613f4e565b6040516370a0823160e01b815230600482015283906001600160a01b038816906370a082319060240160206040518083038186803b158015613eed57600080fd5b505afa158015613f01573d6000803e3d6000fd5b505050506040513d601f19601f82011682018060405250810190613f25919061660c565b1015613f435760405162461bcd60e51b815260040161024690616c72565b613f4e868285615ad9565b876080015188606001517f3790accbe9ce42658f962f7e7cfa0e6ae7acbb46014c6e01e1219a08781613758a60400151898c602001518689604051613f97959493929190616a11565b60405180910390a3506140dd565b6004805460405163ceec8cb960e01b81526001600160a01b038881169382019390935291169063ceec8cb99060240160206040518083038186803b158015613fec57600080fd5b505afa158015614000573d6000803e3d6000fd5b505050506040513d601f19601f82011682018060405250810190614024919061654e565b1561408457604051630852cd8d60e31b8152600481018390526001600160a01b038616906342966c6890602401600060405180830381600087803b15801561406b57600080fd5b505af115801561407f573d6000803e3d6000fd5b505050505b608087015160608801516040808a01518a5160208c015160a08d015193517f44ff77018688dad4b245e8ab97358ed57ed92269952ece7ffd321366ce078622946140d49493929189908d90616b4e565b60405180910390a35b5050505050505050565b60606140f161601f565b82516140fc90613029565b91508260200151600181518110614115576141156171d0565b6020026020010151806020019051810190614130919061660c565b606082015260208301518051600290811061414d5761414d6171d0565b6020026020010151806020019051810190614168919061660c565b6080820152604083015180516141869160209181018201910161669d565b60e087015260c086015260a08501526020840152825260408201529092909150565b600061379c8284617060565b600061379c8284616f61565b60606141ca616067565b60006141d861234d85614bde565b90506141f08160008151811061236a5761236a6171d0565b9250600061420a82600181518110612391576123916171d0565b516001600160401b03811115614222576142226171e6565b60405190808252806020026020018201604052801561425557816020015b60608152602001906001900390816142405790505b50905060005b61427183600181518110612391576123916171d0565b518110156142c25761429261242684600181518110612391576123916171d0565b8282815181106142a4576142a46171d0565b602002602001018190525080806142ba9061715f565b91505061425b565b50606060005b82518110156143445760006142e884838151811061248d5761248d6171d0565b805160208201209091507f4e87426fdd31a6df84975ed344b2c3fbd45109085f1557dff1156b300f135df814156143315761432e8483815181106124e0576124e06171d0565b92505b508061433c8161715f565b9150506142c8565b50600061435361234d83614bde565b905050505050915091565b60408082015160008181526007602052919091205460ff16156143935760405162461bcd60e51b815260040161024690616c9b565b6000818152600760205260409020805460ff19166001179055815183146143cc5760405162461bcd60e51b815260040161024690616d8d565b600480548351606085015160405163fb9e6c1360e01b81526000946001600160a01b039094169363fb9e6c1393614407939092909101616e8c565b60206040518083038186803b15801561441f57600080fd5b505afa158015614433573d6000803e3d6000fd5b505050506040513d601f19601f8201168201806040525081019061445791906161e8565b90506001600160a01b03811661447f5760405162461bcd60e51b815260040161024690616bef565b604080516060808201835280825260208201526000918101919091528360e001518060200190518101906144b391906163e8565b6001600160a01b03908116604085018190526020850192909252918352908316146145325760405162461bcd60e51b815260206004820152602960248201527f53776170206f6e204d61702052656c617920436861696e206e6f7420737570706044820152681bdc9d1959081e595d60ba1b6064820152608401610246565b60607f0000000000000000000000000000000000000000000000000000000000000000856020015114156145705761456983613029565b9050614638565b60048054602087015160405163204f487760e01b81526001600160a01b0387811694820194909452602481019190915291169063204f48779060440160006040518083038186803b1580156145c457600080fd5b505afa1580156145d8573d6000803e3d6000fd5b505050506040513d6000823e601f3d908101601f19168201604052614600919081019061675b565b905061461b81604051806020016040528060008152506125fb565b156146385760405162461bcd60e51b815260040161024690616db7565b60048054865160c0880151604051633bab639f60e21b81526000946001600160a01b039094169363eead8e7c93614675938a9391929091016169f0565b60206040518083038186803b15801561468d57600080fd5b505afa1580156146a1573d6000803e3d6000fd5b505050506040513d601f19601f820116820180604052508101906146c5919061660c565b6004805460405163ceec8cb960e01b81526001600160a01b0388811693820193909352929350169063ceec8cb99060240160206040518083038186803b15801561470e57600080fd5b505afa158015614722573d6000803e3d6000fd5b505050506040513d601f19601f82011682018060405250810190614746919061654e565b156147ac576040516340c10f1960e01b8152306004820152602481018290526001600160a01b038516906340c10f1990604401600060405180830381600087803b15801561479357600080fd5b505af11580156147a7573d6000803e3d6000fd5b505050505b6000806147c386848a600001518b602001516153c8565b915091507f00000000000000000000000000000000000000000000000000000000000000008860200151141561493a5760006148048960a001516014015190565b6003549091506001600160a01b038881169116141561484257600354614833906001600160a01b0316846158fa565b61483d8184615a10565b6148e4565b6040516370a0823160e01b815230600482015283906001600160a01b038916906370a082319060240160206040518083038186803b15801561488357600080fd5b505afa158015614897573d6000803e3d6000fd5b505050506040513d601f19601f820116820180604052508101906148bb919061660c565b10156148d95760405162461bcd60e51b815260040161024690616c72565b6148e4878285615ad9565b886040015189602001518a600001517f2a945137b011d4aadec6425788c652197d107fc33f6cdccbb0c269273be9c1c98a8d60800151868960405161492c94939291906169bc565b60405180910390a450614a6c565b6004805460405163ceec8cb960e01b81526001600160a01b038981169382019390935291169063ceec8cb99060240160206040518083038186803b15801561498157600080fd5b505afa158015614995573d6000803e3d6000fd5b505050506040513d601f19601f820116820180604052508101906149b9919061654e565b15614a1957604051630852cd8d60e31b8152600481018390526001600160a01b038716906342966c6890602401600060405180830381600087803b158015614a0057600080fd5b505af1158015614a14573d6000803e3d6000fd5b505050505b876020015188600001517fca1cf8cebf88499429cca8f87cbca15ab8dafd06702259a5344ddce89ef3f3a58a60400151878c608001518d60a00151878f60e0015160405161368e96959493929190616b4e565b505050505050505050565b6060614a81616067565b8251614a8c90613029565b91508260200151600181518110614aa557614aa56171d0565b6020026020010151806020019051810190614ac0919061660c565b8152602083015180516002908110614ada57614ada6171d0565b6020026020010151806020019051810190614af5919061660c565b8160200181815250508260400151806020019051810190614b16919061669d565b60e087015260c086015260a08501526080840152606083015260408201529092909150565b60015462010000900460ff1615614b645760405162461bcd60e51b815260040161024690616d63565b6001805462ff00001916620100001790557f62e78cea01bee320cd4e420270b5ea74000d11b0c9f74754ebdbfc544b05a2586137733390565b6003546001600160a01b0384811691161415614bd357600354614bc9906001600160a01b0316826158fa565b610feb8282615a10565b610feb838383615ad9565b60408051808201825260008082526020918201528151808301909252825182529182019181019190915290565b6060614c1682615bed565b614c1f57600080fd5b6000614c2a83615c26565b90506000816001600160401b03811115614c4657614c466171e6565b604051908082528060200260200182016040528015614c8b57816020015b6040805180820190915260008082526020820152815260200190600190039081614c645790505b5090506000614c9d8560200151615ca9565b8560200151614cac9190616f24565b90506000805b84811015614d1557614cc383615d24565b9150604051806040016040528083815260200184815250848281518110614cec57614cec6171d0565b6020908102919091010152614d018284616f24565b925080614d0d8161715f565b915050614cb2565b509195945050505050565b8051606090614d2e57600080fd5b600080614d3a84615dc8565b915091506000816001600160401b03811115614d5857614d586171e6565b6040519080825280601f01601f191660200182016040528015614d82576020820181803683370190505b50905060208101614d94848285615e0f565b50949350505050565b6060604082511015614df15760405162461bcd60e51b815260206004820152601960248201527f496e76616c696420657874726120726573756c742074797065000000000000006044820152606401610246565b604080518181526060810182529060208201818036833701905050905060005b6040811015614e7257828181518110614e2c57614e2c6171d0565b602001015160f81c60f81b828281518110614e4957614e496171d0565b60200101906001600160f81b031916908160001a90535080614e6a8161715f565b915050614e11565b50919050565b606060028251614e88919061717a565b151580614e96575060048251105b15614ee35760405162461bcd60e51b815260206004820152601c60248201527f686578537472546f42797465733a20696e76616c696420696e707574000000006044820152606401610246565b6000602060028451614ef59190616f61565b614eff91906170a0565b6001600160401b03811115614f1657614f166171e6565b6040519080825280601f01601f191660200182016040528015614f40576020820181803683370190505b50905060405b83518110156153595783516010908190603090879085908110614f6b57614f6b6171d0565b016020015160f81c10801590614f9b57506039868481518110614f9057614f906171d0565b016020015160f81c11155b15614fc9576030868481518110614fb457614fb46171d0565b0160200151614fc6919060f81c6170b7565b91505b603086614fd7856001616f24565b81518110614fe757614fe76171d0565b016020015160f81c108015906150215750603986615006856001616f24565b81518110615016576150166171d0565b016020015160f81c11155b1561505957603086615034856001616f24565b81518110615044576150446171d0565b0160200151615056919060f81c6170b7565b90505b604186848151811061506d5761506d6171d0565b016020015160f81c1080159061509d57506046868481518110615092576150926171d0565b016020015160f81c11155b156150d65760418684815181106150b6576150b66171d0565b01602001516150c8919060f81c6170b7565b6150d390600a616f3c565b91505b6041866150e4856001616f24565b815181106150f4576150f46171d0565b016020015160f81c1080159061512e5750604686615113856001616f24565b81518110615123576151236171d0565b016020015160f81c11155b1561517157604186615141856001616f24565b81518110615151576151516171d0565b0160200151615163919060f81c6170b7565b61516e90600a616f3c565b90505b6061868481518110615185576151856171d0565b016020015160f81c108015906151b5575060668684815181106151aa576151aa6171d0565b016020015160f81c11155b156151ee5760618684815181106151ce576151ce6171d0565b01602001516151e0919060f81c6170b7565b6151eb90600a616f3c565b91505b6061866151fc856001616f24565b8151811061520c5761520c6171d0565b016020015160f81c10801590615246575060668661522b856001616f24565b8151811061523b5761523b6171d0565b016020015160f81c11155b1561528957606186615259856001616f24565b81518110615269576152696171d0565b016020015161527b919060f81c6170b7565b61528690600a616f3c565b90505b8160ff166010148061529e57508060ff166010145b156152eb5760405162461bcd60e51b815260206004820152601c60248201527f686578537472546f42797465733a20696e76616c696420696e707574000000006044820152606401610246565b806152f783601061707f565b6153019190616f3c565b60f81b846020615312600287616f61565b61531c91906170a0565b8151811061532c5761532c6171d0565b60200101906001600160f81b031916908160001a90535050506002816153529190616f24565b9050614f46565b5092915050565b80516000901580159061537557508151602110155b61537e57600080fd5b60008061538a84615dc8565b8151919350915060208210156153a65760208290036101000a90045b949350505050565b80516000906015146153bf57600080fd5b61261182615360565b60048054604051639dc6108f60e01b81526001600160a01b038088169382019390935260009283928892849290911690639dc6108f9060240160206040518083038186803b15801561541957600080fd5b505afa15801561542d573d6000803e3d6000fd5b505050506040513d601f19601f8201168201806040525081019061545191906161e8565b90506001600160a01b0381166154795760405162461bcd60e51b815260040161024690616dee565b60048054604051631917961760e01b81526000926001600160a01b03909216916319179617916154af9187918d918c91016169f0565b60206040518083038186803b1580156154c757600080fd5b505afa1580156154db573d6000803e3d6000fd5b505050506040513d601f19601f820116820180604052508101906154ff919061660c565b9050600080828a11156155a157615516838b6170a0565b600480546040516331b1ee7f60e21b81529294506001600160a01b03169163c6c7b9fc9161554a91899187918e91016169f0565b60206040518083038186803b15801561556257600080fd5b505afa158015615576573d6000803e3d6000fd5b505050506040513d601f19601f8201168201806040525081019061559a919061660c565b90506155a5565b8992505b600083156156435760006155ba600086611ac3565b5090506155c781866170a0565b91506000806155d7600188611ac3565b915091506000821180156155f357506001600160a01b03811615155b1561560357615603898284614b9d565b60008061561160028a611ac3565b9150915060008211801561562d57506001600160a01b03811615155b1561563d5761563d8b8284614b9d565b50505050505b6040516328ab490d60e01b8152600481018b9052602481018c9052604481018a9052606481018490527f0000000000000000000000000000000000000000000000000000000000000000608482015260a481018290526001600160a01b038616906328ab490d9060c401600060405180830381600087803b1580156156c757600080fd5b505af11580156156db573d6000803e3d6000fd5b50949e939d50929b505050505050505050505050565b60028054600091309190836157058361715f565b919050557f000000000000000000000000000000000000000000000000000000000000000084878760405160200161574296959493929190616945565b6040516020818303038152906040528051906020012090509392505050565b803b6157c55760405162461bcd60e51b815260206004820152602d60248201527f455243313936373a206e657720696d706c656d656e746174696f6e206973206e60448201526c1bdd08184818dbdb9d1c9858dd609a1b6064820152608401610246565b807f360894a13ba1a3210667c828492db98dca3e2076cc3735a920a3ca505d382bbc5b80546001600160a01b0319166001600160a01b039290921691909117905550565b606061379c838360405180606001604052806027815260200161725960279139615e8e565b61583781615761565b6040516001600160a01b038216907fbc7cd75a20ee27fd9adebab32041f755214dbc6bffa90cc0225b39da2e5c2d3b90600090a250565b6001600160a01b0381166158d35760405162461bcd60e51b815260206004820152602660248201527f455243313936373a206e65772061646d696e20697320746865207a65726f206160448201526564647265737360d01b6064820152608401610246565b807fb53127684a568b3173ae13b9f8a6016e243e63b6e8ee1178d6a717850b5d61036157e8565b600080836001600160a01b0316632e1a7d4d8460405160240161591f91815260200190565b6040516020818303038152906040529060e01b6020820180516001600160e01b03838183161783525050505060405161595891906169a0565b6000604051808303816000865af19150503d8060008114615995576040519150601f19603f3d011682016040523d82523d6000602084013e61599a565b606091505b50915091508180156159c45750805115806159c45750808060200190518101906159c4919061654e565b6116665760405162461bcd60e51b815260206004820152601f60248201527f5472616e7366657248656c7065723a2057495448445241575f4641494c4544006044820152606401610246565b604080516000808252602082019092526001600160a01b038416908390604051615a3a91906169a0565b60006040518083038185875af1925050503d8060008114615a77576040519150601f19603f3d011682016040523d82523d6000602084013e615a7c565b606091505b5050905080610feb5760405162461bcd60e51b815260206004820152602360248201527f5472616e7366657248656c7065723a204554485f5452414e534645525f46414960448201526213115160ea1b6064820152608401610246565b604080516001600160a01b038481166024830152604480830185905283518084039091018152606490920183526020820180516001600160e01b031663a9059cbb60e01b1790529151600092839290871691615b3591906169a0565b6000604051808303816000865af19150503d8060008114615b72576040519150601f19603f3d011682016040523d82523d6000602084013e615b77565b606091505b5091509150818015615ba1575080511580615ba1575080806020019051810190615ba1919061654e565b6113e85760405162461bcd60e51b815260206004820152601f60248201527f5472616e7366657248656c7065723a205452414e534645525f4641494c4544006044820152606401610246565b8051600090615bfe57506000919050565b6020820151805160001a9060c0821015615c1c575060009392505050565b5060019392505050565b8051600090615c3757506000919050565b600080615c478460200151615ca9565b8460200151615c569190616f24565b9050600084600001518560200151615c6e9190616f24565b90505b80821015615ca057615c8282615d24565b615c8c9083616f24565b915082615c988161715f565b935050615c71565b50909392505050565b8051600090811a6080811015615cc25750600092915050565b60b8811080615cdd575060c08110801590615cdd575060f881105b15615ceb5750600192915050565b60c0811015615d1857615d00600160b86170b7565b615d0d9060ff16826170a0565b61379c906001616f24565b615d00600160f86170b7565b80516000908190811a6080811015615d3f5760019150615359565b60b8811015615d6557615d536080826170a0565b615d5e906001616f24565b9150615359565b60c0811015615d925760b78103600185019450806020036101000a85510460018201810193505050615359565b60f8811015615da657615d5360c0826170a0565b60019390930151602084900360f7016101000a900490920160f5190192915050565b6000806000615dda8460200151615ca9565b90506000818560200151615dee9190616f24565b90506000828660000151615e0291906170a0565b9196919550909350505050565b80615e1957505050565b60208110615e515782518252615e30602084616f24565b9250615e3d602083616f24565b9150615e4a6020826170a0565b9050615e19565b8015610feb5760006001615e668360206170a0565b615e7290610100616fb8565b615e7c91906170a0565b84518451821691191617835250505050565b6060833b615eed5760405162461bcd60e51b815260206004820152602660248201527f416464726573733a2064656c65676174652063616c6c20746f206e6f6e2d636f6044820152651b9d1c9858dd60d21b6064820152608401610246565b600080856001600160a01b031685604051615f0891906169a0565b600060405180830381855af49150503d8060008114615f43576040519150601f19603f3d011682016040523d82523d6000602084013e615f48565b606091505b5091509150615f58828286615f62565b9695505050505050565b60608315615f7157508161379c565b825115615f815782518084602001fd5b8160405162461bcd60e51b81526004016102469190616bb4565b828054615fa79061712a565b90600052602060002090601f016020900481019282615fc9576000855561600f565b82601f10615fe257805160ff191683800117855561600f565b8280016001018555821561600f579182015b8281111561600f578251825591602001919060010190615ff4565b5061601b9291506160af565b5090565b60405180610100016040528060608152602001606081526020016000801916815260200160008152602001600081526020016060815260200160008152602001606081525090565b60405180610100016040528060008152602001600081526020016000801916815260200160608152602001606081526020016060815260200160008152602001606081525090565b5b8082111561601b57600081556001016160b0565b60006160d76160d284616efd565b616ecd565b90508281528383830111156160eb57600080fd5b61379c8360208301846170fe565b8051616104816171fc565b919050565b8051801515811461610457600080fd5b60008083601f84011261612b57600080fd5b5081356001600160401b0381111561614257600080fd5b602083019150836020828501011115611b1757600080fd5b600082601f83011261616b57600080fd5b81356161796160d282616efd565b81815284602083860101111561618e57600080fd5b816020850160208301376000918101602001919091529392505050565b600082601f8301126161bc57600080fd5b61379c838351602085016160c4565b6000602082840312156161dd57600080fd5b813561379c816171fc565b6000602082840312156161fa57600080fd5b815161379c816171fc565b6000806040838503121561621857600080fd5b8235616223816171fc565b91506020830135616233816171fc565b809150509250929050565b60008060006060848603121561625357600080fd5b833561625e816171fc565b9250602084013561626e816171fc565b929592945050506040919091013590565b6000806040838503121561629257600080fd5b823561629d816171fc565b915060208301356001600160401b038111156162b857600080fd5b6162c48582860161615a565b9150509250929050565b600080600080608085870312156162e457600080fd5b84356162ef816171fc565b935060208501356001600160401b0381111561630a57600080fd5b6163168782880161615a565b949794965050505060408301359260600135919050565b60008060008060008060a0878903121561634657600080fd5b8635616351816171fc565b955060208701356001600160401b038082111561636d57600080fd5b6163798a838b0161615a565b96506040890135955060608901359450608089013591508082111561639d57600080fd5b506163aa89828a01616119565b979a9699509497509295939492505050565b600080604083850312156163cf57600080fd5b82356163da816171fc565b946020939093013593505050565b6000806000606084860312156163fd57600080fd5b83516001600160401b038082111561641457600080fd5b818601915086601f83011261642857600080fd5b81518181111561643a5761643a6171e6565b61644960208260051b01616ecd565b80828252602082019150602085018a60208560051b880101111561646c57600080fd5b60005b8481101561650e5781518681111561648657600080fd5b87016080818e03601f1901121561649c57600080fd5b6164a4616ea5565b60208201518152604082015160208201526060820151888111156164c757600080fd5b6164d68f6020838601016161ab565b6040830152506080820151915087821682146164f157600080fd5b60608101919091528452602093840193919091019060010161646f565b50506020890151909750935050508082111561652957600080fd5b50616536868287016161ab565b925050616545604085016160f9565b90509250925092565b60006020828403121561656057600080fd5b61379c82616109565b60008060006060848603121561657e57600080fd5b61658784616109565b925060208401516001600160401b03808211156165a357600080fd5b818601915086601f8301126165b757600080fd5b6165c6878351602085016160c4565b935060408601519150808211156165dc57600080fd5b506165e9868287016161ab565b9150509250925092565b60006020828403121561660557600080fd5b5035919050565b60006020828403121561661e57600080fd5b5051919050565b600080600080600060a0868803121561663d57600080fd5b85519450602086015161664f816171fc565b60408701519094506001600160401b0381111561666b57600080fd5b616677888289016161ab565b9350506060860151616688816171fc565b80925050608086015190509295509295909350565b60008060008060008060c087890312156166b657600080fd5b8651955060208701516001600160401b03808211156166d457600080fd5b6166e08a838b016161ab565b965060408901519150808211156166f657600080fd5b6167028a838b016161ab565b9550606089015191508082111561671857600080fd5b6167248a838b016161ab565b94506080890151935060a089015191508082111561674157600080fd5b5061674e89828a016161ab565b9150509295509295509295565b60006020828403121561676d57600080fd5b81516001600160401b0381111561678357600080fd5b6153a6848285016161ab565b600080604083850312156167a257600080fd5b82356001600160401b038111156167b857600080fd5b6167c48582860161615a565b95602094909401359450505050565b600080600080606085870312156167e957600080fd5b84356001600160401b038082111561680057600080fd5b61680c8883890161615a565b955060208701359450604087013591508082111561682957600080fd5b5061683687828801616119565b95989497509550505050565b60008060006060848603121561685757600080fd5b83359250602084013561626e816171fc565b6000806040838503121561687c57600080fd5b8235915060208301356001600160401b038111156162b857600080fd5b6000806000606084860312156168ae57600080fd5b8335925060208401356001600160401b038111156168cb57600080fd5b6168d78682870161615a565b9250506040840135600381106168ec57600080fd5b809150509250925092565b6000806040838503121561690a57600080fd5b50508035926020909101359150565b600081518084526169318160208601602086016170fe565b601f01601f19169290920160200192915050565b60006bffffffffffffffffffffffff19808960601b168352876014840152866034840152856054840152808560601b16607484015250825161698e8160888501602087016170fe565b91909101608801979650505050505050565b600082516169b28184602087016170fe565b9190910192915050565b600060018060a01b038087168352608060208401526169de6080840187616919565b94166040830152506060015292915050565b6001600160a01b039390931683526020830191909152604082015260600190565b858152600060018060a01b03808716602084015260a06040840152616a3960a0840187616919565b9416606083015250608001529392505050565b8581526001600160a01b038516602082015260a060408201819052600090616a7690830186616919565b8281036060840152616a888186616919565b9150508260808301529695505050505050565b848152608060208201526000616ab46080830186616919565b6001600160a01b03949094166040830152506060015292915050565b87815260c060208201526000616ae960c0830189616919565b8281036040840152616afb8189616919565b90508281036060840152616b0f8188616919565b905085608084015282810360a0840152838152838560208301376000602085830101526020601f19601f86011682010191505098975050505050505050565b86815260c060208201526000616b6760c0830188616919565b8281036040840152616b798188616919565b90508281036060840152616b8d8187616919565b905084608084015282810360a0840152616ba78185616919565b9998505050505050505050565b60208152600061379c6020830184616919565b6020810160038310616be957634e487b7160e01b600052602160045260246000fd5b91905290565b60208082526018908201527f6d617020746f6b656e206e6f7420726567697374657265640000000000000000604082015260600190565b6020808252602c908201527f46756e6374696f6e206d7573742062652063616c6c6564207468726f7567682060408201526b19195b1959d85d1958d85b1b60a21b606082015260800190565b6020808252600f908201526e62616c616e636520746f6f206c6f7760881b604082015260600190565b6020808252600b908201526a1bdc99195c88195e1a5cdd60aa1b604082015260600190565b6020808252601490820152731a5b9d985b1a59081b5bdcc818dbdb9d1c9858dd60621b604082015260600190565b6020808252602c908201527f46756e6374696f6e206d7573742062652063616c6c6564207468726f7567682060408201526b6163746976652070726f787960a01b606082015260800190565b6020808252600f908201526e61646472657373206973207a65726f60881b604082015260600190565b60208082526010908201526f14185d5cd8589b194e881c185d5cd95960821b604082015260600190565b60208082526010908201526f1a5b9d985b1a590818da185a5b881a5960821b604082015260600190565b60208082526018908201527f6f757420746f6b656e206e6f7420726567697374657265640000000000000000604082015260600190565b6020808252601a908201527f7661756c7420746f6b656e206e6f742072656769737465726564000000000000604082015260600190565b60208082526016908201527536b7b9a932b630bc901d1d1037b7363c9030b236b4b760511b604082015260600190565b6020808252601f908201527f5265656e7472616e637947756172643a207265656e7472616e742063616c6c00604082015260600190565b8281526040602082015260006153a66040830184616919565b604051608081016001600160401b0381118282101715616ec757616ec76171e6565b60405290565b604051601f8201601f191681016001600160401b0381118282101715616ef557616ef56171e6565b604052919050565b60006001600160401b03821115616f1657616f166171e6565b50601f01601f191660200190565b60008219821115616f3757616f3761718e565b500190565b600060ff821660ff84168060ff03821115616f5957616f5961718e565b019392505050565b600082616f7057616f706171a4565b500490565b600181815b80851115616fb0578160001904821115616f9657616f9661718e565b80851615616fa357918102915b93841c9390800290616f7a565b509250929050565b600061379c8383600082616fce57506001612611565b81616fdb57506000612611565b8160018114616ff15760028114616ffb57617017565b6001915050612611565b60ff84111561700c5761700c61718e565b50506001821b612611565b5060208310610133831016604e8410600b841016171561703a575081810a612611565b6170448383616f75565b80600019048211156170585761705861718e565b029392505050565b600081600019048311821515161561707a5761707a61718e565b500290565b600060ff821660ff84168160ff04811182151516156170585761705861718e565b6000828210156170b2576170b261718e565b500390565b600060ff821660ff8416808210156170d1576170d161718e565b90039392505050565b80516020808301519190811015614e725760001960209190910360031b1b16919050565b60005b83811015617119578181015183820152602001617101565b838111156116665750506000910152565b600181811c9082168061713e57607f821691505b60208210811415614e7257634e487b7160e01b600052602260045260246000fd5b60006000198214156171735761717361718e565b5060010190565b600082617189576171896171a4565b500690565b634e487b7160e01b600052601160045260246000fd5b634e487b7160e01b600052601260045260246000fd5b634e487b7160e01b600052602160045260246000fd5b634e487b7160e01b600052603260045260246000fd5b634e487b7160e01b600052604160045260246000fd5b6001600160a01b0381168114610e9a57600080fdfe6d61705472616e736665724f75742875696e743235362c75696e743235362c627974657333322c62797465732c62797465732c62797465732c75696e743235362c627974657329416464726573733a206c6f772d6c6576656c2064656c65676174652063616c6c206661696c65646d61704465706f7369744f75742875696e743235362c75696e743235362c627974657333322c616464726573732c62797465732c616464726573732c75696e74323536296d6170537761704f75742875696e743235362c75696e743235362c627974657333322c62797465732c62797465732c62797465732c75696e743235362c627974657329a26469706673582212203404b507e6eb61cfebb3f11e39b85a1723b6255564676c264b6934999a72506464736f6c63430008070033",
	"linkReferences": {},
	"deployedLinkReferences": {}
}