{
	"_format": "hh-sol-artifact-1",
	"contractName": "MAPOmnichainServiceV2",
	"sourceName": "contracts/MAPOmnichainServiceV2.sol",
	"abi": [
		{
			"anonymous": false,
			"inputs": [
				{
					"indexed": false,
					"internalType": "address",
					"name": "previousAdmin",
					"type": "address"
				},
				{
					"indexed": false,
					"internalType": "address",
					"name": "newAdmin",
					"type": "address"
				}
			],
			"name": "AdminChanged",
			"type": "event"
		},
		{
			"anonymous": false,
			"inputs": [
				{
					"indexed": true,
					"internalType": "address",
					"name": "beacon",
					"type": "address"
				}
			],
			"name": "BeaconUpgraded",
			"type": "event"
		},
		{
			"anonymous": false,
			"inputs": [
				{
					"indexed": false,
					"internalType": "uint8",
					"name": "version",
					"type": "uint8"
				}
			],
			"name": "Initialized",
			"type": "event"
		},
		{
			"anonymous": false,
			"inputs": [
				{
					"indexed": false,
					"internalType": "address",
					"name": "account",
					"type": "address"
				}
			],
			"name": "Paused",
			"type": "event"
		},
		{
			"anonymous": false,
			"inputs": [
				{
					"indexed": false,
					"internalType": "address",
					"name": "account",
					"type": "address"
				}
			],
			"name": "Unpaused",
			"type": "event"
		},
		{
			"anonymous": false,
			"inputs": [
				{
					"indexed": true,
					"internalType": "address",
					"name": "implementation",
					"type": "address"
				}
			],
			"name": "Upgraded",
			"type": "event"
		},
		{
			"anonymous": false,
			"inputs": [
				{
					"indexed": true,
					"internalType": "address",
					"name": "token",
					"type": "address"
				},
				{
					"indexed": false,
					"internalType": "bytes",
					"name": "from",
					"type": "bytes"
				},
				{
					"indexed": false,
					"internalType": "bytes32",
					"name": "orderId",
					"type": "bytes32"
				},
				{
					"indexed": false,
					"internalType": "uint256",
					"name": "fromChain",
					"type": "uint256"
				},
				{
					"indexed": false,
					"internalType": "uint256",
					"name": "toChain",
					"type": "uint256"
				},
				{
					"indexed": false,
					"internalType": "address",
					"name": "to",
					"type": "address"
				},
				{
					"indexed": false,
					"internalType": "uint256",
					"name": "amount",
					"type": "uint256"
				}
			],
			"name": "mapDepositOut",
			"type": "event"
		},
		{
			"anonymous": false,
			"inputs": [
				{
					"indexed": true,
					"internalType": "address",
					"name": "from",
					"type": "address"
				},
				{
					"indexed": true,
					"internalType": "uint256",
					"name": "fromChain",
					"type": "uint256"
				},
				{
					"indexed": true,
					"internalType": "uint256",
					"name": "toChain",
					"type": "uint256"
				}
			],
			"name": "mapTransferExecute",
			"type": "event"
		},
		{
			"anonymous": false,
			"inputs": [
				{
					"indexed": true,
					"internalType": "address",
					"name": "token",
					"type": "address"
				},
				{
					"indexed": true,
					"internalType": "bytes",
					"name": "from",
					"type": "bytes"
				},
				{
					"indexed": true,
					"internalType": "bytes32",
					"name": "orderId",
					"type": "bytes32"
				},
				{
					"indexed": false,
					"internalType": "uint256",
					"name": "fromChain",
					"type": "uint256"
				},
				{
					"indexed": false,
					"internalType": "uint256",
					"name": "toChain",
					"type": "uint256"
				},
				{
					"indexed": false,
					"internalType": "address",
					"name": "to",
					"type": "address"
				},
				{
					"indexed": false,
					"internalType": "uint256",
					"name": "amount",
					"type": "uint256"
				}
			],
			"name": "mapTransferIn",
			"type": "event"
		},
		{
			"anonymous": false,
			"inputs": [
				{
					"indexed": false,
					"internalType": "bytes",
					"name": "token",
					"type": "bytes"
				},
				{
					"indexed": false,
					"internalType": "bytes",
					"name": "from",
					"type": "bytes"
				},
				{
					"indexed": false,
					"internalType": "bytes32",
					"name": "orderId",
					"type": "bytes32"
				},
				{
					"indexed": false,
					"internalType": "uint256",
					"name": "fromChain",
					"type": "uint256"
				},
				{
					"indexed": false,
					"internalType": "uint256",
					"name": "toChain",
					"type": "uint256"
				},
				{
					"indexed": false,
					"internalType": "bytes",
					"name": "to",
					"type": "bytes"
				},
				{
					"indexed": false,
					"internalType": "uint256",
					"name": "amount",
					"type": "uint256"
				},
				{
					"indexed": false,
					"internalType": "bytes",
					"name": "toChainToken",
					"type": "bytes"
				}
			],
			"name": "mapTransferOut",
			"type": "event"
		},
		{
			"inputs": [
				{
					"internalType": "address[]",
					"name": "_token",
					"type": "address[]"
				}
			],
			"name": "addMintableToken",
			"outputs": [],
			"stateMutability": "nonpayable",
			"type": "function"
		},
		{
			"inputs": [
				{
					"internalType": "address",
					"name": "_admin",
					"type": "address"
				}
			],
			"name": "changeAdmin",
			"outputs": [],
			"stateMutability": "nonpayable",
			"type": "function"
		},
		{
			"inputs": [
				{
					"internalType": "address",
					"name": "_to",
					"type": "address"
				}
			],
			"name": "depositNative",
			"outputs": [],
			"stateMutability": "payable",
			"type": "function"
		},
		{
			"inputs": [
				{
					"internalType": "address",
					"name": "_token",
					"type": "address"
				},
				{
					"internalType": "address",
					"name": "_to",
					"type": "address"
				},
				{
					"internalType": "uint256",
					"name": "_amount",
					"type": "uint256"
				}
			],
			"name": "depositToken",
			"outputs": [],
			"stateMutability": "nonpayable",
			"type": "function"
		},
		{
			"inputs": [
				{
					"internalType": "address",
					"name": "_token",
					"type": "address"
				},
				{
					"internalType": "address payable",
					"name": "_receiver",
					"type": "address"
				},
				{
					"internalType": "uint256",
					"name": "_amount",
					"type": "uint256"
				}
			],
			"name": "emergencyWithdraw",
			"outputs": [],
			"stateMutability": "nonpayable",
			"type": "function"
		},
		{
			"inputs": [],
			"name": "getAdmin",
			"outputs": [
				{
					"internalType": "address",
					"name": "",
					"type": "address"
				}
			],
			"stateMutability": "view",
			"type": "function"
		},
		{
			"inputs": [],
			"name": "getImplementation",
			"outputs": [
				{
					"internalType": "address",
					"name": "",
					"type": "address"
				}
			],
			"stateMutability": "view",
			"type": "function"
		},
		{
			"inputs": [
				{
					"internalType": "address",
					"name": "_wToken",
					"type": "address"
				},
				{
					"internalType": "address",
					"name": "_lightNode",
					"type": "address"
				}
			],
			"name": "initialize",
			"outputs": [],
			"stateMutability": "nonpayable",
			"type": "function"
		},
		{
			"inputs": [
				{
					"internalType": "address",
					"name": "_token",
					"type": "address"
				},
				{
					"internalType": "uint256",
					"name": "_toChain",
					"type": "uint256"
				}
			],
			"name": "isBridgeable",
			"outputs": [
				{
					"internalType": "bool",
					"name": "",
					"type": "bool"
				}
			],
			"stateMutability": "view",
			"type": "function"
		},
		{
			"inputs": [
				{
					"internalType": "address",
					"name": "_token",
					"type": "address"
				}
			],
			"name": "isMintable",
			"outputs": [
				{
					"internalType": "bool",
					"name": "",
					"type": "bool"
				}
			],
			"stateMutability": "view",
			"type": "function"
		},
		{
			"inputs": [],
			"name": "lightNode",
			"outputs": [
				{
					"internalType": "contract ILightNode",
					"name": "",
					"type": "address"
				}
			],
			"stateMutability": "view",
			"type": "function"
		},
		{
			"inputs": [
				{
					"internalType": "address",
					"name": "",
					"type": "address"
				}
			],
			"name": "mintableTokens",
			"outputs": [
				{
					"internalType": "bool",
					"name": "",
					"type": "bool"
				}
			],
			"stateMutability": "view",
			"type": "function"
		},
		{
			"inputs": [],
			"name": "nonce",
			"outputs": [
				{
					"internalType": "uint256",
					"name": "",
					"type": "uint256"
				}
			],
			"stateMutability": "view",
			"type": "function"
		},
		{
			"inputs": [
				{
					"internalType": "bytes32",
					"name": "",
					"type": "bytes32"
				}
			],
			"name": "orderList",
			"outputs": [
				{
					"internalType": "bool",
					"name": "",
					"type": "bool"
				}
			],
			"stateMutability": "view",
			"type": "function"
		},
		{
			"inputs": [],
			"name": "paused",
			"outputs": [
				{
					"internalType": "bool",
					"name": "",
					"type": "bool"
				}
			],
			"stateMutability": "view",
			"type": "function"
		},
		{
			"inputs": [],
			"name": "proxiableUUID",
			"outputs": [
				{
					"internalType": "bytes32",
					"name": "",
					"type": "bytes32"
				}
			],
			"stateMutability": "view",
			"type": "function"
		},
		{
			"inputs": [
				{
					"internalType": "address",
					"name": "_token",
					"type": "address"
				},
				{
					"internalType": "uint256",
					"name": "_toChain",
					"type": "uint256"
				},
				{
					"internalType": "bool",
					"name": "_enable",
					"type": "bool"
				}
			],
			"name": "registerToken",
			"outputs": [],
			"stateMutability": "nonpayable",
			"type": "function"
		},
		{
			"inputs": [],
			"name": "relayChainId",
			"outputs": [
				{
					"internalType": "uint256",
					"name": "",
					"type": "uint256"
				}
			],
			"stateMutability": "view",
			"type": "function"
		},
		{
			"inputs": [],
			"name": "relayContract",
			"outputs": [
				{
					"internalType": "address",
					"name": "",
					"type": "address"
				}
			],
			"stateMutability": "view",
			"type": "function"
		},
		{
			"inputs": [
				{
					"internalType": "address[]",
					"name": "_token",
					"type": "address[]"
				}
			],
			"name": "removeMintableToken",
			"outputs": [],
			"stateMutability": "nonpayable",
			"type": "function"
		},
		{
			"inputs": [],
			"name": "selfChainId",
			"outputs": [
				{
					"internalType": "uint256",
					"name": "",
					"type": "uint256"
				}
			],
			"stateMutability": "view",
			"type": "function"
		},
		{
			"inputs": [],
			"name": "setPause",
			"outputs": [],
			"stateMutability": "nonpayable",
			"type": "function"
		},
		{
			"inputs": [
				{
					"internalType": "uint256",
					"name": "_chainId",
					"type": "uint256"
				},
				{
					"internalType": "address",
					"name": "_relay",
					"type": "address"
				}
			],
			"name": "setRelayContract",
			"outputs": [],
			"stateMutability": "nonpayable",
			"type": "function"
		},
		{
			"inputs": [],
			"name": "setUnpause",
			"outputs": [],
			"stateMutability": "nonpayable",
			"type": "function"
		},
		{
			"inputs": [
				{
					"internalType": "uint256",
					"name": "",
					"type": "uint256"
				},
				{
					"internalType": "address",
					"name": "",
					"type": "address"
				}
			],
			"name": "tokenMappingList",
			"outputs": [
				{
					"internalType": "bool",
					"name": "",
					"type": "bool"
				}
			],
			"stateMutability": "view",
			"type": "function"
		},
		{
			"inputs": [
				{
					"internalType": "uint256",
					"name": "_chainId",
					"type": "uint256"
				},
				{
					"internalType": "bytes",
					"name": "_receiptProof",
					"type": "bytes"
				}
			],
			"name": "transferIn",
			"outputs": [],
			"stateMutability": "nonpayable",
			"type": "function"
		},
		{
			"inputs": [
				{
					"internalType": "bytes",
					"name": "_to",
					"type": "bytes"
				},
				{
					"internalType": "uint256",
					"name": "_toChain",
					"type": "uint256"
				}
			],
			"name": "transferOutNative",
			"outputs": [],
			"stateMutability": "payable",
			"type": "function"
		},
		{
			"inputs": [
				{
					"internalType": "address",
					"name": "_token",
					"type": "address"
				},
				{
					"internalType": "bytes",
					"name": "_to",
					"type": "bytes"
				},
				{
					"internalType": "uint256",
					"name": "_amount",
					"type": "uint256"
				},
				{
					"internalType": "uint256",
					"name": "_toChain",
					"type": "uint256"
				}
			],
			"name": "transferOutToken",
			"outputs": [],
			"stateMutability": "nonpayable",
			"type": "function"
		},
		{
			"inputs": [
				{
					"internalType": "address",
					"name": "newImplementation",
					"type": "address"
				}
			],
			"name": "upgradeTo",
			"outputs": [],
			"stateMutability": "nonpayable",
			"type": "function"
		},
		{
			"inputs": [
				{
					"internalType": "address",
					"name": "newImplementation",
					"type": "address"
				},
				{
					"internalType": "bytes",
					"name": "data",
					"type": "bytes"
				}
			],
			"name": "upgradeToAndCall",
			"outputs": [],
			"stateMutability": "payable",
			"type": "function"
		},
		{
			"inputs": [],
			"name": "wToken",
			"outputs": [
				{
					"internalType": "address",
					"name": "",
					"type": "address"
				}
			],
			"stateMutability": "view",
			"type": "function"
		},
		{
			"stateMutability": "payable",
			"type": "receive"
		}
	],
	"bytecode": "0x60c06040523060601b6080524660a05234801561001b57600080fd5b5060016000819055805462ff00001916905560805160601c60a0516138bf6100b06000396000818161055201528181610841015281816109b301528181610b200152818161107101528181611264015281816115330152818161157e0152818161184b01526119c101526000818161089c015281816108dc01528181610d0f01528181610d4f0152610dc701526138bf6000f3fe6080604052600436106101dc5760003560e01c80635f670bd311610102578063affed0e011610095578063d431b1ac11610064578063d431b1ac146105b4578063e63ea408146105c9578063ee9592b9146105e9578063fb0f97a81461062457600080fd5b8063affed0e01461052a578063cc9e3e8914610540578063ccb3f44214610574578063d24c69441461059457600080fd5b80638df0dcde116100d15780638df0dcde146104bf5780638f283970146104d5578063981aff4e146104f5578063aaf10f421461051557600080fd5b80635f670bd3146104455780636af6400d146104655780636e9960c314610495578063848cb5c6146104aa57600080fd5b806345711d481161017a57806355b355601161014957806355b35560146103c757806355d35a40146103e75780635c550ac2146104075780635c975abb1461042757600080fd5b806345711d4814610341578063485cc955146103715780634f1ef2861461039157806352d1902d146103a457600080fd5b80632b585db4116101b65780632b585db4146102db57806333bb7f91146102fb5780633659cfe61461030e5780633d4a2f6e1461032e57600080fd5b80630babd864146102355780631a19a62814610272578063222b15fb1461029257600080fd5b36610230576003546001600160a01b0316331461022e5760405162461bcd60e51b815260206004820152600b60248201526a37b7363c903baa37b5b2b760a91b60448201526064015b60405180910390fd5b005b600080fd5b34801561024157600080fd5b50600354610255906001600160a01b031681565b6040516001600160a01b0390911681526020015b60405180910390f35b34801561027e57600080fd5b5061022e61028d366004613026565b610644565b34801561029e57600080fd5b506102cb6102ad366004612e73565b6001600160a01b031660009081526008602052604090205460ff1690565b6040519015158152602001610269565b3480156102e757600080fd5b506102cb6102f6366004612fb8565b6106e8565b61022e610309366004612e73565b610715565b34801561031a57600080fd5b5061022e610329366004612e73565b610891565b61022e61033c36600461328d565b610957565b34801561034d57600080fd5b506102cb61035c366004612e73565b60086020526000908152604090205460ff1681565b34801561037d57600080fd5b5061022e61038c366004612e90565b610b76565b61022e61039f366004612f0a565b610d04565b3480156103b057600080fd5b506103b9610dba565b604051908152602001610269565b3480156103d357600080fd5b5061022e6103e2366004612fe4565b610e6d565b3480156103f357600080fd5b5061022e6104023660046132d1565b610edb565b34801561041357600080fd5b50600454610255906001600160a01b031681565b34801561043357600080fd5b5060015462010000900460ff166102cb565b34801561045157600080fd5b50600654610255906001600160a01b031681565b34801561047157600080fd5b506102cb610480366004613188565b60076020526000908152604090205460ff1681565b3480156104a157600080fd5b50610255610f60565b3480156104b657600080fd5b5061022e610f6f565b3480156104cb57600080fd5b506103b960055481565b3480156104e157600080fd5b5061022e6104f0366004612e73565b610fb1565b34801561050157600080fd5b5061022e610510366004612f59565b611019565b34801561052157600080fd5b506102556112bf565b34801561053657600080fd5b506103b960025481565b34801561054c57600080fd5b506103b97f000000000000000000000000000000000000000000000000000000000000000081565b34801561058057600080fd5b5061022e61058f366004613026565b6112c9565b3480156105a057600080fd5b5061022e6105af3660046132f6565b611369565b3480156105c057600080fd5b5061022e6115d6565b3480156105d557600080fd5b5061022e6105e4366004612ec9565b611616565b3480156105f557600080fd5b506102cb6106043660046132d1565b600960209081526000928352604080842090915290825290205460ff1681565b34801561063057600080fd5b5061022e61063f366004612ec9565b611706565b61064c611897565b6001600160a01b0316336001600160a01b03161461067c5760405162461bcd60e51b815260040161022590613590565b60005b81518110156106e4576000600860008484815181106106a0576106a06137ac565b6020908102919091018101516001600160a01b03168252810191909152604001600020805460ff1916911515919091179055806106dc8161377b565b91505061067f565b5050565b60008181526009602090815260408083206001600160a01b038616845290915290205460ff165b92915050565b61071d6118ca565b610725611924565b60035460055460008181526009602090815260408083206001600160a01b039095168084529490915290205460ff166107705760405162461bcd60e51b8152600401610225906134ed565b6003543390349060009061079a906001600160a01b03168461079189611970565b856005546119a6565b9050600360009054906101000a90046001600160a01b03166001600160a01b031663d0e30db0836040518263ffffffff1660e01b81526004016000604051808303818588803b1580156107ec57600080fd5b505af1158015610800573d6000803e3d6000fd5b50506003546001600160a01b031692507f5087ca27423487d440835ea5d79ddfc6418ea504262e87c91d6df5d4d9f50bc1915061083e905085611970565b837f00000000000000000000000000000000000000000000000000000000000000006005548b88604051610877969594939291906133e5565b60405180910390a2505050505061088e6001600055565b50565b306001600160a01b037f00000000000000000000000000000000000000000000000000000000000000001614156108da5760405162461bcd60e51b8152600401610225906134a1565b7f00000000000000000000000000000000000000000000000000000000000000006001600160a01b031661090c611a18565b6001600160a01b0316146109325760405162461bcd60e51b81526004016102259061351b565b61093b81611a2e565b6040805160008082526020820190925261088e91839190611aa0565b61095f6118ca565b610967611924565b60035460008281526009602090815260408083206001600160a01b0390941680845293909152902054829060ff166109b15760405162461bcd60e51b8152600401610225906134ed565b7f0000000000000000000000000000000000000000000000000000000000000000831415610a145760405162461bcd60e51b815260206004820152601060248201526f37b7363c9037ba3432b91031b430b4b760811b6044820152606401610225565b3480610a545760405162461bcd60e51b815260206004820152600f60248201526e62616c616e6365206973207a65726f60881b6044820152606401610225565b600360009054906101000a90046001600160a01b03166001600160a01b031663d0e30db0826040518263ffffffff1660e01b81526004016000604051808303818588803b158015610aa457600080fd5b505af1158015610ab8573d6000803e3d6000fd5b505060035460009350610ada92506001600160a01b03169050338885896119a6565b6003549091507faca0a1067548270e80c1209ec69b5381d80bdaf345ad70cf7f00af9c6ed3f9b490610b14906001600160a01b0316611970565b610b1d33611970565b837f0000000000000000000000000000000000000000000000000000000000000000898b88610b4c6000611970565b604051610b6098979695949392919061342a565b60405180910390a1505050506106e46001600055565b600154610100900460ff1615808015610b9357506001805460ff16105b80610bac5750303b158015610bac57506001805460ff16145b610c0f5760405162461bcd60e51b815260206004820152602e60248201527f496e697469616c697a61626c653a20636f6e747261637420697320616c72656160448201526d191e481a5b9a5d1a585b1a5e995960921b6064820152608401610225565b6001805460ff1916811790558015610c31576001805461ff0019166101001790555b826001600160a01b038116610c585760405162461bcd60e51b815260040161022590613567565b826001600160a01b038116610c7f5760405162461bcd60e51b815260040161022590613567565b600380546001600160a01b038088166001600160a01b0319928316179092556006805492871692909116919091179055610cb833611c1a565b50508015610cff576001805461ff00191681556040519081527f7f26b83ff96e1f2b6a682f133852f6798a09c465da95921460cefb38474024989060200160405180910390a15b505050565b306001600160a01b037f0000000000000000000000000000000000000000000000000000000000000000161415610d4d5760405162461bcd60e51b8152600401610225906134a1565b7f00000000000000000000000000000000000000000000000000000000000000006001600160a01b0316610d7f611a18565b6001600160a01b031614610da55760405162461bcd60e51b81526004016102259061351b565b610dae82611a2e565b6106e482826001611aa0565b6000306001600160a01b037f00000000000000000000000000000000000000000000000000000000000000001614610e5a5760405162461bcd60e51b815260206004820152603860248201527f555550535570677261646561626c653a206d757374206e6f742062652063616c60448201527f6c6564207468726f7567682064656c656761746563616c6c00000000000000006064820152608401610225565b506000805160206137fc83398151915290565b610e75611897565b6001600160a01b0316336001600160a01b031614610ea55760405162461bcd60e51b815260040161022590613590565b60009182526009602090815260408084206001600160a01b03959095168452939052919020805460ff1916911515919091179055565b610ee3611897565b6001600160a01b0316336001600160a01b031614610f135760405162461bcd60e51b815260040161022590613590565b806001600160a01b038116610f3a5760405162461bcd60e51b815260040161022590613567565b50600480546001600160a01b0319166001600160a01b0392909216919091179055600555565b6000610f6a611897565b905090565b610f77611897565b6001600160a01b0316336001600160a01b031614610fa75760405162461bcd60e51b815260040161022590613590565b610faf611c6e565b565b610fb9611897565b6001600160a01b0316336001600160a01b031614610fe95760405162461bcd60e51b815260040161022590613590565b806001600160a01b0381166110105760405162461bcd60e51b815260040161022590613567565b6106e482611c1a565b6110216118ca565b611029611924565b60008181526009602090815260408083206001600160a01b03881684529091529020548490829060ff1661106f5760405162461bcd60e51b8152600401610225906134ed565b7f00000000000000000000000000000000000000000000000000000000000000008314156110d25760405162461bcd60e51b815260206004820152601060248201526f37b7363c9037ba3432b91031b430b4b760811b6044820152606401610225565b6040516370a0823160e01b815233600482015284906001600160a01b038816906370a082319060240160206040518083038186803b15801561111357600080fd5b505afa158015611127573d6000803e3d6000fd5b505050506040513d601f19601f8201168201806040525081019061114b91906131a1565b101561118b5760405162461bcd60e51b815260206004820152600f60248201526e62616c616e636520746f6f206c6f7760881b6044820152606401610225565b6001600160a01b03861660009081526008602052604090205460ff16156112115760405163079cc67960e41b8152336004820152602481018590526001600160a01b038716906379cc679090604401600060405180830381600087803b1580156111f457600080fd5b505af1158015611208573d6000803e3d6000fd5b5050505061121d565b61121d86333087611cc2565b600061122c87338888886119a6565b90507faca0a1067548270e80c1209ec69b5381d80bdaf345ad70cf7f00af9c6ed3f9b461125888611970565b61126133611970565b837f0000000000000000000000000000000000000000000000000000000000000000888b8b6112906000611970565b6040516112a498979695949392919061342a565b60405180910390a15050506112b96001600055565b50505050565b6000610f6a611a18565b6112d1611897565b6001600160a01b0316336001600160a01b0316146113015760405162461bcd60e51b815260040161022590613590565b60005b81518110156106e457600160086000848481518110611325576113256137ac565b6020908102919091018101516001600160a01b03168252810191909152604001600020805460ff1916911515919091179055806113618161377b565b915050611304565b6113716118ca565b611379611924565b60055482146113bd5760405162461bcd60e51b815260206004820152601060248201526f1a5b9d985b1a590818da185a5b881a5960821b6044820152606401610225565b60065460405163016dc52760e41b8152600091829182916001600160a01b0316906316dc5270906113f29087906004016133d2565b600060405180830381600087803b15801561140c57600080fd5b505af1158015611420573d6000803e3d6000fd5b505050506040513d6000823e601f3d908101601f1916820160405261144891908101906130fb565b92509250925082829061146e5760405162461bcd60e51b815260040161022591906133d2565b50600061147a82611df2565b905060005b815181101561157857600082828151811061149c5761149c6137ac565b60200260200101519050600081602001516000815181106114bf576114bf6137ac565b60200260200101518060200190518101906114da91906131a1565b9050604051806080016040528060478152602001613843604791398051906020012081148015611519575081516004546001600160a01b039081169116145b156115635760006115298361203c565b91505080608001517f0000000000000000000000000000000000000000000000000000000000000000141561156157611561816120da565b505b505080806115709061377b565b91505061147f565b506040517f000000000000000000000000000000000000000000000000000000000000000090879033907f0c7ca64b50e8c246962331a7595739e091f1573ce2a86c420ed9e56fdba358e190600090a4505050506106e46001600055565b6115de611897565b6001600160a01b0316336001600160a01b03161461160e5760405162461bcd60e51b815260040161022590613590565b610faf6122d4565b61161e611897565b6001600160a01b0316336001600160a01b03161461164e5760405162461bcd60e51b815260040161022590613590565b6003546001600160a01b03848116911614156116845760035461167a906001600160a01b031682612315565b610cff828261242b565b60405163a9059cbb60e01b81526001600160a01b0383811660048301526024820183905284169063a9059cbb90604401602060405180830381600087803b1580156116ce57600080fd5b505af11580156116e2573d6000803e3d6000fd5b505050506040513d601f19601f820116820180604052508101906112b991906130de565b61170e6118ca565b611716611924565b60055460008181526009602090815260408083206001600160a01b038816845290915290205484919060ff1661175e5760405162461bcd60e51b8152600401610225906134ed565b33611781866001600160a01b031660009081526008602052604090205460ff1690565b156117ed5760405163079cc67960e41b81526001600160a01b038281166004830152602482018690528716906379cc679090604401600060405180830381600087803b1580156117d057600080fd5b505af11580156117e4573d6000803e3d6000fd5b505050506117f9565b6117f986823087611cc2565b6000611812878361180989611970565b886005546119a6565b9050866001600160a01b03167f5087ca27423487d440835ea5d79ddfc6418ea504262e87c91d6df5d4d9f50bc161184884611970565b837f00000000000000000000000000000000000000000000000000000000000000006005548b8b604051611881969594939291906133e5565b60405180910390a250505050610cff6001600055565b60007fb53127684a568b3173ae13b9f8a6016e243e63b6e8ee1178d6a717850b5d61035b546001600160a01b0316919050565b6002600054141561191d5760405162461bcd60e51b815260206004820152601f60248201527f5265656e7472616e637947756172643a207265656e7472616e742063616c6c006044820152606401610225565b6002600055565b60015462010000900460ff1615610faf5760405162461bcd60e51b815260206004820152601060248201526f14185d5cd8589b194e881c185d5cd95960821b6044820152606401610225565b604051606082811b6bffffffffffffffffffffffff19166020830152906034016040516020818303038152906040529050919050565b60028054600091826119b78361377b565b91905055858588867f0000000000000000000000000000000000000000000000000000000000000000876040516020016119f7979695949392919061336e565b60405160208183030381529060405280519060200120905095945050505050565b60006000805160206137fc8339815191526118bb565b611a36611897565b6001600160a01b0316336001600160a01b03161461088e5760405162461bcd60e51b815260206004820152602160248201527f4c696768744e6f64653a206f6e6c792041646d696e2063616e207570677261646044820152606560f81b6064820152608401610225565b7f4910fdfa16fed3260ed0e7147f7cc6da11a60208b5b9406d12a635614ffd91435460ff1615611ad357610cff836124f4565b826001600160a01b03166352d1902d6040518163ffffffff1660e01b815260040160206040518083038186803b158015611b0c57600080fd5b505afa925050508015611b3c575060408051601f3d908101601f19168201909252611b39918101906131a1565b60015b611b9f5760405162461bcd60e51b815260206004820152602e60248201527f45524331393637557067726164653a206e657720696d706c656d656e7461746960448201526d6f6e206973206e6f74205555505360901b6064820152608401610225565b6000805160206137fc8339815191528114611c0e5760405162461bcd60e51b815260206004820152602960248201527f45524331393637557067726164653a20756e737570706f727465642070726f786044820152681a58589b195555525160ba1b6064820152608401610225565b50610cff838383612593565b7f7e644d79422f17c01e4894b5f4f588d331ebfa28653d42ae832dc59e38c9798f611c43611897565b604080516001600160a01b03928316815291841660208301520160405180910390a161088e816125b8565b611c76612644565b6001805462ff0000191690557f5db9ee0a495bf2e6ff9c91a7834c1ba4fdd244a5e8aa4e537bd38aeae4b073aa335b6040516001600160a01b03909116815260200160405180910390a1565b604080516001600160a01b0385811660248301528481166044830152606480830185905283518084039091018152608490920183526020820180516001600160e01b03166323b872dd60e01b1790529151600092839290881691611d269190613352565b6000604051808303816000865af19150503d8060008114611d63576040519150601f19603f3d011682016040523d82523d6000602084013e611d68565b606091505b5091509150818015611d92575080511580611d92575080806020019051810190611d9291906130de565b611dea5760405162461bcd60e51b8152602060048201526024808201527f5472616e7366657248656c7065723a205452414e534645525f46524f4d5f46416044820152631253115160e21b6064820152608401610225565b505050505050565b60606000611e2f611e2a8460408051808201825260008082526020918201528151808301909252825182529182019181019190915290565b612693565b905080516001600160401b03811115611e4a57611e4a6137c2565b604051908082528060200260200182016040528015611ea857816020015b611e95604051806060016040528060006001600160a01b0316815260200160608152602001606081525090565b815260200190600190039081611e685790505b50915060005b8151811015612035576000611edb838381518110611ece57611ece6137ac565b6020026020010151612693565b90506000611ef582600181518110611ece57611ece6137ac565b9050600081516001600160401b03811115611f1257611f126137c2565b604051908082528060200260200182016040528015611f4557816020015b6060815260200190600190039081611f305790505b50905060005b8251811015611fa657611f76838281518110611f6957611f696137ac565b60200260200101516127a8565b828281518110611f8857611f886137ac565b60200260200101819052508080611f9e9061377b565b915050611f4b565b506040518060600160405280611fd585600081518110611fc857611fc86137ac565b6020026020010151612825565b6001600160a01b03168152602001828152602001611fff85600281518110611f6957611f696137ac565b815250868581518110612014576120146137ac565b6020026020010181905250505050808061202d9061377b565b915050611eae565b5050919050565b606061208960405180610100016040528060608152602001606081526020016000801916815260200160008152602001600081526020016060815260200160008152602001606081525090565b825161209490611970565b915082604001518060200190518101906120ae91906131ba565b60e089015260c088015260a0870152608086015260608501526040840152602083015281529092909150565b60408082015160008181526007602052919091205460ff161561212d5760405162461bcd60e51b815260206004820152600b60248201526a1bdc99195c88195e1a5cdd60aa1b6044820152606401610225565b6000818152600760205260408120805460ff1916600117905560e0830151612156906014015190565b905060006121698460a001516014015190565b60c0850151600354919250906001600160a01b03848116911614156121ad5760035461219e906001600160a01b031682612315565b6121a8828261242b565b612240565b6001600160a01b03831660009081526008602052604090205460ff1615612235576040516340c10f1960e01b81526001600160a01b038381166004830152602482018390528416906340c10f1990604401600060405180830381600087803b15801561221857600080fd5b505af115801561222c573d6000803e3d6000fd5b50505050612240565b61224083838361283f565b846040015185602001516040516122579190613352565b6040518091039020846001600160a01b03167fd9fedc891b9a6aebd6a4e09cedbcbb83091a18befe79e2f5a26ec3409469cc8d8860600151896080015187876040516122c5949392919093845260208401929092526001600160a01b03166040830152606082015260800190565b60405180910390a45050505050565b6122dc611924565b6001805462ff00001916620100001790557f62e78cea01bee320cd4e420270b5ea74000d11b0c9f74754ebdbfc544b05a258611ca53390565b600080836001600160a01b0316632e1a7d4d8460405160240161233a91815260200190565b6040516020818303038152906040529060e01b6020820180516001600160e01b0383818316178352505050506040516123739190613352565b6000604051808303816000865af19150503d80600081146123b0576040519150601f19603f3d011682016040523d82523d6000602084013e6123b5565b606091505b50915091508180156123df5750805115806123df5750808060200190518101906123df91906130de565b6112b95760405162461bcd60e51b815260206004820152601f60248201527f5472616e7366657248656c7065723a2057495448445241575f4641494c4544006044820152606401610225565b604080516000808252602082019092526001600160a01b0384169083906040516124559190613352565b60006040518083038185875af1925050503d8060008114612492576040519150601f19603f3d011682016040523d82523d6000602084013e612497565b606091505b5050905080610cff5760405162461bcd60e51b815260206004820152602360248201527f5472616e7366657248656c7065723a204554485f5452414e534645525f46414960448201526213115160ea1b6064820152608401610225565b6001600160a01b0381163b6125615760405162461bcd60e51b815260206004820152602d60248201527f455243313936373a206e657720696d706c656d656e746174696f6e206973206e60448201526c1bdd08184818dbdb9d1c9858dd609a1b6064820152608401610225565b806000805160206137fc8339815191525b80546001600160a01b0319166001600160a01b039290921691909117905550565b61259c8361295a565b6000825111806125a95750805b15610cff576112b9838361299a565b6001600160a01b03811661261d5760405162461bcd60e51b815260206004820152602660248201527f455243313936373a206e65772061646d696e20697320746865207a65726f206160448201526564647265737360d01b6064820152608401610225565b807fb53127684a568b3173ae13b9f8a6016e243e63b6e8ee1178d6a717850b5d6103612572565b60015462010000900460ff16610faf5760405162461bcd60e51b815260206004820152601460248201527314185d5cd8589b194e881b9bdd081c185d5cd95960621b6044820152606401610225565b606061269e826129c6565b6126a757600080fd5b60006126b2836129ff565b90506000816001600160401b038111156126ce576126ce6137c2565b60405190808252806020026020018201604052801561271357816020015b60408051808201909152600080825260208201528152602001906001900390816126ec5790505b50905060006127258560200151612a82565b85602001516127349190613612565b90506000805b8481101561279d5761274b83612afd565b9150604051806040016040528083815260200184815250848281518110612774576127746137ac565b60209081029190910101526127898284613612565b9250806127958161377b565b91505061273a565b509195945050505050565b80516060906127b657600080fd5b6000806127c284612ba6565b915091506000816001600160401b038111156127e0576127e06137c2565b6040519080825280601f01601f19166020018201604052801561280a576020820181803683370190505b5090506020810161281c848285612bed565b50949350505050565b805160009060151461283657600080fd5b61070f82612c6c565b604080516001600160a01b038481166024830152604480830185905283518084039091018152606490920183526020820180516001600160e01b031663a9059cbb60e01b179052915160009283929087169161289b9190613352565b6000604051808303816000865af19150503d80600081146128d8576040519150601f19603f3d011682016040523d82523d6000602084013e6128dd565b606091505b509150915081801561290757508051158061290757508080602001905181019061290791906130de565b6129535760405162461bcd60e51b815260206004820152601f60248201527f5472616e7366657248656c7065723a205452414e534645525f4641494c4544006044820152606401610225565b5050505050565b612963816124f4565b6040516001600160a01b038216907fbc7cd75a20ee27fd9adebab32041f755214dbc6bffa90cc0225b39da2e5c2d3b90600090a250565b60606129bf838360405180606001604052806027815260200161381c60279139612cba565b9392505050565b80516000906129d757506000919050565b6020820151805160001a9060c08210156129f5575060009392505050565b5060019392505050565b8051600090612a1057506000919050565b600080612a208460200151612a82565b8460200151612a2f9190613612565b9050600084600001518560200151612a479190613612565b90505b80821015612a7957612a5b82612afd565b612a659083613612565b915082612a718161377b565b935050612a4a565b50909392505050565b8051600090811a6080811015612a9b5750600092915050565b60b8811080612ab6575060c08110801590612ab6575060f881105b15612ac45750600192915050565b60c0811015612af157612ad9600160b861372c565b612ae69060ff1682613715565b6129bf906001613612565b612ad9600160f861372c565b80516000908190811a6080811015612b185760019150612b9f565b60b8811015612b3e57612b2c608082613715565b612b37906001613612565b9150612b9f565b60c0811015612b6b5760b78103600185019450806020036101000a85510460018201810193505050612b9f565b60f8811015612b7f57612b2c60c082613715565b60f78103600185019450806020036101000a855104600182018101935050505b5092915050565b6000806000612bb88460200151612a82565b90506000818560200151612bcc9190613612565b90506000828660000151612be09190613715565b9196919550909350505050565b80612bf757505050565b60208110612c2f5782518252612c0e602084613612565b9250612c1b602083613612565b9150612c28602082613715565b9050612bf7565b8015610cff5760006001612c44836020613715565b612c509061010061366d565b612c5a9190613715565b84518451821691191617835250505050565b805160009015801590612c8157508151602110155b612c8a57600080fd5b600080612c9684612ba6565b815191935091506020821015612cb25760208290036101000a90045b949350505050565b6060600080856001600160a01b031685604051612cd79190613352565b600060405180830381855af49150503d8060008114612d12576040519150601f19603f3d011682016040523d82523d6000602084013e612d17565b606091505b5091509150612d2886838387612d32565b9695505050505050565b60608315612d9e578251612d97576001600160a01b0385163b612d975760405162461bcd60e51b815260206004820152601d60248201527f416464726573733a2063616c6c20746f206e6f6e2d636f6e74726163740000006044820152606401610225565b5081612cb2565b612cb28383815115612db35781518083602001fd5b8060405162461bcd60e51b815260040161022591906133d2565b6000612de0612ddb846135eb565b6135bb565b9050828152838383011115612df457600080fd5b6129bf83602083018461374f565b600082601f830112612e1357600080fd5b8135612e21612ddb826135eb565b818152846020838601011115612e3657600080fd5b816020850160208301376000918101602001919091529392505050565b600082601f830112612e6457600080fd5b6129bf83835160208501612dcd565b600060208284031215612e8557600080fd5b81356129bf816137d8565b60008060408385031215612ea357600080fd5b8235612eae816137d8565b91506020830135612ebe816137d8565b809150509250929050565b600080600060608486031215612ede57600080fd5b8335612ee9816137d8565b92506020840135612ef9816137d8565b929592945050506040919091013590565b60008060408385031215612f1d57600080fd5b8235612f28816137d8565b915060208301356001600160401b03811115612f4357600080fd5b612f4f85828601612e02565b9150509250929050565b60008060008060808587031215612f6f57600080fd5b8435612f7a816137d8565b935060208501356001600160401b03811115612f9557600080fd5b612fa187828801612e02565b949794965050505060408301359260600135919050565b60008060408385031215612fcb57600080fd5b8235612fd6816137d8565b946020939093013593505050565b600080600060608486031215612ff957600080fd5b8335613004816137d8565b925060208401359150604084013561301b816137ed565b809150509250925092565b6000602080838503121561303957600080fd5b82356001600160401b038082111561305057600080fd5b818501915085601f83011261306457600080fd5b813581811115613076576130766137c2565b8060051b91506130878483016135bb565b8181528481019084860184860187018a10156130a257600080fd5b600095505b838610156130d157803594506130bc856137d8565b848352600195909501949186019186016130a7565b5098975050505050505050565b6000602082840312156130f057600080fd5b81516129bf816137ed565b60008060006060848603121561311057600080fd5b835161311b816137ed565b60208501519093506001600160401b038082111561313857600080fd5b818601915086601f83011261314c57600080fd5b61315b87835160208501612dcd565b9350604086015191508082111561317157600080fd5b5061317e86828701612e53565b9150509250925092565b60006020828403121561319a57600080fd5b5035919050565b6000602082840312156131b357600080fd5b5051919050565b600080600080600080600080610100898b0312156131d757600080fd5b88516001600160401b03808211156131ee57600080fd5b6131fa8c838d01612e53565b995060208b015191508082111561321057600080fd5b61321c8c838d01612e53565b985060408b0151975060608b0151965060808b0151955060a08b015191508082111561324757600080fd5b6132538c838d01612e53565b945060c08b0151935060e08b015191508082111561327057600080fd5b5061327d8b828c01612e53565b9150509295985092959890939650565b600080604083850312156132a057600080fd5b82356001600160401b038111156132b657600080fd5b6132c285828601612e02565b95602094909401359450505050565b600080604083850312156132e457600080fd5b823591506020830135612ebe816137d8565b6000806040838503121561330957600080fd5b8235915060208301356001600160401b03811115612f4357600080fd5b6000815180845261333e81602086016020860161374f565b601f01601f19169290920160200192915050565b6000825161336481846020870161374f565b9190910192915050565b87815260006bffffffffffffffffffffffff19808960601b166020840152875161339f816034860160208c0161374f565b60609790971b1691909501603481019190915260488101939093526068830191909152608882015260a801949350505050565b6020815260006129bf6020830184613326565b60c0815260006133f860c0830189613326565b602083019790975250604081019490945260608401929092526001600160a01b0316608083015260a090910152919050565b600061010080835261343e8184018c613326565b90508281036020840152613452818b613326565b905088604084015287606084015286608084015282810360a08401526134788187613326565b90508460c084015282810360e08401526134928185613326565b9b9a5050505050505050505050565b6020808252602c908201527f46756e6374696f6e206d7573742062652063616c6c6564207468726f7567682060408201526b19195b1959d85d1958d85b1b60a21b606082015260800190565b6020808252601490820152731d1bdad95b881b9bdd081c9959da5cdd195c995960621b604082015260600190565b6020808252602c908201527f46756e6374696f6e206d7573742062652063616c6c6564207468726f7567682060408201526b6163746976652070726f787960a01b606082015260800190565b6020808252600f908201526e61646472657373206973207a65726f60881b604082015260600190565b60208082526011908201527036b7b9901d1d1037b7363c9030b236b4b760791b604082015260600190565b604051601f8201601f191681016001600160401b03811182821017156135e3576135e36137c2565b604052919050565b60006001600160401b03821115613604576136046137c2565b50601f01601f191660200190565b6000821982111561362557613625613796565b500190565b600181815b8085111561366557816000190482111561364b5761364b613796565b8085161561365857918102915b93841c939080029061362f565b509250929050565b60006129bf83836000826136835750600161070f565b816136905750600061070f565b81600181146136a657600281146136b0576136cc565b600191505061070f565b60ff8411156136c1576136c1613796565b50506001821b61070f565b5060208310610133831016604e8410600b84101617156136ef575081810a61070f565b6136f9838361362a565b806000190482111561370d5761370d613796565b029392505050565b60008282101561372757613727613796565b500390565b600060ff821660ff84168082101561374657613746613796565b90039392505050565b60005b8381101561376a578181015183820152602001613752565b838111156112b95750506000910152565b600060001982141561378f5761378f613796565b5060010190565b634e487b7160e01b600052601160045260246000fd5b634e487b7160e01b600052603260045260246000fd5b634e487b7160e01b600052604160045260246000fd5b6001600160a01b038116811461088e57600080fd5b801515811461088e57600080fdfe360894a13ba1a3210667c828492db98dca3e2076cc3735a920a3ca505d382bbc416464726573733a206c6f772d6c6576656c2064656c65676174652063616c6c206661696c65646d61705472616e736665724f75742862797465732c62797465732c627974657333322c75696e743235362c75696e743235362c62797465732c75696e743235362c627974657329a26469706673582212206ba88d79b017ceebfac67fe88ddf94475fe2d33be85aa16f799ef2a52eae98ee64736f6c63430008070033",
	"linkReferences": {},
	"deployedLinkReferences": {}
}