{
	"_format": "hh-sol-artifact-1",
	"contractName": "MAPOmnichainServiceV2",
	"sourceName": "contracts/MAPOmnichainServiceV2.sol",
	"abi": [
		{
			"anonymous": false,
			"inputs": [
				{
					"indexed": false,
					"internalType": "address",
					"name": "previousAdmin",
					"type": "address"
				},
				{
					"indexed": false,
					"internalType": "address",
					"name": "newAdmin",
					"type": "address"
				}
			],
			"name": "AdminChanged",
			"type": "event"
		},
		{
			"anonymous": false,
			"inputs": [
				{
					"indexed": true,
					"internalType": "address",
					"name": "beacon",
					"type": "address"
				}
			],
			"name": "BeaconUpgraded",
			"type": "event"
		},
		{
			"anonymous": false,
			"inputs": [
				{
					"indexed": false,
					"internalType": "address",
					"name": "account",
					"type": "address"
				}
			],
			"name": "Paused",
			"type": "event"
		},
		{
			"anonymous": false,
			"inputs": [
				{
					"indexed": false,
					"internalType": "address",
					"name": "account",
					"type": "address"
				}
			],
			"name": "Unpaused",
			"type": "event"
		},
		{
			"anonymous": false,
			"inputs": [
				{
					"indexed": true,
					"internalType": "address",
					"name": "implementation",
					"type": "address"
				}
			],
			"name": "Upgraded",
			"type": "event"
		},
		{
			"anonymous": false,
			"inputs": [
				{
					"indexed": true,
					"internalType": "uint256",
					"name": "fromChain",
					"type": "uint256"
				},
				{
					"indexed": true,
					"internalType": "uint256",
					"name": "toChain",
					"type": "uint256"
				},
				{
					"indexed": false,
					"internalType": "bytes32",
					"name": "orderId",
					"type": "bytes32"
				},
				{
					"indexed": false,
					"internalType": "address",
					"name": "token",
					"type": "address"
				},
				{
					"indexed": false,
					"internalType": "bytes",
					"name": "from",
					"type": "bytes"
				},
				{
					"indexed": false,
					"internalType": "address",
					"name": "to",
					"type": "address"
				},
				{
					"indexed": false,
					"internalType": "uint256",
					"name": "amount",
					"type": "uint256"
				}
			],
			"name": "mapDepositOut",
			"type": "event"
		},
		{
			"anonymous": false,
			"inputs": [
				{
					"indexed": true,
					"internalType": "uint256",
					"name": "fromChain",
					"type": "uint256"
				},
				{
					"indexed": true,
					"internalType": "uint256",
					"name": "toChain",
					"type": "uint256"
				},
				{
					"indexed": true,
					"internalType": "address",
					"name": "from",
					"type": "address"
				}
			],
			"name": "mapSwapExecute",
			"type": "event"
		},
		{
			"anonymous": false,
			"inputs": [
				{
					"indexed": true,
					"internalType": "uint256",
					"name": "fromChain",
					"type": "uint256"
				},
				{
					"indexed": true,
					"internalType": "uint256",
					"name": "toChain",
					"type": "uint256"
				},
				{
					"indexed": true,
					"internalType": "bytes32",
					"name": "orderId",
					"type": "bytes32"
				},
				{
					"indexed": false,
					"internalType": "address",
					"name": "token",
					"type": "address"
				},
				{
					"indexed": false,
					"internalType": "bytes",
					"name": "from",
					"type": "bytes"
				},
				{
					"indexed": false,
					"internalType": "address",
					"name": "toAddress",
					"type": "address"
				},
				{
					"indexed": false,
					"internalType": "uint256",
					"name": "amountOut",
					"type": "uint256"
				}
			],
			"name": "mapSwapIn",
			"type": "event"
		},
		{
			"anonymous": false,
			"inputs": [
				{
					"indexed": true,
					"internalType": "uint256",
					"name": "fromChain",
					"type": "uint256"
				},
				{
					"indexed": true,
					"internalType": "uint256",
					"name": "toChain",
					"type": "uint256"
				},
				{
					"indexed": false,
					"internalType": "bytes32",
					"name": "orderId",
					"type": "bytes32"
				},
				{
					"indexed": false,
					"internalType": "bytes",
					"name": "token",
					"type": "bytes"
				},
				{
					"indexed": false,
					"internalType": "bytes",
					"name": "from",
					"type": "bytes"
				},
				{
					"indexed": false,
					"internalType": "bytes",
					"name": "to",
					"type": "bytes"
				},
				{
					"indexed": false,
					"internalType": "uint256",
					"name": "amount",
					"type": "uint256"
				},
				{
					"indexed": false,
					"internalType": "bytes",
					"name": "swapData",
					"type": "bytes"
				}
			],
			"name": "mapSwapOut",
			"type": "event"
		},
		{
			"anonymous": false,
			"inputs": [
				{
					"indexed": true,
					"internalType": "uint256",
					"name": "fromChain",
					"type": "uint256"
				},
				{
					"indexed": true,
					"internalType": "uint256",
					"name": "toChain",
					"type": "uint256"
				},
				{
					"indexed": true,
					"internalType": "address",
					"name": "from",
					"type": "address"
				}
			],
			"name": "mapTransferExecute",
			"type": "event"
		},
		{
			"anonymous": false,
			"inputs": [
				{
					"indexed": true,
					"internalType": "uint256",
					"name": "fromChain",
					"type": "uint256"
				},
				{
					"indexed": true,
					"internalType": "uint256",
					"name": "toChain",
					"type": "uint256"
				},
				{
					"indexed": false,
					"internalType": "bytes32",
					"name": "orderId",
					"type": "bytes32"
				},
				{
					"indexed": false,
					"internalType": "address",
					"name": "token",
					"type": "address"
				},
				{
					"indexed": false,
					"internalType": "bytes",
					"name": "from",
					"type": "bytes"
				},
				{
					"indexed": false,
					"internalType": "address",
					"name": "to",
					"type": "address"
				},
				{
					"indexed": false,
					"internalType": "uint256",
					"name": "amount",
					"type": "uint256"
				}
			],
			"name": "mapTransferIn",
			"type": "event"
		},
		{
			"anonymous": false,
			"inputs": [
				{
					"indexed": true,
					"internalType": "uint256",
					"name": "fromChain",
					"type": "uint256"
				},
				{
					"indexed": true,
					"internalType": "uint256",
					"name": "toChain",
					"type": "uint256"
				},
				{
					"indexed": false,
					"internalType": "bytes32",
					"name": "orderId",
					"type": "bytes32"
				},
				{
					"indexed": false,
					"internalType": "bytes",
					"name": "token",
					"type": "bytes"
				},
				{
					"indexed": false,
					"internalType": "bytes",
					"name": "from",
					"type": "bytes"
				},
				{
					"indexed": false,
					"internalType": "bytes",
					"name": "to",
					"type": "bytes"
				},
				{
					"indexed": false,
					"internalType": "uint256",
					"name": "amount",
					"type": "uint256"
				},
				{
					"indexed": false,
					"internalType": "bytes",
					"name": "toChainToken",
					"type": "bytes"
				}
			],
			"name": "mapTransferOut",
			"type": "event"
		},
		{
			"inputs": [
				{
					"internalType": "address[]",
					"name": "_token",
					"type": "address[]"
				}
			],
			"name": "addMintableToken",
			"outputs": [],
			"stateMutability": "nonpayable",
			"type": "function"
		},
		{
			"inputs": [],
			"name": "butterCore",
			"outputs": [
				{
					"internalType": "address",
					"name": "",
					"type": "address"
				}
			],
			"stateMutability": "view",
			"type": "function"
		},
		{
			"inputs": [
				{
					"internalType": "address",
					"name": "_admin",
					"type": "address"
				}
			],
			"name": "changeAdmin",
			"outputs": [],
			"stateMutability": "nonpayable",
			"type": "function"
		},
		{
			"inputs": [
				{
					"internalType": "address",
					"name": "_to",
					"type": "address"
				}
			],
			"name": "depositNative",
			"outputs": [],
			"stateMutability": "payable",
			"type": "function"
		},
		{
			"inputs": [
				{
					"internalType": "address",
					"name": "_token",
					"type": "address"
				},
				{
					"internalType": "address",
					"name": "_to",
					"type": "address"
				},
				{
					"internalType": "uint256",
					"name": "_amount",
					"type": "uint256"
				}
			],
			"name": "depositToken",
			"outputs": [],
			"stateMutability": "nonpayable",
			"type": "function"
		},
		{
			"inputs": [
				{
					"internalType": "address",
					"name": "_token",
					"type": "address"
				},
				{
					"internalType": "address payable",
					"name": "_receiver",
					"type": "address"
				},
				{
					"internalType": "uint256",
					"name": "_amount",
					"type": "uint256"
				}
			],
			"name": "emergencyWithdraw",
			"outputs": [],
			"stateMutability": "nonpayable",
			"type": "function"
		},
		{
			"inputs": [],
			"name": "getAdmin",
			"outputs": [
				{
					"internalType": "address",
					"name": "",
					"type": "address"
				}
			],
			"stateMutability": "view",
			"type": "function"
		},
		{
			"inputs": [],
			"name": "getImplementation",
			"outputs": [
				{
					"internalType": "address",
					"name": "",
					"type": "address"
				}
			],
			"stateMutability": "view",
			"type": "function"
		},
		{
			"inputs": [
				{
					"internalType": "address",
					"name": "_wToken",
					"type": "address"
				},
				{
					"internalType": "address",
					"name": "_lightNode",
					"type": "address"
				}
			],
			"name": "initialize",
			"outputs": [],
			"stateMutability": "nonpayable",
			"type": "function"
		},
		{
			"inputs": [
				{
					"internalType": "address",
					"name": "_token",
					"type": "address"
				},
				{
					"internalType": "uint256",
					"name": "_toChain",
					"type": "uint256"
				}
			],
			"name": "isBridgeable",
			"outputs": [
				{
					"internalType": "bool",
					"name": "",
					"type": "bool"
				}
			],
			"stateMutability": "view",
			"type": "function"
		},
		{
			"inputs": [
				{
					"internalType": "address",
					"name": "_token",
					"type": "address"
				}
			],
			"name": "isMintable",
			"outputs": [
				{
					"internalType": "bool",
					"name": "",
					"type": "bool"
				}
			],
			"stateMutability": "view",
			"type": "function"
		},
		{
			"inputs": [],
			"name": "lightNode",
			"outputs": [
				{
					"internalType": "contract ILightNode",
					"name": "",
					"type": "address"
				}
			],
			"stateMutability": "view",
			"type": "function"
		},
		{
			"inputs": [
				{
					"internalType": "address",
					"name": "",
					"type": "address"
				}
			],
			"name": "mintableTokens",
			"outputs": [
				{
					"internalType": "bool",
					"name": "",
					"type": "bool"
				}
			],
			"stateMutability": "view",
			"type": "function"
		},
		{
			"inputs": [],
			"name": "nonce",
			"outputs": [
				{
					"internalType": "uint256",
					"name": "",
					"type": "uint256"
				}
			],
			"stateMutability": "view",
			"type": "function"
		},
		{
			"inputs": [
				{
					"internalType": "bytes32",
					"name": "",
					"type": "bytes32"
				}
			],
			"name": "orderList",
			"outputs": [
				{
					"internalType": "bool",
					"name": "",
					"type": "bool"
				}
			],
			"stateMutability": "view",
			"type": "function"
		},
		{
			"inputs": [],
			"name": "paused",
			"outputs": [
				{
					"internalType": "bool",
					"name": "",
					"type": "bool"
				}
			],
			"stateMutability": "view",
			"type": "function"
		},
		{
			"inputs": [
				{
					"internalType": "address",
					"name": "_token",
					"type": "address"
				},
				{
					"internalType": "uint256",
					"name": "_toChain",
					"type": "uint256"
				},
				{
					"internalType": "bool",
					"name": "_enable",
					"type": "bool"
				}
			],
			"name": "registerToken",
			"outputs": [],
			"stateMutability": "nonpayable",
			"type": "function"
		},
		{
			"inputs": [],
			"name": "relayChainId",
			"outputs": [
				{
					"internalType": "uint256",
					"name": "",
					"type": "uint256"
				}
			],
			"stateMutability": "view",
			"type": "function"
		},
		{
			"inputs": [],
			"name": "relayContract",
			"outputs": [
				{
					"internalType": "address",
					"name": "",
					"type": "address"
				}
			],
			"stateMutability": "view",
			"type": "function"
		},
		{
			"inputs": [
				{
					"internalType": "address[]",
					"name": "_token",
					"type": "address[]"
				}
			],
			"name": "removeMintableToken",
			"outputs": [],
			"stateMutability": "nonpayable",
			"type": "function"
		},
		{
			"inputs": [],
			"name": "selfChainId",
			"outputs": [
				{
					"internalType": "uint256",
					"name": "",
					"type": "uint256"
				}
			],
			"stateMutability": "view",
			"type": "function"
		},
		{
			"inputs": [
				{
					"internalType": "address",
					"name": "_butterCoreAddress",
					"type": "address"
				}
			],
			"name": "setButterCoreAddress",
			"outputs": [],
			"stateMutability": "nonpayable",
			"type": "function"
		},
		{
			"inputs": [
				{
					"internalType": "address",
					"name": "_lightNode",
					"type": "address"
				}
			],
			"name": "setLightClient",
			"outputs": [],
			"stateMutability": "nonpayable",
			"type": "function"
		},
		{
			"inputs": [],
			"name": "setPause",
			"outputs": [],
			"stateMutability": "nonpayable",
			"type": "function"
		},
		{
			"inputs": [
				{
					"internalType": "uint256",
					"name": "_chainId",
					"type": "uint256"
				},
				{
					"internalType": "address",
					"name": "_relay",
					"type": "address"
				}
			],
			"name": "setRelayContract",
			"outputs": [],
			"stateMutability": "nonpayable",
			"type": "function"
		},
		{
			"inputs": [],
			"name": "setUnpause",
			"outputs": [],
			"stateMutability": "nonpayable",
			"type": "function"
		},
		{
			"inputs": [
				{
					"internalType": "uint256",
					"name": "_chainId",
					"type": "uint256"
				},
				{
					"internalType": "bytes",
					"name": "_receiptProof",
					"type": "bytes"
				}
			],
			"name": "swapIn",
			"outputs": [],
			"stateMutability": "nonpayable",
			"type": "function"
		},
		{
			"inputs": [
				{
					"internalType": "address",
					"name": "_initiatorAddress",
					"type": "address"
				},
				{
					"internalType": "bytes",
					"name": "_to",
					"type": "bytes"
				},
				{
					"internalType": "uint256",
					"name": "_toChain",
					"type": "uint256"
				},
				{
					"internalType": "bytes",
					"name": "swapData",
					"type": "bytes"
				}
			],
			"name": "swapOutNative",
			"outputs": [],
			"stateMutability": "payable",
			"type": "function"
		},
		{
			"inputs": [
				{
					"internalType": "address",
					"name": "_initiatorAddress",
					"type": "address"
				},
				{
					"internalType": "address",
					"name": "_token",
					"type": "address"
				},
				{
					"internalType": "bytes",
					"name": "_to",
					"type": "bytes"
				},
				{
					"internalType": "uint256",
					"name": "_amount",
					"type": "uint256"
				},
				{
					"internalType": "uint256",
					"name": "_toChain",
					"type": "uint256"
				},
				{
					"internalType": "bytes",
					"name": "swapData",
					"type": "bytes"
				}
			],
			"name": "swapOutToken",
			"outputs": [],
			"stateMutability": "nonpayable",
			"type": "function"
		},
		{
			"inputs": [
				{
					"internalType": "uint256",
					"name": "",
					"type": "uint256"
				},
				{
					"internalType": "address",
					"name": "",
					"type": "address"
				}
			],
			"name": "tokenMappingList",
			"outputs": [
				{
					"internalType": "bool",
					"name": "",
					"type": "bool"
				}
			],
			"stateMutability": "view",
			"type": "function"
		},
		{
			"inputs": [
				{
					"internalType": "uint256",
					"name": "_chainId",
					"type": "uint256"
				},
				{
					"internalType": "bytes",
					"name": "_receiptProof",
					"type": "bytes"
				}
			],
			"name": "transferIn",
			"outputs": [],
			"stateMutability": "nonpayable",
			"type": "function"
		},
		{
			"inputs": [
				{
					"internalType": "bytes",
					"name": "_to",
					"type": "bytes"
				},
				{
					"internalType": "uint256",
					"name": "_toChain",
					"type": "uint256"
				}
			],
			"name": "transferOutNative",
			"outputs": [],
			"stateMutability": "payable",
			"type": "function"
		},
		{
			"inputs": [
				{
					"internalType": "address",
					"name": "_token",
					"type": "address"
				},
				{
					"internalType": "bytes",
					"name": "_to",
					"type": "bytes"
				},
				{
					"internalType": "uint256",
					"name": "_amount",
					"type": "uint256"
				},
				{
					"internalType": "uint256",
					"name": "_toChain",
					"type": "uint256"
				}
			],
			"name": "transferOutToken",
			"outputs": [],
			"stateMutability": "nonpayable",
			"type": "function"
		},
		{
			"inputs": [
				{
					"internalType": "address",
					"name": "newImplementation",
					"type": "address"
				}
			],
			"name": "upgradeTo",
			"outputs": [],
			"stateMutability": "nonpayable",
			"type": "function"
		},
		{
			"inputs": [
				{
					"internalType": "address",
					"name": "newImplementation",
					"type": "address"
				},
				{
					"internalType": "bytes",
					"name": "data",
					"type": "bytes"
				}
			],
			"name": "upgradeToAndCall",
			"outputs": [],
			"stateMutability": "payable",
			"type": "function"
		},
		{
			"inputs": [],
			"name": "wToken",
			"outputs": [
				{
					"internalType": "address",
					"name": "",
					"type": "address"
				}
			],
			"stateMutability": "view",
			"type": "function"
		},
		{
			"stateMutability": "payable",
			"type": "receive"
		}
	],
	"bytecode": "0x60c06040523060601b6080524660a05234801561001b57600080fd5b5060016000819055805462ff00001916905560805160601c60a0516152c06100e160003960008181610590015281816108d501528181610abb01528181610bdc0152818161119c01528181611347015281816114710152818161163301528181611961015281816119ae01528181611c0e01528181611c5b01528181611d8d01528181611ebd0152818161213f0152818161222001528181612f210152613067015260008181610960015281816109a001528181610e2a0152610e6a01526152c06000f3fe6080604052600436106102135760003560e01c80636e9960c311610118578063cc9e3e89116100a0578063d431b1ac1161006f578063d431b1ac14610612578063d5351aaa14610627578063e63ea4081461063a578063ee9592b91461065a578063fb0f97a81461069557600080fd5b8063cc9e3e891461057e578063ccb3f442146105b2578063d24c6944146105d2578063d33a28a2146105f257600080fd5b8063981aff4e116100e7578063981aff4e146104f3578063aaf10f4214610513578063affed0e014610528578063b899f9041461053e578063bdff6d1e1461055e57600080fd5b80636e9960c314610485578063848cb5c61461049a5780638df0dcde146104af5780638f283970146104d357600080fd5b8063485cc9551161019b57806355d35a401161016a57806355d35a40146103d75780635c550ac2146103f75780635c975abb146104175780635f670bd3146104355780636af6400d1461045557600080fd5b8063485cc955146103645780634f1ef2861461038457806352edfcdf1461039757806355b35560146103b757600080fd5b806333bb7f91116101e257806333bb7f91146102ce5780633659cfe6146102e15780633d4a2f6e146103015780633e553bab1461031457806345711d481461033457600080fd5b80630babd8641461021f5780631a19a6281461025c578063222b15fb1461027e5780632b585db4146102ae57600080fd5b3661021a57005b600080fd5b34801561022b57600080fd5b5060035461023f906001600160a01b031681565b6040516001600160a01b0390911681526020015b60405180910390f35b34801561026857600080fd5b5061027c610277366004614518565b6106b5565b005b34801561028a57600080fd5b5061029e61029936600461423d565b610762565b6040519015158152602001610253565b3480156102ba57600080fd5b5061029e6102c93660046144aa565b610780565b61027c6102dc36600461423d565b6107ad565b3480156102ed57600080fd5b5061027c6102fc36600461423d565b610955565b61027c61030f366004614939565b610a1e565b34801561032057600080fd5b5061027c61032f36600461423d565b610c59565b34801561034057600080fd5b5061029e61034f36600461423d565b60086020526000908152604090205460ff1681565b34801561037057600080fd5b5061027c61037f36600461425a565b610cdb565b61027c610392366004614376565b610e1f565b3480156103a357600080fd5b5061027c6103b236600461423d565b610ed5565b3480156103c357600080fd5b5061027c6103d23660046144d6565b610f57565b3480156103e357600080fd5b5061027c6103f236600461497d565b610fc5565b34801561040357600080fd5b5060045461023f906001600160a01b031681565b34801561042357600080fd5b5060015462010000900460ff1661029e565b34801561044157600080fd5b5060065461023f906001600160a01b031681565b34801561046157600080fd5b5061029e610470366004614849565b60076020526000908152604090205460ff1681565b34801561049157600080fd5b5061023f61104a565b3480156104a657600080fd5b5061027c611059565b3480156104bb57600080fd5b506104c560055481565b604051908152602001610253565b3480156104df57600080fd5b5061027c6104ee36600461423d565b61109b565b3480156104ff57600080fd5b5061027c61050e36600461444b565b611103565b34801561051f57600080fd5b5061023f6113ce565b34801561053457600080fd5b506104c560025481565b34801561054a57600080fd5b5061027c6105593660046142d4565b6113d8565b34801561056a57600080fd5b50600a5461023f906001600160a01b031681565b34801561058a57600080fd5b506104c57f000000000000000000000000000000000000000000000000000000000000000081565b3480156105be57600080fd5b5061027c6105cd366004614518565b6116b6565b3480156105de57600080fd5b5061027c6105ed3660046149a2565b611756565b3480156105fe57600080fd5b5061027c61060d3660046149a2565b611a03565b34801561061e57600080fd5b5061027c611cb0565b61027c6106353660046143c5565b611cf0565b34801561064657600080fd5b5061027c610655366004614293565b611f4b565b34801561066657600080fd5b5061029e61067536600461497d565b600960209081526000928352604080842090915290825290205460ff1681565b3480156106a157600080fd5b5061027c6106b0366004614293565b61200e565b6106bd61219d565b6001600160a01b0316336001600160a01b0316146106f65760405162461bcd60e51b81526004016106ed90614db6565b60405180910390fd5b60005b815181101561075e5760006008600084848151811061071a5761071a61518a565b6020908102919091018101516001600160a01b03168252810191909152604001600020805460ff19169115159190911790558061075681615159565b9150506106f9565b5050565b6001600160a01b031660009081526008602052604090205460ff1690565b60008181526009602090815260408083206001600160a01b038616845290915290205460ff165b92915050565b600260005414156107d05760405162461bcd60e51b81526004016106ed90614de1565b600260005560015462010000900460ff16156107fe5760405162461bcd60e51b81526004016106ed90614d8c565b60035460055460008181526009602090815260408083206001600160a01b039095168084529490915290205460ff166108495760405162461bcd60e51b81526004016106ed90614ce9565b333460006108628361085a886121d0565b600554612206565b9050600360009054906101000a90046001600160a01b03166001600160a01b031663d0e30db0836040518263ffffffff1660e01b81526004016000604051808303818588803b1580156108b457600080fd5b505af11580156108c8573d6000803e3d6000fd5b50506005546003549093507f000000000000000000000000000000000000000000000000000000000000000092507fb7100086a8e13ebae772a0f09b07046e389a6b036406d22b86f2d2e5b860a8d9915084906001600160a01b031661092d886121d0565b8b88604051610940959493929190614b6b565b60405180910390a35050600160005550505050565b306001600160a01b037f000000000000000000000000000000000000000000000000000000000000000016141561099e5760405162461bcd60e51b81526004016106ed90614c9d565b7f00000000000000000000000000000000000000000000000000000000000000006001600160a01b03166109d0612277565b6001600160a01b0316146109f65760405162461bcd60e51b81526004016106ed90614d17565b6109ff8161229f565b60408051600080825260208201909252610a1b9183919061231b565b50565b60026000541415610a415760405162461bcd60e51b81526004016106ed90614de1565b600260005560015462010000900460ff1615610a6f5760405162461bcd60e51b81526004016106ed90614d8c565b60035460008281526009602090815260408083206001600160a01b0390941680845293909152902054829060ff16610ab95760405162461bcd60e51b81526004016106ed90614ce9565b7f0000000000000000000000000000000000000000000000000000000000000000831415610b1c5760405162461bcd60e51b815260206004820152601060248201526f37b7363c9037ba3432b91031b430b4b760811b60448201526064016106ed565b3480610b5c5760405162461bcd60e51b815260206004820152600f60248201526e62616c616e6365206973207a65726f60881b60448201526064016106ed565b600360009054906101000a90046001600160a01b03166001600160a01b031663d0e30db0826040518263ffffffff1660e01b81526004016000604051808303818588803b158015610bac57600080fd5b505af1158015610bc0573d6000803e3d6000fd5b50505050506000610bd2338787612206565b60035490915085907f0000000000000000000000000000000000000000000000000000000000000000907f44ff77018688dad4b245e8ab97358ed57ed92269952ece7ffd321366ce078622908490610c32906001600160a01b03166121d0565b610c3b336121d0565b8b88610c4760006121d0565b60405161094096959493929190614c24565b610c6161219d565b6001600160a01b0316336001600160a01b031614610c915760405162461bcd60e51b81526004016106ed90614db6565b806001600160a01b038116610cb85760405162461bcd60e51b81526004016106ed90614d63565b50600680546001600160a01b0319166001600160a01b0392909216919091179055565b600154610100900460ff16610cf65760015460ff1615610cfa565b303b155b610d5d5760405162461bcd60e51b815260206004820152602e60248201527f496e697469616c697a61626c653a20636f6e747261637420697320616c72656160448201526d191e481a5b9a5d1a585b1a5e995960921b60648201526084016106ed565b600154610100900460ff16158015610d7f576001805461ffff19166101011790555b826001600160a01b038116610da65760405162461bcd60e51b81526004016106ed90614d63565b826001600160a01b038116610dcd5760405162461bcd60e51b81526004016106ed90614d63565b600380546001600160a01b038088166001600160a01b0319928316179092556006805492871692909116919091179055610e0633612466565b50508015610e1a576001805461ff00191690555b505050565b306001600160a01b037f0000000000000000000000000000000000000000000000000000000000000000161415610e685760405162461bcd60e51b81526004016106ed90614c9d565b7f00000000000000000000000000000000000000000000000000000000000000006001600160a01b0316610e9a612277565b6001600160a01b031614610ec05760405162461bcd60e51b81526004016106ed90614d17565b610ec98261229f565b61075e8282600161231b565b610edd61219d565b6001600160a01b0316336001600160a01b031614610f0d5760405162461bcd60e51b81526004016106ed90614db6565b806001600160a01b038116610f345760405162461bcd60e51b81526004016106ed90614d63565b50600a80546001600160a01b0319166001600160a01b0392909216919091179055565b610f5f61219d565b6001600160a01b0316336001600160a01b031614610f8f5760405162461bcd60e51b81526004016106ed90614db6565b60009182526009602090815260408084206001600160a01b03959095168452939052919020805460ff1916911515919091179055565b610fcd61219d565b6001600160a01b0316336001600160a01b031614610ffd5760405162461bcd60e51b81526004016106ed90614db6565b806001600160a01b0381166110245760405162461bcd60e51b81526004016106ed90614d63565b50600480546001600160a01b0319166001600160a01b0392909216919091179055600555565b600061105461219d565b905090565b61106161219d565b6001600160a01b0316336001600160a01b0316146110915760405162461bcd60e51b81526004016106ed90614db6565b6110996124ba565b565b6110a361219d565b6001600160a01b0316336001600160a01b0316146110d35760405162461bcd60e51b81526004016106ed90614db6565b806001600160a01b0381166110fa5760405162461bcd60e51b81526004016106ed90614d63565b61075e82612466565b600260005414156111265760405162461bcd60e51b81526004016106ed90614de1565b600260005560015462010000900460ff16156111545760405162461bcd60e51b81526004016106ed90614d8c565b60008181526009602090815260408083206001600160a01b03881684529091529020548490829060ff1661119a5760405162461bcd60e51b81526004016106ed90614ce9565b7f00000000000000000000000000000000000000000000000000000000000000008314156111fd5760405162461bcd60e51b815260206004820152601060248201526f37b7363c9037ba3432b91031b430b4b760811b60448201526064016106ed565b6040516370a0823160e01b815233600482015284906001600160a01b038816906370a082319060240160206040518083038186803b15801561123e57600080fd5b505afa158015611252573d6000803e3d6000fd5b505050506040513d601f19601f820116820180604052508101906112769190614862565b10156112b65760405162461bcd60e51b815260206004820152600f60248201526e62616c616e636520746f6f206c6f7760881b60448201526064016106ed565b6112bf86610762565b156113295760405163079cc67960e41b8152336004820152602481018590526001600160a01b038716906379cc679090604401600060405180830381600087803b15801561130c57600080fd5b505af1158015611320573d6000803e3d6000fd5b50505050611335565b61133586333087612555565b6000611342338786612206565b9050837f00000000000000000000000000000000000000000000000000000000000000007f44ff77018688dad4b245e8ab97358ed57ed92269952ece7ffd321366ce078622836113918b6121d0565b61139a336121d0565b8b8b6113a660006121d0565b6040516113b896959493929190614c24565b60405180910390a3505060016000555050505050565b6000611054612277565b600260005414156113fb5760405162461bcd60e51b81526004016106ed90614de1565b600260005560015462010000900460ff16156114295760405162461bcd60e51b81526004016106ed90614d8c565b60008381526009602090815260408083206001600160a01b038a1684529091529020548690849060ff1661146f5760405162461bcd60e51b81526004016106ed90614ce9565b7f00000000000000000000000000000000000000000000000000000000000000008514156114db5760405162461bcd60e51b815260206004820152601960248201527821b0b73737ba1039bbb0b8103a379039b2b6331031b430b4b760391b60448201526064016106ed565b6040516370a0823160e01b815233600482015286906001600160a01b038a16906370a082319060240160206040518083038186803b15801561151c57600080fd5b505afa158015611530573d6000803e3d6000fd5b505050506040513d601f19601f820116820180604052508101906115549190614862565b10156115a25760405162461bcd60e51b815260206004820152601a60248201527f496e73756666696369656e7420746f6b656e2062616c616e636500000000000060448201526064016106ed565b6115ab88610762565b156116155760405163079cc67960e41b8152336004820152602481018790526001600160a01b038916906379cc679090604401600060405180830381600087803b1580156115f857600080fd5b505af115801561160c573d6000803e3d6000fd5b50505050611621565b61162188333089612555565b600061162e338988612206565b9050857f00000000000000000000000000000000000000000000000000000000000000007fca1cf8cebf88499429cca8f87cbca15ab8dafd06702259a5344ddce89ef3f3a58361167d8d6121d0565b6116868f6121d0565b8d8d8c8c60405161169d9796959493929190614ba6565b60405180910390a3505060016000555050505050505050565b6116be61219d565b6001600160a01b0316336001600160a01b0316146116ee5760405162461bcd60e51b81526004016106ed90614db6565b60005b815181101561075e576001600860008484815181106117125761171261518a565b6020908102919091018101516001600160a01b03168252810191909152604001600020805460ff19169115159190911790558061174e81615159565b9150506116f1565b600260005414156117795760405162461bcd60e51b81526004016106ed90614de1565b600260005560015462010000900460ff16156117a75760405162461bcd60e51b81526004016106ed90614d8c565b60055482146117eb5760405162461bcd60e51b815260206004820152601060248201526f1a5b9d985b1a590818da185a5b881a5960821b60448201526064016106ed565b60065460405163016dc52760e41b8152600091829182916001600160a01b0316906316dc527090611820908790600401614c8a565b600060405180830381600087803b15801561183a57600080fd5b505af115801561184e573d6000803e3d6000fd5b505050506040513d6000823e601f3d908101601f1916820160405261187691908101906147bc565b92509250925082829061189c5760405162461bcd60e51b81526004016106ed9190614c8a565b5060006118a882612685565b905060005b81518110156119a65760008282815181106118ca576118ca61518a565b60200260200101519050600081602001516000815181106118ed576118ed61518a565b60200260200101518060200190518101906119089190614862565b90506040518060800160405280604781526020016151da604791398051906020012081148015611947575081516004546001600160a01b039081169116145b1561199157600061195783612915565b91505080608001517f0000000000000000000000000000000000000000000000000000000000000000141561198f5761198f81612a19565b505b5050808061199e90615159565b9150506118ad565b5060405133907f00000000000000000000000000000000000000000000000000000000000000009088907f8c991a6f7ef9e9e8c0cc7f34d5ce0b20ff23538ec4d944e9d065b833982fc78390600090a45050600160005550505050565b60026000541415611a265760405162461bcd60e51b81526004016106ed90614de1565b600260005560015462010000900460ff1615611a545760405162461bcd60e51b81526004016106ed90614d8c565b6005548214611a985760405162461bcd60e51b815260206004820152601060248201526f1a5b9d985b1a590818da185a5b881a5960821b60448201526064016106ed565b60065460405163016dc52760e41b8152600091829182916001600160a01b0316906316dc527090611acd908790600401614c8a565b600060405180830381600087803b158015611ae757600080fd5b505af1158015611afb573d6000803e3d6000fd5b505050506040513d6000823e601f3d908101601f19168201604052611b2391908101906147bc565b925092509250828290611b495760405162461bcd60e51b81526004016106ed9190614c8a565b506000611b5582612685565b905060005b8151811015611c53576000828281518110611b7757611b7761518a565b6020026020010151905060008160200151600081518110611b9a57611b9a61518a565b6020026020010151806020019051810190611bb59190614862565b9050604051806080016040528060438152602001615248604391398051906020012081148015611bf4575081516004546001600160a01b039081169116145b15611c3e576000611c0483612bc4565b91505080602001517f00000000000000000000000000000000000000000000000000000000000000001415611c3c57611c3c81612ccb565b505b50508080611c4b90615159565b915050611b5a565b5060405133907f00000000000000000000000000000000000000000000000000000000000000009088907f8131e5b107f7021b0773c1108755872d7b94bb31532fdf2256e0a3ef2c890a3d90600090a45050600160005550505050565b611cb861219d565b6001600160a01b0316336001600160a01b031614611ce85760405162461bcd60e51b81526004016106ed90614db6565b6110996130d6565b60026000541415611d135760405162461bcd60e51b81526004016106ed90614de1565b600260005560015462010000900460ff1615611d415760405162461bcd60e51b81526004016106ed90614d8c565b60035460008481526009602090815260408083206001600160a01b0390941680845293909152902054849060ff16611d8b5760405162461bcd60e51b81526004016106ed90614ce9565b7f0000000000000000000000000000000000000000000000000000000000000000851415611df75760405162461bcd60e51b815260206004820152601960248201527821b0b73737ba1039bbb0b8103a379039b2b6331031b430b4b760391b60448201526064016106ed565b3480611e3d5760405162461bcd60e51b815260206004820152601560248201527453656e64696e672076616c7565206973207a65726f60581b60448201526064016106ed565b600360009054906101000a90046001600160a01b03166001600160a01b031663d0e30db0826040518263ffffffff1660e01b81526004016000604051808303818588803b158015611e8d57600080fd5b505af1158015611ea1573d6000803e3d6000fd5b50505050506000611eb3338989612206565b60035490915087907f0000000000000000000000000000000000000000000000000000000000000000907fca1cf8cebf88499429cca8f87cbca15ab8dafd06702259a5344ddce89ef3f3a5908490611f13906001600160a01b03166121d0565b611f1c8e6121d0565b8d888d8d604051611f339796959493929190614ba6565b60405180910390a35050600160005550505050505050565b611f5361219d565b6001600160a01b0316336001600160a01b031614611f835760405162461bcd60e51b81526004016106ed90614db6565b816001600160a01b038116611faa5760405162461bcd60e51b81526004016106ed90614d63565b6003546001600160a01b0385811691161415611fe557600354611fd6906001600160a01b031683613138565b611fe0838361324e565b612008565b6001600160a01b038416611ffd57611fe0838361324e565b612008848484613317565b50505050565b600260005414156120315760405162461bcd60e51b81526004016106ed90614de1565b600260005560015462010000900460ff161561205f5760405162461bcd60e51b81526004016106ed90614d8c565b60055460008181526009602090815260408083206001600160a01b038816845290915290205484919060ff166120a75760405162461bcd60e51b81526004016106ed90614ce9565b336120b186610762565b1561211d5760405163079cc67960e41b81526001600160a01b038281166004830152602482018690528716906379cc679090604401600060405180830381600087803b15801561210057600080fd5b505af1158015612114573d6000803e3d6000fd5b50505050612129565b61212986823087612555565b60006121388261085a886121d0565b90506005547f00000000000000000000000000000000000000000000000000000000000000007fb7100086a8e13ebae772a0f09b07046e389a6b036406d22b86f2d2e5b860a8d9838a61218a876121d0565b8b8b6040516113b8959493929190614b6b565b60007fb53127684a568b3173ae13b9f8a6016e243e63b6e8ee1178d6a717850b5d61035b546001600160a01b0316919050565b604051606082811b6bffffffffffffffffffffffff19166020830152906034016040516020818303038152906040529050919050565b600280546000913091908361221a83615159565b919050557f000000000000000000000000000000000000000000000000000000000000000084878760405160200161225796959493929190614ac0565b6040516020818303038152906040528051906020012090505b9392505050565b60007f360894a13ba1a3210667c828492db98dca3e2076cc3735a920a3ca505d382bbc6121c1565b6122a761219d565b6001600160a01b0316336001600160a01b031614610a1b5760405162461bcd60e51b815260206004820152602b60248201527f4d41504f6d6e69636861696e536572766963653a206f6e6c792041646d696e2060448201526a63616e207570677261646560a81b60648201526084016106ed565b6000612325612277565b90506123308461342b565b60008351118061233d5750815b1561234e5761234c84846134d3565b505b7f4910fdfa16fed3260ed0e7147f7cc6da11a60208b5b9406d12a635614ffd9143805460ff1661245f57805460ff191660011781556040516001600160a01b03831660248201526123cd90869060440160408051601f198184030181529190526020810180516001600160e01b0316631b2ce7f360e11b1790526134d3565b50805460ff191681556123de612277565b6001600160a01b0316826001600160a01b0316146124565760405162461bcd60e51b815260206004820152602f60248201527f45524331393637557067726164653a207570677261646520627265616b73206660448201526e75727468657220757067726164657360881b60648201526084016106ed565b61245f856134f8565b5050505050565b7f7e644d79422f17c01e4894b5f4f588d331ebfa28653d42ae832dc59e38c9798f61248f61219d565b604080516001600160a01b03928316815291841660208301520160405180910390a1610a1b81613538565b60015462010000900460ff166125095760405162461bcd60e51b815260206004820152601460248201527314185d5cd8589b194e881b9bdd081c185d5cd95960621b60448201526064016106ed565b6001805462ff0000191690557f5db9ee0a495bf2e6ff9c91a7834c1ba4fdd244a5e8aa4e537bd38aeae4b073aa335b6040516001600160a01b03909116815260200160405180910390a1565b604080516001600160a01b0385811660248301528481166044830152606480830185905283518084039091018152608490920183526020820180516001600160e01b03166323b872dd60e01b17905291516000928392908816916125b99190614b1b565b6000604051808303816000865af19150503d80600081146125f6576040519150601f19603f3d011682016040523d82523d6000602084013e6125fb565b606091505b5091509150818015612625575080511580612625575080806020019051810190612625919061479f565b61267d5760405162461bcd60e51b8152602060048201526024808201527f5472616e7366657248656c7065723a205452414e534645525f46524f4d5f46416044820152631253115160e21b60648201526084016106ed565b505050505050565b606060006126c26126bd8460408051808201825260008082526020918201528151808301909252825182529182019181019190915290565b6135c4565b905080516001600160401b038111156126dd576126dd6151a0565b60405190808252806020026020018201604052801561273b57816020015b612728604051806060016040528060006001600160a01b0316815260200160608152602001606081525090565b8152602001906001900390816126fb5790505b50915060005b815181101561290e57600061276e8383815181106127615761276161518a565b60200260200101516135c4565b90506003815110156127b65760405162461bcd60e51b81526020600482015260116024820152706c6f67206c656e67746820746f206c6f7760781b60448201526064016106ed565b60006127ce826001815181106127615761276161518a565b9050600081516001600160401b038111156127eb576127eb6151a0565b60405190808252806020026020018201604052801561281e57816020015b60608152602001906001900390816128095790505b50905060005b825181101561287f5761284f8382815181106128425761284261518a565b602002602001015161370b565b8282815181106128615761286161518a565b6020026020010181905250808061287790615159565b915050612824565b5060405180606001604052806128ae856000815181106128a1576128a161518a565b60200260200101516137be565b6001600160a01b031681526020018281526020016128d8856002815181106128425761284261518a565b8152508685815181106128ed576128ed61518a565b6020026020010181905250505050808061290690615159565b915050612741565b5050919050565b606061296260405180610100016040528060608152602001606081526020016000801916815260200160008152602001600081526020016060815260200160008152602001606081525090565b825161296d906121d0565b915082602001516001815181106129865761298661518a565b60200260200101518060200190518101906129a19190614862565b60608201526020830151805160029081106129be576129be61518a565b60200260200101518060200190518101906129d99190614862565b6080820152604083015180516129f79160209181018201910161487b565b60e087015260c086015260a08501526020840152825260408201529092909150565b60408082015160008181526007602052919091205460ff1615612a6c5760405162461bcd60e51b815260206004820152600b60248201526a1bdc99195c88195e1a5cdd60aa1b60448201526064016106ed565b6000818152600760205260408120805460ff1916600117905560e0830151612a95906014015190565b90506000612aa88460a001516014015190565b60c0850151600354919250906001600160a01b0384811691161415612aec57600354612add906001600160a01b031682613138565b612ae7828261324e565b612b6c565b612af583610762565b15612b61576040516340c10f1960e01b81526001600160a01b038381166004830152602482018390528416906340c10f1990604401600060405180830381600087803b158015612b4457600080fd5b505af1158015612b58573d6000803e3d6000fd5b50505050612b6c565b612b6c838383613317565b846080015185606001517f3790accbe9ce42658f962f7e7cfa0e6ae7acbb46014c6e01e1219a087816137587604001518689602001518787604051612bb5959493929190614b6b565b60405180910390a35050505050565b6060612c1160405180610100016040528060008152602001600081526020016000801916815260200160608152602001606081526020016060815260200160008152602001606081525090565b8251612c1c906121d0565b91508260200151600181518110612c3557612c3561518a565b6020026020010151806020019051810190612c509190614862565b8152602083015180516002908110612c6a57612c6a61518a565b6020026020010151806020019051810190612c859190614862565b8160200181815250508260400151806020019051810190612ca6919061487b565b60e087015260c086015260a08501526080840152606083015260408201529092909150565b60408082015160008181526007602052919091205460ff1615612d1e5760405162461bcd60e51b815260206004820152600b60248201526a1bdc99195c88195e1a5cdd60aa1b60448201526064016106ed565b6000818152600760205260408120805460ff191660011790556060830151612d47906014015190565b9050612d766040518060600160405280606081526020016060815260200160006001600160a01b031681525090565b8360e00151806020019051810190612d8e919061464c565b6001600160a01b0316604084015260208301819052908252601401516000612dbb8660a001516014015190565b60c087015184518051929350909115612f9a57612dd786610762565b15612e3d576040516340c10f1960e01b8152306004820152602481018390526001600160a01b038716906340c10f1990604401600060405180830381600087803b158015612e2457600080fd5b505af1158015612e38573d6000803e3d6000fd5b505050505b6000612e4882613810565b90506000612e5d8885848d60a001518b613860565b600a54909150612e789089906001600160a01b031686613ba5565b600a546040516000916001600160a01b031690612e99908490602401614e18565b60408051601f198184030181529181526020820180516001600160e01b0316630856506160e31b17905251612ece9190614b1b565b6000604051808303816000865af19150503d8060008114612f0b576040519150601f19603f3d011682016040523d82523d6000602084013e612f10565b606091505b505090508015612f93578a604001517f00000000000000000000000000000000000000000000000000000000000000008c600001517f2a945137b011d4aadec6425788c652197d107fc33f6cdccbb0c269273be9c1c98a8f608001518b8b604051612f7e9493929190614b37565b60405180910390a45050505050505050505050565b8896505050505b6003546001600160a01b0385811691161415612fd557600354612fc6906001600160a01b031683613138565b612fd0838361324e565b613060565b612fde84610762565b8015612fe957508051155b15613055576040516340c10f1960e01b81526001600160a01b038481166004830152602482018490528516906340c10f1990604401600060405180830381600087803b15801561303857600080fd5b505af115801561304c573d6000803e3d6000fd5b50505050613060565b613060848484613317565b87604001517f000000000000000000000000000000000000000000000000000000000000000089600001517f2a945137b011d4aadec6425788c652197d107fc33f6cdccbb0c269273be9c1c9878c6080015188886040516130c49493929190614b37565b60405180910390a45050505050505050565b60015462010000900460ff16156130ff5760405162461bcd60e51b81526004016106ed90614d8c565b6001805462ff00001916620100001790557f62e78cea01bee320cd4e420270b5ea74000d11b0c9f74754ebdbfc544b05a2586125383390565b600080836001600160a01b0316632e1a7d4d8460405160240161315d91815260200190565b6040516020818303038152906040529060e01b6020820180516001600160e01b0383818316178352505050506040516131969190614b1b565b6000604051808303816000865af19150503d80600081146131d3576040519150601f19603f3d011682016040523d82523d6000602084013e6131d8565b606091505b5091509150818015613202575080511580613202575080806020019051810190613202919061479f565b6120085760405162461bcd60e51b815260206004820152601f60248201527f5472616e7366657248656c7065723a2057495448445241575f4641494c45440060448201526064016106ed565b604080516000808252602082019092526001600160a01b0384169083906040516132789190614b1b565b60006040518083038185875af1925050503d80600081146132b5576040519150601f19603f3d011682016040523d82523d6000602084013e6132ba565b606091505b5050905080610e1a5760405162461bcd60e51b815260206004820152602360248201527f5472616e7366657248656c7065723a204554485f5452414e534645525f46414960448201526213115160ea1b60648201526084016106ed565b604080516001600160a01b038481166024830152604480830185905283518084039091018152606490920183526020820180516001600160e01b031663a9059cbb60e01b17905291516000928392908716916133739190614b1b565b6000604051808303816000865af19150503d80600081146133b0576040519150601f19603f3d011682016040523d82523d6000602084013e6133b5565b606091505b50915091508180156133df5750805115806133df5750808060200190518101906133df919061479f565b61245f5760405162461bcd60e51b815260206004820152601f60248201527f5472616e7366657248656c7065723a205452414e534645525f4641494c45440060448201526064016106ed565b803b61348f5760405162461bcd60e51b815260206004820152602d60248201527f455243313936373a206e657720696d706c656d656e746174696f6e206973206e60448201526c1bdd08184818dbdb9d1c9858dd609a1b60648201526084016106ed565b807f360894a13ba1a3210667c828492db98dca3e2076cc3735a920a3ca505d382bbc5b80546001600160a01b0319166001600160a01b039290921691909117905550565b6060612270838360405180606001604052806027815260200161522160279139613cb9565b6135018161342b565b6040516001600160a01b038216907fbc7cd75a20ee27fd9adebab32041f755214dbc6bffa90cc0225b39da2e5c2d3b90600090a250565b6001600160a01b03811661359d5760405162461bcd60e51b815260206004820152602660248201527f455243313936373a206e65772061646d696e20697320746865207a65726f206160448201526564647265737360d01b60648201526084016106ed565b807fb53127684a568b3173ae13b9f8a6016e243e63b6e8ee1178d6a717850b5d61036134b2565b60606135cf82613d8d565b61360a5760405162461bcd60e51b815260206004820152600c60248201526b1a5cc81b1a5cdd0819985a5b60a21b60448201526064016106ed565b600061361583613dc6565b90506000816001600160401b03811115613631576136316151a0565b60405190808252806020026020018201604052801561367657816020015b604080518082019091526000808252602082015281526020019060019003908161364f5790505b50905060006136888560200151613e49565b85602001516136979190614ff0565b90506000805b84811015613700576136ae83613ec4565b91506040518060400160405280838152602001848152508482815181106136d7576136d761518a565b60209081029190910101526136ec8284614ff0565b9250806136f881615159565b91505061369d565b509195945050505050565b805160609061374f5760405162461bcd60e51b815260206004820152601060248201526f6974656d206c656e206973207a65726f60801b60448201526064016106ed565b60008061375b84613f6d565b915091506000816001600160401b03811115613779576137796151a0565b6040519080825280601f01601f1916602001820160405280156137a3576020820181803683370190505b509050602081016137b5848285613fb4565b50949350505050565b80516000906015146138075760405162461bcd60e51b81526020600482015260126024820152716974656d206c656e206973206e6f7420323160701b60448201526064016106ed565b6107a782614033565b6000805b825181101561385a5782818151811061382f5761382f61518a565b602002602001015160000151826138469190614ff0565b91508061385281615159565b915050613814565b50919050565b6138686140f4565b815180516000906001600160401b03811115613886576138866151a0565b6040519080825280602002602001820160405280156138af578160200160208202803683370190505b509050600082516001600160401b038111156138cd576138cd6151a0565b60405190808252806020026020018201604052801561390057816020015b60608152602001906001900390816138eb5790505b509050600083516001600160401b0381111561391e5761391e6151a0565b604051908082528060200260200182016040528015613947578160200160208202803683370190505b50905087891061398e5761395b888a6150f3565b8460008151811061396e5761396e61518a565b60200260200101516000018181516139869190614ff0565b9052506139c7565b61399889896150f3565b846000815181106139ab576139ab61518a565b60200260200101516000018181516139c391906150f3565b9052505b60005b8451811015613b37578481815181106139e5576139e561518a565b602002602001015160000151848281518110613a0357613a0361518a565b602002602001018181525050848181518110613a2157613a2161518a565b602002602001015160600151828281518110613a3f57613a3f61518a565b602002602001019063ffffffff16908163ffffffff1681525050838181518110613a6b57613a6b61518a565b6020026020010151858281518110613a8557613a8561518a565b602002602001015160200151868381518110613aa357613aa361518a565b602002602001015160400151806020019051810190613ac291906145b8565b60148b0151613ad2426064614ff0565b8f613ae28d602001516014015190565b604051602001613af89796959493929190614eb8565b604051602081830303815290604052838281518110613b1957613b1961518a565b60200260200101819052508080613b2f90615159565b9150506139ca565b506000604051806080016040528085815260200184815260200183815260200160405180604001604052808e6001600160a01b03166001600160a01b03168152602001613b898b602001516014015190565b6001600160a01b0316905290529b9a5050505050505050505050565b604080516001600160a01b038481166024830152604480830185905283518084039091018152606490920183526020820180516001600160e01b031663095ea7b360e01b1790529151600092839290871691613c019190614b1b565b6000604051808303816000865af19150503d8060008114613c3e576040519150601f19603f3d011682016040523d82523d6000602084013e613c43565b606091505b5091509150818015613c6d575080511580613c6d575080806020019051810190613c6d919061479f565b61245f5760405162461bcd60e51b815260206004820152601e60248201527f5472616e7366657248656c7065723a20415050524f56455f4641494c4544000060448201526064016106ed565b6060833b613d185760405162461bcd60e51b815260206004820152602660248201527f416464726573733a2064656c65676174652063616c6c20746f206e6f6e2d636f6044820152651b9d1c9858dd60d21b60648201526084016106ed565b600080856001600160a01b031685604051613d339190614b1b565b600060405180830381855af49150503d8060008114613d6e576040519150601f19603f3d011682016040523d82523d6000602084013e613d73565b606091505b5091509150613d838282866140bb565b9695505050505050565b8051600090613d9e57506000919050565b6020820151805160001a9060c0821015613dbc575060009392505050565b5060019392505050565b8051600090613dd757506000919050565b600080613de78460200151613e49565b8460200151613df69190614ff0565b9050600084600001518560200151613e0e9190614ff0565b90505b80821015613e4057613e2282613ec4565b613e2c9083614ff0565b915082613e3881615159565b935050613e11565b50909392505050565b8051600090811a6080811015613e625750600092915050565b60b8811080613e7d575060c08110801590613e7d575060f881105b15613e8b5750600192915050565b60c0811015613eb857613ea0600160b861510a565b613ead9060ff16826150f3565b612270906001614ff0565b613ea0600160f861510a565b80516000908190811a6080811015613edf5760019150613f66565b60b8811015613f0557613ef36080826150f3565b613efe906001614ff0565b9150613f66565b60c0811015613f325760b78103600185019450806020036101000a85510460018201810193505050613f66565b60f8811015613f4657613ef360c0826150f3565b60f78103600185019450806020036101000a855104600182018101935050505b5092915050565b6000806000613f7f8460200151613e49565b90506000818560200151613f939190614ff0565b90506000828660000151613fa791906150f3565b9196919550909350505050565b80613fbe57505050565b60208110613ff65782518252613fd5602084614ff0565b9250613fe2602083614ff0565b9150613fef6020826150f3565b9050613fbe565b8015610e1a576000600161400b8360206150f3565b6140179061010061504b565b61402191906150f3565b84518451821691191617835250505050565b80516000901580159061404857508151602110155b61408b5760405162461bcd60e51b81526020600482015260146024820152731a5d195b481b195b881a5cc81b9bdd081d5a5b9d60621b60448201526064016106ed565b60008061409784613f6d565b8151919350915060208210156140b35760208290036101000a90045b949350505050565b606083156140ca575081612270565b8251156140da5782518084602001fd5b8160405162461bcd60e51b81526004016106ed9190614c8a565b604051806080016040528060608152602001606081526020016060815260200161411c614121565b905290565b60405180604001604052806002906020820280368337509192915050565b600061415261414d84614fc9565b614f76565b905082815283838301111561416657600080fd5b61227083602083018461512d565b805161417f816151b6565b919050565b60008083601f84011261419657600080fd5b5081356001600160401b038111156141ad57600080fd5b6020830191508360208285010111156141c557600080fd5b9250929050565b600082601f8301126141dd57600080fd5b81356141eb61414d82614fc9565b81815284602083860101111561420057600080fd5b816020850160208301376000918101602001919091529392505050565b600082601f83011261422e57600080fd5b6122708383516020850161413f565b60006020828403121561424f57600080fd5b8135612270816151b6565b6000806040838503121561426d57600080fd5b8235614278816151b6565b91506020830135614288816151b6565b809150509250929050565b6000806000606084860312156142a857600080fd5b83356142b3816151b6565b925060208401356142c3816151b6565b929592945050506040919091013590565b600080600080600080600060c0888a0312156142ef57600080fd5b87356142fa816151b6565b9650602088013561430a816151b6565b955060408801356001600160401b038082111561432657600080fd5b6143328b838c016141cc565b965060608a0135955060808a0135945060a08a013591508082111561435657600080fd5b506143638a828b01614184565b989b979a50959850939692959293505050565b6000806040838503121561438957600080fd5b8235614394816151b6565b915060208301356001600160401b038111156143af57600080fd5b6143bb858286016141cc565b9150509250929050565b6000806000806000608086880312156143dd57600080fd5b85356143e8816151b6565b945060208601356001600160401b038082111561440457600080fd5b61441089838a016141cc565b955060408801359450606088013591508082111561442d57600080fd5b5061443a88828901614184565b969995985093965092949392505050565b6000806000806080858703121561446157600080fd5b843561446c816151b6565b935060208501356001600160401b0381111561448757600080fd5b614493878288016141cc565b949794965050505060408301359260600135919050565b600080604083850312156144bd57600080fd5b82356144c8816151b6565b946020939093013593505050565b6000806000606084860312156144eb57600080fd5b83356144f6816151b6565b925060208401359150604084013561450d816151cb565b809150509250925092565b6000602080838503121561452b57600080fd5b82356001600160401b0381111561454157600080fd5b8301601f8101851361455257600080fd5b803561456061414d82614fa6565b80828252848201915084840188868560051b870101111561458057600080fd5b600094505b838510156145ac578035614598816151b6565b835260019490940193918501918501614585565b50979650505050505050565b600060208083850312156145cb57600080fd5b82516001600160401b038111156145e157600080fd5b8301601f810185136145f257600080fd5b805161460061414d82614fa6565b80828252848201915084840188868560051b870101111561462057600080fd5b600094505b838510156145ac578051614638816151b6565b835260019490940193918501918501614625565b60008060006060848603121561466157600080fd5b83516001600160401b038082111561467857600080fd5b818601915086601f83011261468c57600080fd5b815161469a61414d82614fa6565b80828252602082019150602085018a60208560051b88010111156146bd57600080fd5b60005b8481101561475f578151868111156146d757600080fd5b87016080818e03601f190112156146ed57600080fd5b6146f5614f4e565b602082015181526040820151602082015260608201518881111561471857600080fd5b6147278f60208386010161421d565b60408301525060808201519150878216821461474257600080fd5b6060810191909152845260209384019391909101906001016146c0565b50506020890151909750935050508082111561477a57600080fd5b506147878682870161421d565b92505061479660408501614174565b90509250925092565b6000602082840312156147b157600080fd5b8151612270816151cb565b6000806000606084860312156147d157600080fd5b83516147dc816151cb565b60208501519093506001600160401b03808211156147f957600080fd5b818601915086601f83011261480d57600080fd5b61481c8783516020850161413f565b9350604086015191508082111561483257600080fd5b5061483f8682870161421d565b9150509250925092565b60006020828403121561485b57600080fd5b5035919050565b60006020828403121561487457600080fd5b5051919050565b60008060008060008060c0878903121561489457600080fd5b8651955060208701516001600160401b03808211156148b257600080fd5b6148be8a838b0161421d565b965060408901519150808211156148d457600080fd5b6148e08a838b0161421d565b955060608901519150808211156148f657600080fd5b6149028a838b0161421d565b94506080890151935060a089015191508082111561491f57600080fd5b5061492c89828a0161421d565b9150509295509295509295565b6000806040838503121561494c57600080fd5b82356001600160401b0381111561496257600080fd5b61496e858286016141cc565b95602094909401359450505050565b6000806040838503121561499057600080fd5b823591506020830135614288816151b6565b600080604083850312156149b557600080fd5b8235915060208301356001600160401b038111156143af57600080fd5b8060005b60028110156120085781516001600160a01b03168452602093840193909101906001016149d6565b600081518084526020808501808196508360051b8101915082860160005b85811015614a46578284038952614a34848351614a94565b98850198935090840190600101614a1c565b5091979650505050505050565b600081518084526020808501945080840160005b83811015614a8957815163ffffffff1687529582019590820190600101614a67565b509495945050505050565b60008151808452614aac81602086016020860161512d565b601f01601f19169290920160200192915050565b60006bffffffffffffffffffffffff19808960601b168352876014840152866034840152856054840152808560601b166074840152508251614b0981608885016020870161512d565b91909101608801979650505050505050565b60008251614b2d81846020870161512d565b9190910192915050565b600060018060a01b03808716835260806020840152614b596080840187614a94565b94166040830152506060015292915050565b858152600060018060a01b03808716602084015260a06040840152614b9360a0840187614a94565b9416606083015250608001529392505050565b87815260c060208201526000614bbf60c0830189614a94565b8281036040840152614bd18189614a94565b90508281036060840152614be58188614a94565b905085608084015282810360a0840152838152838560208301376000602085830101526020601f19601f86011682010191505098975050505050505050565b86815260c060208201526000614c3d60c0830188614a94565b8281036040840152614c4f8188614a94565b90508281036060840152614c638187614a94565b905084608084015282810360a0840152614c7d8185614a94565b9998505050505050505050565b6020815260006122706020830184614a94565b6020808252602c908201527f46756e6374696f6e206d7573742062652063616c6c6564207468726f7567682060408201526b19195b1959d85d1958d85b1b60a21b606082015260800190565b6020808252601490820152731d1bdad95b881b9bdd081c9959da5cdd195c995960621b604082015260600190565b6020808252602c908201527f46756e6374696f6e206d7573742062652063616c6c6564207468726f7567682060408201526b6163746976652070726f787960a01b606082015260800190565b6020808252600f908201526e61646472657373206973207a65726f60881b604082015260600190565b60208082526010908201526f14185d5cd8589b194e881c185d5cd95960821b604082015260600190565b60208082526011908201527036b7b9901d1d1037b7363c9030b236b4b760791b604082015260600190565b6020808252601f908201527f5265656e7472616e637947756172643a207265656e7472616e742063616c6c00604082015260600190565b6020808252825160a083830152805160c0840181905260009291820190839060e08601905b80831015614e5d5783518252928401926001929092019190840190614e3d565b50838701519350601f19925082868203016040870152614e7d81856149fe565b93505050604085015181858403016060860152614e9a8382614a53565b925050506060840151614eb060808501826149d2565b509392505050565b600060e082018983526020898185015260e0604085015281895180845261010086019150828b01935060005b81811015614f095784516001600160a01b031683529383019391830191600101614ee4565b50506001600160a01b03898116606087015260808601899052871660a08601529250614f33915050565b6001600160a01b03831660c083015298975050505050505050565b604051608081016001600160401b0381118282101715614f7057614f706151a0565b60405290565b604051601f8201601f191681016001600160401b0381118282101715614f9e57614f9e6151a0565b604052919050565b60006001600160401b03821115614fbf57614fbf6151a0565b5060051b60200190565b60006001600160401b03821115614fe257614fe26151a0565b50601f01601f191660200190565b6000821982111561500357615003615174565b500190565b600181815b8085111561504357816000190482111561502957615029615174565b8085161561503657918102915b93841c939080029061500d565b509250929050565b60006122708383600082615061575060016107a7565b8161506e575060006107a7565b8160018114615084576002811461508e576150aa565b60019150506107a7565b60ff84111561509f5761509f615174565b50506001821b6107a7565b5060208310610133831016604e8410600b84101617156150cd575081810a6107a7565b6150d78383615008565b80600019048211156150eb576150eb615174565b029392505050565b60008282101561510557615105615174565b500390565b600060ff821660ff84168082101561512457615124615174565b90039392505050565b60005b83811015615148578181015183820152602001615130565b838111156120085750506000910152565b600060001982141561516d5761516d615174565b5060010190565b634e487b7160e01b600052601160045260246000fd5b634e487b7160e01b600052603260045260246000fd5b634e487b7160e01b600052604160045260246000fd5b6001600160a01b0381168114610a1b57600080fd5b8015158114610a1b57600080fdfe6d61705472616e736665724f75742875696e743235362c75696e743235362c627974657333322c62797465732c62797465732c62797465732c75696e743235362c627974657329416464726573733a206c6f772d6c6576656c2064656c65676174652063616c6c206661696c65646d6170537761704f75742875696e743235362c75696e743235362c627974657333322c62797465732c62797465732c62797465732c75696e743235362c627974657329a2646970667358221220e95905155dd0a33af7e397bc89cb32e3272bca0d81725b361814750bac4d87c264736f6c63430008070033",
	"linkReferences": {},
	"deployedLinkReferences": {}
}