{
	"_format": "hh-sol-artifact-1",
	"contractName": "TokenRegister",
	"sourceName": "contracts/TokenRegister.sol",
	"abi": [
		{
			"inputs": [],
			"stateMutability": "nonpayable",
			"type": "constructor"
		},
		{
			"anonymous": false,
			"inputs": [
				{
					"indexed": true,
					"internalType": "address",
					"name": "previousOwner",
					"type": "address"
				},
				{
					"indexed": true,
					"internalType": "address",
					"name": "newOwner",
					"type": "address"
				}
			],
			"name": "OwnershipTransferred",
			"type": "event"
		},
		{
			"inputs": [],
			"name": "chainID",
			"outputs": [
				{
					"internalType": "uint256",
					"name": "",
					"type": "uint256"
				}
			],
			"stateMutability": "view",
			"type": "function"
		},
		{
			"inputs": [
				{
					"internalType": "uint256",
					"name": "sourceChain",
					"type": "uint256"
				},
				{
					"internalType": "bytes",
					"name": "sourceToken",
					"type": "bytes"
				},
				{
					"internalType": "uint256",
					"name": "targetChain",
					"type": "uint256"
				}
			],
			"name": "getTargetToken",
			"outputs": [
				{
					"internalType": "bytes",
					"name": "mapToken",
					"type": "bytes"
				}
			],
			"stateMutability": "view",
			"type": "function"
		},
		{
			"inputs": [
				{
					"internalType": "uint256",
					"name": "",
					"type": "uint256"
				},
				{
					"internalType": "bytes",
					"name": "",
					"type": "bytes"
				}
			],
			"name": "mapCorrespond",
			"outputs": [
				{
					"internalType": "bytes",
					"name": "",
					"type": "bytes"
				}
			],
			"stateMutability": "view",
			"type": "function"
		},
		{
			"inputs": [],
			"name": "owner",
			"outputs": [
				{
					"internalType": "address",
					"name": "",
					"type": "address"
				}
			],
			"stateMutability": "view",
			"type": "function"
		},
		{
			"inputs": [
				{
					"internalType": "uint256",
					"name": "sourceChain",
					"type": "uint256"
				},
				{
					"internalType": "bytes",
					"name": "sourceMapToken",
					"type": "bytes"
				},
				{
					"internalType": "bytes",
					"name": "mapToken",
					"type": "bytes"
				}
			],
			"name": "regToken",
			"outputs": [],
			"stateMutability": "nonpayable",
			"type": "function"
		},
		{
			"inputs": [
				{
					"internalType": "bytes",
					"name": "sourceToken",
					"type": "bytes"
				},
				{
					"internalType": "bytes",
					"name": "sourceMapToken",
					"type": "bytes"
				}
			],
			"name": "regTokenSource",
			"outputs": [],
			"stateMutability": "nonpayable",
			"type": "function"
		},
		{
			"inputs": [],
			"name": "renounceOwnership",
			"outputs": [],
			"stateMutability": "nonpayable",
			"type": "function"
		},
		{
			"inputs": [
				{
					"internalType": "uint256",
					"name": "",
					"type": "uint256"
				},
				{
					"internalType": "bytes",
					"name": "",
					"type": "bytes"
				}
			],
			"name": "sourceBinding",
			"outputs": [
				{
					"internalType": "bytes",
					"name": "",
					"type": "bytes"
				}
			],
			"stateMutability": "view",
			"type": "function"
		},
		{
			"inputs": [
				{
					"internalType": "uint256",
					"name": "",
					"type": "uint256"
				},
				{
					"internalType": "bytes",
					"name": "",
					"type": "bytes"
				}
			],
			"name": "sourceCorrespond",
			"outputs": [
				{
					"internalType": "bytes",
					"name": "",
					"type": "bytes"
				}
			],
			"stateMutability": "view",
			"type": "function"
		},
		{
			"inputs": [
				{
					"internalType": "address",
					"name": "newOwner",
					"type": "address"
				}
			],
			"name": "transferOwnership",
			"outputs": [],
			"stateMutability": "nonpayable",
			"type": "function"
		}
	],
	"bytecode": "0x60a06040524660805234801561001457600080fd5b5061001e33610023565b610073565b600080546001600160a01b038381166001600160a01b0319831681178455604051919092169283917f8be0079c531659141344cd1fd0a4f28419497f9722a3daafe3b4186f6b6457e09190a35050565b608051610b546100a3600039600081816101420152818161033b015281816103d501526104b80152610b546000f3fe608060405234801561001057600080fd5b506004361061009e5760003560e01c806393be83991161006657806393be839914610117578063a2a7b8211461012a578063adc879e91461013d578063c0b5dc6714610172578063f2fde38b1461018557600080fd5b80633a3da3b2146100a35780634bbf7e2d146100cc578063715018a6146100e1578063757aaad2146100e95780638da5cb5b146100fc575b600080fd5b6100b66100b13660046108bc565b610198565b6040516100c39190610a6e565b60405180910390f35b6100df6100da3660046108f9565b61024e565b005b6100df6102e3565b6100b66100f73660046108bc565b6102f7565b6000546040516001600160a01b0390911681526020016100c3565b6100df610125366004610858565b61032c565b6100b66101383660046108bc565b61039c565b6101647f000000000000000000000000000000000000000000000000000000000000000081565b6040519081526020016100c3565b6100b6610180366004610966565b6103d1565b6100df61019336600461082f565b6105e1565b60026020908152600092835260409092208151808301840180519281529084019290930191909120915280546101cd90610acd565b80601f01602080910402602001604051908101604052809291908181526020018280546101f990610acd565b80156102465780601f1061021b57610100808354040283529160200191610246565b820191906000526020600020905b81548152906001019060200180831161022957829003601f168201915b505050505081565b61025661065f565b80600160008581526020019081526020016000208360405161027891906109b6565b90815260200160405180910390209080519060200190610299929190610709565b508160026000858152602001908152602001600020826040516102bc91906109b6565b908152602001604051809103902090805190602001906102dd929190610709565b50505050565b6102eb61065f565b6102f560006106b9565b565b60016020908152600092835260409092208151808301840180519281529084019290930191909120915280546101cd90610acd565b61033461065f565b81600360007f000000000000000000000000000000000000000000000000000000000000000081526020019081526020016000208260405161037691906109b6565b90815260200160405180910390209080519060200190610397929190610709565b505050565b60036020908152600092835260409092208151808301840180519281529084019290930191909120915280546101cd90610acd565b60607f00000000000000000000000000000000000000000000000000000000000000008214156104b6576000848152600160205260409081902090516104189085906109b6565b9081526020016040518091039020805461043190610acd565b80601f016020809104026020016040519081016040528092919081815260200182805461045d90610acd565b80156104aa5780601f1061047f576101008083540402835291602001916104aa565b820191906000526020600020905b81548152906001019060200180831161048d57829003601f168201915b505050505090506105da565b7f00000000000000000000000000000000000000000000000000000000000000008414156104fb576000828152600260205260409081902090516104189085906109b6565b600082815260026020908152604080832087845260019092529182902091519091906105289086906109b6565b908152604051908190036020018120610540916109d2565b9081526020016040518091039020805461055990610acd565b80601f016020809104026020016040519081016040528092919081815260200182805461058590610acd565b80156105d25780601f106105a7576101008083540402835291602001916105d2565b820191906000526020600020905b8154815290600101906020018083116105b557829003601f168201915b505050505090505b9392505050565b6105e961065f565b6001600160a01b0381166106535760405162461bcd60e51b815260206004820152602660248201527f4f776e61626c653a206e6577206f776e657220697320746865207a65726f206160448201526564647265737360d01b60648201526084015b60405180910390fd5b61065c816106b9565b50565b6000546001600160a01b031633146102f55760405162461bcd60e51b815260206004820181905260248201527f4f776e61626c653a2063616c6c6572206973206e6f7420746865206f776e6572604482015260640161064a565b600080546001600160a01b038381166001600160a01b0319831681178455604051919092169283917f8be0079c531659141344cd1fd0a4f28419497f9722a3daafe3b4186f6b6457e09190a35050565b82805461071590610acd565b90600052602060002090601f016020900481019282610737576000855561077d565b82601f1061075057805160ff191683800117855561077d565b8280016001018555821561077d579182015b8281111561077d578251825591602001919060010190610762565b5061078992915061078d565b5090565b5b80821115610789576000815560010161078e565b600082601f8301126107b357600080fd5b813567ffffffffffffffff808211156107ce576107ce610b08565b604051601f8301601f19908116603f011681019082821181831017156107f6576107f6610b08565b8160405283815286602085880101111561080f57600080fd5b836020870160208301376000602085830101528094505050505092915050565b60006020828403121561084157600080fd5b81356001600160a01b03811681146105da57600080fd5b6000806040838503121561086b57600080fd5b823567ffffffffffffffff8082111561088357600080fd5b61088f868387016107a2565b935060208501359150808211156108a557600080fd5b506108b2858286016107a2565b9150509250929050565b600080604083850312156108cf57600080fd5b82359150602083013567ffffffffffffffff8111156108ed57600080fd5b6108b2858286016107a2565b60008060006060848603121561090e57600080fd5b83359250602084013567ffffffffffffffff8082111561092d57600080fd5b610939878388016107a2565b9350604086013591508082111561094f57600080fd5b5061095c868287016107a2565b9150509250925092565b60008060006060848603121561097b57600080fd5b83359250602084013567ffffffffffffffff81111561099957600080fd5b6109a5868287016107a2565b925050604084013590509250925092565b600082516109c8818460208701610aa1565b9190910192915050565b600080835481600182811c9150808316806109ee57607f831692505b6020808410821415610a0e57634e487b7160e01b86526022600452602486fd5b818015610a225760018114610a3357610a60565b60ff19861689528489019650610a60565b60008a81526020902060005b86811015610a585781548b820152908501908301610a3f565b505084890196505b509498975050505050505050565b6020815260008251806020840152610a8d816040850160208701610aa1565b601f01601f19169190910160400192915050565b60005b83811015610abc578181015183820152602001610aa4565b838111156102dd5750506000910152565b600181811c90821680610ae157607f821691505b60208210811415610b0257634e487b7160e01b600052602260045260246000fd5b50919050565b634e487b7160e01b600052604160045260246000fdfea2646970667358221220e004f12d192c291d79d6c50662d9161200a4e4d2e2216b13d24b4569547b780264736f6c63430008070033",
	"linkReferences": {},
	"deployedLinkReferences": {}
}